{
  "contractName": "DaiMatic",
  "abi": [
    {
      "anonymous": false,
      "inputs": [
        {
          "indexed": true,
          "internalType": "address",
          "name": "owner",
          "type": "address"
        },
        {
          "indexed": true,
          "internalType": "address",
          "name": "spender",
          "type": "address"
        },
        {
          "indexed": false,
          "internalType": "uint256",
          "name": "value",
          "type": "uint256"
        }
      ],
      "name": "Approval",
      "type": "event"
    },
    {
      "anonymous": false,
      "inputs": [
        {
          "indexed": false,
          "internalType": "address",
          "name": "userAddress",
          "type": "address"
        },
        {
          "indexed": false,
          "internalType": "address payable",
          "name": "relayerAddress",
          "type": "address"
        },
        {
          "indexed": false,
          "internalType": "bytes",
          "name": "functionSignature",
          "type": "bytes"
        }
      ],
      "name": "MetaTransactionExecuted",
      "type": "event"
    },
    {
      "anonymous": false,
      "inputs": [
        {
          "indexed": true,
          "internalType": "bytes32",
          "name": "role",
          "type": "bytes32"
        },
        {
          "indexed": true,
          "internalType": "address",
          "name": "account",
          "type": "address"
        },
        {
          "indexed": true,
          "internalType": "address",
          "name": "sender",
          "type": "address"
        }
      ],
      "name": "RoleGranted",
      "type": "event"
    },
    {
      "anonymous": false,
      "inputs": [
        {
          "indexed": true,
          "internalType": "bytes32",
          "name": "role",
          "type": "bytes32"
        },
        {
          "indexed": true,
          "internalType": "address",
          "name": "account",
          "type": "address"
        },
        {
          "indexed": true,
          "internalType": "address",
          "name": "sender",
          "type": "address"
        }
      ],
      "name": "RoleRevoked",
      "type": "event"
    },
    {
      "anonymous": false,
      "inputs": [
        {
          "indexed": true,
          "internalType": "address",
          "name": "from",
          "type": "address"
        },
        {
          "indexed": true,
          "internalType": "address",
          "name": "to",
          "type": "address"
        },
        {
          "indexed": false,
          "internalType": "uint256",
          "name": "value",
          "type": "uint256"
        }
      ],
      "name": "Transfer",
      "type": "event"
    },
    {
      "inputs": [],
      "name": "DEFAULT_ADMIN_ROLE",
      "outputs": [
        {
          "internalType": "bytes32",
          "name": "",
          "type": "bytes32"
        }
      ],
      "stateMutability": "view",
      "type": "function",
      "constant": true
    },
    {
      "inputs": [],
      "name": "DEPOSITOR_ROLE",
      "outputs": [
        {
          "internalType": "bytes32",
          "name": "",
          "type": "bytes32"
        }
      ],
      "stateMutability": "view",
      "type": "function",
      "constant": true
    },
    {
      "inputs": [],
      "name": "ERC712_VERSION",
      "outputs": [
        {
          "internalType": "string",
          "name": "",
          "type": "string"
        }
      ],
      "stateMutability": "view",
      "type": "function",
      "constant": true
    },
    {
      "inputs": [],
      "name": "PERMIT_TYPEHASH",
      "outputs": [
        {
          "internalType": "bytes32",
          "name": "",
          "type": "bytes32"
        }
      ],
      "stateMutability": "view",
      "type": "function",
      "constant": true
    },
    {
      "inputs": [
        {
          "internalType": "address",
          "name": "owner",
          "type": "address"
        },
        {
          "internalType": "address",
          "name": "spender",
          "type": "address"
        }
      ],
      "name": "allowance",
      "outputs": [
        {
          "internalType": "uint256",
          "name": "",
          "type": "uint256"
        }
      ],
      "stateMutability": "view",
      "type": "function",
      "constant": true
    },
    {
      "inputs": [
        {
          "internalType": "address",
          "name": "spender",
          "type": "address"
        },
        {
          "internalType": "uint256",
          "name": "amount",
          "type": "uint256"
        }
      ],
      "name": "approve",
      "outputs": [
        {
          "internalType": "bool",
          "name": "",
          "type": "bool"
        }
      ],
      "stateMutability": "nonpayable",
      "type": "function"
    },
    {
      "inputs": [
        {
          "internalType": "address",
          "name": "account",
          "type": "address"
        }
      ],
      "name": "balanceOf",
      "outputs": [
        {
          "internalType": "uint256",
          "name": "",
          "type": "uint256"
        }
      ],
      "stateMutability": "view",
      "type": "function",
      "constant": true
    },
    {
      "inputs": [
        {
          "internalType": "string",
          "name": "name_",
          "type": "string"
        }
      ],
      "name": "changeName",
      "outputs": [],
      "stateMutability": "nonpayable",
      "type": "function"
    },
    {
      "inputs": [],
      "name": "decimals",
      "outputs": [
        {
          "internalType": "uint8",
          "name": "",
          "type": "uint8"
        }
      ],
      "stateMutability": "view",
      "type": "function",
      "constant": true
    },
    {
      "inputs": [
        {
          "internalType": "address",
          "name": "spender",
          "type": "address"
        },
        {
          "internalType": "uint256",
          "name": "subtractedValue",
          "type": "uint256"
        }
      ],
      "name": "decreaseAllowance",
      "outputs": [
        {
          "internalType": "bool",
          "name": "",
          "type": "bool"
        }
      ],
      "stateMutability": "nonpayable",
      "type": "function"
    },
    {
      "inputs": [
        {
          "internalType": "address",
          "name": "user",
          "type": "address"
        },
        {
          "internalType": "bytes",
          "name": "depositData",
          "type": "bytes"
        }
      ],
      "name": "deposit",
      "outputs": [],
      "stateMutability": "nonpayable",
      "type": "function"
    },
    {
      "inputs": [
        {
          "internalType": "address",
          "name": "userAddress",
          "type": "address"
        },
        {
          "internalType": "bytes",
          "name": "functionSignature",
          "type": "bytes"
        },
        {
          "internalType": "bytes32",
          "name": "sigR",
          "type": "bytes32"
        },
        {
          "internalType": "bytes32",
          "name": "sigS",
          "type": "bytes32"
        },
        {
          "internalType": "uint8",
          "name": "sigV",
          "type": "uint8"
        }
      ],
      "name": "executeMetaTransaction",
      "outputs": [
        {
          "internalType": "bytes",
          "name": "",
          "type": "bytes"
        }
      ],
      "stateMutability": "payable",
      "type": "function",
      "payable": true
    },
    {
      "inputs": [],
      "name": "getChainId",
      "outputs": [
        {
          "internalType": "uint256",
          "name": "",
          "type": "uint256"
        }
      ],
      "stateMutability": "pure",
      "type": "function",
      "constant": true
    },
    {
      "inputs": [],
      "name": "getDomainSeperator",
      "outputs": [
        {
          "internalType": "bytes32",
          "name": "",
          "type": "bytes32"
        }
      ],
      "stateMutability": "view",
      "type": "function",
      "constant": true
    },
    {
      "inputs": [
        {
          "internalType": "address",
          "name": "user",
          "type": "address"
        }
      ],
      "name": "getNonce",
      "outputs": [
        {
          "internalType": "uint256",
          "name": "nonce",
          "type": "uint256"
        }
      ],
      "stateMutability": "view",
      "type": "function",
      "constant": true
    },
    {
      "inputs": [
        {
          "internalType": "bytes32",
          "name": "role",
          "type": "bytes32"
        }
      ],
      "name": "getRoleAdmin",
      "outputs": [
        {
          "internalType": "bytes32",
          "name": "",
          "type": "bytes32"
        }
      ],
      "stateMutability": "view",
      "type": "function",
      "constant": true
    },
    {
      "inputs": [
        {
          "internalType": "bytes32",
          "name": "role",
          "type": "bytes32"
        },
        {
          "internalType": "uint256",
          "name": "index",
          "type": "uint256"
        }
      ],
      "name": "getRoleMember",
      "outputs": [
        {
          "internalType": "address",
          "name": "",
          "type": "address"
        }
      ],
      "stateMutability": "view",
      "type": "function",
      "constant": true
    },
    {
      "inputs": [
        {
          "internalType": "bytes32",
          "name": "role",
          "type": "bytes32"
        }
      ],
      "name": "getRoleMemberCount",
      "outputs": [
        {
          "internalType": "uint256",
          "name": "",
          "type": "uint256"
        }
      ],
      "stateMutability": "view",
      "type": "function",
      "constant": true
    },
    {
      "inputs": [
        {
          "internalType": "bytes32",
          "name": "role",
          "type": "bytes32"
        },
        {
          "internalType": "address",
          "name": "account",
          "type": "address"
        }
      ],
      "name": "grantRole",
      "outputs": [],
      "stateMutability": "nonpayable",
      "type": "function"
    },
    {
      "inputs": [
        {
          "internalType": "bytes32",
          "name": "role",
          "type": "bytes32"
        },
        {
          "internalType": "address",
          "name": "account",
          "type": "address"
        }
      ],
      "name": "hasRole",
      "outputs": [
        {
          "internalType": "bool",
          "name": "",
          "type": "bool"
        }
      ],
      "stateMutability": "view",
      "type": "function",
      "constant": true
    },
    {
      "inputs": [
        {
          "internalType": "address",
          "name": "spender",
          "type": "address"
        },
        {
          "internalType": "uint256",
          "name": "addedValue",
          "type": "uint256"
        }
      ],
      "name": "increaseAllowance",
      "outputs": [
        {
          "internalType": "bool",
          "name": "",
          "type": "bool"
        }
      ],
      "stateMutability": "nonpayable",
      "type": "function"
    },
    {
      "inputs": [
        {
          "internalType": "string",
          "name": "name_",
          "type": "string"
        },
        {
          "internalType": "string",
          "name": "symbol_",
          "type": "string"
        },
        {
          "internalType": "uint8",
          "name": "decimals_",
          "type": "uint8"
        },
        {
          "internalType": "address",
          "name": "childChainManager",
          "type": "address"
        }
      ],
      "name": "initialize",
      "outputs": [],
      "stateMutability": "nonpayable",
      "type": "function"
    },
    {
      "inputs": [],
      "name": "name",
      "outputs": [
        {
          "internalType": "string",
          "name": "",
          "type": "string"
        }
      ],
      "stateMutability": "view",
      "type": "function",
      "constant": true
    },
    {
      "inputs": [
        {
          "internalType": "bytes32",
          "name": "role",
          "type": "bytes32"
        },
        {
          "internalType": "address",
          "name": "account",
          "type": "address"
        }
      ],
      "name": "renounceRole",
      "outputs": [],
      "stateMutability": "nonpayable",
      "type": "function"
    },
    {
      "inputs": [
        {
          "internalType": "bytes32",
          "name": "role",
          "type": "bytes32"
        },
        {
          "internalType": "address",
          "name": "account",
          "type": "address"
        }
      ],
      "name": "revokeRole",
      "outputs": [],
      "stateMutability": "nonpayable",
      "type": "function"
    },
    {
      "inputs": [],
      "name": "symbol",
      "outputs": [
        {
          "internalType": "string",
          "name": "",
          "type": "string"
        }
      ],
      "stateMutability": "view",
      "type": "function",
      "constant": true
    },
    {
      "inputs": [],
      "name": "totalSupply",
      "outputs": [
        {
          "internalType": "uint256",
          "name": "",
          "type": "uint256"
        }
      ],
      "stateMutability": "view",
      "type": "function",
      "constant": true
    },
    {
      "inputs": [
        {
          "internalType": "address",
          "name": "recipient",
          "type": "address"
        },
        {
          "internalType": "uint256",
          "name": "amount",
          "type": "uint256"
        }
      ],
      "name": "transfer",
      "outputs": [
        {
          "internalType": "bool",
          "name": "",
          "type": "bool"
        }
      ],
      "stateMutability": "nonpayable",
      "type": "function"
    },
    {
      "inputs": [
        {
          "internalType": "address",
          "name": "sender",
          "type": "address"
        },
        {
          "internalType": "address",
          "name": "recipient",
          "type": "address"
        },
        {
          "internalType": "uint256",
          "name": "amount",
          "type": "uint256"
        }
      ],
      "name": "transferFrom",
      "outputs": [
        {
          "internalType": "bool",
          "name": "",
          "type": "bool"
        }
      ],
      "stateMutability": "nonpayable",
      "type": "function"
    },
    {
      "inputs": [
        {
          "internalType": "uint256",
          "name": "amount",
          "type": "uint256"
        }
      ],
      "name": "withdraw",
      "outputs": [],
      "stateMutability": "nonpayable",
      "type": "function"
    },
    {
      "inputs": [
        {
          "internalType": "address",
          "name": "usr",
          "type": "address"
        },
        {
          "internalType": "uint256",
          "name": "wad",
          "type": "uint256"
        }
      ],
      "name": "push",
      "outputs": [],
      "stateMutability": "nonpayable",
      "type": "function"
    },
    {
      "inputs": [
        {
          "internalType": "address",
          "name": "usr",
          "type": "address"
        },
        {
          "internalType": "uint256",
          "name": "wad",
          "type": "uint256"
        }
      ],
      "name": "pull",
      "outputs": [],
      "stateMutability": "nonpayable",
      "type": "function"
    },
    {
      "inputs": [
        {
          "internalType": "address",
          "name": "src",
          "type": "address"
        },
        {
          "internalType": "address",
          "name": "dst",
          "type": "address"
        },
        {
          "internalType": "uint256",
          "name": "wad",
          "type": "uint256"
        }
      ],
      "name": "move",
      "outputs": [],
      "stateMutability": "nonpayable",
      "type": "function"
    },
    {
      "inputs": [
        {
          "internalType": "address",
          "name": "usr",
          "type": "address"
        },
        {
          "internalType": "uint256",
          "name": "wad",
          "type": "uint256"
        }
      ],
      "name": "mint",
      "outputs": [],
      "stateMutability": "nonpayable",
      "type": "function"
    },
    {
      "inputs": [
        {
          "internalType": "address",
          "name": "holder",
          "type": "address"
        },
        {
          "internalType": "address",
          "name": "spender",
          "type": "address"
        },
        {
          "internalType": "uint256",
          "name": "nonce",
          "type": "uint256"
        },
        {
          "internalType": "uint256",
          "name": "expiry",
          "type": "uint256"
        },
        {
          "internalType": "bool",
          "name": "allowed",
          "type": "bool"
        },
        {
          "internalType": "uint8",
          "name": "v",
          "type": "uint8"
        },
        {
          "internalType": "bytes32",
          "name": "r",
          "type": "bytes32"
        },
        {
          "internalType": "bytes32",
          "name": "s",
          "type": "bytes32"
        }
      ],
      "name": "permit",
      "outputs": [],
      "stateMutability": "nonpayable",
      "type": "function"
    }
  ],
  "bytecode": "0x60806040526008805460ff191690553480156200001b57600080fd5b50604080516020808201808452600080845284519283019094529281528151919290916200004c9160039162000078565b5080516200006290600490602084019062000078565b50506005805460ff191660121790555062000114565b828054600181600116156101000203166002900490600052602060002090601f016020900481019282601f10620000bb57805160ff1916838001178555620000eb565b82800160010185558215620000eb579182015b82811115620000eb578251825591602001919060010190620000ce565b50620000f9929150620000fd565b5090565b5b80821115620000f95760008155600101620000fe565b61298380620001246000396000f3fe6080604052600436106102045760003560e01c80635353a2d811610118578063a9059cbb116100a0578063cf2c52cb1161006f578063cf2c52cb146108e9578063d547741f14610974578063dd62ed3e146109ad578063de7ea79d146109e8578063f2d5d56b14610ac557610204565b8063a9059cbb1461080a578063b753a98c14610843578063bb35783b1461087c578063ca15c873146108bf57610204565b806391d14854116100e757806391d148541461075957806395d89b4114610792578063a217fddf146107a7578063a3b0b5a3146107bc578063a457c2d7146107d157610204565b80635353a2d8146105f857806370a08231146106735780638fcbaf0c146106a65780639010d07c1461070d57610204565b80632d0335ab1161019b578063313ce5671161016a578063313ce5671461050d5780633408e4701461053857806336568abe1461054d578063395093511461058657806340c10f19146105bf57610204565b80632d0335ab146104605780632e1a7d4d146104935780632f2ff15d146104bf57806330adf81f146104f857610204565b806318160ddd116101d757806318160ddd146103b757806320379ee5146103de57806323b872dd146103f3578063248a9ca31461043657610204565b806306fdde0314610209578063095ea7b3146102935780630c53c51c146102e05780630f7e5970146103a2575b600080fd5b34801561021557600080fd5b5061021e610afe565b6040805160208082528351818301528351919283929083019185019080838360005b83811015610258578181015183820152602001610240565b50505050905090810190601f1680156102855780820380516001836020036101000a031916815260200191505b509250505060405180910390f35b34801561029f57600080fd5b506102cc600480360360408110156102b657600080fd5b506001600160a01b038135169060200135610b95565b604080519115158252519081900360200190f35b61021e600480360360a08110156102f657600080fd5b6001600160a01b038235169190810190604081016020820135600160201b81111561032057600080fd5b82018360208201111561033257600080fd5b803590602001918460018302840111600160201b8311171561035357600080fd5b91908080601f016020809104026020016040519081016040528093929190818152602001838380828437600092019190915250929550508235935050506020810135906040013560ff16610bb3565b3480156103ae57600080fd5b5061021e610ec0565b3480156103c357600080fd5b506103cc610edd565b60408051918252519081900360200190f35b3480156103ea57600080fd5b506103cc610ee3565b3480156103ff57600080fd5b506102cc6004803603606081101561041657600080fd5b506001600160a01b03813581169160208101359091169060400135610ee9565b34801561044257600080fd5b506103cc6004803603602081101561045957600080fd5b5035610f70565b34801561046c57600080fd5b506103cc6004803603602081101561048357600080fd5b50356001600160a01b0316610f85565b34801561049f57600080fd5b506104bd600480360360208110156104b657600080fd5b5035610fa0565b005b3480156104cb57600080fd5b506104bd600480360360408110156104e257600080fd5b50803590602001356001600160a01b0316610fb4565b34801561050457600080fd5b506103cc611020565b34801561051957600080fd5b50610522611044565b6040805160ff9092168252519081900360200190f35b34801561054457600080fd5b506103cc61104d565b34801561055957600080fd5b506104bd6004803603604081101561057057600080fd5b50803590602001356001600160a01b0316611051565b34801561059257600080fd5b506102cc600480360360408110156105a957600080fd5b506001600160a01b0381351690602001356110b2565b3480156105cb57600080fd5b506104bd600480360360408110156105e257600080fd5b506001600160a01b038135169060200135611100565b34801561060457600080fd5b506104bd6004803603602081101561061b57600080fd5b810190602081018135600160201b81111561063557600080fd5b82018360208201111561064757600080fd5b803590602001918460018302840111600160201b8311171561066857600080fd5b50909250905061110a565b34801561067f57600080fd5b506103cc6004803603602081101561069657600080fd5b50356001600160a01b031661123c565b3480156106b257600080fd5b506104bd60048036036101008110156106ca57600080fd5b506001600160a01b038135811691602081013590911690604081013590606081013590608081013515159060ff60a0820135169060c08101359060e00135611257565b34801561071957600080fd5b5061073d6004803603604081101561073057600080fd5b5080359060200135611516565b604080516001600160a01b039092168252519081900360200190f35b34801561076557600080fd5b506102cc6004803603604081101561077c57600080fd5b50803590602001356001600160a01b0316611535565b34801561079e57600080fd5b5061021e61154d565b3480156107b357600080fd5b506103cc6115ae565b3480156107c857600080fd5b506103cc6115b3565b3480156107dd57600080fd5b506102cc600480360360408110156107f457600080fd5b506001600160a01b0381351690602001356115d7565b34801561081657600080fd5b506102cc6004803603604081101561082d57600080fd5b506001600160a01b03813516906020013561163f565b34801561084f57600080fd5b506104bd6004803603604081101561086657600080fd5b506001600160a01b038135169060200135611653565b34801561088857600080fd5b506104bd6004803603606081101561089f57600080fd5b506001600160a01b0381358116916020810135909116906040013561165e565b3480156108cb57600080fd5b506103cc600480360360208110156108e257600080fd5b503561166f565b3480156108f557600080fd5b506104bd6004803603604081101561090c57600080fd5b6001600160a01b038235169190810190604081016020820135600160201b81111561093657600080fd5b82018360208201111561094857600080fd5b803590602001918460018302840111600160201b8311171561096957600080fd5b509092509050611686565b34801561098057600080fd5b506104bd6004803603604081101561099757600080fd5b50803590602001356001600160a01b0316611741565b3480156109b957600080fd5b506103cc600480360360408110156109d057600080fd5b506001600160a01b038135811691602001351661179a565b3480156109f457600080fd5b506104bd60048036036080811015610a0b57600080fd5b810190602081018135600160201b811115610a2557600080fd5b820183602082011115610a3757600080fd5b803590602001918460018302840111600160201b83111715610a5857600080fd5b919390929091602081019035600160201b811115610a7557600080fd5b820183602082011115610a8757600080fd5b803590602001918460018302840111600160201b83111715610aa857600080fd5b9193509150803560ff1690602001356001600160a01b03166117c5565b348015610ad157600080fd5b506104bd60048036036040811015610ae857600080fd5b506001600160a01b038135169060200135611966565b60038054604080516020601f6002600019610100600188161502019095169490940493840181900481028201810190925282815260609390929091830182828015610b8a5780601f10610b5f57610100808354040283529160200191610b8a565b820191906000526020600020905b815481529060010190602001808311610b6d57829003601f168201915b505050505090505b90565b6000610ba9610ba2611971565b8484611980565b5060015b92915050565b6060610bbd6125a2565b50604080516060810182526001600160a01b0388166000818152600a602090815290849020548352820152908101869052610bfb8782878787611a6c565b610c365760405162461bcd60e51b815260040180806020018281038252602181526020018061284d6021913960400191505060405180910390fd5b6001600160a01b0387166000908152600a6020526040902054610c5a906001611b46565b600a6000896001600160a01b03166001600160a01b03168152602001908152602001600020819055507f5845892132946850460bff5a0083f71031bc5bf9aadcd40f1de79423eac9b10b87338860405180846001600160a01b03168152602001836001600160a01b0316815260200180602001828103825283818151815260200191508051906020019080838360005b83811015610d02578181015183820152602001610cea565b50505050905090810190601f168015610d2f5780820380516001836020036101000a031916815260200191505b5094505050505060405180910390a160006060306001600160a01b0316888a6040516020018083805190602001908083835b60208310610d805780518252601f199092019160209182019101610d61565b6001836020036101000a038019825116818451168082178552505050505050905001826001600160a01b031660601b8152601401925050506040516020818303038152906040526040518082805190602001908083835b60208310610df65780518252601f199092019160209182019101610dd7565b6001836020036101000a0380198251168184511680821785525050505050509050019150506000604051808303816000865af19150503d8060008114610e58576040519150601f19603f3d011682016040523d82523d6000602084013e610e5d565b606091505b509150915081610eb4576040805162461bcd60e51b815260206004820152601c60248201527f46756e6374696f6e2063616c6c206e6f74207375636365737366756c00000000604482015290519081900360640190fd5b98975050505050505050565b604051806040016040528060018152602001603160f81b81525081565b60025490565b60095490565b6000610ef6848484611ba0565b610f6684610f02611971565b610f6185604051806060016040528060288152602001612825602891396001600160a01b038a16600090815260016020526040812090610f40611971565b6001600160a01b031681526020810191909152604001600020549190611cfb565b611980565b5060019392505050565b60009081526006602052604090206002015490565b6001600160a01b03166000908152600a602052604090205490565b610fb1610fab611971565b82611d92565b50565b600082815260066020526040902060020154610fd790610fd2611971565b611535565b6110125760405162461bcd60e51b815260040180806020018281038252602f8152602001806126a5602f913960400191505060405180910390fd5b61101c8282611e8e565b5050565b7fea2aa0a1be11a07ed86d755c93467f4f82362b452371d1ba94d1715123511acb81565b60055460ff1690565b4690565b611059611971565b6001600160a01b0316816001600160a01b0316146110a85760405162461bcd60e51b815260040180806020018281038252602f8152602001806128fd602f913960400191505060405180910390fd5b61101c8282611ef7565b6000610ba96110bf611971565b84610f6185600160006110d0611971565b6001600160a01b03908116825260208083019390935260409182016000908120918c168152925290205490611b46565b61101c8282611f60565b600061111881610fd2611971565b6007906111b85760405162461bcd60e51b81526020600482019081528254600260001961010060018416150201909116046024830181905290918291604490910190849080156111a95780601f1061117e576101008083540402835291602001916111a9565b820191906000526020600020905b81548152906001019060200180831161118c57829003601f168201915b50509250505060405180910390fd5b506111f883838080601f01602080910402602001604051908101604052809392919081815260200183838082843760009201919091525061205092505050565b61123783838080601f01602080910402602001604051908101604052809392919081815260200183838082843760009201919091525061206392505050565b505050565b6001600160a01b031660009081526020819052604090205490565b6000611261610ee3565b604080517fea2aa0a1be11a07ed86d755c93467f4f82362b452371d1ba94d1715123511acb6020808301919091526001600160a01b03808e16838501528c166060830152608082018b905260a082018a905288151560c0808401919091528351808403909101815260e08301845280519082012061190160f01b610100840152610102830194909452610122808301949094528251808303909401845261014282018084528451948201949094206000909452610162820180845284905260ff88166101828301526101a282018790526101c2820186905291519293506001926101e28083019392601f198301929081900390910190855afa15801561136b573d6000803e3d6000fd5b505050602060405103516001600160a01b0316896001600160a01b0316146113da576040805162461bcd60e51b815260206004820152601960248201527f554368696c644441493a20494e56414c49442d5045524d495400000000000000604482015290519081900360640190fd5b8515806113e75750854211155b611438576040805162461bcd60e51b815260206004820152601960248201527f554368696c644441493a205045524d49542d4558504952454400000000000000604482015290519081900360640190fd5b6001600160a01b0389166000908152600a6020526040902080546001810190915587146114ac576040805162461bcd60e51b815260206004820152601860248201527f554368696c644441493a20494e56414c49442d4e4f4e43450000000000000000604482015290519081900360640190fd5b333014156114eb5760405162461bcd60e51b815260040180806020018281038252602281526020018061292c6022913960400191505060405180910390fd5b6000856114f95760006114fd565b6000195b905061150a8a8a83611980565b50505050505050505050565b600082815260066020526040812061152e9083612125565b9392505050565b600082815260066020526040812061152e9083612131565b60048054604080516020601f6002600019610100600188161502019095169490940493840181900481028201810190925282815260609390929091830182828015610b8a5780601f10610b5f57610100808354040283529160200191610b8a565b600081565b7f8f4f2da22e8ac8f11e15f9fc141cddbb5deea8800186560abb6e68c5496619a981565b6000610ba96115e4611971565b84610f61856040518060600160405280602581526020016128d8602591396001600061160e611971565b6001600160a01b03908116825260208083019390935260409182016000908120918d16815292529020549190611cfb565b6000610ba961164c611971565b8484611ba0565b611237338383610ee9565b611669838383610ee9565b50505050565b6000818152600660205260408120610bad90612146565b7f8f4f2da22e8ac8f11e15f9fc141cddbb5deea8800186560abb6e68c5496619a96116b381610fd2611971565b6007906117195760405162461bcd60e51b81526020600482019081528254600260001961010060018416150201909116046024830181905290918291604490910190849080156111a95780601f1061117e576101008083540402835291602001916111a9565b5060008383602081101561172c57600080fd5b5035905061173a8582611f60565b5050505050565b60008281526006602052604090206002015461175f90610fd2611971565b6110a85760405162461bcd60e51b81526004018080602001828103825260308152602001806127d06030913960400191505060405180910390fd5b6001600160a01b03918216600090815260016020908152604080832093909416825291909152205490565b60085460ff161561180e576040805162461bcd60e51b815260206004820152600e60248201526d185b1c9958591e481a5b9a5d195960921b604482015290519081900360640190fd5b61184d86868080601f01602080910402602001604051908101604052809392919081815260200183838082843760009201919091525061205092505050565b61188c84848080601f01602080910402602001604051908101604052809392919081815260200183838082843760009201919091525061215192505050565b61189582612164565b6118d6848460405160200180806410da1a5b1960da1b815250600501838380828437808301925050509250505060405160208183030381529060405261217a565b6118e860006118e3611971565b611012565b6119127f8f4f2da22e8ac8f11e15f9fc141cddbb5deea8800186560abb6e68c5496619a982611012565b61195186868080601f01602080910402602001604051908101604052809392919081815260200183838082843760009201919091525061221892505050565b50506008805460ff1916600117905550505050565b611237823383610ee9565b600061197b61227a565b905090565b6001600160a01b0383166119c55760405162461bcd60e51b81526004018080602001828103825260248152602001806128b46024913960400191505060405180910390fd5b6001600160a01b038216611a0a5760405162461bcd60e51b81526004018080602001828103825260228152602001806127396022913960400191505060405180910390fd5b6001600160a01b03808416600081815260016020908152604080832094871680845294825291829020859055815185815291517f8c5be1e5ebec7d5bd14f71427d1e84f3dd0314c0f7b2291e5b200ac8c7c3b9259281900390910190a3505050565b60006001600160a01b038616611ab35760405162461bcd60e51b81526004018080602001828103825260258152602001806128006025913960400191505060405180910390fd5b6001611ac6611ac1876122d7565b61235a565b83868660405160008152602001604052604051808581526020018460ff1681526020018381526020018281526020019450505050506020604051602081039080840390855afa158015611b1d573d6000803e3d6000fd5b505050602060405103516001600160a01b0316866001600160a01b031614905095945050505050565b60008282018381101561152e576040805162461bcd60e51b815260206004820152601b60248201527f536166654d6174683a206164646974696f6e206f766572666c6f770000000000604482015290519081900360640190fd5b6001600160a01b038316611be55760405162461bcd60e51b815260040180806020018281038252602581526020018061288f6025913960400191505060405180910390fd5b6001600160a01b038216611c2a5760405162461bcd60e51b81526004018080602001828103825260238152602001806126826023913960400191505060405180910390fd5b611c35838383611237565b611c72816040518060600160405280602681526020016127aa602691396001600160a01b0386166000908152602081905260409020549190611cfb565b6001600160a01b038085166000908152602081905260408082209390935590841681522054611ca19082611b46565b6001600160a01b038084166000818152602081815260409182902094909455805185815290519193928716927fddf252ad1be2c89b69c2b068fc378daa952ba7f163c4a11628f55a4df523b3ef92918290030190a3505050565b60008184841115611d8a5760405162461bcd60e51b81526004018080602001828103825283818151815260200191508051906020019080838360005b83811015611d4f578181015183820152602001611d37565b50505050905090810190601f168015611d7c5780820380516001836020036101000a031916815260200191505b509250505060405180910390fd5b505050900390565b6001600160a01b038216611dd75760405162461bcd60e51b815260040180806020018281038252602181526020018061286e6021913960400191505060405180910390fd5b611de382600083611237565b611e20816040518060600160405280602281526020016126d4602291396001600160a01b0385166000908152602081905260409020549190611cfb565b6001600160a01b038316600090815260208190526040902055600254611e4690826123a6565b6002556040805182815290516000916001600160a01b038516917fddf252ad1be2c89b69c2b068fc378daa952ba7f163c4a11628f55a4df523b3ef9181900360200190a35050565b6000828152600660205260409020611ea690826123e8565b1561101c57611eb3611971565b6001600160a01b0316816001600160a01b0316837f2f8788117e7eff1d82e926ec794901d17c78024a50270940304540a733656f0d60405160405180910390a45050565b6000828152600660205260409020611f0f90826123fd565b1561101c57611f1c611971565b6001600160a01b0316816001600160a01b0316837ff6391f5c32d9c69d2a47ea670b442974b53935d1edc7fd64eb21e047a839171b60405160405180910390a45050565b6001600160a01b038216611fbb576040805162461bcd60e51b815260206004820152601f60248201527f45524332303a206d696e7420746f20746865207a65726f206164647265737300604482015290519081900360640190fd5b611fc760008383611237565b600254611fd49082611b46565b6002556001600160a01b038216600090815260208190526040902054611ffa9082611b46565b6001600160a01b0383166000818152602081815260408083209490945583518581529351929391927fddf252ad1be2c89b69c2b068fc378daa952ba7f163c4a11628f55a4df523b3ef9281900390910190a35050565b805161101c9060039060208401906125cc565b6040518060800160405280604f815260200161275b604f913980516020918201208251838301206040805180820190915260018152603160f81b930192909252907fc89efdaa54c0f20c7adf612882df0950f5a951637e0307cdcb4c672f298b8bc6306120ce61104d565b60001b60405160200180868152602001858152602001848152602001836001600160a01b03168152602001828152602001955050505050506040516020818303038152906040528051906020012060098190555050565b600061152e8383612412565b600061152e836001600160a01b038416612476565b6000610bad8261248e565b805161101c9060049060208401906125cc565b6005805460ff191660ff92909216919091179055565b806040516020018082805190602001908083835b602083106121ad5780518252601f19909201916020918201910161218e565b51815160209384036101000a60001901801990921691161790527f3a20494e53554646494349454e545f5045524d495353494f4e530000000000009190930190815260408051808303600519018152601a9092019052805161101c95506007945092019190506125cc565b60085460ff1615612261576040805162461bcd60e51b815260206004820152600e60248201526d185b1c9958591e481a5b9a5d195960921b604482015290519081900360640190fd5b61226a81612063565b506008805460ff19166001179055565b6000333014156122d25760606000368080601f0160208091040260200160405190810160405280939291908181526020018383808284376000920191909152505050503601516001600160a01b03169150610b929050565b503390565b60006040518060800160405280604381526020016126f660439139805190602001208260000151836020015184604001518051906020012060405160200180858152602001848152602001836001600160a01b03168152602001828152602001945050505050604051602081830303815290604052805190602001209050919050565b6000612364610ee3565b82604051602001808061190160f01b81525060020183815260200182815260200192505050604051602081830303815290604052805190602001209050919050565b600061152e83836040518060400160405280601e81526020017f536166654d6174683a207375627472616374696f6e206f766572666c6f770000815250611cfb565b600061152e836001600160a01b038416612492565b600061152e836001600160a01b0384166124dc565b815460009082106124545760405162461bcd60e51b81526004018080602001828103825260228152602001806126606022913960400191505060405180910390fd5b82600001828154811061246357fe5b9060005260206000200154905092915050565b60009081526001919091016020526040902054151590565b5490565b600061249e8383612476565b6124d457508154600181810184556000848152602080822090930184905584548482528286019093526040902091909155610bad565b506000610bad565b60008181526001830160205260408120548015612598578354600019808301919081019060009087908390811061250f57fe5b906000526020600020015490508087600001848154811061252c57fe5b60009182526020808320909101929092558281526001898101909252604090209084019055865487908061255c57fe5b60019003818190600052602060002001600090559055866001016000878152602001908152602001600020600090556001945050505050610bad565b6000915050610bad565b60405180606001604052806000815260200160006001600160a01b03168152602001606081525090565b828054600181600116156101000203166002900490600052602060002090601f016020900481019282601f1061260d57805160ff191683800117855561263a565b8280016001018555821561263a579182015b8281111561263a57825182559160200191906001019061261f565b5061264692915061264a565b5090565b5b80821115612646576000815560010161264b56fe456e756d657261626c655365743a20696e646578206f7574206f6620626f756e647345524332303a207472616e7366657220746f20746865207a65726f2061646472657373416363657373436f6e74726f6c3a2073656e646572206d75737420626520616e2061646d696e20746f206772616e7445524332303a206275726e20616d6f756e7420657863656564732062616c616e63654d6574615472616e73616374696f6e2875696e74323536206e6f6e63652c616464726573732066726f6d2c62797465732066756e6374696f6e5369676e61747572652945524332303a20617070726f766520746f20746865207a65726f2061646472657373454950373132446f6d61696e28737472696e67206e616d652c737472696e672076657273696f6e2c6164647265737320766572696679696e67436f6e74726163742c627974657333322073616c742945524332303a207472616e7366657220616d6f756e7420657863656564732062616c616e6365416363657373436f6e74726f6c3a2073656e646572206d75737420626520616e2061646d696e20746f207265766f6b654e61746976654d6574615472616e73616374696f6e3a20494e56414c49445f5349474e455245524332303a207472616e7366657220616d6f756e74206578636565647320616c6c6f77616e63655369676e657220616e64207369676e617475726520646f206e6f74206d6174636845524332303a206275726e2066726f6d20746865207a65726f206164647265737345524332303a207472616e736665722066726f6d20746865207a65726f206164647265737345524332303a20617070726f76652066726f6d20746865207a65726f206164647265737345524332303a2064656372656173656420616c6c6f77616e63652062656c6f77207a65726f416363657373436f6e74726f6c3a2063616e206f6e6c792072656e6f756e636520726f6c657320666f722073656c66554368696c644441493a205045524d49545f4d4554415f54585f44495341424c4544a2646970667358221220f69c33eeb60956ff8aa5e777ffaff03631105613446ab6c3a0144843e348ca9564736f6c634300060c0033",
  "immutableReferences": {},
  "source": "\n// import \"@openzeppelin/contracts/GSN/Context.sol\";\ncontract OZContext {\n    // Empty internal constructor, to prevent people from mistakenly deploying\n    // an instance of this contract, which should be used via inheritance.\n    constructor () internal { }\n\n    function _msgSender() internal view virtual returns (address payable) {\n        return msg.sender;\n    }\n\n    function _msgData() internal view virtual returns (bytes memory) {\n        this; // silence state mutability warning without generating bytecode - see https://github.com/ethereum/solidity/issues/2691\n        return msg.data;\n    }\n}\n\n// import \"@openzeppelin/contracts/token/ERC20/IERC20.sol\";\ninterface OZIERC20 {\n    /**\n     * @dev Returns the amount of tokens in existence.\n     */\n    function totalSupply() external view returns (uint256);\n\n    /**\n     * @dev Returns the amount of tokens owned by `account`.\n     */\n    function balanceOf(address account) external view returns (uint256);\n\n    /**\n     * @dev Moves `amount` tokens from the caller's account to `recipient`.\n     *\n     * Returns a boolean value indicating whether the operation succeeded.\n     *\n     * Emits a {Transfer} event.\n     */\n    function transfer(address recipient, uint256 amount) external returns (bool);\n\n    /**\n     * @dev Returns the remaining number of tokens that `spender` will be\n     * allowed to spend on behalf of `owner` through {transferFrom}. This is\n     * zero by default.\n     *\n     * This value changes when {approve} or {transferFrom} are called.\n     */\n    function allowance(address owner, address spender) external view returns (uint256);\n\n    /**\n     * @dev Sets `amount` as the allowance of `spender` over the caller's tokens.\n     *\n     * Returns a boolean value indicating whether the operation succeeded.\n     *\n     * IMPORTANT: Beware that changing an allowance with this method brings the risk\n     * that someone may use both the old and the new allowance by unfortunate\n     * transaction ordering. One possible solution to mitigate this race\n     * condition is to first reduce the spender's allowance to 0 and set the\n     * desired value afterwards:\n     * https://github.com/ethereum/EIPs/issues/20#issuecomment-263524729\n     *\n     * Emits an {Approval} event.\n     */\n    function approve(address spender, uint256 amount) external returns (bool);\n\n    /**\n     * @dev Moves `amount` tokens from `sender` to `recipient` using the\n     * allowance mechanism. `amount` is then deducted from the caller's\n     * allowance.\n     *\n     * Returns a boolean value indicating whether the operation succeeded.\n     *\n     * Emits a {Transfer} event.\n     */\n    function transferFrom(address sender, address recipient, uint256 amount) external returns (bool);\n\n    /**\n     * @dev Emitted when `value` tokens are moved from one account (`from`) to\n     * another (`to`).\n     *\n     * Note that `value` may be zero.\n     */\n    event Transfer(address indexed from, address indexed to, uint256 value);\n\n    /**\n     * @dev Emitted when the allowance of a `spender` for an `owner` is set by\n     * a call to {approve}. `value` is the new allowance.\n     */\n    event Approval(address indexed owner, address indexed spender, uint256 value);\n}\n\n// import \"@openzeppelin/contracts/math/SafeMath.sol\";\nimport \"../vendered/@openzeppelin/contracts-ethereum-package-3.0.0/contracts/math/SafeMath.sol\";\n\nimport \"../vendered/@openzeppelin/contracts-ethereum-package-3.0.0/contracts/utils/Address.sol\";\nimport \"../vendered/@openzeppelin/contracts-ethereum-package-3.0.0/contracts/utils/EnumerableSet.sol\";\n// import \"@openzeppelin/contracts/access/AccessControl.sol\";\nabstract contract OZAccessControl is OZContext {\n    using EnumerableSet for EnumerableSet.AddressSet;\n    using Address for address;\n\n    struct RoleData {\n        EnumerableSet.AddressSet members;\n        bytes32 adminRole;\n    }\n\n    mapping (bytes32 => RoleData) private _roles;\n\n    bytes32 public constant DEFAULT_ADMIN_ROLE = 0x00;\n\n    /**\n     * @dev Emitted when `account` is granted `role`.\n     *\n     * `sender` is the account that originated the contract call, an admin role\n     * bearer except when using {_setupRole}.\n     */\n    event RoleGranted(bytes32 indexed role, address indexed account, address indexed sender);\n\n    /**\n     * @dev Emitted when `account` is revoked `role`.\n     *\n     * `sender` is the account that originated the contract call:\n     *   - if using `revokeRole`, it is the admin role bearer\n     *   - if using `renounceRole`, it is the role bearer (i.e. `account`)\n     */\n    event RoleRevoked(bytes32 indexed role, address indexed account, address indexed sender);\n\n    /**\n     * @dev Returns `true` if `account` has been granted `role`.\n     */\n    function hasRole(bytes32 role, address account) public view returns (bool) {\n        return _roles[role].members.contains(account);\n    }\n\n    /**\n     * @dev Returns the number of accounts that have `role`. Can be used\n     * together with {getRoleMember} to enumerate all bearers of a role.\n     */\n    function getRoleMemberCount(bytes32 role) public view returns (uint256) {\n        return _roles[role].members.length();\n    }\n\n    /**\n     * @dev Returns one of the accounts that have `role`. `index` must be a\n     * value between 0 and {getRoleMemberCount}, non-inclusive.\n     *\n     * Role bearers are not sorted in any particular way, and their ordering may\n     * change at any point.\n     *\n     * WARNING: When using {getRoleMember} and {getRoleMemberCount}, make sure\n     * you perform all queries on the same block. See the following\n     * https://forum.openzeppelin.com/t/iterating-over-elements-on-enumerableset-in-openzeppelin-contracts/2296[forum post]\n     * for more information.\n     */\n    function getRoleMember(bytes32 role, uint256 index) public view returns (address) {\n        return _roles[role].members.at(index);\n    }\n\n    /**\n     * @dev Returns the admin role that controls `role`. See {grantRole} and\n     * {revokeRole}.\n     *\n     * To change a role's admin, use {_setRoleAdmin}.\n     */\n    function getRoleAdmin(bytes32 role) public view returns (bytes32) {\n        return _roles[role].adminRole;\n    }\n\n    /**\n     * @dev Grants `role` to `account`.\n     *\n     * If `account` had not been already granted `role`, emits a {RoleGranted}\n     * event.\n     *\n     * Requirements:\n     *\n     * - the caller must have ``role``'s admin role.\n     */\n    function grantRole(bytes32 role, address account) public virtual {\n        require(hasRole(_roles[role].adminRole, _msgSender()), \"AccessControl: sender must be an admin to grant\");\n\n        _grantRole(role, account);\n    }\n\n    /**\n     * @dev Revokes `role` from `account`.\n     *\n     * If `account` had been granted `role`, emits a {RoleRevoked} event.\n     *\n     * Requirements:\n     *\n     * - the caller must have ``role``'s admin role.\n     */\n    function revokeRole(bytes32 role, address account) public virtual {\n        require(hasRole(_roles[role].adminRole, _msgSender()), \"AccessControl: sender must be an admin to revoke\");\n\n        _revokeRole(role, account);\n    }\n\n    /**\n     * @dev Revokes `role` from the calling account.\n     *\n     * Roles are often managed via {grantRole} and {revokeRole}: this function's\n     * purpose is to provide a mechanism for accounts to lose their privileges\n     * if they are compromised (such as when a trusted device is misplaced).\n     *\n     * If the calling account had been granted `role`, emits a {RoleRevoked}\n     * event.\n     *\n     * Requirements:\n     *\n     * - the caller must be `account`.\n     */\n    function renounceRole(bytes32 role, address account) public virtual {\n        require(account == _msgSender(), \"AccessControl: can only renounce roles for self\");\n\n        _revokeRole(role, account);\n    }\n\n    /**\n     * @dev Grants `role` to `account`.\n     *\n     * If `account` had not been already granted `role`, emits a {RoleGranted}\n     * event. Note that unlike {grantRole}, this function doesn't perform any\n     * checks on the calling account.\n     *\n     * [WARNING]\n     * ====\n     * This function should only be called from the constructor when setting\n     * up the initial roles for the system.\n     *\n     * Using this function in any other way is effectively circumventing the admin\n     * system imposed by {AccessControl}.\n     * ====\n     */\n    function _setupRole(bytes32 role, address account) internal virtual {\n        _grantRole(role, account);\n    }\n\n    /**\n     * @dev Sets `adminRole` as ``role``'s admin role.\n     */\n    function _setRoleAdmin(bytes32 role, bytes32 adminRole) internal virtual {\n        _roles[role].adminRole = adminRole;\n    }\n\n    function _grantRole(bytes32 role, address account) private {\n        if (_roles[role].members.add(account)) {\n            emit RoleGranted(role, account, _msgSender());\n        }\n    }\n\n    function _revokeRole(bytes32 role, address account) private {\n        if (_roles[role].members.remove(account)) {\n            emit RoleRevoked(role, account, _msgSender());\n        }\n    }\n}\n\n\n\n// File: contracts/child/ChildToken/UpgradeableChildERC20/ERC20.sol\n\n// SPDX-License-Identifier: MIT\n\npragma solidity ^0.6.0;\n\n\n\n\n\n/**\n * Modified openzeppelin implemtation to add setters for name, symbol and decimals.\n * This was needed because the variables cannot be set in constructor as the contract is upgradeable.\n */\n\n/**\n * @dev openzeppelin Implementation of the {IERC20} interface.\n *\n * Modified to add setters for name, symbol and decimals. This was needed\n * because\n *\n * This implementation is agnostic to the way tokens are created. This means\n * that a supply mechanism has to be added in a derived contract using {_mint}.\n * For a generic mechanism see {ERC20PresetMinterPauser}.\n *\n * TIP: For a detailed writeup see our guide\n * https://forum.zeppelin.solutions/t/how-to-implement-erc20-supply-mechanisms/226[How\n * to implement supply mechanisms].\n *\n * We have followed general OpenZeppelin guidelines: functions revert instead\n * of returning `false` on failure. This behavior is nonetheless conventional\n * and does not conflict with the expectations of ERC20 applications.\n *\n * Additionally, an {Approval} event is emitted on calls to {transferFrom}.\n * This allows applications to reconstruct the allowance for all accounts just\n * by listening to said events. Other implementations of the EIP may not emit\n * these events, as it isn't required by the specification.\n *\n * Finally, the non-standard {decreaseAllowance} and {increaseAllowance}\n * functions have been added to mitigate the well-known issues around setting\n * allowances. See {IERC20-approve}.\n */\ncontract ERC20 is OZContext, OZIERC20 {\n    using SafeMath for uint256;\n    using Address for address;\n\n    mapping (address => uint256) private _balances;\n\n    mapping (address => mapping (address => uint256)) private _allowances;\n\n    uint256 private _totalSupply;\n\n    string private _name;\n    string private _symbol;\n    uint8 private _decimals;\n\n    /**\n     * @dev Sets the values for {name} and {symbol}, initializes {decimals} with\n     * a default value of 18.\n     *\n     * To select a different value for {decimals}, use {_setupDecimals}.\n     *\n     * All three of these values are immutable: they can only be set once during\n     * construction.\n     */\n    constructor (string memory name, string memory symbol) public {\n        _name = name;\n        _symbol = symbol;\n        _decimals = 18;\n    }\n\n    /**\n     * @dev Returns the name of the token.\n     */\n    function name() public view returns (string memory) {\n        return _name;\n    }\n\n    function setName(string memory newName) internal {\n      _name = newName;\n    }\n\n    /**\n     * @dev Returns the symbol of the token, usually a shorter version of the\n     * name.\n     */\n    function symbol() public view returns (string memory) {\n        return _symbol;\n    }\n\n    function setSymbol(string memory newSymbol) internal {\n      _symbol = newSymbol;\n    }\n\n    /**\n     * @dev Returns the number of decimals used to get its user representation.\n     * For example, if `decimals` equals `2`, a balance of `505` tokens should\n     * be displayed to a user as `5,05` (`505 / 10 ** 2`).\n     *\n     * Tokens usually opt for a value of 18, imitating the relationship between\n     * Ether and Wei. This is the value {ERC20} uses, unless {_setupDecimals} is\n     * called.\n     *\n     * NOTE: This information is only used for _display_ purposes: it in\n     * no way affects any of the arithmetic of the contract, including\n     * {IERC20-balanceOf} and {IERC20-transfer}.\n     */\n    function decimals() public view returns (uint8) {\n        return _decimals;\n    }\n\n    function setDecimals(uint8 newDecimals) internal {\n      _decimals = newDecimals;\n    }\n\n    /**\n     * @dev See {IERC20-totalSupply}.\n     */\n    function totalSupply() public view override returns (uint256) {\n        return _totalSupply;\n    }\n\n    /**\n     * @dev See {IERC20-balanceOf}.\n     */\n    function balanceOf(address account) public view override returns (uint256) {\n        return _balances[account];\n    }\n\n    /**\n     * @dev See {IERC20-transfer}.\n     *\n     * Requirements:\n     *\n     * - `recipient` cannot be the zero address.\n     * - the caller must have a balance of at least `amount`.\n     */\n    function transfer(address recipient, uint256 amount) public virtual override returns (bool) {\n        _transfer(_msgSender(), recipient, amount);\n        return true;\n    }\n\n    /**\n     * @dev See {IERC20-allowance}.\n     */\n    function allowance(address owner, address spender) public view virtual override returns (uint256) {\n        return _allowances[owner][spender];\n    }\n\n    /**\n     * @dev See {IERC20-approve}.\n     *\n     * Requirements:\n     *\n     * - `spender` cannot be the zero address.\n     */\n    function approve(address spender, uint256 amount) public virtual override returns (bool) {\n        _approve(_msgSender(), spender, amount);\n        return true;\n    }\n\n    /**\n     * @dev See {IERC20-transferFrom}.\n     *\n     * Emits an {Approval} event indicating the updated allowance. This is not\n     * required by the EIP. See the note at the beginning of {ERC20};\n     *\n     * Requirements:\n     * - `sender` and `recipient` cannot be the zero address.\n     * - `sender` must have a balance of at least `amount`.\n     * - the caller must have allowance for ``sender``'s tokens of at least\n     * `amount`.\n     */\n    function transferFrom(address sender, address recipient, uint256 amount) public virtual override returns (bool) {\n        _transfer(sender, recipient, amount);\n        _approve(sender, _msgSender(), _allowances[sender][_msgSender()].sub(amount, \"ERC20: transfer amount exceeds allowance\"));\n        return true;\n    }\n\n    /**\n     * @dev Atomically increases the allowance granted to `spender` by the caller.\n     *\n     * This is an alternative to {approve} that can be used as a mitigation for\n     * problems described in {IERC20-approve}.\n     *\n     * Emits an {Approval} event indicating the updated allowance.\n     *\n     * Requirements:\n     *\n     * - `spender` cannot be the zero address.\n     */\n    function increaseAllowance(address spender, uint256 addedValue) public virtual returns (bool) {\n        _approve(_msgSender(), spender, _allowances[_msgSender()][spender].add(addedValue));\n        return true;\n    }\n\n    /**\n     * @dev Atomically decreases the allowance granted to `spender` by the caller.\n     *\n     * This is an alternative to {approve} that can be used as a mitigation for\n     * problems described in {IERC20-approve}.\n     *\n     * Emits an {Approval} event indicating the updated allowance.\n     *\n     * Requirements:\n     *\n     * - `spender` cannot be the zero address.\n     * - `spender` must have allowance for the caller of at least\n     * `subtractedValue`.\n     */\n    function decreaseAllowance(address spender, uint256 subtractedValue) public virtual returns (bool) {\n        _approve(_msgSender(), spender, _allowances[_msgSender()][spender].sub(subtractedValue, \"ERC20: decreased allowance below zero\"));\n        return true;\n    }\n\n    /**\n     * @dev Moves tokens `amount` from `sender` to `recipient`.\n     *\n     * This is internal function is equivalent to {transfer}, and can be used to\n     * e.g. implement automatic token fees, slashing mechanisms, etc.\n     *\n     * Emits a {Transfer} event.\n     *\n     * Requirements:\n     *\n     * - `sender` cannot be the zero address.\n     * - `recipient` cannot be the zero address.\n     * - `sender` must have a balance of at least `amount`.\n     */\n    function _transfer(address sender, address recipient, uint256 amount) internal virtual {\n        require(sender != address(0), \"ERC20: transfer from the zero address\");\n        require(recipient != address(0), \"ERC20: transfer to the zero address\");\n\n        _beforeTokenTransfer(sender, recipient, amount);\n\n        _balances[sender] = _balances[sender].sub(amount, \"ERC20: transfer amount exceeds balance\");\n        _balances[recipient] = _balances[recipient].add(amount);\n        emit Transfer(sender, recipient, amount);\n    }\n\n    /** @dev Creates `amount` tokens and assigns them to `account`, increasing\n     * the total supply.\n     *\n     * Emits a {Transfer} event with `from` set to the zero address.\n     *\n     * Requirements\n     *\n     * - `to` cannot be the zero address.\n     */\n    function _mint(address account, uint256 amount) internal virtual {\n        require(account != address(0), \"ERC20: mint to the zero address\");\n\n        _beforeTokenTransfer(address(0), account, amount);\n\n        _totalSupply = _totalSupply.add(amount);\n        _balances[account] = _balances[account].add(amount);\n        emit Transfer(address(0), account, amount);\n    }\n\n    /**\n     * @dev Destroys `amount` tokens from `account`, reducing the\n     * total supply.\n     *\n     * Emits a {Transfer} event with `to` set to the zero address.\n     *\n     * Requirements\n     *\n     * - `account` cannot be the zero address.\n     * - `account` must have at least `amount` tokens.\n     */\n    function _burn(address account, uint256 amount) internal virtual {\n        require(account != address(0), \"ERC20: burn from the zero address\");\n\n        _beforeTokenTransfer(account, address(0), amount);\n\n        _balances[account] = _balances[account].sub(amount, \"ERC20: burn amount exceeds balance\");\n        _totalSupply = _totalSupply.sub(amount);\n        emit Transfer(account, address(0), amount);\n    }\n\n    /**\n     * @dev Sets `amount` as the allowance of `spender` over the `owner`s tokens.\n     *\n     * This is internal function is equivalent to `approve`, and can be used to\n     * e.g. set automatic allowances for certain subsystems, etc.\n     *\n     * Emits an {Approval} event.\n     *\n     * Requirements:\n     *\n     * - `owner` cannot be the zero address.\n     * - `spender` cannot be the zero address.\n     */\n    function _approve(address owner, address spender, uint256 amount) internal virtual {\n        require(owner != address(0), \"ERC20: approve from the zero address\");\n        require(spender != address(0), \"ERC20: approve to the zero address\");\n\n        _allowances[owner][spender] = amount;\n        emit Approval(owner, spender, amount);\n    }\n\n    /**\n     * @dev Sets {decimals} to a value other than the default one of 18.\n     *\n     * WARNING: This function should only be called from the constructor. Most\n     * applications that interact with token contracts will not expect\n     * {decimals} to ever change, and may work incorrectly if it does.\n     */\n    function _setupDecimals(uint8 decimals_) internal {\n        _decimals = decimals_;\n    }\n\n    /**\n     * @dev Hook that is called before any transfer of tokens. This includes\n     * minting and burning.\n     *\n     * Calling conditions:\n     *\n     * - when `from` and `to` are both non-zero, `amount` of ``from``'s tokens\n     * will be to transferred to `to`.\n     * - when `from` is zero, `amount` tokens will be minted for `to`.\n     * - when `to` is zero, `amount` of ``from``'s tokens will be burned.\n     * - `from` and `to` are never both zero.\n     *\n     * To learn more about hooks, head to xref:ROOT:extending-contracts.adoc#using-hooks[Using Hooks].\n     */\n    function _beforeTokenTransfer(address from, address to, uint256 amount) internal virtual { }\n}\n\n\n// File: contracts/common/AccessControlMixin.sol\n\npragma solidity ^0.6.6;\n\n\ncontract AccessControlMixin is OZAccessControl {\n    string private _revertMsg;\n    function _setupContractId(string memory contractId) internal {\n        _revertMsg = string(abi.encodePacked(contractId, \": INSUFFICIENT_PERMISSIONS\"));\n    }\n\n    modifier only(bytes32 role) {\n        require(\n            hasRole(role, _msgSender()),\n            _revertMsg\n        );\n        _;\n    }\n}\n\n// File: contracts/child/ChildToken/IChildToken.sol\n\npragma solidity ^0.6.6;\n\ninterface IChildToken {\n    function deposit(address user, bytes calldata depositData) external;\n}\n\n// File: contracts/common/Initializable.sol\n\npragma solidity ^0.6.6;\n\ncontract Initializable {\n    bool inited = false;\n\n    modifier initializer() {\n        require(!inited, \"already inited\");\n        _;\n        inited = true;\n    }\n}\n\n// File: contracts/common/EIP712Base.sol\n\npragma solidity ^0.6.6;\n\n\ncontract EIP712Base is Initializable {\n    struct EIP712Domain {\n        string name;\n        string version;\n        address verifyingContract;\n        bytes32 salt;\n    }\n\n    string constant public ERC712_VERSION = \"1\";\n\n    bytes32 internal constant EIP712_DOMAIN_TYPEHASH = keccak256(\n        bytes(\n            \"EIP712Domain(string name,string version,address verifyingContract,bytes32 salt)\"\n        )\n    );\n    bytes32 internal domainSeperator;\n\n    // supposed to be called once while initializing.\n    // one of the contractsa that inherits this contract follows proxy pattern\n    // so it is not possible to do this in a constructor\n    function _initializeEIP712(\n        string memory name\n    )\n        internal\n        initializer\n    {\n        _setDomainSeperator(name);\n    }\n\n    function _setDomainSeperator(string memory name) internal {\n        domainSeperator = keccak256(\n            abi.encode(\n                EIP712_DOMAIN_TYPEHASH,\n                keccak256(bytes(name)),\n                keccak256(bytes(ERC712_VERSION)),\n                address(this),\n                bytes32(getChainId())\n            )\n        );\n    }\n\n    function getDomainSeperator() public view returns (bytes32) {\n        return domainSeperator;\n    }\n\n    function getChainId() public pure returns (uint256) {\n        uint256 id;\n        assembly {\n            id := chainid()\n        }\n        return id;\n    }\n\n    /**\n     * Accept message hash and returns hash message in EIP712 compatible form\n     * So that it can be used to recover signer from signature signed using EIP712 formatted data\n     * https://eips.ethereum.org/EIPS/eip-712\n     * \"\\\\x19\" makes the encoding deterministic\n     * \"\\\\x01\" is the version byte to make it compatible to EIP-191\n     */\n    function toTypedMessageHash(bytes32 messageHash)\n        internal\n        view\n        returns (bytes32)\n    {\n        return\n            keccak256(\n                abi.encodePacked(\"\\x19\\x01\", getDomainSeperator(), messageHash)\n            );\n    }\n}\n\n// File: contracts/common/NativeMetaTransaction.sol\n\npragma solidity ^0.6.6;\n\n\n\ncontract NativeMetaTransaction is EIP712Base {\n    using SafeMath for uint256;\n    bytes32 private constant META_TRANSACTION_TYPEHASH = keccak256(\n        bytes(\n            \"MetaTransaction(uint256 nonce,address from,bytes functionSignature)\"\n        )\n    );\n    event MetaTransactionExecuted(\n        address userAddress,\n        address payable relayerAddress,\n        bytes functionSignature\n    );\n    mapping(address => uint256) nonces;\n\n    /*\n     * Meta transaction structure.\n     * No point of including value field here as if user is doing value transfer then he has the funds to pay for gas\n     * He should call the desired function directly in that case.\n     */\n    struct MetaTransaction {\n        uint256 nonce;\n        address from;\n        bytes functionSignature;\n    }\n\n    function executeMetaTransaction(\n        address userAddress,\n        bytes memory functionSignature,\n        bytes32 sigR,\n        bytes32 sigS,\n        uint8 sigV\n    ) public payable returns (bytes memory) {\n        MetaTransaction memory metaTx = MetaTransaction({\n            nonce: nonces[userAddress],\n            from: userAddress,\n            functionSignature: functionSignature\n        });\n\n        require(\n            verify(userAddress, metaTx, sigR, sigS, sigV),\n            \"Signer and signature do not match\"\n        );\n\n        // increase nonce for user (to avoid re-use)\n        nonces[userAddress] = nonces[userAddress].add(1);\n\n        emit MetaTransactionExecuted(\n            userAddress,\n            msg.sender,\n            functionSignature\n        );\n\n        // Append userAddress and relayer address at the end to extract it from calling context\n        (bool success, bytes memory returnData) = address(this).call(\n            abi.encodePacked(functionSignature, userAddress)\n        );\n        require(success, \"Function call not successful\");\n\n        return returnData;\n    }\n\n    function hashMetaTransaction(MetaTransaction memory metaTx)\n        internal\n        pure\n        returns (bytes32)\n    {\n        return\n            keccak256(\n                abi.encode(\n                    META_TRANSACTION_TYPEHASH,\n                    metaTx.nonce,\n                    metaTx.from,\n                    keccak256(metaTx.functionSignature)\n                )\n            );\n    }\n\n    function getNonce(address user) public view returns (uint256 nonce) {\n        nonce = nonces[user];\n    }\n\n    function verify(\n        address signer,\n        MetaTransaction memory metaTx,\n        bytes32 sigR,\n        bytes32 sigS,\n        uint8 sigV\n    ) internal view returns (bool) {\n        require(signer != address(0), \"NativeMetaTransaction: INVALID_SIGNER\");\n        return\n            signer ==\n            ecrecover(\n                toTypedMessageHash(hashMetaTransaction(metaTx)),\n                sigV,\n                sigR,\n                sigS\n            );\n    }\n}\n\n// File: contracts/common/ContextMixin.sol\n\npragma solidity ^0.6.6;\n\nabstract contract ContextMixin {\n    function msgSender()\n        internal\n        view\n        returns (address payable sender)\n    {\n        if (msg.sender == address(this)) {\n            bytes memory array = msg.data;\n            uint256 index = msg.data.length;\n            assembly {\n                // Load the 32 bytes word from memory with the address on the lower 20 bytes, and mask those.\n                sender := and(\n                    mload(add(array, index)),\n                    0xffffffffffffffffffffffffffffffffffffffff\n                )\n            }\n        } else {\n            sender = msg.sender;\n        }\n        return sender;\n    }\n}\n\n// File: contracts/child/ChildToken/UpgradeableChildERC20/UChildERC20.sol\n\npragma solidity ^0.6.6;\n\n\n\n\n\n\n\ncontract UChildERC20 is\n    ERC20,\n    IChildToken,\n    AccessControlMixin,\n    NativeMetaTransaction,\n    ContextMixin\n{\n    bytes32 public constant DEPOSITOR_ROLE = keccak256(\"DEPOSITOR_ROLE\");\n\n    constructor() public ERC20(\"\", \"\") {}\n\n    /**\n     * @notice Initialize the contract after it has been proxified\n     * @dev meant to be called once immediately after deployment\n     */\n    function initialize(\n        string calldata name_,\n        string calldata symbol_,\n        uint8 decimals_,\n        address childChainManager\n    )\n        external\n        initializer\n    {\n        setName(name_);\n        setSymbol(symbol_);\n        setDecimals(decimals_);\n        _setupContractId(string(abi.encodePacked(\"Child\", symbol_)));\n        _setupRole(DEFAULT_ADMIN_ROLE, _msgSender());\n        _setupRole(DEPOSITOR_ROLE, childChainManager);\n        _initializeEIP712(name_);\n    }\n\n    // This is to support Native meta transactions\n    // never use msg.sender directly, use _msgSender() instead\n    function _msgSender()\n        internal\n        override\n        view\n        returns (address payable sender)\n    {\n        return ContextMixin.msgSender();\n    }\n\n    function changeName(string calldata name_) external only(DEFAULT_ADMIN_ROLE) {\n        setName(name_);\n        _setDomainSeperator(name_);\n    }\n\n    /**\n     * @notice called when token is deposited on root chain\n     * @dev Should be callable only by ChildChainManager\n     * Should handle deposit by minting the required amount for user\n     * Make sure minting is done only by this function\n     * @param user user address for whom deposit is being done\n     * @param depositData abi encoded amount\n     */\n    function deposit(address user, bytes calldata depositData)\n        external\n        override\n        only(DEPOSITOR_ROLE)\n    {\n        uint256 amount = abi.decode(depositData, (uint256));\n        _mint(user, amount);\n    }\n\n    /**\n     * @notice called when user wants to withdraw tokens back to root chain\n     * @dev Should burn user's tokens. This transaction will be verified when exiting on root chain\n     * @param amount amount of tokens to withdraw\n     */\n    function withdraw(uint256 amount) external {\n        _burn(_msgSender(), amount);\n    }\n}\n\n// File: contracts/child/ChildToken/DappTokens/UChildDAI.sol\n\npragma solidity ^0.6.6;\n\n// import \"@nomiclabs/buidler/console.sol\";\n\ncontract DaiMatic is UChildERC20 {\n    // bytes32 public constant PERMIT_TYPEHASH = keccak256(\"Permit(address holder,address spender,uint256 nonce,uint256 expiry,bool allowed)\");\n    bytes32 public constant PERMIT_TYPEHASH = 0xea2aa0a1be11a07ed86d755c93467f4f82362b452371d1ba94d1715123511acb;\n\n    // --- Alias ---\n    function push(address usr, uint wad) external {\n        transferFrom(msg.sender, usr, wad);\n    }\n    function pull(address usr, uint wad) external {\n        transferFrom(usr, msg.sender, wad);\n    }\n    function move(address src, address dst, uint wad) external {\n        transferFrom(src, dst, wad);\n    }\n\n    // Added for testing purposes only\n    function mint(address usr, uint256 wad) external {\n        _mint(usr, wad);\n    }\n\n    // --- Approve by signature ---\n    function permit(\n        address holder,\n        address spender,\n        uint256 nonce,\n        uint256 expiry,\n        bool allowed,\n        uint8 v,\n        bytes32 r,\n        bytes32 s\n    ) external {\n        bytes32 digest = keccak256(\n            abi.encodePacked(\n                \"\\x19\\x01\",\n                getDomainSeperator(),\n                keccak256(\n                    abi.encode(\n                        PERMIT_TYPEHASH,\n                        holder,\n                        spender,\n                        nonce,\n                        expiry,\n                        allowed\n                    )\n                )\n        ));\n\n        require(holder == ecrecover(digest, v, r, s), \"UChildDAI: INVALID-PERMIT\");\n        require(expiry == 0 || now <= expiry, \"UChildDAI: PERMIT-EXPIRED\");\n        require(nonce == nonces[holder]++, \"UChildDAI: INVALID-NONCE\");\n        require(msg.sender != address(this), \"UChildDAI: PERMIT_META_TX_DISABLED\");\n        uint wad = allowed ? uint(-1) : 0;\n        _approve(holder, spender, wad);\n    }\n}\n",
  "sourcePath": "/home/jasoons/Documents/code/contracts/contracts/DaiMatic.sol",
  "compiler": {
    "name": "solc",
    "version": "0.6.12+commit.27d51765.Emscripten.clang"
  },
  "schemaVersion": "3.2.3",
  "updatedAt": "2020-11-05T11:34:22.374Z",
  "networkType": "ethereum",
  "devdoc": {
    "kind": "dev",
    "methods": {
      "allowance(address,address)": {
        "details": "See {IERC20-allowance}."
      },
      "approve(address,uint256)": {
        "details": "See {IERC20-approve}. Requirements: - `spender` cannot be the zero address."
      },
      "balanceOf(address)": {
        "details": "See {IERC20-balanceOf}."
      },
      "decimals()": {
        "details": "Returns the number of decimals used to get its user representation. For example, if `decimals` equals `2`, a balance of `505` tokens should be displayed to a user as `5,05` (`505 / 10 ** 2`). Tokens usually opt for a value of 18, imitating the relationship between Ether and Wei. This is the value {ERC20} uses, unless {_setupDecimals} is called. NOTE: This information is only used for _display_ purposes: it in no way affects any of the arithmetic of the contract, including {IERC20-balanceOf} and {IERC20-transfer}."
      },
      "decreaseAllowance(address,uint256)": {
        "details": "Atomically decreases the allowance granted to `spender` by the caller. This is an alternative to {approve} that can be used as a mitigation for problems described in {IERC20-approve}. Emits an {Approval} event indicating the updated allowance. Requirements: - `spender` cannot be the zero address. - `spender` must have allowance for the caller of at least `subtractedValue`."
      },
      "deposit(address,bytes)": {
        "details": "Should be callable only by ChildChainManager Should handle deposit by minting the required amount for user Make sure minting is done only by this function",
        "params": {
          "depositData": "abi encoded amount",
          "user": "user address for whom deposit is being done"
        }
      },
      "getRoleAdmin(bytes32)": {
        "details": "Returns the admin role that controls `role`. See {grantRole} and {revokeRole}. To change a role's admin, use {_setRoleAdmin}."
      },
      "getRoleMember(bytes32,uint256)": {
        "details": "Returns one of the accounts that have `role`. `index` must be a value between 0 and {getRoleMemberCount}, non-inclusive. Role bearers are not sorted in any particular way, and their ordering may change at any point. WARNING: When using {getRoleMember} and {getRoleMemberCount}, make sure you perform all queries on the same block. See the following https://forum.openzeppelin.com/t/iterating-over-elements-on-enumerableset-in-openzeppelin-contracts/2296[forum post] for more information."
      },
      "getRoleMemberCount(bytes32)": {
        "details": "Returns the number of accounts that have `role`. Can be used together with {getRoleMember} to enumerate all bearers of a role."
      },
      "grantRole(bytes32,address)": {
        "details": "Grants `role` to `account`. If `account` had not been already granted `role`, emits a {RoleGranted} event. Requirements: - the caller must have ``role``'s admin role."
      },
      "hasRole(bytes32,address)": {
        "details": "Returns `true` if `account` has been granted `role`."
      },
      "increaseAllowance(address,uint256)": {
        "details": "Atomically increases the allowance granted to `spender` by the caller. This is an alternative to {approve} that can be used as a mitigation for problems described in {IERC20-approve}. Emits an {Approval} event indicating the updated allowance. Requirements: - `spender` cannot be the zero address."
      },
      "initialize(string,string,uint8,address)": {
        "details": "meant to be called once immediately after deployment"
      },
      "name()": {
        "details": "Returns the name of the token."
      },
      "renounceRole(bytes32,address)": {
        "details": "Revokes `role` from the calling account. Roles are often managed via {grantRole} and {revokeRole}: this function's purpose is to provide a mechanism for accounts to lose their privileges if they are compromised (such as when a trusted device is misplaced). If the calling account had been granted `role`, emits a {RoleRevoked} event. Requirements: - the caller must be `account`."
      },
      "revokeRole(bytes32,address)": {
        "details": "Revokes `role` from `account`. If `account` had been granted `role`, emits a {RoleRevoked} event. Requirements: - the caller must have ``role``'s admin role."
      },
      "symbol()": {
        "details": "Returns the symbol of the token, usually a shorter version of the name."
      },
      "totalSupply()": {
        "details": "See {IERC20-totalSupply}."
      },
      "transfer(address,uint256)": {
        "details": "See {IERC20-transfer}. Requirements: - `recipient` cannot be the zero address. - the caller must have a balance of at least `amount`."
      },
      "transferFrom(address,address,uint256)": {
        "details": "See {IERC20-transferFrom}. Emits an {Approval} event indicating the updated allowance. This is not required by the EIP. See the note at the beginning of {ERC20}; Requirements: - `sender` and `recipient` cannot be the zero address. - `sender` must have a balance of at least `amount`. - the caller must have allowance for ``sender``'s tokens of at least `amount`."
      },
      "withdraw(uint256)": {
        "details": "Should burn user's tokens. This transaction will be verified when exiting on root chain",
        "params": {
          "amount": "amount of tokens to withdraw"
        }
      }
    },
    "version": 1
  },
  "userdoc": {
    "kind": "user",
    "methods": {
      "deposit(address,bytes)": {
        "notice": "called when token is deposited on root chain"
      },
      "initialize(string,string,uint8,address)": {
        "notice": "Initialize the contract after it has been proxified"
      },
      "withdraw(uint256)": {
        "notice": "called when user wants to withdraw tokens back to root chain"
      }
    },
    "version": 1
  }
}