{
  "contractName": "ERC20PatronageReceipt_v2_upgradable",
  "abi": [
    {
      "anonymous": false,
      "inputs": [
        {
          "indexed": true,
          "internalType": "address",
          "name": "owner",
          "type": "address"
        },
        {
          "indexed": true,
          "internalType": "address",
          "name": "spender",
          "type": "address"
        },
        {
          "indexed": false,
          "internalType": "uint256",
          "name": "value",
          "type": "uint256"
        }
      ],
      "name": "Approval",
      "type": "event"
    },
    {
      "anonymous": false,
      "inputs": [
        {
          "indexed": true,
          "internalType": "address",
          "name": "account",
          "type": "address"
        }
      ],
      "name": "MinterAdded",
      "type": "event"
    },
    {
      "anonymous": false,
      "inputs": [
        {
          "indexed": true,
          "internalType": "address",
          "name": "account",
          "type": "address"
        }
      ],
      "name": "MinterRemoved",
      "type": "event"
    },
    {
      "anonymous": false,
      "inputs": [
        {
          "indexed": true,
          "internalType": "address",
          "name": "from",
          "type": "address"
        },
        {
          "indexed": true,
          "internalType": "address",
          "name": "to",
          "type": "address"
        },
        {
          "indexed": false,
          "internalType": "uint256",
          "name": "value",
          "type": "uint256"
        }
      ],
      "name": "Transfer",
      "type": "event"
    },
    {
      "constant": false,
      "inputs": [
        {
          "internalType": "address",
          "name": "account",
          "type": "address"
        }
      ],
      "name": "addMinter",
      "outputs": [],
      "payable": false,
      "stateMutability": "nonpayable",
      "type": "function"
    },
    {
      "constant": true,
      "inputs": [
        {
          "internalType": "address",
          "name": "owner",
          "type": "address"
        },
        {
          "internalType": "address",
          "name": "spender",
          "type": "address"
        }
      ],
      "name": "allowance",
      "outputs": [
        {
          "internalType": "uint256",
          "name": "",
          "type": "uint256"
        }
      ],
      "payable": false,
      "stateMutability": "view",
      "type": "function"
    },
    {
      "constant": false,
      "inputs": [
        {
          "internalType": "address",
          "name": "spender",
          "type": "address"
        },
        {
          "internalType": "uint256",
          "name": "amount",
          "type": "uint256"
        }
      ],
      "name": "approve",
      "outputs": [
        {
          "internalType": "bool",
          "name": "",
          "type": "bool"
        }
      ],
      "payable": false,
      "stateMutability": "nonpayable",
      "type": "function"
    },
    {
      "constant": true,
      "inputs": [
        {
          "internalType": "address",
          "name": "account",
          "type": "address"
        }
      ],
      "name": "balanceOf",
      "outputs": [
        {
          "internalType": "uint256",
          "name": "",
          "type": "uint256"
        }
      ],
      "payable": false,
      "stateMutability": "view",
      "type": "function"
    },
    {
      "constant": false,
      "inputs": [
        {
          "internalType": "uint256",
          "name": "amount",
          "type": "uint256"
        }
      ],
      "name": "burn",
      "outputs": [],
      "payable": false,
      "stateMutability": "nonpayable",
      "type": "function"
    },
    {
      "constant": false,
      "inputs": [
        {
          "internalType": "address",
          "name": "account",
          "type": "address"
        },
        {
          "internalType": "uint256",
          "name": "amount",
          "type": "uint256"
        }
      ],
      "name": "burnFrom",
      "outputs": [],
      "payable": false,
      "stateMutability": "nonpayable",
      "type": "function"
    },
    {
      "constant": true,
      "inputs": [],
      "name": "decimals",
      "outputs": [
        {
          "internalType": "uint8",
          "name": "",
          "type": "uint8"
        }
      ],
      "payable": false,
      "stateMutability": "view",
      "type": "function"
    },
    {
      "constant": false,
      "inputs": [
        {
          "internalType": "address",
          "name": "spender",
          "type": "address"
        },
        {
          "internalType": "uint256",
          "name": "subtractedValue",
          "type": "uint256"
        }
      ],
      "name": "decreaseAllowance",
      "outputs": [
        {
          "internalType": "bool",
          "name": "",
          "type": "bool"
        }
      ],
      "payable": false,
      "stateMutability": "nonpayable",
      "type": "function"
    },
    {
      "constant": false,
      "inputs": [
        {
          "internalType": "address",
          "name": "spender",
          "type": "address"
        },
        {
          "internalType": "uint256",
          "name": "addedValue",
          "type": "uint256"
        }
      ],
      "name": "increaseAllowance",
      "outputs": [
        {
          "internalType": "bool",
          "name": "",
          "type": "bool"
        }
      ],
      "payable": false,
      "stateMutability": "nonpayable",
      "type": "function"
    },
    {
      "constant": false,
      "inputs": [
        {
          "internalType": "string",
          "name": "name",
          "type": "string"
        },
        {
          "internalType": "string",
          "name": "symbol",
          "type": "string"
        },
        {
          "internalType": "uint8",
          "name": "decimals",
          "type": "uint8"
        }
      ],
      "name": "initialize",
      "outputs": [],
      "payable": false,
      "stateMutability": "nonpayable",
      "type": "function"
    },
    {
      "constant": false,
      "inputs": [
        {
          "internalType": "address",
          "name": "sender",
          "type": "address"
        }
      ],
      "name": "initialize",
      "outputs": [],
      "payable": false,
      "stateMutability": "nonpayable",
      "type": "function"
    },
    {
      "constant": true,
      "inputs": [
        {
          "internalType": "address",
          "name": "account",
          "type": "address"
        }
      ],
      "name": "isMinter",
      "outputs": [
        {
          "internalType": "bool",
          "name": "",
          "type": "bool"
        }
      ],
      "payable": false,
      "stateMutability": "view",
      "type": "function"
    },
    {
      "constant": false,
      "inputs": [
        {
          "internalType": "address",
          "name": "account",
          "type": "address"
        },
        {
          "internalType": "uint256",
          "name": "amount",
          "type": "uint256"
        }
      ],
      "name": "mint",
      "outputs": [
        {
          "internalType": "bool",
          "name": "",
          "type": "bool"
        }
      ],
      "payable": false,
      "stateMutability": "nonpayable",
      "type": "function"
    },
    {
      "constant": true,
      "inputs": [],
      "name": "name",
      "outputs": [
        {
          "internalType": "string",
          "name": "",
          "type": "string"
        }
      ],
      "payable": false,
      "stateMutability": "view",
      "type": "function"
    },
    {
      "constant": false,
      "inputs": [],
      "name": "renounceMinter",
      "outputs": [],
      "payable": false,
      "stateMutability": "nonpayable",
      "type": "function"
    },
    {
      "constant": true,
      "inputs": [],
      "name": "symbol",
      "outputs": [
        {
          "internalType": "string",
          "name": "",
          "type": "string"
        }
      ],
      "payable": false,
      "stateMutability": "view",
      "type": "function"
    },
    {
      "constant": true,
      "inputs": [],
      "name": "totalSupply",
      "outputs": [
        {
          "internalType": "uint256",
          "name": "",
          "type": "uint256"
        }
      ],
      "payable": false,
      "stateMutability": "view",
      "type": "function"
    },
    {
      "constant": false,
      "inputs": [
        {
          "internalType": "address",
          "name": "recipient",
          "type": "address"
        },
        {
          "internalType": "uint256",
          "name": "amount",
          "type": "uint256"
        }
      ],
      "name": "transfer",
      "outputs": [
        {
          "internalType": "bool",
          "name": "",
          "type": "bool"
        }
      ],
      "payable": false,
      "stateMutability": "nonpayable",
      "type": "function"
    },
    {
      "constant": false,
      "inputs": [
        {
          "internalType": "address",
          "name": "sender",
          "type": "address"
        },
        {
          "internalType": "address",
          "name": "recipient",
          "type": "address"
        },
        {
          "internalType": "uint256",
          "name": "amount",
          "type": "uint256"
        }
      ],
      "name": "transferFrom",
      "outputs": [
        {
          "internalType": "bool",
          "name": "",
          "type": "bool"
        }
      ],
      "payable": false,
      "stateMutability": "nonpayable",
      "type": "function"
    },
    {
      "constant": false,
      "inputs": [
        {
          "internalType": "string",
          "name": "name",
          "type": "string"
        },
        {
          "internalType": "string",
          "name": "symbol",
          "type": "string"
        },
        {
          "internalType": "uint8",
          "name": "decimals",
          "type": "uint8"
        },
        {
          "internalType": "address",
          "name": "minter",
          "type": "address"
        }
      ],
      "name": "setup",
      "outputs": [],
      "payable": false,
      "stateMutability": "nonpayable",
      "type": "function"
    }
  ],
  "bytecode": "0x60806040526117c0806100136000396000f3fe608060405234801561001057600080fd5b506004361061012c5760003560e01c806379cc6790116100ad578063a9059cbb11610071578063a9059cbb146104b5578063aa271e1a146104e1578063c4d66de814610507578063cd198bc11461052d578063dd62ed3e146106675761012c565b806379cc67901461042757806395d89b4114610453578063983b2d561461045b5780639865027514610481578063a457c2d7146104895761012c565b8063313ce567116100f4578063313ce5671461036e578063395093511461038c57806340c10f19146103b857806342966c68146103e457806370a08231146104015761012c565b806306fdde0314610131578063095ea7b3146101ae5780631624f6c6146101ee57806318160ddd1461031e57806323b872dd14610338575b600080fd5b610139610695565b6040805160208082528351818301528351919283929083019185019080838360005b8381101561017357818101518382015260200161015b565b50505050905090810190601f1680156101a05780820380516001836020036101000a031916815260200191505b509250505060405180910390f35b6101da600480360360408110156101c457600080fd5b506001600160a01b03813516906020013561072c565b604080519115158252519081900360200190f35b61031c6004803603606081101561020457600080fd5b810190602081018135600160201b81111561021e57600080fd5b82018360208201111561023057600080fd5b803590602001918460018302840111600160201b8311171561025157600080fd5b91908080601f0160208091040260200160405190810160405280939291908181526020018383808284376000920191909152509295949360208101935035915050600160201b8111156102a357600080fd5b8201836020820111156102b557600080fd5b803590602001918460018302840111600160201b831117156102d657600080fd5b91908080601f0160208091040260200160405190810160405280939291908181526020018383808284376000920191909152509295505050903560ff1691506107499050565b005b610326610827565b60408051918252519081900360200190f35b6101da6004803603606081101561034e57600080fd5b506001600160a01b0381358116916020810135909116906040013561082d565b6103766108ba565b6040805160ff9092168252519081900360200190f35b6101da600480360360408110156103a257600080fd5b506001600160a01b0381351690602001356108c4565b6101da600480360360408110156103ce57600080fd5b506001600160a01b038135169060200135610918565b61031c600480360360208110156103fa57600080fd5b503561096f565b6103266004803603602081101561041757600080fd5b50356001600160a01b0316610983565b61031c6004803603604081101561043d57600080fd5b506001600160a01b03813516906020013561099e565b6101396109ac565b61031c6004803603602081101561047157600080fd5b50356001600160a01b0316610a0c565b61031c610a5b565b6101da6004803603604081101561049f57600080fd5b506001600160a01b038135169060200135610a6d565b6101da600480360360408110156104cb57600080fd5b506001600160a01b038135169060200135610adb565b6101da600480360360208110156104f757600080fd5b50356001600160a01b0316610aef565b61031c6004803603602081101561051d57600080fd5b50356001600160a01b0316610b08565b61031c6004803603608081101561054357600080fd5b810190602081018135600160201b81111561055d57600080fd5b82018360208201111561056f57600080fd5b803590602001918460018302840111600160201b8311171561059057600080fd5b91908080601f0160208091040260200160405190810160405280939291908181526020018383808284376000920191909152509295949360208101935035915050600160201b8111156105e257600080fd5b8201836020820111156105f457600080fd5b803590602001918460018302840111600160201b8311171561061557600080fd5b91908080601f0160208091040260200160405190810160405280939291908181526020018383808284376000920191909152509295505050813560ff16925050602001356001600160a01b0316610bb3565b6103266004803603604081101561067d57600080fd5b506001600160a01b0381358116916020013516610c6d565b60ff8054604080516020601f60026000196101006001881615020190951694909404938401819004810282018101909252828152606093909290918301828280156107215780601f106106f657610100808354040283529160200191610721565b820191906000526020600020905b81548152906001019060200180831161070457829003601f168201915b505050505090505b90565b6000610740610739610c98565b8484610c9c565b50600192915050565b600054610100900460ff16806107625750610762610d88565b80610770575060005460ff16155b6107ab5760405162461bcd60e51b815260040180806020018281038252602e8152602001806116ab602e913960400191505060405180910390fd5b600054610100900460ff161580156107d6576000805460ff1961ff0019909116610100171660011790555b83516107e99060ff9060208701906114ea565b5082516107fe906101009060208601906114ea565b50610101805460ff191660ff84161790558015610821576000805461ff00191690555b50505050565b60355490565b600061083a848484610d8e565b6108b084610846610c98565b6108ab85604051806060016040528060288152602001611661602891396001600160a01b038a16600090815260346020526040812090610884610c98565b6001600160a01b03168152602081019190915260400160002054919063ffffffff610eec16565b610c9c565b5060019392505050565b6101015460ff1690565b60006107406108d1610c98565b846108ab85603460006108e2610c98565b6001600160a01b03908116825260208083019390935260409182016000908120918c16815292529020549063ffffffff610f8316565b600061092a610925610c98565b610aef565b6109655760405162461bcd60e51b81526004018080602001828103825260308152602001806116106030913960400191505060405180910390fd5b6107408383610fe4565b61098061097a610c98565b826110d6565b50565b6001600160a01b031660009081526033602052604090205490565b6109a882826111d2565b5050565b6101008054604080516020601f6002600019600187161588020190951694909404938401819004810282018101909252828152606093909290918301828280156107215780601f106106f657610100808354040283529160200191610721565b610a17610925610c98565b610a525760405162461bcd60e51b81526004018080602001828103825260308152602001806116106030913960400191505060405180910390fd5b61098081611226565b610a6b610a66610c98565b61126e565b565b6000610740610a7a610c98565b846108ab856040518060600160405280602581526020016117676025913960346000610aa4610c98565b6001600160a01b03908116825260208083019390935260409182016000908120918d1681529252902054919063ffffffff610eec16565b6000610740610ae8610c98565b8484610d8e565b6000610b0260688363ffffffff6112b616565b92915050565b600054610100900460ff1680610b215750610b21610d88565b80610b2f575060005460ff16155b610b6a5760405162461bcd60e51b815260040180806020018281038252602e8152602001806116ab602e913960400191505060405180910390fd5b600054610100900460ff16158015610b95576000805460ff1961ff0019909116610100171660011790555b610b9e8261131d565b80156109a8576000805461ff00191690555050565b600054610100900460ff1680610bcc5750610bcc610d88565b80610bda575060005460ff16155b610c155760405162461bcd60e51b815260040180806020018281038252602e8152602001806116ab602e913960400191505060405180910390fd5b600054610100900460ff16158015610c40576000805460ff1961ff0019909116610100171660011790555b610c4982610b08565b610c54858585610749565b8015610c66576000805461ff00191690555b5050505050565b6001600160a01b03918216600090815260346020908152604080832093909416825291909152205490565b3390565b6001600160a01b038316610ce15760405162461bcd60e51b81526004018080602001828103825260248152602001806117436024913960400191505060405180910390fd5b6001600160a01b038216610d265760405162461bcd60e51b81526004018080602001828103825260228152602001806115c86022913960400191505060405180910390fd5b6001600160a01b03808416600081815260346020908152604080832094871680845294825291829020859055815185815291517f8c5be1e5ebec7d5bd14f71427d1e84f3dd0314c0f7b2291e5b200ac8c7c3b9259281900390910190a3505050565b303b1590565b6001600160a01b038316610dd35760405162461bcd60e51b815260040180806020018281038252602581526020018061171e6025913960400191505060405180910390fd5b6001600160a01b038216610e185760405162461bcd60e51b81526004018080602001828103825260238152602001806115836023913960400191505060405180910390fd5b610e5b816040518060600160405280602681526020016115ea602691396001600160a01b038616600090815260336020526040902054919063ffffffff610eec16565b6001600160a01b038085166000908152603360205260408082209390935590841681522054610e90908263ffffffff610f8316565b6001600160a01b0380841660008181526033602090815260409182902094909455805185815290519193928716927fddf252ad1be2c89b69c2b068fc378daa952ba7f163c4a11628f55a4df523b3ef92918290030190a3505050565b60008184841115610f7b5760405162461bcd60e51b81526004018080602001828103825283818151815260200191508051906020019080838360005b83811015610f40578181015183820152602001610f28565b50505050905090810190601f168015610f6d5780820380516001836020036101000a031916815260200191505b509250505060405180910390fd5b505050900390565b600082820183811015610fdd576040805162461bcd60e51b815260206004820152601b60248201527f536166654d6174683a206164646974696f6e206f766572666c6f770000000000604482015290519081900360640190fd5b9392505050565b6001600160a01b03821661103f576040805162461bcd60e51b815260206004820152601f60248201527f45524332303a206d696e7420746f20746865207a65726f206164647265737300604482015290519081900360640190fd5b603554611052908263ffffffff610f8316565b6035556001600160a01b03821660009081526033602052604090205461107e908263ffffffff610f8316565b6001600160a01b03831660008181526033602090815260408083209490945583518581529351929391927fddf252ad1be2c89b69c2b068fc378daa952ba7f163c4a11628f55a4df523b3ef9281900390910190a35050565b6001600160a01b03821661111b5760405162461bcd60e51b81526004018080602001828103825260218152602001806116fd6021913960400191505060405180910390fd5b61115e816040518060600160405280602281526020016115a6602291396001600160a01b038516600090815260336020526040902054919063ffffffff610eec16565b6001600160a01b03831660009081526033602052604090205560355461118a908263ffffffff6113c016565b6035556040805182815290516000916001600160a01b038516917fddf252ad1be2c89b69c2b068fc378daa952ba7f163c4a11628f55a4df523b3ef9181900360200190a35050565b6111dc82826110d6565b6109a8826111e8610c98565b6108ab846040518060600160405280602481526020016116d9602491396001600160a01b038816600090815260346020526040812090610884610c98565b61123760688263ffffffff61140216565b6040516001600160a01b038216907f6ae172837ea30b801fbfcdd4108aa1d5bf8ff775444fd70256b44e6bf3dfc3f690600090a250565b61127f60688263ffffffff61148316565b6040516001600160a01b038216907fe94479a9f7e1952cc78f2d6baab678adc1b772d936c6583def489e524cb6669290600090a250565b60006001600160a01b0382166112fd5760405162461bcd60e51b81526004018080602001828103825260228152602001806116896022913960400191505060405180910390fd5b506001600160a01b03166000908152602091909152604090205460ff1690565b600054610100900460ff16806113365750611336610d88565b80611344575060005460ff16155b61137f5760405162461bcd60e51b815260040180806020018281038252602e8152602001806116ab602e913960400191505060405180910390fd5b600054610100900460ff161580156113aa576000805460ff1961ff0019909116610100171660011790555b6113b382610aef565b610b9e57610b9e82611226565b6000610fdd83836040518060400160405280601e81526020017f536166654d6174683a207375627472616374696f6e206f766572666c6f770000815250610eec565b61140c82826112b6565b1561145e576040805162461bcd60e51b815260206004820152601f60248201527f526f6c65733a206163636f756e7420616c72656164792068617320726f6c6500604482015290519081900360640190fd5b6001600160a01b0316600090815260209190915260409020805460ff19166001179055565b61148d82826112b6565b6114c85760405162461bcd60e51b81526004018080602001828103825260218152602001806116406021913960400191505060405180910390fd5b6001600160a01b0316600090815260209190915260409020805460ff19169055565b828054600181600116156101000203166002900490600052602060002090601f016020900481019282601f1061152b57805160ff1916838001178555611558565b82800160010185558215611558579182015b8281111561155857825182559160200191906001019061153d565b50611564929150611568565b5090565b61072991905b80821115611564576000815560010161156e56fe45524332303a207472616e7366657220746f20746865207a65726f206164647265737345524332303a206275726e20616d6f756e7420657863656564732062616c616e636545524332303a20617070726f766520746f20746865207a65726f206164647265737345524332303a207472616e7366657220616d6f756e7420657863656564732062616c616e63654d696e746572526f6c653a2063616c6c657220646f6573206e6f74206861766520746865204d696e74657220726f6c65526f6c65733a206163636f756e7420646f6573206e6f74206861766520726f6c6545524332303a207472616e7366657220616d6f756e74206578636565647320616c6c6f77616e6365526f6c65733a206163636f756e7420697320746865207a65726f2061646472657373436f6e747261637420696e7374616e63652068617320616c7265616479206265656e20696e697469616c697a656445524332303a206275726e20616d6f756e74206578636565647320616c6c6f77616e636545524332303a206275726e2066726f6d20746865207a65726f206164647265737345524332303a207472616e736665722066726f6d20746865207a65726f206164647265737345524332303a20617070726f76652066726f6d20746865207a65726f206164647265737345524332303a2064656372656173656420616c6c6f77616e63652062656c6f77207a65726fa265627a7a72315820f9d01016eddb4b9e276ed2f8f6fc50620061dbfba65e0d87417640dce0ba2b5064736f6c63430005110032",
  "source": "pragma solidity ^0.5.0;\n\nimport \"../vendered/@openzeppelin/contracts-ethereum-package-3.0.0/contracts/token/ERC20/ERC20.sol\";\nimport \"../vendered/@openzeppelin/contracts-ethereum-package-3.0.0/contracts/token/ERC20/ERC20Mintable.sol\";\nimport \"../vendered/@openzeppelin/contracts-ethereum-package-3.0.0/contracts/token/ERC20/ERC20Burnable.sol\";\nimport \"../vendered/@openzeppelin/contracts-ethereum-package-3.0.0/contracts/token/ERC20/ERC20Detailed.sol\";\n\ncontract ERC20PatronageReceipt_v2_upgradable is\n    ERC20,\n    ERC20Mintable,\n    ERC20Burnable,\n    ERC20Detailed\n{\n    function setup(\n        string memory name,\n        string memory symbol,\n        uint8 decimals,\n        address minter\n    ) public initializer {\n        ERC20Mintable.initialize(minter);\n        ERC20Detailed.initialize(name, symbol, decimals);\n    }\n}\n",
  "sourcePath": "/home/jasoons/Documents/code/contracts/contracts/ERC20PatronageReceipt_v2_upgradable.sol",
  "compiler": {
    "name": "solc",
    "version": "0.5.17+commit.d19bba13.Emscripten.clang"
  },
  "schemaVersion": "3.2.3",
  "updatedAt": "2020-08-23T14:54:19.486Z",
  "networkType": "ethereum",
  "devdoc": {
    "methods": {
      "allowance(address,address)": {
        "details": "See {IERC20-allowance}."
      },
      "approve(address,uint256)": {
        "details": "See {IERC20-approve}.     * Requirements:     * - `spender` cannot be the zero address."
      },
      "balanceOf(address)": {
        "details": "See {IERC20-balanceOf}."
      },
      "burn(uint256)": {
        "details": "Destroys `amount` tokens from the caller.     * See {ERC20-_burn}."
      },
      "burnFrom(address,uint256)": {
        "details": "See {ERC20-_burnFrom}."
      },
      "decimals()": {
        "details": "Returns the number of decimals used to get its user representation. For example, if `decimals` equals `2`, a balance of `505` tokens should be displayed to a user as `5,05` (`505 / 10 ** 2`).     * Tokens usually opt for a value of 18, imitating the relationship between Ether and Wei.     * NOTE: This information is only used for _display_ purposes: it in no way affects any of the arithmetic of the contract, including {IERC20-balanceOf} and {IERC20-transfer}."
      },
      "decreaseAllowance(address,uint256)": {
        "details": "Atomically decreases the allowance granted to `spender` by the caller.     * This is an alternative to {approve} that can be used as a mitigation for problems described in {IERC20-approve}.     * Emits an {Approval} event indicating the updated allowance.     * Requirements:     * - `spender` cannot be the zero address. - `spender` must have allowance for the caller of at least `subtractedValue`."
      },
      "increaseAllowance(address,uint256)": {
        "details": "Atomically increases the allowance granted to `spender` by the caller.     * This is an alternative to {approve} that can be used as a mitigation for problems described in {IERC20-approve}.     * Emits an {Approval} event indicating the updated allowance.     * Requirements:     * - `spender` cannot be the zero address."
      },
      "initialize(string,string,uint8)": {
        "details": "Sets the values for `name`, `symbol`, and `decimals`. All three of these values are immutable: they can only be set once during construction."
      },
      "mint(address,uint256)": {
        "details": "See {ERC20-_mint}.     * Requirements:     * - the caller must have the {MinterRole}."
      },
      "name()": {
        "details": "Returns the name of the token."
      },
      "symbol()": {
        "details": "Returns the symbol of the token, usually a shorter version of the name."
      },
      "totalSupply()": {
        "details": "See {IERC20-totalSupply}."
      },
      "transfer(address,uint256)": {
        "details": "See {IERC20-transfer}.     * Requirements:     * - `recipient` cannot be the zero address. - the caller must have a balance of at least `amount`."
      },
      "transferFrom(address,address,uint256)": {
        "details": "See {IERC20-transferFrom}.     * Emits an {Approval} event indicating the updated allowance. This is not required by the EIP. See the note at the beginning of {ERC20};     * Requirements: - `sender` and `recipient` cannot be the zero address. - `sender` must have a balance of at least `amount`. - the caller must have allowance for `sender`'s tokens of at least `amount`."
      }
    }
  },
  "userdoc": {
    "methods": {}
  }
}