{
  "contractName": "WildcardSteward_v3_matic",
  "abi": [
    {
      "anonymous": false,
      "inputs": [
        {
          "indexed": true,
          "internalType": "uint256",
          "name": "tokenId",
          "type": "uint256"
        },
        {
          "indexed": false,
          "internalType": "uint256",
          "name": "patronageNumerator",
          "type": "uint256"
        },
        {
          "indexed": false,
          "internalType": "uint256",
          "name": "unixTimestampOfTokenAuctionStart",
          "type": "uint256"
        }
      ],
      "name": "AddTokenV3",
      "type": "event"
    },
    {
      "anonymous": false,
      "inputs": [
        {
          "indexed": true,
          "internalType": "uint256",
          "name": "tokenId",
          "type": "uint256"
        },
        {
          "indexed": false,
          "internalType": "address",
          "name": "artist",
          "type": "address"
        },
        {
          "indexed": false,
          "internalType": "uint256",
          "name": "artistCommission",
          "type": "uint256"
        }
      ],
      "name": "ArtistCommission",
      "type": "event"
    },
    {
      "anonymous": false,
      "inputs": [
        {
          "indexed": true,
          "internalType": "uint256",
          "name": "tokenId",
          "type": "uint256"
        },
        {
          "indexed": true,
          "internalType": "address",
          "name": "owner",
          "type": "address"
        },
        {
          "indexed": false,
          "internalType": "uint256",
          "name": "price",
          "type": "uint256"
        }
      ],
      "name": "Buy",
      "type": "event"
    },
    {
      "anonymous": false,
      "inputs": [],
      "name": "ChangeAuctionParameters",
      "type": "event"
    },
    {
      "anonymous": false,
      "inputs": [
        {
          "indexed": true,
          "internalType": "address",
          "name": "patron",
          "type": "address"
        },
        {
          "indexed": false,
          "internalType": "uint256",
          "name": "amountRecieved",
          "type": "uint256"
        }
      ],
      "name": "CollectLoyalty",
      "type": "event"
    },
    {
      "anonymous": false,
      "inputs": [
        {
          "indexed": true,
          "internalType": "uint256",
          "name": "tokenId",
          "type": "uint256"
        },
        {
          "indexed": true,
          "internalType": "address",
          "name": "patron",
          "type": "address"
        },
        {
          "indexed": false,
          "internalType": "uint256",
          "name": "remainingDeposit",
          "type": "uint256"
        },
        {
          "indexed": false,
          "internalType": "uint256",
          "name": "amountReceived",
          "type": "uint256"
        }
      ],
      "name": "CollectPatronage",
      "type": "event"
    },
    {
      "anonymous": false,
      "inputs": [
        {
          "indexed": true,
          "internalType": "address",
          "name": "prevOwner",
          "type": "address"
        },
        {
          "indexed": false,
          "internalType": "uint256",
          "name": "foreclosureTime",
          "type": "uint256"
        }
      ],
      "name": "Foreclosure",
      "type": "event"
    },
    {
      "anonymous": false,
      "inputs": [
        {
          "indexed": false,
          "internalType": "address",
          "name": "userAddress",
          "type": "address"
        },
        {
          "indexed": false,
          "internalType": "address payable",
          "name": "relayerAddress",
          "type": "address"
        },
        {
          "indexed": false,
          "internalType": "bytes",
          "name": "functionSignature",
          "type": "bytes"
        }
      ],
      "name": "MetaTransactionExecuted",
      "type": "event"
    },
    {
      "anonymous": false,
      "inputs": [
        {
          "indexed": true,
          "internalType": "uint256",
          "name": "tokenId",
          "type": "uint256"
        },
        {
          "indexed": false,
          "internalType": "uint256",
          "name": "newPrice",
          "type": "uint256"
        }
      ],
      "name": "PriceChange",
      "type": "event"
    },
    {
      "anonymous": false,
      "inputs": [
        {
          "indexed": true,
          "internalType": "address",
          "name": "tokenPatron",
          "type": "address"
        },
        {
          "indexed": false,
          "internalType": "uint256",
          "name": "remainingDeposit",
          "type": "uint256"
        }
      ],
      "name": "RemainingDepositUpdate",
      "type": "event"
    },
    {
      "anonymous": false,
      "inputs": [
        {
          "indexed": false,
          "internalType": "address",
          "name": "sender",
          "type": "address"
        },
        {
          "indexed": false,
          "internalType": "address",
          "name": "paymentTokenAdr",
          "type": "address"
        },
        {
          "indexed": false,
          "internalType": "address",
          "name": "randomArg",
          "type": "address"
        }
      ],
      "name": "TestEvent",
      "type": "event"
    },
    {
      "anonymous": false,
      "inputs": [],
      "name": "UpgradeToV3",
      "type": "event"
    },
    {
      "anonymous": false,
      "inputs": [
        {
          "indexed": true,
          "internalType": "address",
          "name": "benefactor",
          "type": "address"
        },
        {
          "indexed": false,
          "internalType": "uint256",
          "name": "withdrawAmount",
          "type": "uint256"
        }
      ],
      "name": "WithdrawBenefactorFunds",
      "type": "event"
    },
    {
      "anonymous": false,
      "inputs": [
        {
          "indexed": true,
          "internalType": "address",
          "name": "benefactor",
          "type": "address"
        },
        {
          "indexed": false,
          "internalType": "uint256",
          "name": "withdrawAmount",
          "type": "uint256"
        }
      ],
      "name": "WithdrawBenefactorFundsWithSafetyDelay",
      "type": "event"
    },
    {
      "inputs": [],
      "name": "admin",
      "outputs": [
        {
          "internalType": "address",
          "name": "",
          "type": "address"
        }
      ],
      "stateMutability": "view",
      "type": "function",
      "constant": true
    },
    {
      "inputs": [
        {
          "internalType": "uint256",
          "name": "",
          "type": "uint256"
        }
      ],
      "name": "artistAddresses",
      "outputs": [
        {
          "internalType": "address",
          "name": "",
          "type": "address"
        }
      ],
      "stateMutability": "view",
      "type": "function",
      "constant": true
    },
    {
      "inputs": [
        {
          "internalType": "uint256",
          "name": "",
          "type": "uint256"
        }
      ],
      "name": "artistPercentages",
      "outputs": [
        {
          "internalType": "uint256",
          "name": "",
          "type": "uint256"
        }
      ],
      "stateMutability": "view",
      "type": "function",
      "constant": true
    },
    {
      "inputs": [],
      "name": "assetToken",
      "outputs": [
        {
          "internalType": "contract IERC721Patronage",
          "name": "",
          "type": "address"
        }
      ],
      "stateMutability": "view",
      "type": "function",
      "constant": true
    },
    {
      "inputs": [],
      "name": "auctionEndPrice",
      "outputs": [
        {
          "internalType": "uint256",
          "name": "",
          "type": "uint256"
        }
      ],
      "stateMutability": "view",
      "type": "function",
      "constant": true
    },
    {
      "inputs": [],
      "name": "auctionLength",
      "outputs": [
        {
          "internalType": "uint256",
          "name": "",
          "type": "uint256"
        }
      ],
      "stateMutability": "view",
      "type": "function",
      "constant": true
    },
    {
      "inputs": [],
      "name": "auctionStartPrice",
      "outputs": [
        {
          "internalType": "uint256",
          "name": "",
          "type": "uint256"
        }
      ],
      "stateMutability": "view",
      "type": "function",
      "constant": true
    },
    {
      "inputs": [
        {
          "internalType": "address",
          "name": "",
          "type": "address"
        }
      ],
      "name": "benefactorCredit",
      "outputs": [
        {
          "internalType": "uint256",
          "name": "",
          "type": "uint256"
        }
      ],
      "stateMutability": "view",
      "type": "function",
      "constant": true
    },
    {
      "inputs": [
        {
          "internalType": "address",
          "name": "",
          "type": "address"
        }
      ],
      "name": "benefactorFunds",
      "outputs": [
        {
          "internalType": "uint256",
          "name": "",
          "type": "uint256"
        }
      ],
      "stateMutability": "view",
      "type": "function",
      "constant": true
    },
    {
      "inputs": [
        {
          "internalType": "uint256",
          "name": "",
          "type": "uint256"
        }
      ],
      "name": "benefactors",
      "outputs": [
        {
          "internalType": "address",
          "name": "",
          "type": "address"
        }
      ],
      "stateMutability": "view",
      "type": "function",
      "constant": true
    },
    {
      "inputs": [
        {
          "internalType": "address",
          "name": "",
          "type": "address"
        }
      ],
      "name": "deposit",
      "outputs": [
        {
          "internalType": "uint256",
          "name": "",
          "type": "uint256"
        }
      ],
      "stateMutability": "view",
      "type": "function",
      "constant": true
    },
    {
      "inputs": [
        {
          "internalType": "address",
          "name": "userAddress",
          "type": "address"
        },
        {
          "internalType": "bytes",
          "name": "functionSignature",
          "type": "bytes"
        },
        {
          "internalType": "bytes32",
          "name": "sigR",
          "type": "bytes32"
        },
        {
          "internalType": "bytes32",
          "name": "sigS",
          "type": "bytes32"
        },
        {
          "internalType": "uint8",
          "name": "sigV",
          "type": "uint8"
        }
      ],
      "name": "executeMetaTransaction",
      "outputs": [
        {
          "internalType": "bytes",
          "name": "",
          "type": "bytes"
        }
      ],
      "stateMutability": "payable",
      "type": "function",
      "payable": true
    },
    {
      "inputs": [],
      "name": "getChainID",
      "outputs": [
        {
          "internalType": "uint256",
          "name": "",
          "type": "uint256"
        }
      ],
      "stateMutability": "pure",
      "type": "function",
      "constant": true
    },
    {
      "inputs": [
        {
          "internalType": "address",
          "name": "user",
          "type": "address"
        }
      ],
      "name": "getNonce",
      "outputs": [
        {
          "internalType": "uint256",
          "name": "nonce",
          "type": "uint256"
        }
      ],
      "stateMutability": "view",
      "type": "function",
      "constant": true
    },
    {
      "inputs": [],
      "name": "globalTokenGenerationRate",
      "outputs": [
        {
          "internalType": "uint256",
          "name": "",
          "type": "uint256"
        }
      ],
      "stateMutability": "view",
      "type": "function",
      "constant": true
    },
    {
      "inputs": [],
      "name": "mintManager",
      "outputs": [
        {
          "internalType": "contract IMintManager",
          "name": "",
          "type": "address"
        }
      ],
      "stateMutability": "view",
      "type": "function",
      "constant": true
    },
    {
      "inputs": [],
      "name": "patronageDenominator",
      "outputs": [
        {
          "internalType": "uint256",
          "name": "",
          "type": "uint256"
        }
      ],
      "stateMutability": "view",
      "type": "function",
      "constant": true
    },
    {
      "inputs": [
        {
          "internalType": "uint256",
          "name": "",
          "type": "uint256"
        }
      ],
      "name": "patronageNumerator",
      "outputs": [
        {
          "internalType": "uint256",
          "name": "",
          "type": "uint256"
        }
      ],
      "stateMutability": "view",
      "type": "function",
      "constant": true
    },
    {
      "inputs": [],
      "name": "paymentToken",
      "outputs": [
        {
          "internalType": "contract Dai",
          "name": "",
          "type": "address"
        }
      ],
      "stateMutability": "view",
      "type": "function",
      "constant": true
    },
    {
      "inputs": [
        {
          "internalType": "uint256",
          "name": "",
          "type": "uint256"
        }
      ],
      "name": "price",
      "outputs": [
        {
          "internalType": "uint256",
          "name": "",
          "type": "uint256"
        }
      ],
      "stateMutability": "view",
      "type": "function",
      "constant": true
    },
    {
      "inputs": [
        {
          "internalType": "uint256",
          "name": "",
          "type": "uint256"
        }
      ],
      "name": "serviceProviderPercentages",
      "outputs": [
        {
          "internalType": "uint256",
          "name": "",
          "type": "uint256"
        }
      ],
      "stateMutability": "view",
      "type": "function",
      "constant": true
    },
    {
      "inputs": [
        {
          "internalType": "uint256",
          "name": "",
          "type": "uint256"
        }
      ],
      "name": "state",
      "outputs": [
        {
          "internalType": "enum WildcardSteward_v3_matic.StewardState",
          "name": "",
          "type": "uint8"
        }
      ],
      "stateMutability": "view",
      "type": "function",
      "constant": true
    },
    {
      "inputs": [
        {
          "internalType": "address",
          "name": "",
          "type": "address"
        }
      ],
      "name": "timeLastCollectedBenefactor",
      "outputs": [
        {
          "internalType": "uint256",
          "name": "",
          "type": "uint256"
        }
      ],
      "stateMutability": "view",
      "type": "function",
      "constant": true
    },
    {
      "inputs": [
        {
          "internalType": "address",
          "name": "",
          "type": "address"
        }
      ],
      "name": "timeLastCollectedPatron",
      "outputs": [
        {
          "internalType": "uint256",
          "name": "",
          "type": "uint256"
        }
      ],
      "stateMutability": "view",
      "type": "function",
      "constant": true
    },
    {
      "inputs": [
        {
          "internalType": "uint256",
          "name": "",
          "type": "uint256"
        }
      ],
      "name": "tokenAuctionBeginTimestamp",
      "outputs": [
        {
          "internalType": "uint256",
          "name": "",
          "type": "uint256"
        }
      ],
      "stateMutability": "view",
      "type": "function",
      "constant": true
    },
    {
      "inputs": [
        {
          "internalType": "address",
          "name": "",
          "type": "address"
        }
      ],
      "name": "totalBenefactorTokenNumerator",
      "outputs": [
        {
          "internalType": "uint256",
          "name": "",
          "type": "uint256"
        }
      ],
      "stateMutability": "view",
      "type": "function",
      "constant": true
    },
    {
      "inputs": [
        {
          "internalType": "address",
          "name": "",
          "type": "address"
        }
      ],
      "name": "totalPatronOwnedTokenCost",
      "outputs": [
        {
          "internalType": "uint256",
          "name": "",
          "type": "uint256"
        }
      ],
      "stateMutability": "view",
      "type": "function",
      "constant": true
    },
    {
      "inputs": [
        {
          "internalType": "address",
          "name": "",
          "type": "address"
        }
      ],
      "name": "totalPatronTokenGenerationRate",
      "outputs": [
        {
          "internalType": "uint256",
          "name": "",
          "type": "uint256"
        }
      ],
      "stateMutability": "view",
      "type": "function",
      "constant": true
    },
    {
      "inputs": [
        {
          "internalType": "address",
          "name": "owner",
          "type": "address"
        },
        {
          "internalType": "uint256",
          "name": "nonce",
          "type": "uint256"
        },
        {
          "internalType": "uint256",
          "name": "chainID",
          "type": "uint256"
        },
        {
          "internalType": "bytes",
          "name": "functionSignature",
          "type": "bytes"
        },
        {
          "internalType": "bytes32",
          "name": "sigR",
          "type": "bytes32"
        },
        {
          "internalType": "bytes32",
          "name": "sigS",
          "type": "bytes32"
        },
        {
          "internalType": "uint8",
          "name": "sigV",
          "type": "uint8"
        }
      ],
      "name": "verify",
      "outputs": [
        {
          "internalType": "bool",
          "name": "",
          "type": "bool"
        }
      ],
      "stateMutability": "view",
      "type": "function",
      "constant": true
    },
    {
      "inputs": [],
      "name": "withdrawCheckerAdmin",
      "outputs": [
        {
          "internalType": "address",
          "name": "",
          "type": "address"
        }
      ],
      "stateMutability": "view",
      "type": "function",
      "constant": true
    },
    {
      "inputs": [
        {
          "internalType": "uint256",
          "name": "",
          "type": "uint256"
        }
      ],
      "name": "withdrawalNonceUsed",
      "outputs": [
        {
          "internalType": "bool",
          "name": "",
          "type": "bool"
        }
      ],
      "stateMutability": "view",
      "type": "function",
      "constant": true
    },
    {
      "inputs": [],
      "name": "yearTimePatronagDenominator",
      "outputs": [
        {
          "internalType": "uint256",
          "name": "",
          "type": "uint256"
        }
      ],
      "stateMutability": "view",
      "type": "function",
      "constant": true
    },
    {
      "inputs": [
        {
          "internalType": "address",
          "name": "_assetToken",
          "type": "address"
        },
        {
          "internalType": "address",
          "name": "_admin",
          "type": "address"
        },
        {
          "internalType": "address",
          "name": "_mintManager",
          "type": "address"
        },
        {
          "internalType": "address",
          "name": "_withdrawCheckerAdmin",
          "type": "address"
        },
        {
          "internalType": "uint256",
          "name": "_auctionStartPrice",
          "type": "uint256"
        },
        {
          "internalType": "uint256",
          "name": "_auctionEndPrice",
          "type": "uint256"
        },
        {
          "internalType": "uint256",
          "name": "_auctionLength",
          "type": "uint256"
        },
        {
          "internalType": "address",
          "name": "_paymentToken",
          "type": "address"
        }
      ],
      "name": "initialize",
      "outputs": [],
      "stateMutability": "nonpayable",
      "type": "function"
    },
    {
      "inputs": [
        {
          "internalType": "uint256[]",
          "name": "tokens",
          "type": "uint256[]"
        },
        {
          "internalType": "address[]",
          "name": "_benefactors",
          "type": "address[]"
        },
        {
          "internalType": "uint256[]",
          "name": "_patronageNumerator",
          "type": "uint256[]"
        },
        {
          "internalType": "address[]",
          "name": "_artists",
          "type": "address[]"
        },
        {
          "internalType": "uint256[]",
          "name": "_artistCommission",
          "type": "uint256[]"
        },
        {
          "internalType": "uint256[]",
          "name": "_releaseDate",
          "type": "uint256[]"
        }
      ],
      "name": "listNewTokens",
      "outputs": [],
      "stateMutability": "nonpayable",
      "type": "function"
    },
    {
      "inputs": [
        {
          "internalType": "uint256",
          "name": "tokenId",
          "type": "uint256"
        },
        {
          "internalType": "address",
          "name": "_newReceivingBenefactor",
          "type": "address"
        }
      ],
      "name": "changeReceivingBenefactor",
      "outputs": [],
      "stateMutability": "nonpayable",
      "type": "function"
    },
    {
      "inputs": [
        {
          "internalType": "address",
          "name": "oldBenfactor",
          "type": "address"
        },
        {
          "internalType": "address",
          "name": "_newReceivingBenefactor",
          "type": "address"
        }
      ],
      "name": "changeReceivingBenefactorDeposit",
      "outputs": [],
      "stateMutability": "nonpayable",
      "type": "function"
    },
    {
      "inputs": [
        {
          "internalType": "address",
          "name": "_admin",
          "type": "address"
        }
      ],
      "name": "changeAdmin",
      "outputs": [],
      "stateMutability": "nonpayable",
      "type": "function"
    },
    {
      "inputs": [
        {
          "internalType": "address",
          "name": "_withdrawCheckerAdmin",
          "type": "address"
        }
      ],
      "name": "changeWithdrawCheckerAdmin",
      "outputs": [],
      "stateMutability": "nonpayable",
      "type": "function"
    },
    {
      "inputs": [
        {
          "internalType": "uint256",
          "name": "tokenId",
          "type": "uint256"
        },
        {
          "internalType": "address",
          "name": "artistAddress",
          "type": "address"
        },
        {
          "internalType": "uint256",
          "name": "percentage",
          "type": "uint256"
        }
      ],
      "name": "changeArtistAddressAndCommission",
      "outputs": [],
      "stateMutability": "nonpayable",
      "type": "function"
    },
    {
      "inputs": [
        {
          "internalType": "uint256",
          "name": "_auctionStartPrice",
          "type": "uint256"
        },
        {
          "internalType": "uint256",
          "name": "_auctionEndPrice",
          "type": "uint256"
        },
        {
          "internalType": "uint256",
          "name": "_auctionLength",
          "type": "uint256"
        }
      ],
      "name": "changeAuctionParameters",
      "outputs": [],
      "stateMutability": "nonpayable",
      "type": "function"
    },
    {
      "inputs": [
        {
          "internalType": "address",
          "name": "tokenPatron",
          "type": "address"
        }
      ],
      "name": "patronageOwedPatron",
      "outputs": [
        {
          "internalType": "uint256",
          "name": "patronageDue",
          "type": "uint256"
        }
      ],
      "stateMutability": "view",
      "type": "function",
      "constant": true
    },
    {
      "inputs": [
        {
          "internalType": "address",
          "name": "benefactor",
          "type": "address"
        }
      ],
      "name": "patronageDueBenefactor",
      "outputs": [
        {
          "internalType": "uint256",
          "name": "payoutDue",
          "type": "uint256"
        }
      ],
      "stateMutability": "view",
      "type": "function",
      "constant": true
    },
    {
      "inputs": [
        {
          "internalType": "address",
          "name": "tokenPatron",
          "type": "address"
        }
      ],
      "name": "foreclosedPatron",
      "outputs": [
        {
          "internalType": "bool",
          "name": "",
          "type": "bool"
        }
      ],
      "stateMutability": "view",
      "type": "function",
      "constant": true
    },
    {
      "inputs": [
        {
          "internalType": "uint256",
          "name": "tokenId",
          "type": "uint256"
        }
      ],
      "name": "foreclosed",
      "outputs": [
        {
          "internalType": "bool",
          "name": "",
          "type": "bool"
        }
      ],
      "stateMutability": "view",
      "type": "function",
      "constant": true
    },
    {
      "inputs": [
        {
          "internalType": "address",
          "name": "tokenPatron",
          "type": "address"
        }
      ],
      "name": "depositAbleToWithdraw",
      "outputs": [
        {
          "internalType": "uint256",
          "name": "",
          "type": "uint256"
        }
      ],
      "stateMutability": "view",
      "type": "function",
      "constant": true
    },
    {
      "inputs": [
        {
          "internalType": "address",
          "name": "tokenPatron",
          "type": "address"
        }
      ],
      "name": "foreclosureTimePatron",
      "outputs": [
        {
          "internalType": "uint256",
          "name": "",
          "type": "uint256"
        }
      ],
      "stateMutability": "view",
      "type": "function",
      "constant": true
    },
    {
      "inputs": [
        {
          "internalType": "uint256",
          "name": "tokenId",
          "type": "uint256"
        }
      ],
      "name": "foreclosureTime",
      "outputs": [
        {
          "internalType": "uint256",
          "name": "",
          "type": "uint256"
        }
      ],
      "stateMutability": "view",
      "type": "function",
      "constant": true
    },
    {
      "inputs": [
        {
          "internalType": "uint256",
          "name": "tokenId",
          "type": "uint256"
        }
      ],
      "name": "_collectPatronageAndSettleBenefactor",
      "outputs": [],
      "stateMutability": "nonpayable",
      "type": "function"
    },
    {
      "inputs": [
        {
          "internalType": "address",
          "name": "benefactor",
          "type": "address"
        }
      ],
      "name": "_updateBenefactorBalance",
      "outputs": [],
      "stateMutability": "nonpayable",
      "type": "function"
    },
    {
      "inputs": [
        {
          "internalType": "address",
          "name": "benefactor",
          "type": "address"
        }
      ],
      "name": "withdrawBenefactorFundsTo",
      "outputs": [],
      "stateMutability": "nonpayable",
      "type": "function"
    },
    {
      "inputs": [
        {
          "internalType": "address",
          "name": "benefactor",
          "type": "address"
        },
        {
          "internalType": "uint256",
          "name": "maxAmount",
          "type": "uint256"
        },
        {
          "internalType": "uint256",
          "name": "expiry",
          "type": "uint256"
        },
        {
          "internalType": "uint256",
          "name": "nonce",
          "type": "uint256"
        }
      ],
      "name": "hasher",
      "outputs": [
        {
          "internalType": "bytes32",
          "name": "",
          "type": "bytes32"
        }
      ],
      "stateMutability": "view",
      "type": "function",
      "constant": true
    },
    {
      "inputs": [
        {
          "internalType": "address",
          "name": "benefactor",
          "type": "address"
        },
        {
          "internalType": "uint256",
          "name": "maxAmount",
          "type": "uint256"
        },
        {
          "internalType": "uint256",
          "name": "expiry",
          "type": "uint256"
        },
        {
          "internalType": "uint256",
          "name": "nonce",
          "type": "uint256"
        },
        {
          "internalType": "bytes32",
          "name": "hash",
          "type": "bytes32"
        },
        {
          "internalType": "uint8",
          "name": "v",
          "type": "uint8"
        },
        {
          "internalType": "bytes32",
          "name": "r",
          "type": "bytes32"
        },
        {
          "internalType": "bytes32",
          "name": "s",
          "type": "bytes32"
        }
      ],
      "name": "withdrawBenefactorFundsToValidated",
      "outputs": [],
      "stateMutability": "nonpayable",
      "type": "function"
    },
    {
      "inputs": [
        {
          "internalType": "address",
          "name": "tokenPatron",
          "type": "address"
        }
      ],
      "name": "_collectPatronagePatron",
      "outputs": [
        {
          "internalType": "uint256",
          "name": "newTimeLastCollectedOnForeclosure",
          "type": "uint256"
        }
      ],
      "stateMutability": "nonpayable",
      "type": "function"
    },
    {
      "inputs": [
        {
          "internalType": "uint256",
          "name": "amount",
          "type": "uint256"
        }
      ],
      "name": "depositWei",
      "outputs": [],
      "stateMutability": "nonpayable",
      "type": "function"
    },
    {
      "inputs": [
        {
          "internalType": "uint256",
          "name": "nonce",
          "type": "uint256"
        },
        {
          "internalType": "uint256",
          "name": "expiry",
          "type": "uint256"
        },
        {
          "internalType": "bool",
          "name": "allowed",
          "type": "bool"
        },
        {
          "internalType": "uint8",
          "name": "v",
          "type": "uint8"
        },
        {
          "internalType": "bytes32",
          "name": "r",
          "type": "bytes32"
        },
        {
          "internalType": "bytes32",
          "name": "s",
          "type": "bytes32"
        },
        {
          "internalType": "address",
          "name": "patron",
          "type": "address"
        },
        {
          "internalType": "uint256",
          "name": "amount",
          "type": "uint256"
        }
      ],
      "name": "depositWithPermit",
      "outputs": [],
      "stateMutability": "nonpayable",
      "type": "function"
    },
    {
      "inputs": [
        {
          "internalType": "uint256",
          "name": "nonce",
          "type": "uint256"
        },
        {
          "internalType": "uint256",
          "name": "expiry",
          "type": "uint256"
        },
        {
          "internalType": "bool",
          "name": "allowed",
          "type": "bool"
        },
        {
          "internalType": "uint8",
          "name": "v",
          "type": "uint8"
        },
        {
          "internalType": "bytes32",
          "name": "r",
          "type": "bytes32"
        },
        {
          "internalType": "bytes32",
          "name": "s",
          "type": "bytes32"
        },
        {
          "internalType": "uint256",
          "name": "tokenId",
          "type": "uint256"
        },
        {
          "internalType": "uint256",
          "name": "_newPrice",
          "type": "uint256"
        },
        {
          "internalType": "uint256",
          "name": "previousPrice",
          "type": "uint256"
        },
        {
          "internalType": "uint256",
          "name": "serviceProviderPercentage",
          "type": "uint256"
        },
        {
          "internalType": "uint256",
          "name": "depositAmount",
          "type": "uint256"
        }
      ],
      "name": "buyWithPermit",
      "outputs": [],
      "stateMutability": "nonpayable",
      "type": "function"
    },
    {
      "inputs": [
        {
          "internalType": "uint256",
          "name": "tokenId",
          "type": "uint256"
        },
        {
          "internalType": "uint256",
          "name": "_newPrice",
          "type": "uint256"
        },
        {
          "internalType": "uint256",
          "name": "previousPrice",
          "type": "uint256"
        },
        {
          "internalType": "uint256",
          "name": "serviceProviderPercentage",
          "type": "uint256"
        },
        {
          "internalType": "uint256",
          "name": "depositAmount",
          "type": "uint256"
        }
      ],
      "name": "buy",
      "outputs": [],
      "stateMutability": "nonpayable",
      "type": "function"
    },
    {
      "inputs": [
        {
          "internalType": "uint256",
          "name": "nonce",
          "type": "uint256"
        },
        {
          "internalType": "uint256",
          "name": "expiry",
          "type": "uint256"
        },
        {
          "internalType": "bool",
          "name": "allowed",
          "type": "bool"
        },
        {
          "internalType": "uint8",
          "name": "v",
          "type": "uint8"
        },
        {
          "internalType": "bytes32",
          "name": "r",
          "type": "bytes32"
        },
        {
          "internalType": "bytes32",
          "name": "s",
          "type": "bytes32"
        },
        {
          "internalType": "uint256",
          "name": "tokenId",
          "type": "uint256"
        },
        {
          "internalType": "uint256",
          "name": "_newPrice",
          "type": "uint256"
        },
        {
          "internalType": "uint256",
          "name": "serviceProviderPercentage",
          "type": "uint256"
        },
        {
          "internalType": "uint256",
          "name": "depositAmount",
          "type": "uint256"
        }
      ],
      "name": "buyAuctionWithPermit",
      "outputs": [],
      "stateMutability": "nonpayable",
      "type": "function"
    },
    {
      "inputs": [
        {
          "internalType": "uint256",
          "name": "tokenId",
          "type": "uint256"
        },
        {
          "internalType": "uint256",
          "name": "_newPrice",
          "type": "uint256"
        },
        {
          "internalType": "uint256",
          "name": "serviceProviderPercentage",
          "type": "uint256"
        },
        {
          "internalType": "uint256",
          "name": "depositAmount",
          "type": "uint256"
        }
      ],
      "name": "buyAuction",
      "outputs": [],
      "stateMutability": "nonpayable",
      "type": "function"
    },
    {
      "inputs": [
        {
          "internalType": "uint256",
          "name": "tokenId",
          "type": "uint256"
        },
        {
          "internalType": "uint256",
          "name": "_newPrice",
          "type": "uint256"
        }
      ],
      "name": "changePrice",
      "outputs": [],
      "stateMutability": "nonpayable",
      "type": "function"
    },
    {
      "inputs": [
        {
          "internalType": "uint256",
          "name": "_wei",
          "type": "uint256"
        }
      ],
      "name": "withdrawDeposit",
      "outputs": [
        {
          "internalType": "uint256",
          "name": "",
          "type": "uint256"
        }
      ],
      "stateMutability": "nonpayable",
      "type": "function"
    },
    {
      "inputs": [],
      "name": "withdrawBenefactorFunds",
      "outputs": [],
      "stateMutability": "nonpayable",
      "type": "function"
    },
    {
      "inputs": [],
      "name": "exit",
      "outputs": [],
      "stateMutability": "nonpayable",
      "type": "function"
    },
    {
      "inputs": [
        {
          "internalType": "address",
          "name": "randomArg",
          "type": "address"
        }
      ],
      "name": "testFunctionThatDoesNothing",
      "outputs": [],
      "stateMutability": "nonpayable",
      "type": "function"
    }
  ],
  "bytecode": "0x608060405234801561001057600080fd5b506156f480620000216000396000f3fe6080604052600436106103c35760003560e01c8063831ffd05116101f2578063c255dd001161010d578063e1c214c6116100a0578063e9fad8ee1161006f578063e9fad8ee14611432578063f340fa0114611447578063f851a4401461147a578063f9345df51461148f576103c3565b8063e1c214c614611378578063e2e7ec21146113a2578063e357420e146113cc578063e4fb7aa9146113ff576103c3565b8063d756985b116100dc578063d756985b14610f95578063d8c1cdce14610faa578063d9d85b071461100d578063e00c50e714611040576103c3565b8063c255dd0014610e9f578063c6d7b51914610ed2578063cec4a53914610f11578063d3e0beae14610f80576103c3565b8063ac946b3a11610185578063b9c3c38d11610154578063b9c3c38d14610dd3578063bfe5f50a14610e06578063c07d7e1b14610e39578063c08f66cb14610e6c576103c3565b8063ac946b3a14610d20578063b08d024b14610d5b578063b3de019c14610d8e578063b9af132c14610dbe576103c3565b8063a0c0e87b116101c1578063a0c0e87b14610c56578063a3f81da014610c6b578063a6b9feb114610c95578063a74a752214610cbf576103c3565b8063831ffd0514610bba5780638d9e36ba14610be45780638f28397014610c0e578063a04a6ac814610c41576103c3565b806333289a46116102e25780636281133d1161027557806367bcbbc11161024457806367bcbbc114610b2a5780636ceadbe514610b3f57806377d9efc814610b725780637e4edf7014610ba5576103c3565b80636281133d146109745780636399af7314610a4f5780636420488814610a825780636426354e14610ac4576103c3565b80633e4f49e6116102b15780633e4f49e6146108a55780634256450e146108f05780634f9c10d41461091a578063564b81ef1461095f576103c3565b806333289a46146107c5578063385320aa146107ef57806338f65cc7146108045780633adbd0fb1461086c576103c3565b80632488a69e1161035a5780632d0335ab116103295780632d0335ab146107355780632d3c42e1146107685780633013ce291461079b578063325c25a2146107b0576103c3565b80632488a69e14610672578063259c5f09146106a557806326a49e37146106d85780632c3db6ea14610702576103c3565b80631083f761116103965780631083f7611461059d578063128ee161146105ce5780631e8b76ad146105f857806322cb8b4a14610636576103c3565b8063013cc15f146103c85780630972c4f8146104005780630b2efb4c1461042a5780630c53c51c14610466575b600080fd5b3480156103d457600080fd5b506103fe600480360360608110156103eb57600080fd5b50803590602081013590604001356114c2565b005b34801561040c57600080fd5b506103fe6004803603602081101561042357600080fd5b503561152d565b34801561043657600080fd5b506104546004803603602081101561044d57600080fd5b50356116cf565b60408051918252519081900360200190f35b610528600480360360a081101561047c57600080fd5b6001600160a01b038235169190810190604081016020820135600160201b8111156104a657600080fd5b8201836020820111156104b857600080fd5b803590602001918460018302840111600160201b831117156104d957600080fd5b91908080601f016020809104026020016040519081016040528093929190818152602001838380828437600092019190915250929550508235935050506020810135906040013560ff166116e1565b6040805160208082528351818301528351919283929083019185019080838360005b8381101561056257818101518382015260200161054a565b50505050905090810190601f16801561058f5780820380516001836020036101000a031916815260200191505b509250505060405180910390f35b3480156105a957600080fd5b506105b26119d8565b604080516001600160a01b039092168252519081900360200190f35b3480156105da57600080fd5b506105b2600480360360208110156105f157600080fd5b50356119e7565b34801561060457600080fd5b506106226004803603602081101561061b57600080fd5b5035611a02565b604080519115158252519081900360200190f35b34801561064257600080fd5b506103fe6004803603608081101561065957600080fd5b5080359060208101359060408101359060600135611a93565b34801561067e57600080fd5b506104546004803603602081101561069557600080fd5b50356001600160a01b0316611e4c565b3480156106b157600080fd5b506103fe600480360360208110156106c857600080fd5b50356001600160a01b0316611fd5565b3480156106e457600080fd5b50610454600480360360208110156106fb57600080fd5b503561202f565b34801561070e57600080fd5b506103fe6004803603602081101561072557600080fd5b50356001600160a01b0316612041565b34801561074157600080fd5b506104546004803603602081101561075857600080fd5b50356001600160a01b0316612162565b34801561077457600080fd5b506104546004803603602081101561078b57600080fd5b50356001600160a01b031661217d565b3480156107a757600080fd5b506105b26121d9565b3480156107bc57600080fd5b506104546121e8565b3480156107d157600080fd5b50610454600480360360208110156107e857600080fd5b50356121ee565b3480156107fb57600080fd5b506103fe612211565b34801561081057600080fd5b506103fe600480360361014081101561082857600080fd5b50803590602081013590604081013515159060ff6060820135169060808101359060a08101359060c08101359060e081013590610100810135906101200135612223565b34801561087857600080fd5b506103fe6004803603604081101561088f57600080fd5b50803590602001356001600160a01b03166122e6565b3480156108b157600080fd5b506108cf600480360360208110156108c857600080fd5b5035612526565b604051808260018111156108df57fe5b815260200191505060405180910390f35b3480156108fc57600080fd5b506104546004803603602081101561091357600080fd5b503561253b565b34801561092657600080fd5b506104546004803603608081101561093d57600080fd5b506001600160a01b03813516906020810135906040810135906060013561254d565b34801561096b57600080fd5b506104546125e6565b34801561098057600080fd5b50610622600480360360e081101561099757600080fd5b6001600160a01b038235169160208101359160408201359190810190608081016060820135600160201b8111156109cd57600080fd5b8201836020820111156109df57600080fd5b803590602001918460018302840111600160201b83111715610a0057600080fd5b91908080601f016020809104026020016040519081016040528093929190818152602001838380828437600092019190915250929550508235935050506020810135906040013560ff166125eb565b348015610a5b57600080fd5b5061045460048036036020811015610a7257600080fd5b50356001600160a01b031661275e565b348015610a8e57600080fd5b506103fe600480360360a0811015610aa557600080fd5b5080359060208101359060408101359060608101359060800135612770565b348015610ad057600080fd5b506103fe6004803603610100811015610ae857600080fd5b506001600160a01b03813581169160208101358216916040820135811691606081013582169160808201359160a08101359160c08201359160e0013516612b5d565b348015610b3657600080fd5b50610454612c91565b348015610b4b57600080fd5b506103fe60048036036020811015610b6257600080fd5b50356001600160a01b0316612c9e565b348015610b7e57600080fd5b506103fe60048036036020811015610b9557600080fd5b50356001600160a01b0316612d67565b348015610bb157600080fd5b506105b2612da1565b348015610bc657600080fd5b506105b260048036036020811015610bdd57600080fd5b5035612db0565b348015610bf057600080fd5b5061062260048036036020811015610c0757600080fd5b5035612dcb565b348015610c1a57600080fd5b506103fe60048036036020811015610c3157600080fd5b50356001600160a01b0316612de0565b348015610c4d57600080fd5b50610454612e5d565b348015610c6257600080fd5b50610454612e63565b348015610c7757600080fd5b506103fe60048036036020811015610c8e57600080fd5b5035612e6d565b348015610ca157600080fd5b5061045460048036036020811015610cb857600080fd5b5035612e81565b348015610ccb57600080fd5b506103fe6004803603610100811015610ce357600080fd5b506001600160a01b038135169060208101359060408101359060608101359060808101359060ff60a0820135169060c08101359060e00135612e93565b348015610d2c57600080fd5b506103fe60048036036040811015610d4357600080fd5b506001600160a01b03813581169160200135166131f8565b348015610d6757600080fd5b5061045460048036036020811015610d7e57600080fd5b50356001600160a01b03166133ad565b348015610d9a57600080fd5b506103fe60048036036040811015610db157600080fd5b50803590602001356133bf565b348015610dca57600080fd5b506104546136c2565b348015610ddf57600080fd5b5061045460048036036020811015610df657600080fd5b50356001600160a01b03166136c8565b348015610e1257600080fd5b5061045460048036036020811015610e2957600080fd5b50356001600160a01b031661370f565b348015610e4557600080fd5b5061045460048036036020811015610e5c57600080fd5b50356001600160a01b0316613721565b348015610e7857600080fd5b5061045460048036036020811015610e8f57600080fd5b50356001600160a01b0316613733565b348015610eab57600080fd5b5061045460048036036020811015610ec257600080fd5b50356001600160a01b0316613789565b348015610ede57600080fd5b506103fe60048036036060811015610ef557600080fd5b508035906001600160a01b03602082013516906040013561379b565b348015610f1d57600080fd5b506103fe6004803603610160811015610f3557600080fd5b50803590602081013590604081013515159060ff6060820135169060808101359060a08101359060c08101359060e081013590610100810135906101208101359061014001356138b6565b348015610f8c57600080fd5b506105b261397b565b348015610fa157600080fd5b5061045461398a565b348015610fb657600080fd5b506103fe6004803603610100811015610fce57600080fd5b50803590602081013590604081013515159060ff6060820135169060808101359060a0810135906001600160a01b0360c0820135169060e00135613990565b34801561101957600080fd5b506104546004803603602081101561103057600080fd5b50356001600160a01b0316613a4f565b34801561104c57600080fd5b506103fe600480360360c081101561106357600080fd5b810190602081018135600160201b81111561107d57600080fd5b82018360208201111561108f57600080fd5b803590602001918460208302840111600160201b831117156110b057600080fd5b9190808060200260200160405190810160405280939291908181526020018383602002808284376000920191909152509295949360208101935035915050600160201b8111156110ff57600080fd5b82018360208201111561111157600080fd5b803590602001918460208302840111600160201b8311171561113257600080fd5b9190808060200260200160405190810160405280939291908181526020018383602002808284376000920191909152509295949360208101935035915050600160201b81111561118157600080fd5b82018360208201111561119357600080fd5b803590602001918460208302840111600160201b831117156111b457600080fd5b9190808060200260200160405190810160405280939291908181526020018383602002808284376000920191909152509295949360208101935035915050600160201b81111561120357600080fd5b82018360208201111561121557600080fd5b803590602001918460208302840111600160201b8311171561123657600080fd5b9190808060200260200160405190810160405280939291908181526020018383602002808284376000920191909152509295949360208101935035915050600160201b81111561128557600080fd5b82018360208201111561129757600080fd5b803590602001918460208302840111600160201b831117156112b857600080fd5b9190808060200260200160405190810160405280939291908181526020018383602002808284376000920191909152509295949360208101935035915050600160201b81111561130757600080fd5b82018360208201111561131957600080fd5b803590602001918460208302840111600160201b8311171561133a57600080fd5b919080806020026020016040519081016040528093929190818152602001838360200280828437600092019190915250929550613ab2945050505050565b34801561138457600080fd5b506104546004803603602081101561139b57600080fd5b503561408b565b3480156113ae57600080fd5b50610454600480360360208110156113c557600080fd5b5035614113565b3480156113d857600080fd5b50610454600480360360208110156113ef57600080fd5b50356001600160a01b0316614125565b34801561140b57600080fd5b506106226004803603602081101561142257600080fd5b50356001600160a01b0316614137565b34801561143e57600080fd5b506103fe61416e565b34801561145357600080fd5b506104546004803603602081101561146a57600080fd5b50356001600160a01b03166141b5565b34801561148657600080fd5b506105b26141c7565b34801561149b57600080fd5b50610454600480360360208110156114b257600080fd5b50356001600160a01b03166141d6565b60a9546001600160a01b03166114d66141e8565b6001600160a01b03161461151d576040805162461bcd60e51b81526020600482015260096024820152682737ba1030b236b4b760b91b604482015290519081900360640190fd5b611528838383614247565b505050565b609954604080516331a9108f60e11b81526004810184905290516000926001600160a01b031691636352211e916024808301926020929190829003018186803b15801561157957600080fd5b505afa15801561158d573d6000803e3d6000fd5b505050506040513d60208110156115a357600080fd5b5051905060006115b282611e4c565b600084815260a0602090815260408083205460a89092528220549293506001600160a01b03169160019060ff16818111156115e957fe5b1490506000831180156115f95750805b156116bf57600085815260b26020526040812060018501905561161b8361217d565b905061162686614331565b600086815260a66020526040812054611676906801b5a660ea44b80000906116709061166a611655428b61441a565b60008d81526098602052604090205490614463565b90614463565b906144bc565b9050818110156116915761168c848284036144fe565b61169d565b61169d8483830361460f565b50506001600160a01b038216600090815260b5602052604090204290556116c8565b6116c882612d67565b5050505050565b60b26020526000908152604090205481565b6001600160a01b03851660009081526033602052604090205460609061171490879061170b6125e6565b888888886125eb565b61174f5760405162461bcd60e51b815260040180806020018281038252602181526020018061569e6021913960400191505060405180910390fd5b6001600160a01b03861660009081526033602052604090205461177390600161471d565b60336000886001600160a01b03166001600160a01b031681526020019081526020016000208190555060006060306001600160a01b031687896040516020018083805190602001908083835b602083106117de5780518252601f1990920191602091820191016117bf565b6001836020036101000a038019825116818451168082178552505050505050905001826001600160a01b031660601b8152601401925050506040516020818303038152906040526040518082805190602001908083835b602083106118545780518252601f199092019160209182019101611835565b6001836020036101000a0380198251168184511680821785525050505050509050019150506000604051808303816000865af19150503d80600081146118b6576040519150601f19603f3d011682016040523d82523d6000602084013e6118bb565b606091505b509150915081611912576040805162461bcd60e51b815260206004820152601c60248201527f46756e6374696f6e2063616c6c206e6f74207375636365737366756c00000000604482015290519081900360640190fd5b7f5845892132946850460bff5a0083f71031bc5bf9aadcd40f1de79423eac9b10b88338960405180846001600160a01b03168152602001836001600160a01b0316815260200180602001828103825283818151815260200191508051906020019080838360005b83811015611991578181015183820152602001611979565b50505050905090810190601f1680156119be5780820380516001836020036101000a031916815260200191505b5094505050505060405180910390a1979650505050505050565b6099546001600160a01b031681565b60a0602052600090815260409020546001600160a01b031681565b609954604080516331a9108f60e11b815260048101849052905160009283926001600160a01b0390911691636352211e91602480820192602092909190829003018186803b158015611a5357600080fd5b505afa158015611a67573d6000803e3d6000fd5b505050506040513d6020811015611a7d57600080fd5b50519050611a8a81614137565b9150505b919050565b83611a9d8161152d565b611aa56141e8565b611aae81611e4c565b508460008111611af5576040805162461bcd60e51b815260206004820152600d60248201526c5072696365206973207a65726f60981b604482015290519081900360640190fd5b611afd6141e8565b6001600160a01b0381166000908152609e6020526040902054158015611b3a57506001600160a01b0381166000908152609f602052604090205415155b15611b8c576040805162461bcd60e51b815260206004820152601a60248201527f6e6f206465706f736974206578697374696e6720746f6b656e73000000000000604482015290519081900360640190fd5b858861c3508210158015611bb35750600081815260b16020526040902054620f4240038211155b611bee5760405162461bcd60e51b81526004018080602001828103825260218152602001806156096021913960400191505060405180910390fd5b60008a815260a8602052604081205460ff166001811115611c0b57fe5b14611c54576040805162461bcd60e51b81526020600482015260146024820152731d1bdad95b881b9bdd08199bdc9958db1bdcd95960621b604482015290519081900360640190fd5b60008a815260b26020526040902054421015611ca8576040805162461bcd60e51b815260206004820152600e60248201526d3737ba1037b71030bab1ba34b7b760911b604482015290519081900360640190fd5b6000611cb38b614777565b9050611cbe8b61483f565b60008b815260a860209081526040808320805460ff1916600117905560b09091529020899055611cfe611cf1898361471d565b611cf96141e8565b614938565b50611d2f88609e6000611d0f6141e8565b6001600160a01b031681526020810191909152604001600020549061471d565b609e6000611d3b6141e8565b6001600160a01b03166001600160a01b0316815260200190815260200160002081905550611df68b609960009054906101000a90046001600160a01b03166001600160a01b0316636352211e8e6040518263ffffffff1660e01b81526004018082815260200191505060206040518083038186803b158015611dbc57600080fd5b505afa158015611dd0573d6000803e3d6000fd5b505050506040513d6020811015611de657600080fd5b5051611df06141e8565b8d6149df565b611dfe6141e8565b6001600160a01b03168b7f3b599f6217e39be59216b60e543ce0d4c7d534fe64dd9d962334924e7819894e8c6040518082815260200191505060405180910390a35050505050505050505050565b600080611e5883613733565b905060008082118015611e8257506001600160a01b0384166000908152609e602052604090205482115b15611f05576001600160a01b0384166000908152609d6020908152604080832054609e90925290912054611ecb90611ec49085906116709061166a428761441a565b829061471d565b6001600160a01b0386166000908152609d60209081526040808320849055609e9091528120559350611efd848261441a565b915050611f76565b6001600160a01b0384166000908152609d6020526040902054611f2990429061441a565b6001600160a01b0385166000908152609d60209081526040808320429055609e909152902054909150611f5c908361441a565b6001600160a01b0385166000908152609e60205260409020555b611f808482614c84565b6001600160a01b0384166000818152609e602090815260409182902054825190815291517fbece12534c1381f016e2ce4d456a6eb916094df84a7dd97faa7159f3a44a0d3c9281900390910190a25050919050565b7fc41bd8c0c472aea2185f2569b0205b98f7a74642810b8f980cabb73a2e297bf3611ffe6141e8565b60b954604080516001600160a01b03938416815291831660208301529184168183015290519081900360600190a150565b60986020526000908152604090205481565b61204a81612d67565b6001600160a01b038116600090815260a160205260408120549061206d83614d62565b90508082116120ae576040805162461bcd60e51b81526020600482015260086024820152676e6f2066756e647360c01b604482015290519081900360640190fd5b6001600160a01b038316600090815260a1602052604090208190558082036120d68185614d99565b1561211f576040805182815290516001600160a01b038616917f57ecdc53fdf69e9738d68dbb94b76b67d62dfa01122f1f2ac5a66a41dd4c76fa919081900360200190a261215c565b6001600160a01b038416600090815260a16020526040902054612142908261471d565b6001600160a01b038516600090815260a160205260409020555b50505050565b6001600160a01b031660009081526033602052604090205490565b6001600160a01b038116600090815260b560205260408120546121d3906801b5a660ea44b8000090611670906121b490429061441a565b6001600160a01b038616600090815260b4602052604090205490614463565b92915050565b60b9546001600160a01b031681565b60ae5481565b60006121f86141e8565b61220181611e4c565b5061220b83614df2565b50919050565b61222161221c6141e8565b612041565b565b60b9546001600160a01b0316638fcbaf0c61223c6141e8565b604080516001600160e01b031960e085901b1681526001600160a01b039092166004830152306024830152604482018e9052606482018d90528b1515608483015260ff8b1660a483015260c482018a905260e482018990525161010480830192600092919082900301818387803b1580156122b657600080fd5b505af11580156122ca573d6000803e3d6000fd5b505050506122da84848484611a93565b50505050505050505050565b600082815260a0602052604090205482906001600160a01b03166123086141e8565b6001600160a01b03161480612337575060a9546001600160a01b031661232c6141e8565b6001600160a01b0316145b612388576040805162461bcd60e51b815260206004820152601760248201527f4e6f742062656e65666163746f72206f722061646d696e000000000000000000604482015290519081900360640190fd5b600083815260a060205260409020546001600160a01b03166123a981612d67565b826123b381612d67565b836001600160a01b0381166123fe576040805162461bcd60e51b815260206004820152600c60248201526b6e756c6c206164647265737360a01b604482015290519081900360640190fd5b600086815260a060205260409020546001600160a01b03908116908616811415612468576040805162461bcd60e51b815260206004820152601660248201527563616e6e6f742062652073616d65206164647265737360501b604482015290519081900360640190fd5b600087815260a66020908152604080832054609890925282205461248b91614463565b6001600160a01b038316600090815260b460205260409020549091506124b1908261441a565b6001600160a01b03808416600090815260b4602052604080822093909355908916815220546124e0908261471d565b6001600160a01b03909716600081815260b4602090815260408083209a909a5599815260a09099529690972080546001600160a01b031916909617909555505050505050565b60a86020526000908152604090205460ff1681565b60b16020526000908152604090205481565b6040805160609590951b6bffffffffffffffffffffffff191660208087019190915260348601949094526054850192909252607480850191909152815180850390910181526094840182528051908301207f19457468657265756d205369676e6564204d6573736167653a0a33320000000060b485015260d0808501919091528151808503909101815260f09093019052815191012090565b465b90565b6000806126888830898960405160200180858152602001846001600160a01b031660601b815260140183815260200182805190602001908083835b602083106126455780518252601f199092019160209182019101612626565b6001836020036101000a03801982511681845116808217855250505050505090500194505050505060405160208183030381529060405280519060200120614f16565b9050600060018285888860405160008152602001604052604051808581526020018460ff1681526020018381526020018281526020019450505050506020604051602081039080840390855afa1580156126e6573d6000803e3d6000fd5b5050604051601f1901519150506001600160a01b038116612742576040805162461bcd60e51b8152602060048201526011602482015270496e76616c6964207369676e617475726560781b604482015290519081900360640190fd5b6001600160a01b038a8116911614915050979650505050505050565b60b46020526000908152604090205481565b8461277a8161152d565b6127826141e8565b61278b81611e4c565b5085600081116127d2576040805162461bcd60e51b815260206004820152600d60248201526c5072696365206973207a65726f60981b604482015290519081900360640190fd5b6127da6141e8565b6001600160a01b0381166000908152609e602052604090205415801561281757506001600160a01b0381166000908152609f602052604090205415155b15612869576040805162461bcd60e51b815260206004820152601a60248201527f6e6f206465706f736974206578697374696e6720746f6b656e73000000000000604482015290519081900360640190fd5b858961c35082101580156128905750600081815260b16020526040902054620f4240038211155b6128cb5760405162461bcd60e51b81526004018080602001828103825260218152602001806156096021913960400191505060405180910390fd5b600160008c815260a8602052604090205460ff1660018111156128ea57fe5b1461292f576040805162461bcd60e51b815260206004820152601060248201526f3a37b5b2b71037b71030bab1ba34b7b760811b604482015290519081900360640190fd5b60008b815260986020526040902054891461297b5760405162461bcd60e51b815260040180806020018281038252602581526020018061562a6025913960400191505060405180910390fd5b60008b81526098602052604090205461299990611cf190899061471d565b50609954604080516331a9108f60e11b8152600481018e905290516000926001600160a01b031691636352211e916024808301926020929190829003018186803b1580156129e657600080fd5b505afa1580156129fa573d6000803e3d6000fd5b505050506040513d6020811015612a1057600080fd5b50519050612a1d8c614f67565b60008c815260b0602052604081208a9055612a3f908990609e90611d0f6141e8565b609e6000612a4b6141e8565b6001600160a01b03166001600160a01b0316815260200190815260200160002081905550612b068c609960009054906101000a90046001600160a01b03166001600160a01b0316636352211e8f6040518263ffffffff1660e01b81526004018082815260200191505060206040518083038186803b158015612acc57600080fd5b505afa158015612ae0573d6000803e3d6000fd5b505050506040513d6020811015612af657600080fd5b5051612b006141e8565b8e6149df565b612b0e6141e8565b6001600160a01b03168c7f3b599f6217e39be59216b60e543ce0d4c7d534fe64dd9d962334924e7819894e8d6040518082815260200191505060405180910390a3505050505050505050505050565b600054610100900460ff1680612b765750612b76615205565b80612b84575060005460ff16155b612bbf5760405162461bcd60e51b815260040180806020018281038252602e815260200180615670602e913960400191505060405180910390fd5b600054610100900460ff16158015612bea576000805460ff1961ff0019909116610100171660011790555b6040517f9e7c5523d188a1a804de886fe0de6a44b045c186462df5909b2475cff971baf490600090a1609980546001600160a01b03199081166001600160a01b038c81169190911790925560a9805482168b841617905560b78054821689841617905560ab805482168a841617905560b98054909116918416919091179055612c74858585614247565b8015612c86576000805461ff00191690555b505050505050505050565b6801b5a660ea44b8000081565b60a9546001600160a01b0316612cb26141e8565b6001600160a01b031614612cf9576040805162461bcd60e51b81526020600482015260096024820152682737ba1030b236b4b760b91b604482015290519081900360640190fd5b806001600160a01b038116612d44576040805162461bcd60e51b815260206004820152600c60248201526b6e756c6c206164647265737360a01b604482015290519081900360640190fd5b5060b780546001600160a01b0319166001600160a01b0392909216919091179055565b6000612d728261217d565b90508015612d8457612d8482826144fe565b506001600160a01b0316600090815260b560205260409020429055565b60ab546001600160a01b031681565b60af602052600090815260409020546001600160a01b031681565b60b86020526000908152604090205460ff1681565b60a9546001600160a01b0316612df46141e8565b6001600160a01b031614612e3b576040805162461bcd60e51b81526020600482015260096024820152682737ba1030b236b4b760b91b604482015290519081900360640190fd5b60a980546001600160a01b0319166001600160a01b0392909216919091179055565b60ad5481565b650a86cc92e3da81565b612e7e612e786141e8565b8261520b565b50565b60b06020526000908152604090205481565b612e9f8888888861254d565b60b7546040805160008152602080820180845285905260ff881682840152606082018790526080820186905291519397506001600160a01b039092169260019260a08082019392601f1981019281900390910190855afa158015612f07573d6000803e3d6000fd5b505050602060405103516001600160a01b031614612f6c576040805162461bcd60e51b815260206004820152601960248201527f6e6f207065726d697373696f6e20746f20776974686472617700000000000000604482015290519081900360640190fd5b600085815260b8602052604090205460ff1615612fc5576040805162461bcd60e51b81526020600482015260126024820152711b9bdb98d948185b1c9958591e481d5cd95960721b604482015290519081900360640190fd5b612fd18888888861254d565b8414613015576040805162461bcd60e51b815260206004820152600e60248201526d0d2dcc6dee4e4cac6e840d0c2e6d60931b604482015290519081900360640190fd5b85421061305a576040805162461bcd60e51b815260206004820152600e60248201526d18dbdd5c1bdb88195e1c1a5c995960921b604482015290519081900360640190fd5b600085815260b860205260409020805460ff1916600117905561307c88612d67565b6001600160a01b038816600090815260a160205260409020548015612c865787811115613114576130ad888a614d99565b1561310f576130bc818961441a565b6001600160a01b038a16600081815260a16020908152604091829020939093558051848152905191927f9d56808b7d9e1c7950f9b178297ba2c7703524d88ee1df387d174c136011c58492918290030190a25b612c86565b60b954604080516370a0823160e01b815230600482015290516000926001600160a01b0316916370a08231916024808301926020929190829003018186803b15801561315f57600080fd5b505afa158015613173573d6000803e3d6000fd5b505050506040513d602081101561318957600080fd5b50519050613197828b614d99565b156122da576001600160a01b038a16600081815260a16020908152604080832092909255815185815291517f9d56808b7d9e1c7950f9b178297ba2c7703524d88ee1df387d174c136011c5849281900390910190a250505050505050505050565b60a9546001600160a01b031661320c6141e8565b6001600160a01b031614613253576040805162461bcd60e51b81526020600482015260096024820152682737ba1030b236b4b760b91b604482015290519081900360640190fd5b806001600160a01b03811661329e576040805162461bcd60e51b815260206004820152600c60248201526b6e756c6c206164647265737360a01b604482015290519081900360640190fd5b8282806001600160a01b0316826001600160a01b03161415613300576040805162461bcd60e51b815260206004820152601660248201527563616e6e6f742062652073616d65206164647265737360501b604482015290519081900360640190fd5b6001600160a01b038516600090815260a16020526040902054613355576040805162461bcd60e51b81526020600482015260086024820152676e6f2066756e647360c01b604482015290519081900360640190fd5b6001600160a01b03808616600090815260a160205260408082205492871682529020546133819161471d565b6001600160a01b03948516600090815260a1602052604080822092909255959094168552505050812055565b609d6020526000908152604090205481565b609954604080516331a9108f60e11b815260048101859052905184926001600160a01b031691636352211e916024808301926020929190829003018186803b15801561340a57600080fd5b505afa15801561341e573d6000803e3d6000fd5b505050506040513d602081101561343457600080fd5b50516001600160a01b03166134476141e8565b6001600160a01b03161461348f576040805162461bcd60e51b815260206004820152600a6024820152692737ba103830ba3937b760b11b604482015290519081900360640190fd5b826134998161152d565b600084815260a8602052604081205460ff1660018111156134b657fe5b14156134f6576040805162461bcd60e51b815260206004820152600a602482015269199bdc9958db1bdcd95960b21b604482015290519081900360640190fd5b8261353a576040805162461bcd60e51b815260206004820152600f60248201526e696e636f727265637420707269636560881b604482015290519081900360640190fd5b69021e19e0c9bab2400000831061358c576040805162461bcd60e51b815260206004820152601160248201527065786365656473206d617820707269636560781b604482015290519081900360640190fd5b600084815260a6602090815260408083205460989092528220546135af91614463565b600086815260a66020526040812054919250906135cd908690614463565b600087815260a06020908152604080832054338452609f909252909120549192506001600160a01b03169061360e908390613608908661441a565b9061471d565b609f600061361a6141e8565b6001600160a01b03908116825260208083019390935260409182016000908120949094558416835260b490915290205461365a908390613608908661441a565b6001600160a01b038216600090815260b4602090815260408083209390935589825260988152908290208890558151888152915189927ffe6b606ca0477592b5740a0eb00c8e91570a5d0eb736abfa1a6309bd081b4a4d92908290030190a250505050505050565b60a75481565b6001600160a01b0381166000908152609f602052604081205481906136f6906801b5a660ea44b800006144bc565b9050611a8a6137088261167086613a4f565b429061471d565b60b66020526000908152604090205481565b60b36020526000908152604090205481565b6001600160a01b0381166000908152609d60205260408120546121d3906801b5a660ea44b80000906116709061376a90429061441a565b6001600160a01b0386166000908152609f602052604090205490614463565b60a16020526000908152604090205481565b60a9546001600160a01b03166137af6141e8565b6001600160a01b0316146137f6576040805162461bcd60e51b81526020600482015260096024820152682737ba1030b236b4b760b91b604482015290519081900360640190fd5b62030d40811115613842576040805162461bcd60e51b81526020600482015260116024820152706e6f74206d6f7265207468616e2032302560781b604482015290519081900360640190fd5b600083815260b16020908152604080832084905560af82529182902080546001600160a01b0319166001600160a01b0386169081179091558251908152908101839052815185927f5586506d614c14a823aceec5aaf06a022867e69afb3fe6e2f5e2d7a5bde61572928290030190a2505050565b60b9546001600160a01b0316638fcbaf0c6138cf6141e8565b604080516001600160e01b031960e085901b1681526001600160a01b039092166004830152306024830152604482018f9052606482018e90528c1515608483015260ff8c1660a483015260c482018b905260e482018a90525161010480830192600092919082900301818387803b15801561394957600080fd5b505af115801561395d573d6000803e3d6000fd5b5050505061396e8585858585612770565b5050505050505050505050565b60b7546001600160a01b031681565b60ac5481565b60b9546001600160a01b0316638fcbaf0c6139a96141e8565b604080516001600160e01b031960e085901b1681526001600160a01b039092166004830152306024830152604482018c9052606482018b9052891515608483015260ff891660a483015260c4820188905260e482018790525161010480830192600092919082900301818387803b158015613a2357600080fd5b505af1158015613a37573d6000803e3d6000fd5b50505050613a45828261520b565b5050505050505050565b600080613a5b83613733565b6001600160a01b0384166000908152609e60205260409020549091508110613a87576000915050611a8e565b6001600160a01b0383166000908152609e6020526040902054613aaa908261441a565b915050611a8e565b60a9546001600160a01b0316613ac66141e8565b6001600160a01b031614613b0d576040805162461bcd60e51b81526020600482015260096024820152682737ba1030b236b4b760b91b604482015290519081900360640190fd5b8451865114613b1857fe5b8351865114613b2357fe5b8051865114613b2e57fe5b8151835114613b3957fe5b60005b86518160ff161015614082576000868260ff1681518110613b5957fe5b6020026020010151905060006001600160a01b0316878360ff1681518110613b7d57fe5b60200260200101516001600160a01b03161415613bd0576040805162461bcd60e51b815260206004820152600c60248201526b6e756c6c206164647265737360a01b604482015290519081900360640190fd5b6060613bf1898460ff1681518110613be457fe5b60200260200101516152fa565b905060606040518060400160405280601c81526020017f68747470733a2f2f77696c6463617264732e78797a2f746f6b656e2f000000008152509050606081836040516020018083805190602001908083835b60208310613c635780518252601f199092019160209182019101613c44565b51815160209384036101000a600019018019909216911617905285519190930192850191508083835b60208310613cab5780518252601f199092019160209182019101613c8c565b6001836020036101000a038019825116818451168082178552505050505050905001925050506040516020818303038152906040529050609960009054906101000a90046001600160a01b03166001600160a01b03166350bb4e7f308d8860ff1681518110613d1657fe5b6020026020010151846040518463ffffffff1660e01b815260040180846001600160a01b0316815260200183815260200180602001828103825283818151815260200191508051906020019080838360005b83811015613d80578181015183820152602001613d68565b50505050905090810190601f168015613dad5780820380516001836020036101000a031916815260200191505b50945050505050602060405180830381600087803b158015613dce57600080fd5b505af1158015613de2573d6000803e3d6000fd5b505050506040513d6020811015613df857600080fd5b505089518a9060ff8716908110613e0b57fe5b602002602001015160a060008d8860ff1681518110613e2657fe5b6020026020010151815260200190815260200160002060006101000a8154816001600160a01b0302191690836001600160a01b03160217905550600060a860008d8860ff1681518110613e7557fe5b6020026020010151815260200190815260200160002060006101000a81548160ff02191690836001811115613ea657fe5b0217905550888560ff1681518110613eba57fe5b602002602001015160a660008d8860ff1681518110613ed557fe5b602002602001015181526020019081526020016000208190555042868660ff1681518110613eff57fe5b60200260200101511015613f40574260b260008d8860ff1681518110613f2157fe5b6020026020010151815260200190815260200160002081905550613f85565b858560ff1681518110613f4f57fe5b602002602001015160b260008d8860ff1681518110613f6a57fe5b60200260200101518152602001908152602001600020819055505b8a8560ff1681518110613f9457fe5b60200260200101517f0c954b79cf3caaaad0936916502caf69a5b4c93edeb4cc2ef2642fafc4f968778a8760ff1681518110613fcc57fe5b602002602001015160b260008f8a60ff1681518110613fe757fe5b6020026020010151815260200190815260200160002054604051808381526020018281526020019250505060405180910390a28460ff1688511115614073576140738b8660ff168151811061403857fe5b6020026020010151898760ff168151811061404f57fe5b6020026020010151898860ff168151811061406657fe5b602002602001015161379b565b50505050806001019050613b3c565b50505050505050565b609954604080516331a9108f60e11b815260048101849052905160009283926001600160a01b0390911691636352211e91602480820192602092909190829003018186803b1580156140dc57600080fd5b505afa1580156140f0573d6000803e3d6000fd5b505050506040513d602081101561410657600080fd5b50519050611a8a816136c8565b60a66020526000908152604090205481565b60b56020526000908152604090205481565b6001600160a01b0381166000908152609e602052604081205461415983613733565b1061416657506001611a8e565b506000611a8e565b6141766141e8565b61417f81611e4c565b50612e7e609e600061418f6141e8565b6001600160a01b03166001600160a01b0316815260200190815260200160002054614df2565b609e6020526000908152604090205481565b60a9546001600160a01b031681565b609f6020526000908152604090205481565b6000333014156142405760606000368080601f0160208091040260200160405190810160405280939291908181526020018383808284376000920191909152505050503601516001600160a01b031691506125e89050565b50336125e8565b8183101561429c576040805162461bcd60e51b815260206004820152601b60248201527f61756374696f6e207374617274203c2061756374696f6e20656e640000000000604482015290519081900360640190fd5b620151808110156142f4576040805162461bcd60e51b815260206004820152601860248201527f3120646179206d696e2061756374696f6e206c656e6774680000000000000000604482015290519081900360640190fd5b60ac83905560ad82905560ae8190556040517f302fedae2d242dcf051d44de5478e1e00f5a0e972d3cb61423043fecae47152d90600090a1505050565b609954604080516331a9108f60e11b81526004810184905290516000926001600160a01b031691636352211e916024808301926020929190829003018186803b15801561437d57600080fd5b505afa158015614391573d6000803e3d6000fd5b505050506040513d60208110156143a757600080fd5b505190506143b582826153cc565b600082815260a860209081526040808320805460ff191690556001600160a01b038416808452609d83529281902054815190815290517f5c96da7ec020805f8c8976230ffa5316fff9373db995b9a5c11deb511e530c6d929181900390910190a25050565b600061445c83836040518060400160405280601e81526020017f536166654d6174683a207375627472616374696f6e206f766572666c6f77000081525061550c565b9392505050565b600082614472575060006121d3565b8282028284828161447f57fe5b041461445c5760405162461bcd60e51b815260040180806020018281038252602181526020018061564f6021913960400191505060405180910390fd5b600061445c83836040518060400160405280601a81526020017f536166654d6174683a206469766973696f6e206279207a65726f0000000000008152506155a3565b6001600160a01b038216600090815260b66020526040902054156145ce576001600160a01b038216600090815260b6602052604090205481101561457d576001600160a01b038216600090815260b6602052604090205461455f908261441a565b6001600160a01b038316600090815260b660205260409020556145c9565b6001600160a01b038216600090815260b660205260409020546145a190829061441a565b6001600160a01b038316600090815260a1602090815260408083209390935560b69052908120555b61460b565b6001600160a01b038216600090815260a160205260409020546145f1908261471d565b6001600160a01b038316600090815260a160205260409020555b5050565b6001600160a01b038216600090815260a16020526040902054156146dd576001600160a01b038216600090815260a16020526040902054811161468d576001600160a01b038216600090815260a1602052604090205461466f908261441a565b6001600160a01b038316600090815260a160205260409020556145c9565b6001600160a01b038216600090815260a160205260409020546146b190829061441a565b6001600160a01b038316600090815260b6602090815260408083209390935560a190529081205561460b565b6001600160a01b038216600090815260b66020526040902054614700908261471d565b6001600160a01b038316600090815260b660205260409020555050565b60008282018381101561445c576040805162461bcd60e51b815260206004820152601b60248201527f536166654d6174683a206164646974696f6e206f766572666c6f770000000000604482015290519081900360640190fd5b60ae54600082815260b26020526040812054909182916147969161471d565b60008481526098602052604081205491925090158015906147c6575060ad54600085815260986020526040902054115b156147e057506000838152609860205260409020546147e5565b5060ac545b8142106147f85760ad5492505050611a8e565b60ae54600085815260b260205260409020546148369161482f916116709061482190429061441a565b60ad5461166a90879061441a565b829061441a565b92505050611a8e565b60008181526098602090815260408083205460b1909252822054909190614868575060006148e3565b600083815260b1602052604090205461488b90620f424090611670908590614463565b600084815260af60209081526040808320546001600160a01b03168352609e9091529020549091506148bd908261471d565b600084815260af60209081526040808320546001600160a01b03168352609e9091529020555b60006148ef838361441a565b60a9546001600160a01b03166000908152609e6020526040902054909150614917908261471d565b60a9546001600160a01b03166000908152609e602052604090205550505050565b60b9546000906001600160a01b03166323b872dd6149546141e8565b30866040518463ffffffff1660e01b815260040180846001600160a01b03168152602001836001600160a01b031681526020018281526020019350505050602060405180830381600087803b1580156149ac57600080fd5b505af11580156149c0573d6000803e3d6000fd5b505050506040513d60208110156149d657600080fd5b50519392505050565b69021e19e0c9bab24000008110614a31576040805162461bcd60e51b815260206004820152601160248201527065786365656473206d617820707269636560781b604482015290519081900360640190fd5b600084815260a660209081526040808320546098909252822054614a5491614463565b600086815260a6602052604081205491925090614a72908490614463565b6001600160a01b0385166000908152609f6020526040902054909150614a98908261471d565b6001600160a01b0385166000908152609f602090815260408083209390935560b390522054614acd90650a86cc92e3da61471d565b6001600160a01b03808616600090815260b3602090815260408083209490945589825260a081528382205490921680825260b49092529190912054614b12908361471d565b6001600160a01b03808316600090815260b4602052604090209190915586163014801590614b4857506001600160a01b03861615155b15614bf5576001600160a01b0386166000908152609f6020526040902054614b70908461441a565b6001600160a01b0387166000908152609f602090815260408083209390935560b390522054614ba590650a86cc92e3da61441a565b6001600160a01b03808816600090815260b36020908152604080832094909455918416815260b49091522054614bdb908461441a565b6001600160a01b038216600090815260b460205260409020555b609954604080516323b872dd60e01b81526001600160a01b0389811660048301528881166024830152604482018b9052915191909216916323b872dd91606480830192600092919082900301818387803b158015614c5257600080fd5b505af1158015614c66573d6000803e3d6000fd5b50505060009788525050609860205250506040909320929092555050565b801561460b5760ab546001600160a01b03838116600081815260b36020526040808220548151632ee9130160e01b81526004810194909452602484018790526044840152519290931692632ee913019260648084019382900301818387803b158015614cef57600080fd5b505af1158015614d03573d6000803e3d6000fd5b505050506001600160a01b038216600081815260b360205260409020547f865c2de2ed42d00fd42f3dad539a5ac070456a196db3dac47457b058a8e5948990614d4d908490614463565b60408051918252519081900360200190a25050565b60ae546001600160a01b038216600090815260b4602052604081205490916121d3916801b5a660ea44b80000916116709190614463565b60b9546040805163a9059cbb60e01b81526001600160a01b038481166004830152602482018690529151600093929092169163a9059cbb9160448082019260209290919082900301818787803b1580156149ac57600080fd5b80609e6000614dff6141e8565b6001600160a01b03166001600160a01b03168152602001908152602001600020541015614e6a576040805162461bcd60e51b81526020600482015260146024820152730eed2e8d0c8e4c2eed2dcce40e8dede40daeac6d60631b604482015290519081900360640190fd5b614e9a81609e6000614e7a6141e8565b6001600160a01b031681526020810191909152604001600020549061441a565b609e6000614ea66141e8565b6001600160a01b03168152602081019190915260400160002055614ed181614ecc6141e8565b614d99565b612e7e576040805162461bcd60e51b81526020600482015260116024820152701dda5d1a191c985dd85b0819985a5b1959607a1b604482015290519081900360640190fd5b604080517f19457468657265756d205369676e6564204d6573736167653a0a333200000000602080830191909152603c8083019490945282518083039094018452605c909101909152815191012090565b60008181526098602090815260408083205460995482516331a9108f60e11b81526004810187905292519194936001600160a01b0390911692636352211e9260248083019392829003018186803b158015614fc157600080fd5b505afa158015614fd5573d6000803e3d6000fd5b505050506040513d6020811015614feb57600080fd5b5051600084815260b0602052604090205490915061501757600083815260b06020526040902061c35090555b600083815260b0602052604081205461503a90620f424090611670908690614463565b600085815260b1602052604081205491925090615059575060006150d4565b600085815260b1602052604090205461507c90620f424090611670908790614463565b600086815260af60209081526040808320546001600160a01b03168352609e9091529020549091506150ae908261471d565b600086815260af60209081526040808320546001600160a01b03168352609e9091529020555b60006150ea826150e4878661441a565b9061441a565b600087815260a660209081526040808320546098909252909120549192506151129190614463565b6001600160a01b0385166000908152609f60205260409020541415615180576001600160a01b0384166000908152609e602052604090205461515590829061471d565b6001600160a01b0385166000908152609e6020526040812055905061517a8185614d99565b506151bd565b6001600160a01b0384166000908152609e60205260409020546151a3908261471d565b6001600160a01b0385166000908152609e60205260409020555b60a9546001600160a01b03166000908152609e60205260409020546151e2908461471d565b60a9546001600160a01b03166000908152609e6020526040902055505050505050565b303b1590565b6001600160a01b0382166000908152609f6020526040902054615261576040805162461bcd60e51b81526020600482015260096024820152686e6f20746f6b656e7360b81b604482015290519081900360640190fd5b6001600160a01b0382166000908152609e6020526040902054615284908261471d565b6001600160a01b0383166000908152609e60205260409020556152a78183614938565b506001600160a01b0382166000818152609e602090815260409182902054825190815291517fbece12534c1381f016e2ce4d456a6eb916094df84a7dd97faa7159f3a44a0d3c9281900390910190a25050565b60608161531f57506040805180820190915260018152600360fc1b6020820152611a8e565b8160005b811561533757600101600a82049150615323565b60608167ffffffffffffffff8111801561535057600080fd5b506040519080825280601f01601f19166020018201604052801561537b576020820181803683370190505b5090505b84156153c457600a850660300160f81b818360019003935083815181106153a257fe5b60200101906001600160f81b031916908160001a905350600a8504945061537f565b949350505050565b600082815260a6602090815260408083205460989092528220546153ef91614463565b6001600160a01b0383166000908152609f6020526040902054909150615415908261441a565b6001600160a01b0383166000908152609f602090815260408083209390935560b39052205461544a90650a86cc92e3da61441a565b6001600160a01b03808416600090815260b3602090815260408083209490945586825260a081528382205490921680825260b4909252919091205461548f908361441a565b6001600160a01b03808316600090815260b460205260408082209390935560995483516323b872dd60e01b815287841660048201523060248201526044810189905293519216926323b872dd926064808301939282900301818387803b1580156154f857600080fd5b505af1158015613a45573d6000803e3d6000fd5b6000818484111561559b5760405162461bcd60e51b81526004018080602001828103825283818151815260200191508051906020019080838360005b83811015615560578181015183820152602001615548565b50505050905090810190601f16801561558d5780820380516001836020036101000a031916815260200191505b509250505060405180910390fd5b505050900390565b600081836155f25760405162461bcd60e51b8152602060048201818152835160248401528351909283926044909101919085019080838360008315615560578181015183820152602001615548565b5060008385816155fe57fe5b049594505050505056fe636f6d6d6973696f6e206e6f74206265747765656e20352520616e6420313030256d75737420737065636966792063757272656e742070726963652061636375726174656c79536166654d6174683a206d756c7469706c69636174696f6e206f766572666c6f77436f6e747261637420696e7374616e63652068617320616c7265616479206265656e20696e697469616c697a65645369676e657220616e64207369676e617475726520646f206e6f74206d61746368a2646970667358221220c55544ec93b7c792f597ecca0a33d3371b37de70a9b182ae84e4b00de686302c64736f6c634300060c0033",
  "immutableReferences": {},
  "source": "pragma solidity 0.6.12;\n\nimport \"../vendered/@openzeppelin/contracts-ethereum-package-3.0.0/contracts/math/SafeMath.sol\";\nimport \"../vendered/@openzeppelin/contracts-ethereum-package-3.0.0/contracts/Initializable.sol\";\n\nimport \"./ERC721Patronage_v1.sol\";\nimport \"./interfaces/IMintManager.sol\";\nimport \"./interfaces/IERC721Patronage.sol\";\n// import \"./interfaces/IERC20Mintable.sol\";\n\nimport \"./BasicMetaTransaction.sol\";\n\nimport \"./Dai.sol\";\n\n// import \"./GSNRecipientBase.sol\";\n\n// import \"../vendered/gsn-2.0.0-beta.1.3/contracts/BaseRelayRecipient.sol\";\n// import \"../vendered/gsn-2.0.0-beta.1.3/contracts/interfaces/IKnowForwarderAddressGsn.sol\";\n\n// import \"@nomiclabs/buidler/console.sol\";\n\ncontract WildcardSteward_v3_matic is Initializable, BasicMetaTransaction {\n    /*\n    This smart contract collects patronage from current owner through a Harberger tax model and \n    takes stewardship of the asset token if the patron can't pay anymore.\n\n    Harberger Tax (COST):\n    - Asset is always on sale.\n    - You have to have a price set.\n    - Tax (Patronage) is paid to maintain ownership.\n    - Steward maints control over ERC721.\n    */\n    using SafeMath for uint256;\n    mapping(uint256 => uint256) public price; //in wei\n    IERC721Patronage public assetToken; // ERC721 NFT.\n\n    mapping(uint256 => uint256) deprecated_totalCollected; // THIS VALUE IS DEPRECATED\n    mapping(uint256 => uint256) deprecated_currentCollected; // THIS VALUE IS DEPRECATED\n    mapping(uint256 => uint256) deprecated_timeLastCollected; // THIS VALUE IS DEPRECATED.\n    mapping(address => uint256) public timeLastCollectedPatron;\n    mapping(address => uint256) public deposit;\n    mapping(address => uint256) public totalPatronOwnedTokenCost;\n\n    mapping(uint256 => address) public benefactors; // non-profit benefactor\n    mapping(address => uint256) public benefactorFunds;\n\n    mapping(uint256 => address) deprecated_currentPatron; // Deprecate This is different to the current token owner.\n    mapping(uint256 => mapping(address => bool)) deprecated_patrons; // Deprecate\n    mapping(uint256 => mapping(address => uint256)) deprecated_timeHeld; // Deprecate\n\n    mapping(uint256 => uint256) deprecated_timeAcquired; // deprecate\n\n    // 1200% patronage\n    mapping(uint256 => uint256) public patronageNumerator;\n    uint256 public patronageDenominator;\n\n    enum StewardState {Foreclosed, Owned}\n    mapping(uint256 => StewardState) public state;\n\n    address public admin;\n\n    //////////////// NEW variables in v2///////////////////\n    mapping(uint256 => uint256) deprecated_tokenGenerationRate; // we can reuse the patronage denominator\n\n    IMintManager public mintManager;\n    //////////////// NEW variables in v3 ///////////////////\n    uint256 public auctionStartPrice;\n    uint256 public auctionEndPrice;\n    uint256 public auctionLength;\n\n    mapping(uint256 => address) public artistAddresses; //mapping from tokenID to the artists address\n    mapping(uint256 => uint256) public serviceProviderPercentages; // mapping from tokenID to the percentage sale cut of wildcards for each token\n    mapping(uint256 => uint256) public artistPercentages; // tokenId to artist percetages. To make it configurable. 10 000 = 100%\n    mapping(uint256 => uint256) public tokenAuctionBeginTimestamp;\n\n    mapping(address => uint256) public totalPatronTokenGenerationRate; // The total token generation rate for all the tokens of the given address.\n    mapping(address => uint256) public totalBenefactorTokenNumerator;\n    mapping(address => uint256) public timeLastCollectedBenefactor; // make my name consistent please\n    mapping(address => uint256) public benefactorCredit;\n    address public withdrawCheckerAdmin;\n\n    mapping(uint256 => bool) public withdrawalNonceUsed; // if true, the nonce (part of a withdrawal signature) has already been used for a withdrawal.\n\n    /*\n    31536000 seconds = 365 days\n\n    divisor = 365 days * 1000000000000\n            = 31536000000000000000\n    */\n\n    // 11574074074074 = 10^18 / 86400 This is just less (rounded down) than one token a day.\n    //       - this can be done since all tokens have the exact same tokenGenerationRate - and hardcoding saves gas.\n    uint256 public constant globalTokenGenerationRate = 11574074074074;\n    uint256 public constant yearTimePatronagDenominator = 31536000000000000000;\n\n    Dai public paymentToken; // ERC20 token used as payment.\n\n    event Buy(uint256 indexed tokenId, address indexed owner, uint256 price);\n    event PriceChange(uint256 indexed tokenId, uint256 newPrice);\n    event Foreclosure(address indexed prevOwner, uint256 foreclosureTime);\n    event RemainingDepositUpdate(\n        address indexed tokenPatron,\n        uint256 remainingDeposit\n    );\n\n    event AddTokenV3(\n        uint256 indexed tokenId,\n        uint256 patronageNumerator,\n        uint256 unixTimestampOfTokenAuctionStart\n    );\n\n    // QUESTION: in future versions, should these two events (CollectPatronage and CollectLoyalty) be combined into one? - they only ever happen at the same time.\n    // NOTE: this event is deprecated - it is only here for the upgrade function.\n    event CollectPatronage(\n        uint256 indexed tokenId,\n        address indexed patron,\n        uint256 remainingDeposit,\n        uint256 amountReceived\n    );\n    event CollectLoyalty(address indexed patron, uint256 amountRecieved);\n\n    event ArtistCommission(\n        uint256 indexed tokenId,\n        address artist,\n        uint256 artistCommission\n    );\n    event WithdrawBenefactorFundsWithSafetyDelay(\n        address indexed benefactor,\n        uint256 withdrawAmount\n    );\n    event WithdrawBenefactorFunds(\n        address indexed benefactor,\n        uint256 withdrawAmount\n    );\n    event UpgradeToV3();\n    event ChangeAuctionParameters();\n\n    modifier onlyPatron(uint256 tokenId) {\n        require(msgSender() == assetToken.ownerOf(tokenId), \"Not patron\");\n        _;\n    }\n\n    modifier onlyAdmin() {\n        require(msgSender() == admin, \"Not admin\");\n        _;\n    }\n\n    modifier onlyReceivingBenefactorOrAdmin(uint256 tokenId) {\n        require(\n            msgSender() == benefactors[tokenId] || msgSender() == admin,\n            \"Not benefactor or admin\"\n        );\n        _;\n    }\n\n    modifier collectPatronageAndSettleBenefactor(uint256 tokenId) {\n        _collectPatronageAndSettleBenefactor(tokenId);\n        _;\n    }\n\n    modifier collectPatronagePatron(address tokenPatron) {\n        _collectPatronagePatron(tokenPatron);\n        _;\n    }\n\n    modifier youCurrentlyAreNotInDefault(address tokenPatron) {\n        require(\n            !(deposit[tokenPatron] == 0 &&\n                totalPatronOwnedTokenCost[tokenPatron] > 0),\n            \"no deposit existing tokens\"\n        );\n        _;\n    }\n\n    modifier updateBenefactorBalance(address benefactor) {\n        _updateBenefactorBalance(benefactor);\n        _;\n    }\n\n    modifier priceGreaterThanZero(uint256 _newPrice) {\n        require(_newPrice > 0, \"Price is zero\");\n        _;\n    }\n    modifier notNullAddress(address checkAddress) {\n        require(checkAddress != address(0), \"null address\");\n        _;\n    }\n    modifier notSameAddress(address firstAddress, address secondAddress) {\n        require(firstAddress != secondAddress, \"cannot be same address\");\n        _;\n    }\n    modifier validWildcardsPercentage(\n        uint256 serviceProviderPercentage,\n        uint256 tokenID\n    ) {\n        require(\n            serviceProviderPercentage >= 50000 &&\n                serviceProviderPercentage <=\n                (1000000 - artistPercentages[tokenID]), // not sub safemath. Is this okay?\n            \"commision not between 5% and 100%\"\n        );\n        _;\n    }\n\n    function initialize(\n        address _assetToken,\n        address _admin,\n        address _mintManager,\n        address _withdrawCheckerAdmin,\n        uint256 _auctionStartPrice,\n        uint256 _auctionEndPrice,\n        uint256 _auctionLength,\n        address _paymentToken\n    ) public initializer {\n        emit UpgradeToV3();\n        assetToken = IERC721Patronage(_assetToken);\n        admin = _admin;\n        withdrawCheckerAdmin = _withdrawCheckerAdmin;\n        mintManager = IMintManager(_mintManager);\n        paymentToken = Dai(_paymentToken);\n        _changeAuctionParameters(\n            _auctionStartPrice,\n            _auctionEndPrice,\n            _auctionLength\n        );\n    }\n\n    function uintToStr(uint256 _i)\n        internal\n        pure\n        returns (string memory _uintAsString)\n    {\n        if (_i == 0) {\n            return \"0\";\n        }\n\n        uint256 j = _i;\n        uint256 len;\n        while (j != 0) {\n            len++;\n            j /= 10;\n        }\n\n        bytes memory bstr = new bytes(len);\n        while (_i != 0) {\n            bstr[--len] = bytes1(uint8(48 + (_i % 10)));\n            _i /= 10;\n        }\n        return string(bstr);\n    }\n\n    function listNewTokens(\n        uint256[] memory tokens,\n        address[] memory _benefactors,\n        uint256[] memory _patronageNumerator,\n        address[] memory _artists,\n        uint256[] memory _artistCommission,\n        uint256[] memory _releaseDate\n    ) public onlyAdmin {\n        assert(tokens.length == _benefactors.length);\n        assert(tokens.length == _patronageNumerator.length);\n        assert(tokens.length == _releaseDate.length);\n        assert(_artists.length == _artistCommission.length);\n\n        for (uint8 i = 0; i < tokens.length; ++i) {\n            address benefactor = _benefactors[i];\n            require(_benefactors[i] != address(0), \"null address\");\n            string memory idString = uintToStr(tokens[i]);\n            string memory tokenUriBase = \"https://wildcards.xyz/token/\";\n            string memory tokenUri = string(\n                abi.encodePacked(tokenUriBase, idString)\n            );\n            assetToken.mintWithTokenURI(address(this), tokens[i], tokenUri);\n            benefactors[tokens[i]] = _benefactors[i];\n            state[tokens[i]] = StewardState.Foreclosed;\n            patronageNumerator[tokens[i]] = _patronageNumerator[i];\n            // tokenGenerationRate[tokens[i]] = _tokenGenerationRate[i];\n\n            if (_releaseDate[i] < now) {\n                tokenAuctionBeginTimestamp[tokens[i]] = now;\n            } else {\n                tokenAuctionBeginTimestamp[tokens[i]] = _releaseDate[i];\n            }\n\n            emit AddTokenV3(\n                tokens[i],\n                _patronageNumerator[i],\n                tokenAuctionBeginTimestamp[tokens[i]]\n            );\n            // Adding this after the add token emit, so graph can first capture the token before processing the change artist things\n            if (_artists.length > i) {\n                changeArtistAddressAndCommission(\n                    tokens[i],\n                    _artists[i],\n                    _artistCommission[i]\n                );\n            }\n        }\n    }\n\n    // TODO: you need an event in here!\n    function changeReceivingBenefactor(\n        uint256 tokenId,\n        address _newReceivingBenefactor\n    )\n        public\n        onlyReceivingBenefactorOrAdmin(tokenId)\n        updateBenefactorBalance(benefactors[tokenId])\n        updateBenefactorBalance(_newReceivingBenefactor)\n        notNullAddress(_newReceivingBenefactor)\n    {\n        address oldBenfactor = benefactors[tokenId];\n\n        require(\n            oldBenfactor != _newReceivingBenefactor,\n            \"cannot be same address\"\n        );\n\n        // Collect patronage from old and new benefactor before changing totalBenefactorTokenNumerator on both\n        uint256 scaledPrice = price[tokenId].mul(patronageNumerator[tokenId]);\n        totalBenefactorTokenNumerator[oldBenfactor] = totalBenefactorTokenNumerator[oldBenfactor]\n            .sub(scaledPrice);\n        totalBenefactorTokenNumerator[_newReceivingBenefactor] = totalBenefactorTokenNumerator[_newReceivingBenefactor]\n            .add(scaledPrice);\n\n        benefactors[tokenId] = _newReceivingBenefactor;\n        // NB No fund exchanging here please!\n    }\n\n    // TODO: you need an event in here!\n    // NB This function is if an organisation loses their keys etc..\n    // It will transfer their deposit to their new benefactor address\n    // It should only be called once all their tokens also changeReceivingBenefactor\n    function changeReceivingBenefactorDeposit(\n        address oldBenfactor,\n        address _newReceivingBenefactor\n    )\n        public\n        onlyAdmin\n        notNullAddress(_newReceivingBenefactor)\n        notSameAddress(oldBenfactor, _newReceivingBenefactor)\n    {\n        require(benefactorFunds[oldBenfactor] > 0, \"no funds\");\n\n        benefactorFunds[_newReceivingBenefactor] = benefactorFunds[_newReceivingBenefactor]\n            .add(benefactorFunds[oldBenfactor]);\n        benefactorFunds[oldBenfactor] = 0;\n    }\n\n    function changeAdmin(address _admin) public onlyAdmin {\n        admin = _admin;\n    }\n\n    function changeWithdrawCheckerAdmin(address _withdrawCheckerAdmin)\n        public\n        onlyAdmin\n        notNullAddress(_withdrawCheckerAdmin)\n    {\n        withdrawCheckerAdmin = _withdrawCheckerAdmin;\n    }\n\n    function changeArtistAddressAndCommission(\n        uint256 tokenId,\n        address artistAddress,\n        uint256 percentage\n    ) public onlyAdmin {\n        require(percentage <= 200000, \"not more than 20%\");\n        artistPercentages[tokenId] = percentage;\n        artistAddresses[tokenId] = artistAddress;\n        emit ArtistCommission(tokenId, artistAddress, percentage);\n    }\n\n    function _changeAuctionParameters(\n        uint256 _auctionStartPrice,\n        uint256 _auctionEndPrice,\n        uint256 _auctionLength\n    ) internal {\n        require(\n            _auctionStartPrice >= _auctionEndPrice,\n            \"auction start < auction end\"\n        );\n        require(_auctionLength >= 86400, \"1 day min auction length\");\n\n        auctionStartPrice = _auctionStartPrice;\n        auctionEndPrice = _auctionEndPrice;\n        auctionLength = _auctionLength;\n        emit ChangeAuctionParameters();\n    }\n\n    function changeAuctionParameters(\n        uint256 _auctionStartPrice,\n        uint256 _auctionEndPrice,\n        uint256 _auctionLength\n    ) external onlyAdmin {\n        _changeAuctionParameters(\n            _auctionStartPrice,\n            _auctionEndPrice,\n            _auctionLength\n        );\n    }\n\n    function patronageOwedPatron(address tokenPatron)\n        public\n        view\n        returns (uint256 patronageDue)\n    {\n        // NOTE: Leaving this code here as a reminder: totalPatronOwnedTokenCost[tokenPatron] has to be zero if timeLastCollectedPatron[tokenPatron] is zero. So effectively this line isn't needed.\n        // if (timeLastCollectedPatron[tokenPatron] == 0) return 0;\n        return\n            totalPatronOwnedTokenCost[tokenPatron]\n                .mul(now.sub(timeLastCollectedPatron[tokenPatron]))\n                .div(yearTimePatronagDenominator);\n    }\n\n    function patronageDueBenefactor(address benefactor)\n        public\n        view\n        returns (uint256 payoutDue)\n    {\n        // NOTE: Leaving this code here as a reminder: totalBenefactorTokenNumerator[tokenPatron] has to be zero if timeLastCollectedBenefactor[tokenPatron] is zero. So effectively this line isn't needed.\n        // if (timeLastCollectedBenefactor[benefactor] == 0) return 0;\n        return\n            totalBenefactorTokenNumerator[benefactor]\n                .mul(now.sub(timeLastCollectedBenefactor[benefactor]))\n                .div(yearTimePatronagDenominator);\n    }\n\n    function foreclosedPatron(address tokenPatron) public view returns (bool) {\n        if (patronageOwedPatron(tokenPatron) >= deposit[tokenPatron]) {\n            return true;\n        } else {\n            return false;\n        }\n    }\n\n    function foreclosed(uint256 tokenId) public view returns (bool) {\n        address tokenPatron = assetToken.ownerOf(tokenId);\n        return foreclosedPatron(tokenPatron);\n    }\n\n    function depositAbleToWithdraw(address tokenPatron)\n        public\n        view\n        returns (uint256)\n    {\n        uint256 collection = patronageOwedPatron(tokenPatron);\n        if (collection >= deposit[tokenPatron]) {\n            return 0;\n        } else {\n            return deposit[tokenPatron].sub(collection);\n        }\n    }\n\n    function foreclosureTimePatron(address tokenPatron)\n        public\n        view\n        returns (uint256)\n    {\n        uint256 pps = totalPatronOwnedTokenCost[tokenPatron].div(\n            yearTimePatronagDenominator\n        );\n        return now.add(depositAbleToWithdraw(tokenPatron).div(pps));\n    }\n\n    function foreclosureTime(uint256 tokenId) public view returns (uint256) {\n        address tokenPatron = assetToken.ownerOf(tokenId);\n        return foreclosureTimePatron(tokenPatron);\n    }\n\n    /* actions */\n    function _collectLoyaltyPatron(\n        address tokenPatron,\n        uint256 timeSinceLastMint\n    ) internal {\n        if (timeSinceLastMint != 0) {\n            mintManager.tokenMint(\n                tokenPatron,\n                timeSinceLastMint,\n                totalPatronTokenGenerationRate[tokenPatron]\n            );\n            emit CollectLoyalty(\n                tokenPatron,\n                timeSinceLastMint.mul(\n                    totalPatronTokenGenerationRate[tokenPatron]\n                )\n            );\n        }\n    }\n\n    // TODO: create a version of this function that only collects patronage (and only settles the benefactor if the token forecloses) - is this needed?\n    function _collectPatronageAndSettleBenefactor(uint256 tokenId) public {\n        address tokenPatron = assetToken.ownerOf(tokenId);\n        uint256 newTimeLastCollectedOnForeclosure = _collectPatronagePatron(\n            tokenPatron\n        );\n\n        address benefactor = benefactors[tokenId];\n        // bool tokenForeclosed = newTimeLastCollectedOnForeclosure > 0;\n        bool tokenIsOwned = state[tokenId] == StewardState.Owned;\n        if (newTimeLastCollectedOnForeclosure > 0 && tokenIsOwned) {\n            tokenAuctionBeginTimestamp[tokenId] =\n                // The auction starts the second after the last time collected.\n                newTimeLastCollectedOnForeclosure +\n                1;\n\n\n                uint256 patronageDueBenefactorBeforeForeclosure\n             = patronageDueBenefactor(benefactor);\n\n            _foreclose(tokenId);\n\n            uint256 amountOverCredited = price[tokenId]\n                .mul(now.sub(newTimeLastCollectedOnForeclosure))\n                .mul(patronageNumerator[tokenId])\n                .div(yearTimePatronagDenominator);\n\n            if (amountOverCredited < patronageDueBenefactorBeforeForeclosure) {\n                _increaseBenefactorBalance(\n                    benefactor,\n                    patronageDueBenefactorBeforeForeclosure - amountOverCredited\n                );\n            } else {\n                _decreaseBenefactorBalance(\n                    benefactor,\n                    amountOverCredited - patronageDueBenefactorBeforeForeclosure\n                );\n            }\n\n            timeLastCollectedBenefactor[benefactor] = now;\n        } else {\n            _updateBenefactorBalance(benefactor);\n        }\n    }\n\n    // function safeSend(uint256 _wei, address payable recipient)\n    //     internal\n    //     returns (bool transferSuccess)\n    // {\n    //     (transferSuccess, ) = recipient.call.gas(2300).value(_wei)(\"\");\n    // }\n\n    function sendErc20(uint256 _wei, address recipient)\n        internal\n        returns (bool transferSuccess)\n    {\n        // try adaiContract.redeem(amount)  {\n        return paymentToken.transfer(recipient, _wei);\n        // } catch {\n        //   emit ADaiRedeemFailed();\n        //   adaiContract.transfer(msgSender(), amount);\n        // }\n    }\n\n    function receiveErc20(uint256 amount, address from)\n        internal\n        returns (bool transferSuccess)\n    {\n        return paymentToken.transferFrom(msgSender(), address(this), amount);\n    }\n\n    // if credit balance exists,\n    // if amount owed > creidt\n    // credit zero add amount\n    // else reduce credit by certain amount.\n    // else if credit balance doesn't exist\n    // add amount to balance\n    // TODO: this function should have an event\n    function _updateBenefactorBalance(address benefactor) public {\n        uint256 patronageDueForBenefactor = patronageDueBenefactor(benefactor);\n\n        if (patronageDueForBenefactor > 0) {\n            _increaseBenefactorBalance(benefactor, patronageDueForBenefactor);\n        }\n\n        timeLastCollectedBenefactor[benefactor] = now;\n    }\n\n    function _increaseBenefactorBalance(\n        address benefactor,\n        uint256 patronageDueBenefactor\n    ) internal {\n        if (benefactorCredit[benefactor] > 0) {\n            if (patronageDueBenefactor < benefactorCredit[benefactor]) {\n                benefactorCredit[benefactor] = benefactorCredit[benefactor].sub(\n                    patronageDueBenefactor\n                );\n            } else {\n                benefactorFunds[benefactor] = patronageDueBenefactor.sub(\n                    benefactorCredit[benefactor]\n                );\n                benefactorCredit[benefactor] = 0;\n            }\n        } else {\n            benefactorFunds[benefactor] = benefactorFunds[benefactor].add(\n                patronageDueBenefactor\n            );\n        }\n    }\n\n    function _decreaseBenefactorBalance(\n        address benefactor,\n        uint256 amountOverCredited\n    ) internal {\n        if (benefactorFunds[benefactor] > 0) {\n            if (amountOverCredited <= benefactorFunds[benefactor]) {\n                benefactorFunds[benefactor] = benefactorFunds[benefactor].sub(\n                    amountOverCredited\n                );\n            } else {\n                benefactorCredit[benefactor] = amountOverCredited.sub(\n                    benefactorFunds[benefactor]\n                );\n                benefactorFunds[benefactor] = 0;\n            }\n        } else {\n            benefactorCredit[benefactor] = benefactorCredit[benefactor].add(\n                amountOverCredited\n            );\n        }\n    }\n\n    function fundsDueForAuctionPeriodAtCurrentRate(address benefactor)\n        internal\n        view\n        returns (uint256)\n    {\n        return\n            totalBenefactorTokenNumerator[benefactor].mul(auctionLength).div(\n                yearTimePatronagDenominator\n            ); // 365 days * 1000000000000\n    }\n\n    function withdrawBenefactorFundsTo(address benefactor) public {\n        _updateBenefactorBalance(benefactor);\n\n        uint256 availableToWithdraw = benefactorFunds[benefactor];\n\n\n            uint256 benefactorWithdrawalSafetyDiscount\n         = fundsDueForAuctionPeriodAtCurrentRate(benefactor);\n\n        require(\n            availableToWithdraw > benefactorWithdrawalSafetyDiscount,\n            \"no funds\"\n        );\n\n        // NOTE: no need for safe-maths, above require prevents issues.\n        uint256 amountToWithdraw = availableToWithdraw -\n            benefactorWithdrawalSafetyDiscount;\n\n        benefactorFunds[benefactor] = benefactorWithdrawalSafetyDiscount;\n        if (sendErc20(amountToWithdraw, benefactor)) {\n            emit WithdrawBenefactorFundsWithSafetyDelay(\n                benefactor,\n                amountToWithdraw\n            );\n        } else {\n            // TODO: add an error in unsuccessful withdrawal.\n            benefactorFunds[benefactor] = benefactorFunds[benefactor].add(\n                amountToWithdraw\n            );\n        }\n    }\n\n    function hasher(\n        address benefactor,\n        uint256 maxAmount,\n        uint256 expiry,\n        uint256 nonce\n    ) public view returns (bytes32) {\n        // In ethereum you have to prepend all signature hashes with this message (supposedly to prevent people from)\n        return\n            keccak256(\n                abi.encodePacked(\n                    \"\\x19Ethereum Signed Message:\\n32\",\n                    keccak256(\n                        abi.encodePacked(benefactor, maxAmount, expiry, nonce)\n                    )\n                )\n            );\n    }\n\n    function withdrawBenefactorFundsToValidated(\n        address benefactor,\n        uint256 maxAmount,\n        uint256 expiry,\n        uint256 nonce,\n        bytes32 hash,\n        uint8 v,\n        bytes32 r,\n        bytes32 s\n    ) public {\n        hash = hasher(benefactor, maxAmount, expiry, nonce);\n        require(\n            ecrecover(hash, v, r, s) == withdrawCheckerAdmin,\n            \"no permission to withdraw\"\n        );\n        require(!withdrawalNonceUsed[nonce], \"nonce already used\");\n        require(\n            hash == hasher(benefactor, maxAmount, expiry, nonce),\n            \"incorrect hash\"\n        );\n        require(now < expiry, \"coupon expired\");\n        withdrawalNonceUsed[nonce] = true;\n\n        _updateBenefactorBalance(benefactor);\n\n        uint256 availableToWithdraw = benefactorFunds[benefactor];\n\n        if (availableToWithdraw > 0) {\n            if (availableToWithdraw > maxAmount) {\n                if (sendErc20(maxAmount, benefactor)) {\n                    benefactorFunds[benefactor] = availableToWithdraw.sub(\n                        maxAmount\n                    );\n                    emit WithdrawBenefactorFunds(\n                        benefactor,\n                        availableToWithdraw\n                    );\n                }\n            } else {\n                uint256 contractBalance = paymentToken.balanceOf(address(this));\n\n                if (sendErc20(availableToWithdraw, benefactor)) {\n                    // TODO: re-entrancy\n                    benefactorFunds[benefactor] = 0;\n                    emit WithdrawBenefactorFunds(\n                        benefactor,\n                        availableToWithdraw\n                    );\n                }\n            }\n        }\n    }\n\n    function _collectPatronagePatron(address tokenPatron)\n        public\n        returns (uint256 newTimeLastCollectedOnForeclosure)\n    {\n        uint256 patronageOwedByTokenPatron = patronageOwedPatron(tokenPatron);\n\n        uint256 timeSinceLastMint;\n\n        if (\n            patronageOwedByTokenPatron > 0 &&\n            patronageOwedByTokenPatron > deposit[tokenPatron]\n        ) {\n\n                uint256 previousCollectionTime\n             = timeLastCollectedPatron[tokenPatron];\n            newTimeLastCollectedOnForeclosure = previousCollectionTime.add(\n                (\n                    (now.sub(previousCollectionTime))\n                        .mul(deposit[tokenPatron])\n                        .div(patronageOwedByTokenPatron)\n                )\n            );\n            timeLastCollectedPatron[tokenPatron] = newTimeLastCollectedOnForeclosure;\n            deposit[tokenPatron] = 0;\n            timeSinceLastMint = (\n                newTimeLastCollectedOnForeclosure.sub(previousCollectionTime)\n            );\n        } else {\n            timeSinceLastMint = now.sub(timeLastCollectedPatron[tokenPatron]);\n            timeLastCollectedPatron[tokenPatron] = now;\n            deposit[tokenPatron] = deposit[tokenPatron].sub(\n                patronageOwedByTokenPatron\n            );\n        }\n\n        _collectLoyaltyPatron(tokenPatron, timeSinceLastMint);\n        emit RemainingDepositUpdate(tokenPatron, deposit[tokenPatron]);\n    }\n\n    function depositWei(uint256 amount) public {\n        depositWeiPatron(msgSender(), amount);\n    }\n\n    function depositWithPermit(\n        uint256 nonce,\n        uint256 expiry,\n        bool allowed,\n        uint8 v,\n        bytes32 r,\n        bytes32 s,\n        address patron,\n        uint256 amount\n    ) external {\n        paymentToken.permit(\n            msgSender(),\n            address(this),\n            nonce,\n            expiry,\n            allowed,\n            v,\n            r,\n            s\n        );\n        depositWeiPatron(patron, amount);\n    }\n\n    // Which the 'approve' function in erc20 this function is unsafe to be public.\n    function depositWeiPatron(address patron, uint256 amount) internal {\n        require(totalPatronOwnedTokenCost[patron] > 0, \"no tokens\");\n        deposit[patron] = deposit[patron].add(amount);\n        receiveErc20(amount, patron);\n        emit RemainingDepositUpdate(patron, deposit[patron]);\n    }\n\n    function _auctionPrice(uint256 tokenId) internal view returns (uint256) {\n        uint256 auctionEnd = tokenAuctionBeginTimestamp[tokenId].add(\n            auctionLength\n        );\n\n        // If it is not brand new and foreclosed, use the foreclosre auction price.\n        uint256 _auctionStartPrice;\n        if (price[tokenId] != 0 && price[tokenId] > auctionEndPrice) {\n            _auctionStartPrice = price[tokenId];\n        } else {\n            // Otherwise use starting auction price\n            _auctionStartPrice = auctionStartPrice;\n        }\n\n        if (now >= auctionEnd) {\n            return auctionEndPrice;\n        } else {\n            // startPrice - ( ( (startPrice - endPrice) * howLongThisAuctionBeenGoing ) / auctionLength )\n            return\n                _auctionStartPrice.sub(\n                    (_auctionStartPrice.sub(auctionEndPrice))\n                        .mul(now.sub(tokenAuctionBeginTimestamp[tokenId]))\n                        .div(auctionLength)\n                );\n        }\n    }\n\n    function buyWithPermit(\n        uint256 nonce,\n        uint256 expiry,\n        bool allowed,\n        uint8 v,\n        bytes32 r,\n        bytes32 s,\n        uint256 tokenId,\n        uint256 _newPrice,\n        uint256 previousPrice,\n        uint256 serviceProviderPercentage,\n        uint256 depositAmount\n    ) external {\n        paymentToken.permit(\n            msgSender(),\n            address(this),\n            nonce,\n            expiry,\n            allowed,\n            v,\n            r,\n            s\n        );\n        buy(\n            tokenId,\n            _newPrice,\n            previousPrice,\n            serviceProviderPercentage,\n            depositAmount\n        );\n    }\n\n    function buy(\n        uint256 tokenId,\n        uint256 _newPrice,\n        uint256 previousPrice,\n        uint256 serviceProviderPercentage,\n        uint256 depositAmount\n    )\n        public\n        collectPatronageAndSettleBenefactor(tokenId)\n        collectPatronagePatron(msgSender())\n        priceGreaterThanZero(_newPrice)\n        youCurrentlyAreNotInDefault(msgSender())\n        validWildcardsPercentage(serviceProviderPercentage, tokenId)\n    {\n        require(state[tokenId] == StewardState.Owned, \"token on auction\");\n        require(\n            price[tokenId] == previousPrice,\n            \"must specify current price accurately\"\n        );\n        receiveErc20(depositAmount.add(price[tokenId]), msgSender());\n        address owner = assetToken.ownerOf(tokenId);\n\n        _distributePurchaseProceeds(tokenId);\n\n        serviceProviderPercentages[tokenId] = serviceProviderPercentage;\n        deposit[msgSender()] = deposit[msgSender()].add(depositAmount);\n        transferAssetTokenTo(\n            tokenId,\n            assetToken.ownerOf(tokenId),\n            msgSender(),\n            _newPrice\n        );\n        emit Buy(tokenId, msgSender(), _newPrice);\n    }\n\n    function buyAuctionWithPermit(\n        uint256 nonce,\n        uint256 expiry,\n        bool allowed,\n        uint8 v,\n        bytes32 r,\n        bytes32 s,\n        uint256 tokenId,\n        uint256 _newPrice,\n        uint256 serviceProviderPercentage,\n        uint256 depositAmount\n    ) external {\n        paymentToken.permit(\n            msgSender(),\n            address(this),\n            nonce,\n            expiry,\n            allowed,\n            v,\n            r,\n            s\n        );\n        buyAuction(\n            tokenId,\n            _newPrice,\n            serviceProviderPercentage,\n            depositAmount\n        );\n    }\n\n    function buyAuction(\n        uint256 tokenId,\n        uint256 _newPrice,\n        uint256 serviceProviderPercentage,\n        uint256 depositAmount\n    )\n        public\n        collectPatronageAndSettleBenefactor(tokenId)\n        collectPatronagePatron(msgSender())\n        priceGreaterThanZero(_newPrice)\n        youCurrentlyAreNotInDefault(msgSender())\n        validWildcardsPercentage(serviceProviderPercentage, tokenId)\n    {\n        require(\n            state[tokenId] == StewardState.Foreclosed,\n            \"token not foreclosed\"\n        );\n        require(now >= tokenAuctionBeginTimestamp[tokenId], \"not on auction\");\n        uint256 auctionTokenPrice = _auctionPrice(tokenId);\n\n        // uint256 remainingValueForDeposit = msg.value.sub(auctionTokenPrice);\n\n        _distributeAuctionProceeds(tokenId);\n\n        state[tokenId] = StewardState.Owned;\n\n        serviceProviderPercentages[tokenId] = serviceProviderPercentage;\n        receiveErc20(depositAmount.add(auctionTokenPrice), msgSender());\n        deposit[msgSender()] = deposit[msgSender()].add(depositAmount);\n        transferAssetTokenTo(\n            tokenId,\n            assetToken.ownerOf(tokenId),\n            msgSender(),\n            _newPrice\n        );\n        emit Buy(tokenId, msgSender(), _newPrice);\n    }\n\n    function _distributeAuctionProceeds(uint256 tokenId) internal {\n        uint256 totalAmount = price[tokenId];\n        uint256 artistAmount;\n        if (artistPercentages[tokenId] == 0) {\n            artistAmount = 0;\n        } else {\n            artistAmount = totalAmount.mul(artistPercentages[tokenId]).div(\n                1000000\n            );\n            deposit[artistAddresses[tokenId]] = deposit[artistAddresses[tokenId]]\n                .add(artistAmount);\n        }\n        uint256 wildcardsAmount = totalAmount.sub(artistAmount);\n        deposit[admin] = deposit[admin].add(wildcardsAmount);\n    }\n\n    function _distributePurchaseProceeds(uint256 tokenId) internal {\n        uint256 totalAmount = price[tokenId];\n        address tokenPatron = assetToken.ownerOf(tokenId);\n        // Wildcards percentage calc\n        if (serviceProviderPercentages[tokenId] == 0) {\n            serviceProviderPercentages[tokenId] = 50000;\n        }\n        uint256 wildcardsAmount = totalAmount\n            .mul(serviceProviderPercentages[tokenId])\n            .div(1000000);\n\n        // Artist percentage calc\n        uint256 artistAmount;\n        if (artistPercentages[tokenId] == 0) {\n            artistAmount = 0;\n        } else {\n            artistAmount = totalAmount.mul(artistPercentages[tokenId]).div(\n                1000000\n            );\n            deposit[artistAddresses[tokenId]] = deposit[artistAddresses[tokenId]]\n                .add(artistAmount);\n        }\n\n        uint256 previousOwnerProceedsFromSale = totalAmount\n            .sub(wildcardsAmount)\n            .sub(artistAmount);\n        if (\n            totalPatronOwnedTokenCost[tokenPatron] ==\n            price[tokenId].mul(patronageNumerator[tokenId])\n        ) {\n            previousOwnerProceedsFromSale = previousOwnerProceedsFromSale.add(\n                deposit[tokenPatron]\n            );\n            deposit[tokenPatron] = 0;\n            // address payableCurrentPatron = address(uint160(tokenPatron));\n            // (bool transferSuccess, ) = payableCurrentPatron\n            //     .call\n            //     .gas(2300)\n            //     .value(previousOwnerProceedsFromSale)(\"\");\n            // if (!transferSuccess) {\n            //     deposit[tokenPatron] = deposit[tokenPatron].add(\n            //         previousOwnerProceedsFromSale\n            //     );\n            // }\n\n            sendErc20(previousOwnerProceedsFromSale, tokenPatron);\n        } else {\n            deposit[tokenPatron] = deposit[tokenPatron].add(\n                previousOwnerProceedsFromSale\n            );\n        }\n\n        deposit[admin] = deposit[admin].add(wildcardsAmount);\n    }\n\n    function changePrice(uint256 tokenId, uint256 _newPrice)\n        public\n        onlyPatron(tokenId)\n        collectPatronageAndSettleBenefactor(tokenId)\n    {\n        require(state[tokenId] != StewardState.Foreclosed, \"foreclosed\");\n        require(_newPrice != 0, \"incorrect price\");\n        require(_newPrice < 10000 ether, \"exceeds max price\");\n\n        uint256 oldPriceScaled = price[tokenId].mul(\n            patronageNumerator[tokenId]\n        );\n        uint256 newPriceScaled = _newPrice.mul(patronageNumerator[tokenId]);\n        address tokenBenefactor = benefactors[tokenId];\n\n        totalPatronOwnedTokenCost[msgSender()] = totalPatronOwnedTokenCost[msg\n            .sender]\n            .sub(oldPriceScaled)\n            .add(newPriceScaled);\n\n        totalBenefactorTokenNumerator[tokenBenefactor] = totalBenefactorTokenNumerator[tokenBenefactor]\n            .sub(oldPriceScaled)\n            .add(newPriceScaled);\n\n        price[tokenId] = _newPrice;\n        emit PriceChange(tokenId, price[tokenId]);\n    }\n\n    function withdrawDeposit(uint256 _wei)\n        public\n        collectPatronagePatron(msgSender())\n        returns (uint256)\n    {\n        _withdrawDeposit(_wei);\n    }\n\n    function withdrawBenefactorFunds() public {\n        withdrawBenefactorFundsTo(msgSender());\n    }\n\n    function exit() public collectPatronagePatron(msgSender()) {\n        _withdrawDeposit(deposit[msgSender()]);\n    }\n\n    function _withdrawDeposit(uint256 _wei) internal {\n        require(deposit[msgSender()] >= _wei, \"withdrawing too much\");\n\n        deposit[msgSender()] = deposit[msgSender()].sub(_wei);\n\n        if (!sendErc20(_wei, msgSender())) {\n            revert(\"withdrawal failed\");\n        }\n    }\n\n    function _foreclose(uint256 tokenId) internal {\n        address currentOwner = assetToken.ownerOf(tokenId);\n        resetTokenOnForeclosure(tokenId, currentOwner);\n        state[tokenId] = StewardState.Foreclosed;\n\n        emit Foreclosure(currentOwner, timeLastCollectedPatron[currentOwner]);\n    }\n\n    function transferAssetTokenTo(\n        uint256 tokenId,\n        address _currentOwner,\n        address _newOwner,\n        uint256 _newPrice\n    ) internal {\n        require(_newPrice < 10000 ether, \"exceeds max price\");\n\n        uint256 scaledOldPrice = price[tokenId].mul(\n            patronageNumerator[tokenId]\n        );\n        uint256 scaledNewPrice = _newPrice.mul(patronageNumerator[tokenId]);\n\n        totalPatronOwnedTokenCost[_newOwner] = totalPatronOwnedTokenCost[_newOwner]\n            .add(scaledNewPrice);\n        totalPatronTokenGenerationRate[_newOwner] = totalPatronTokenGenerationRate[_newOwner]\n            .add(globalTokenGenerationRate);\n\n        address tokenBenefactor = benefactors[tokenId];\n        totalBenefactorTokenNumerator[tokenBenefactor] = totalBenefactorTokenNumerator[tokenBenefactor]\n            .add(scaledNewPrice);\n\n        if (_currentOwner != address(this) && _currentOwner != address(0)) {\n            totalPatronOwnedTokenCost[_currentOwner] = totalPatronOwnedTokenCost[_currentOwner]\n                .sub(scaledOldPrice);\n\n            totalPatronTokenGenerationRate[_currentOwner] = totalPatronTokenGenerationRate[_currentOwner]\n                .sub(globalTokenGenerationRate);\n\n            totalBenefactorTokenNumerator[tokenBenefactor] = totalBenefactorTokenNumerator[tokenBenefactor]\n                .sub(scaledOldPrice);\n        }\n\n        assetToken.transferFrom(_currentOwner, _newOwner, tokenId);\n\n        price[tokenId] = _newPrice;\n    }\n\n    function resetTokenOnForeclosure(uint256 tokenId, address _currentOwner)\n        internal\n    {\n        uint256 scaledPrice = price[tokenId].mul(patronageNumerator[tokenId]);\n\n        totalPatronOwnedTokenCost[_currentOwner] = totalPatronOwnedTokenCost[_currentOwner]\n            .sub(scaledPrice);\n\n        totalPatronTokenGenerationRate[_currentOwner] = totalPatronTokenGenerationRate[_currentOwner]\n            .sub((globalTokenGenerationRate));\n\n        address tokenBenefactor = benefactors[tokenId];\n        totalBenefactorTokenNumerator[tokenBenefactor] = totalBenefactorTokenNumerator[tokenBenefactor]\n            .sub(scaledPrice);\n\n        assetToken.transferFrom(_currentOwner, address(this), tokenId);\n    }\n\n    // THIS CODE IS PURELY FOR TESTING GSN - IT DOES NOTHING!\n    event TestEvent(address sender, address paymentTokenAdr, address randomArg);\n\n    function testFunctionThatDoesNothing(address randomArg) public {\n        emit TestEvent(msgSender(), address(paymentToken), randomArg);\n    }\n}\n",
  "sourcePath": "/home/jasoons/Documents/code/contracts/contracts/WildcardSteward_v3_matic.sol",
  "compiler": {
    "name": "solc",
    "version": "0.6.12+commit.27d51765.Emscripten.clang"
  },
  "schemaVersion": "3.2.3",
  "updatedAt": "2020-10-16T06:04:27.396Z",
  "networkType": "ethereum",
  "devdoc": {
    "kind": "dev",
    "methods": {
      "executeMetaTransaction(address,bytes,bytes32,bytes32,uint8)": {
        "params": {
          "functionSignature": "Signature of the actual function to be called via meta transaction",
          "sigR": "R part of the signature",
          "sigS": "S part of the signature",
          "sigV": "V part of the signature",
          "userAddress": "Address of user trying to do meta transaction"
        }
      }
    },
    "version": 1
  },
  "userdoc": {
    "kind": "user",
    "methods": {
      "executeMetaTransaction(address,bytes,bytes32,bytes32,uint8)": {
        "notice": "Main function to be called when user wants to execute meta transaction. The actual function to be called should be passed as param with name functionSignature Here the basic signature recovery is being used. Signature is expected to be generated using personal_sign method."
      }
    },
    "version": 1
  }
}