{
  "contractName": "WildcardSteward_v3_matic",
  "abi": [
    {
      "anonymous": false,
      "inputs": [
        {
          "indexed": true,
          "internalType": "uint256",
          "name": "tokenId",
          "type": "uint256"
        },
        {
          "indexed": false,
          "internalType": "uint256",
          "name": "patronageNumerator",
          "type": "uint256"
        },
        {
          "indexed": false,
          "internalType": "uint256",
          "name": "unixTimestampOfTokenAuctionStart",
          "type": "uint256"
        }
      ],
      "name": "AddTokenV3",
      "type": "event"
    },
    {
      "anonymous": false,
      "inputs": [
        {
          "indexed": true,
          "internalType": "uint256",
          "name": "tokenId",
          "type": "uint256"
        },
        {
          "indexed": false,
          "internalType": "address",
          "name": "artist",
          "type": "address"
        },
        {
          "indexed": false,
          "internalType": "uint256",
          "name": "artistCommission",
          "type": "uint256"
        }
      ],
      "name": "ArtistCommission",
      "type": "event"
    },
    {
      "anonymous": false,
      "inputs": [
        {
          "indexed": true,
          "internalType": "uint256",
          "name": "tokenId",
          "type": "uint256"
        },
        {
          "indexed": true,
          "internalType": "address",
          "name": "owner",
          "type": "address"
        },
        {
          "indexed": false,
          "internalType": "uint256",
          "name": "price",
          "type": "uint256"
        }
      ],
      "name": "Buy",
      "type": "event"
    },
    {
      "anonymous": false,
      "inputs": [],
      "name": "ChangeAuctionParameters",
      "type": "event"
    },
    {
      "anonymous": false,
      "inputs": [
        {
          "indexed": true,
          "internalType": "address",
          "name": "patron",
          "type": "address"
        },
        {
          "indexed": false,
          "internalType": "uint256",
          "name": "amountRecieved",
          "type": "uint256"
        }
      ],
      "name": "CollectLoyalty",
      "type": "event"
    },
    {
      "anonymous": false,
      "inputs": [
        {
          "indexed": true,
          "internalType": "uint256",
          "name": "tokenId",
          "type": "uint256"
        },
        {
          "indexed": true,
          "internalType": "address",
          "name": "patron",
          "type": "address"
        },
        {
          "indexed": false,
          "internalType": "uint256",
          "name": "remainingDeposit",
          "type": "uint256"
        },
        {
          "indexed": false,
          "internalType": "uint256",
          "name": "amountReceived",
          "type": "uint256"
        }
      ],
      "name": "CollectPatronage",
      "type": "event"
    },
    {
      "anonymous": false,
      "inputs": [
        {
          "indexed": true,
          "internalType": "address",
          "name": "prevOwner",
          "type": "address"
        },
        {
          "indexed": false,
          "internalType": "uint256",
          "name": "foreclosureTime",
          "type": "uint256"
        }
      ],
      "name": "Foreclosure",
      "type": "event"
    },
    {
      "anonymous": false,
      "inputs": [
        {
          "indexed": true,
          "internalType": "uint256",
          "name": "tokenId",
          "type": "uint256"
        },
        {
          "indexed": false,
          "internalType": "uint256",
          "name": "newPrice",
          "type": "uint256"
        }
      ],
      "name": "PriceChange",
      "type": "event"
    },
    {
      "anonymous": false,
      "inputs": [
        {
          "indexed": true,
          "internalType": "address",
          "name": "tokenPatron",
          "type": "address"
        },
        {
          "indexed": false,
          "internalType": "uint256",
          "name": "remainingDeposit",
          "type": "uint256"
        }
      ],
      "name": "RemainingDepositUpdate",
      "type": "event"
    },
    {
      "anonymous": false,
      "inputs": [],
      "name": "UpgradeToV3",
      "type": "event"
    },
    {
      "anonymous": false,
      "inputs": [
        {
          "indexed": true,
          "internalType": "address",
          "name": "benefactor",
          "type": "address"
        },
        {
          "indexed": false,
          "internalType": "uint256",
          "name": "withdrawAmount",
          "type": "uint256"
        }
      ],
      "name": "WithdrawBenefactorFunds",
      "type": "event"
    },
    {
      "anonymous": false,
      "inputs": [
        {
          "indexed": true,
          "internalType": "address",
          "name": "benefactor",
          "type": "address"
        },
        {
          "indexed": false,
          "internalType": "uint256",
          "name": "withdrawAmount",
          "type": "uint256"
        }
      ],
      "name": "WithdrawBenefactorFundsWithSafetyDelay",
      "type": "event"
    },
    {
      "constant": true,
      "inputs": [],
      "name": "admin",
      "outputs": [
        {
          "internalType": "address",
          "name": "",
          "type": "address"
        }
      ],
      "payable": false,
      "stateMutability": "view",
      "type": "function"
    },
    {
      "constant": true,
      "inputs": [
        {
          "internalType": "uint256",
          "name": "",
          "type": "uint256"
        }
      ],
      "name": "artistAddresses",
      "outputs": [
        {
          "internalType": "address",
          "name": "",
          "type": "address"
        }
      ],
      "payable": false,
      "stateMutability": "view",
      "type": "function"
    },
    {
      "constant": true,
      "inputs": [
        {
          "internalType": "uint256",
          "name": "",
          "type": "uint256"
        }
      ],
      "name": "artistPercentages",
      "outputs": [
        {
          "internalType": "uint256",
          "name": "",
          "type": "uint256"
        }
      ],
      "payable": false,
      "stateMutability": "view",
      "type": "function"
    },
    {
      "constant": true,
      "inputs": [],
      "name": "assetToken",
      "outputs": [
        {
          "internalType": "contract ERC721Patronage_v1",
          "name": "",
          "type": "address"
        }
      ],
      "payable": false,
      "stateMutability": "view",
      "type": "function"
    },
    {
      "constant": true,
      "inputs": [],
      "name": "auctionEndPrice",
      "outputs": [
        {
          "internalType": "uint256",
          "name": "",
          "type": "uint256"
        }
      ],
      "payable": false,
      "stateMutability": "view",
      "type": "function"
    },
    {
      "constant": true,
      "inputs": [],
      "name": "auctionLength",
      "outputs": [
        {
          "internalType": "uint256",
          "name": "",
          "type": "uint256"
        }
      ],
      "payable": false,
      "stateMutability": "view",
      "type": "function"
    },
    {
      "constant": true,
      "inputs": [],
      "name": "auctionStartPrice",
      "outputs": [
        {
          "internalType": "uint256",
          "name": "",
          "type": "uint256"
        }
      ],
      "payable": false,
      "stateMutability": "view",
      "type": "function"
    },
    {
      "constant": true,
      "inputs": [
        {
          "internalType": "address",
          "name": "",
          "type": "address"
        }
      ],
      "name": "benefactorCredit",
      "outputs": [
        {
          "internalType": "uint256",
          "name": "",
          "type": "uint256"
        }
      ],
      "payable": false,
      "stateMutability": "view",
      "type": "function"
    },
    {
      "constant": true,
      "inputs": [
        {
          "internalType": "address",
          "name": "",
          "type": "address"
        }
      ],
      "name": "benefactorFunds",
      "outputs": [
        {
          "internalType": "uint256",
          "name": "",
          "type": "uint256"
        }
      ],
      "payable": false,
      "stateMutability": "view",
      "type": "function"
    },
    {
      "constant": true,
      "inputs": [
        {
          "internalType": "uint256",
          "name": "",
          "type": "uint256"
        }
      ],
      "name": "benefactors",
      "outputs": [
        {
          "internalType": "address",
          "name": "",
          "type": "address"
        }
      ],
      "payable": false,
      "stateMutability": "view",
      "type": "function"
    },
    {
      "constant": true,
      "inputs": [
        {
          "internalType": "address",
          "name": "",
          "type": "address"
        }
      ],
      "name": "deposit",
      "outputs": [
        {
          "internalType": "uint256",
          "name": "",
          "type": "uint256"
        }
      ],
      "payable": false,
      "stateMutability": "view",
      "type": "function"
    },
    {
      "constant": true,
      "inputs": [],
      "name": "globalTokenGenerationRate",
      "outputs": [
        {
          "internalType": "uint256",
          "name": "",
          "type": "uint256"
        }
      ],
      "payable": false,
      "stateMutability": "view",
      "type": "function"
    },
    {
      "constant": true,
      "inputs": [],
      "name": "mintManager",
      "outputs": [
        {
          "internalType": "contract MintManager_v2",
          "name": "",
          "type": "address"
        }
      ],
      "payable": false,
      "stateMutability": "view",
      "type": "function"
    },
    {
      "constant": true,
      "inputs": [],
      "name": "patronageDenominator",
      "outputs": [
        {
          "internalType": "uint256",
          "name": "",
          "type": "uint256"
        }
      ],
      "payable": false,
      "stateMutability": "view",
      "type": "function"
    },
    {
      "constant": true,
      "inputs": [
        {
          "internalType": "uint256",
          "name": "",
          "type": "uint256"
        }
      ],
      "name": "patronageNumerator",
      "outputs": [
        {
          "internalType": "uint256",
          "name": "",
          "type": "uint256"
        }
      ],
      "payable": false,
      "stateMutability": "view",
      "type": "function"
    },
    {
      "constant": true,
      "inputs": [
        {
          "internalType": "uint256",
          "name": "",
          "type": "uint256"
        }
      ],
      "name": "price",
      "outputs": [
        {
          "internalType": "uint256",
          "name": "",
          "type": "uint256"
        }
      ],
      "payable": false,
      "stateMutability": "view",
      "type": "function"
    },
    {
      "constant": true,
      "inputs": [
        {
          "internalType": "uint256",
          "name": "",
          "type": "uint256"
        }
      ],
      "name": "state",
      "outputs": [
        {
          "internalType": "enum WildcardSteward_v3_matic.StewardState",
          "name": "",
          "type": "uint8"
        }
      ],
      "payable": false,
      "stateMutability": "view",
      "type": "function"
    },
    {
      "constant": true,
      "inputs": [
        {
          "internalType": "address",
          "name": "",
          "type": "address"
        }
      ],
      "name": "timeLastCollectedBenefactor",
      "outputs": [
        {
          "internalType": "uint256",
          "name": "",
          "type": "uint256"
        }
      ],
      "payable": false,
      "stateMutability": "view",
      "type": "function"
    },
    {
      "constant": true,
      "inputs": [
        {
          "internalType": "address",
          "name": "",
          "type": "address"
        }
      ],
      "name": "timeLastCollectedPatron",
      "outputs": [
        {
          "internalType": "uint256",
          "name": "",
          "type": "uint256"
        }
      ],
      "payable": false,
      "stateMutability": "view",
      "type": "function"
    },
    {
      "constant": true,
      "inputs": [
        {
          "internalType": "uint256",
          "name": "",
          "type": "uint256"
        }
      ],
      "name": "tokenAuctionBeginTimestamp",
      "outputs": [
        {
          "internalType": "uint256",
          "name": "",
          "type": "uint256"
        }
      ],
      "payable": false,
      "stateMutability": "view",
      "type": "function"
    },
    {
      "constant": true,
      "inputs": [
        {
          "internalType": "address",
          "name": "",
          "type": "address"
        }
      ],
      "name": "totalBenefactorTokenNumerator",
      "outputs": [
        {
          "internalType": "uint256",
          "name": "",
          "type": "uint256"
        }
      ],
      "payable": false,
      "stateMutability": "view",
      "type": "function"
    },
    {
      "constant": true,
      "inputs": [
        {
          "internalType": "address",
          "name": "",
          "type": "address"
        }
      ],
      "name": "totalPatronOwnedTokenCost",
      "outputs": [
        {
          "internalType": "uint256",
          "name": "",
          "type": "uint256"
        }
      ],
      "payable": false,
      "stateMutability": "view",
      "type": "function"
    },
    {
      "constant": true,
      "inputs": [
        {
          "internalType": "address",
          "name": "",
          "type": "address"
        }
      ],
      "name": "totalPatronTokenGenerationRate",
      "outputs": [
        {
          "internalType": "uint256",
          "name": "",
          "type": "uint256"
        }
      ],
      "payable": false,
      "stateMutability": "view",
      "type": "function"
    },
    {
      "constant": true,
      "inputs": [
        {
          "internalType": "uint256",
          "name": "",
          "type": "uint256"
        }
      ],
      "name": "wildcardsPercentages",
      "outputs": [
        {
          "internalType": "uint256",
          "name": "",
          "type": "uint256"
        }
      ],
      "payable": false,
      "stateMutability": "view",
      "type": "function"
    },
    {
      "constant": true,
      "inputs": [],
      "name": "withdrawCheckerAdmin",
      "outputs": [
        {
          "internalType": "address",
          "name": "",
          "type": "address"
        }
      ],
      "payable": false,
      "stateMutability": "view",
      "type": "function"
    },
    {
      "constant": true,
      "inputs": [
        {
          "internalType": "uint256",
          "name": "",
          "type": "uint256"
        }
      ],
      "name": "withdrawalNonceUsed",
      "outputs": [
        {
          "internalType": "bool",
          "name": "",
          "type": "bool"
        }
      ],
      "payable": false,
      "stateMutability": "view",
      "type": "function"
    },
    {
      "constant": true,
      "inputs": [],
      "name": "yearTimePatronagDenominator",
      "outputs": [
        {
          "internalType": "uint256",
          "name": "",
          "type": "uint256"
        }
      ],
      "payable": false,
      "stateMutability": "view",
      "type": "function"
    },
    {
      "constant": false,
      "inputs": [
        {
          "internalType": "address",
          "name": "_assetToken",
          "type": "address"
        },
        {
          "internalType": "address",
          "name": "_admin",
          "type": "address"
        },
        {
          "internalType": "address",
          "name": "_mintManager",
          "type": "address"
        },
        {
          "internalType": "address",
          "name": "_withdrawCheckerAdmin",
          "type": "address"
        },
        {
          "internalType": "uint256",
          "name": "_auctionStartPrice",
          "type": "uint256"
        },
        {
          "internalType": "uint256",
          "name": "_auctionEndPrice",
          "type": "uint256"
        },
        {
          "internalType": "uint256",
          "name": "_auctionLength",
          "type": "uint256"
        }
      ],
      "name": "initialize",
      "outputs": [],
      "payable": false,
      "stateMutability": "nonpayable",
      "type": "function"
    },
    {
      "constant": false,
      "inputs": [
        {
          "internalType": "uint256[]",
          "name": "tokens",
          "type": "uint256[]"
        },
        {
          "internalType": "address payable[]",
          "name": "_benefactors",
          "type": "address[]"
        },
        {
          "internalType": "uint256[]",
          "name": "_patronageNumerator",
          "type": "uint256[]"
        },
        {
          "internalType": "address[]",
          "name": "_artists",
          "type": "address[]"
        },
        {
          "internalType": "uint256[]",
          "name": "_artistCommission",
          "type": "uint256[]"
        },
        {
          "internalType": "uint256[]",
          "name": "_releaseDate",
          "type": "uint256[]"
        }
      ],
      "name": "listNewTokens",
      "outputs": [],
      "payable": false,
      "stateMutability": "nonpayable",
      "type": "function"
    },
    {
      "constant": false,
      "inputs": [
        {
          "internalType": "uint256",
          "name": "tokenId",
          "type": "uint256"
        },
        {
          "internalType": "address payable",
          "name": "_newReceivingBenefactor",
          "type": "address"
        }
      ],
      "name": "changeReceivingBenefactor",
      "outputs": [],
      "payable": false,
      "stateMutability": "nonpayable",
      "type": "function"
    },
    {
      "constant": false,
      "inputs": [
        {
          "internalType": "address",
          "name": "oldBenfactor",
          "type": "address"
        },
        {
          "internalType": "address payable",
          "name": "_newReceivingBenefactor",
          "type": "address"
        }
      ],
      "name": "changeReceivingBenefactorDeposit",
      "outputs": [],
      "payable": false,
      "stateMutability": "nonpayable",
      "type": "function"
    },
    {
      "constant": false,
      "inputs": [
        {
          "internalType": "address",
          "name": "_admin",
          "type": "address"
        }
      ],
      "name": "changeAdmin",
      "outputs": [],
      "payable": false,
      "stateMutability": "nonpayable",
      "type": "function"
    },
    {
      "constant": false,
      "inputs": [
        {
          "internalType": "address",
          "name": "_withdrawCheckerAdmin",
          "type": "address"
        }
      ],
      "name": "changeWithdrawCheckerAdmin",
      "outputs": [],
      "payable": false,
      "stateMutability": "nonpayable",
      "type": "function"
    },
    {
      "constant": false,
      "inputs": [
        {
          "internalType": "uint256",
          "name": "tokenId",
          "type": "uint256"
        },
        {
          "internalType": "address",
          "name": "artistAddress",
          "type": "address"
        },
        {
          "internalType": "uint256",
          "name": "percentage",
          "type": "uint256"
        }
      ],
      "name": "changeArtistAddressAndCommission",
      "outputs": [],
      "payable": false,
      "stateMutability": "nonpayable",
      "type": "function"
    },
    {
      "constant": false,
      "inputs": [
        {
          "internalType": "uint256",
          "name": "_auctionStartPrice",
          "type": "uint256"
        },
        {
          "internalType": "uint256",
          "name": "_auctionEndPrice",
          "type": "uint256"
        },
        {
          "internalType": "uint256",
          "name": "_auctionLength",
          "type": "uint256"
        }
      ],
      "name": "changeAuctionParameters",
      "outputs": [],
      "payable": false,
      "stateMutability": "nonpayable",
      "type": "function"
    },
    {
      "constant": true,
      "inputs": [
        {
          "internalType": "address",
          "name": "tokenPatron",
          "type": "address"
        }
      ],
      "name": "patronageOwedPatron",
      "outputs": [
        {
          "internalType": "uint256",
          "name": "patronageDue",
          "type": "uint256"
        }
      ],
      "payable": false,
      "stateMutability": "view",
      "type": "function"
    },
    {
      "constant": true,
      "inputs": [
        {
          "internalType": "address",
          "name": "benefactor",
          "type": "address"
        }
      ],
      "name": "patronageDueBenefactor",
      "outputs": [
        {
          "internalType": "uint256",
          "name": "payoutDue",
          "type": "uint256"
        }
      ],
      "payable": false,
      "stateMutability": "view",
      "type": "function"
    },
    {
      "constant": true,
      "inputs": [
        {
          "internalType": "address",
          "name": "tokenPatron",
          "type": "address"
        }
      ],
      "name": "foreclosedPatron",
      "outputs": [
        {
          "internalType": "bool",
          "name": "",
          "type": "bool"
        }
      ],
      "payable": false,
      "stateMutability": "view",
      "type": "function"
    },
    {
      "constant": true,
      "inputs": [
        {
          "internalType": "uint256",
          "name": "tokenId",
          "type": "uint256"
        }
      ],
      "name": "foreclosed",
      "outputs": [
        {
          "internalType": "bool",
          "name": "",
          "type": "bool"
        }
      ],
      "payable": false,
      "stateMutability": "view",
      "type": "function"
    },
    {
      "constant": true,
      "inputs": [
        {
          "internalType": "address",
          "name": "tokenPatron",
          "type": "address"
        }
      ],
      "name": "depositAbleToWithdraw",
      "outputs": [
        {
          "internalType": "uint256",
          "name": "",
          "type": "uint256"
        }
      ],
      "payable": false,
      "stateMutability": "view",
      "type": "function"
    },
    {
      "constant": true,
      "inputs": [
        {
          "internalType": "address",
          "name": "tokenPatron",
          "type": "address"
        }
      ],
      "name": "foreclosureTimePatron",
      "outputs": [
        {
          "internalType": "uint256",
          "name": "",
          "type": "uint256"
        }
      ],
      "payable": false,
      "stateMutability": "view",
      "type": "function"
    },
    {
      "constant": true,
      "inputs": [
        {
          "internalType": "uint256",
          "name": "tokenId",
          "type": "uint256"
        }
      ],
      "name": "foreclosureTime",
      "outputs": [
        {
          "internalType": "uint256",
          "name": "",
          "type": "uint256"
        }
      ],
      "payable": false,
      "stateMutability": "view",
      "type": "function"
    },
    {
      "constant": false,
      "inputs": [
        {
          "internalType": "uint256",
          "name": "tokenId",
          "type": "uint256"
        }
      ],
      "name": "_collectPatronageAndSettleBenefactor",
      "outputs": [],
      "payable": false,
      "stateMutability": "nonpayable",
      "type": "function"
    },
    {
      "constant": false,
      "inputs": [
        {
          "internalType": "address",
          "name": "benefactor",
          "type": "address"
        }
      ],
      "name": "_updateBenefactorBalance",
      "outputs": [],
      "payable": false,
      "stateMutability": "nonpayable",
      "type": "function"
    },
    {
      "constant": false,
      "inputs": [
        {
          "internalType": "address payable",
          "name": "benefactor",
          "type": "address"
        }
      ],
      "name": "withdrawBenefactorFundsTo",
      "outputs": [],
      "payable": false,
      "stateMutability": "nonpayable",
      "type": "function"
    },
    {
      "constant": true,
      "inputs": [
        {
          "internalType": "address",
          "name": "benefactor",
          "type": "address"
        },
        {
          "internalType": "uint256",
          "name": "maxAmount",
          "type": "uint256"
        },
        {
          "internalType": "uint256",
          "name": "expiry",
          "type": "uint256"
        },
        {
          "internalType": "uint256",
          "name": "nonce",
          "type": "uint256"
        }
      ],
      "name": "hasher",
      "outputs": [
        {
          "internalType": "bytes32",
          "name": "",
          "type": "bytes32"
        }
      ],
      "payable": false,
      "stateMutability": "view",
      "type": "function"
    },
    {
      "constant": false,
      "inputs": [
        {
          "internalType": "address payable",
          "name": "benefactor",
          "type": "address"
        },
        {
          "internalType": "uint256",
          "name": "maxAmount",
          "type": "uint256"
        },
        {
          "internalType": "uint256",
          "name": "expiry",
          "type": "uint256"
        },
        {
          "internalType": "uint256",
          "name": "nonce",
          "type": "uint256"
        },
        {
          "internalType": "bytes32",
          "name": "hash",
          "type": "bytes32"
        },
        {
          "internalType": "uint8",
          "name": "v",
          "type": "uint8"
        },
        {
          "internalType": "bytes32",
          "name": "r",
          "type": "bytes32"
        },
        {
          "internalType": "bytes32",
          "name": "s",
          "type": "bytes32"
        }
      ],
      "name": "withdrawBenefactorFundsToValidated",
      "outputs": [],
      "payable": false,
      "stateMutability": "nonpayable",
      "type": "function"
    },
    {
      "constant": false,
      "inputs": [
        {
          "internalType": "address",
          "name": "tokenPatron",
          "type": "address"
        }
      ],
      "name": "_collectPatronagePatron",
      "outputs": [
        {
          "internalType": "uint256",
          "name": "newTimeLastCollectedOnForeclosure",
          "type": "uint256"
        }
      ],
      "payable": false,
      "stateMutability": "nonpayable",
      "type": "function"
    },
    {
      "constant": false,
      "inputs": [],
      "name": "depositWei",
      "outputs": [],
      "payable": true,
      "stateMutability": "payable",
      "type": "function"
    },
    {
      "constant": false,
      "inputs": [
        {
          "internalType": "address",
          "name": "patron",
          "type": "address"
        }
      ],
      "name": "depositWeiPatron",
      "outputs": [],
      "payable": true,
      "stateMutability": "payable",
      "type": "function"
    },
    {
      "constant": false,
      "inputs": [
        {
          "internalType": "uint256",
          "name": "tokenId",
          "type": "uint256"
        },
        {
          "internalType": "uint256",
          "name": "_newPrice",
          "type": "uint256"
        },
        {
          "internalType": "uint256",
          "name": "previousPrice",
          "type": "uint256"
        },
        {
          "internalType": "uint256",
          "name": "wildcardsPercentage",
          "type": "uint256"
        }
      ],
      "name": "buy",
      "outputs": [],
      "payable": true,
      "stateMutability": "payable",
      "type": "function"
    },
    {
      "constant": false,
      "inputs": [
        {
          "internalType": "uint256",
          "name": "tokenId",
          "type": "uint256"
        },
        {
          "internalType": "uint256",
          "name": "_newPrice",
          "type": "uint256"
        },
        {
          "internalType": "uint256",
          "name": "wildcardsPercentage",
          "type": "uint256"
        }
      ],
      "name": "buyAuction",
      "outputs": [],
      "payable": true,
      "stateMutability": "payable",
      "type": "function"
    },
    {
      "constant": false,
      "inputs": [
        {
          "internalType": "uint256",
          "name": "tokenId",
          "type": "uint256"
        },
        {
          "internalType": "uint256",
          "name": "_newPrice",
          "type": "uint256"
        }
      ],
      "name": "changePrice",
      "outputs": [],
      "payable": false,
      "stateMutability": "nonpayable",
      "type": "function"
    },
    {
      "constant": false,
      "inputs": [
        {
          "internalType": "uint256",
          "name": "_wei",
          "type": "uint256"
        }
      ],
      "name": "withdrawDeposit",
      "outputs": [
        {
          "internalType": "uint256",
          "name": "",
          "type": "uint256"
        }
      ],
      "payable": false,
      "stateMutability": "nonpayable",
      "type": "function"
    },
    {
      "constant": false,
      "inputs": [],
      "name": "withdrawBenefactorFunds",
      "outputs": [],
      "payable": false,
      "stateMutability": "nonpayable",
      "type": "function"
    },
    {
      "constant": false,
      "inputs": [],
      "name": "exit",
      "outputs": [],
      "payable": false,
      "stateMutability": "nonpayable",
      "type": "function"
    }
  ],
  "bytecode": "0x608060405234801561001057600080fd5b50614845806100206000396000f3fe60806040526004361061036b5760003560e01c80638f283970116101c6578063cad67971116100f7578063e357420e11610095578063e9fad8ee1161006f578063e9fad8ee14610fd8578063f340fa0114610fed578063f851a44014611020578063f9345df5146110355761036b565b8063e357420e14610f13578063e4fb7aa914610f46578063e77fc7a414610f795761036b565b8063d9d85b07116100d1578063d9d85b0714610b54578063e00c50e714610b87578063e1c214c614610ebf578063e2e7ec2114610ee95761036b565b8063cad6797114610b04578063d3e0beae14610b2a578063d756985b14610b3f5761036b565b8063b9af132c11610164578063c07d7e1b1161013e578063c07d7e1b14610a2c578063c08f66cb14610a5f578063c255dd0014610a92578063c6d7b51914610ac55761036b565b8063b9af132c146109b1578063b9c3c38d146109c6578063bfe5f50a146109f95761036b565b8063a74a7522116101a0578063a74a7522146108b2578063ac946b3a14610913578063b08d024b1461094e578063b3de019c146109815761036b565b80638f28397014610855578063a04a6ac814610888578063a0c0e87b1461089d5761036b565b8063385320aa116102a05780636399af731161023e57806377d9efc81161021857806377d9efc8146107b95780637e4edf70146107ec578063831ffd05146108015780638d9e36ba1461082b5761036b565b80636399af731461073e57806367bcbbc1146107715780636ceadbe5146107865761036b565b80633eb76de71161027a5780633eb76de71461067c5780634256450e146106a557806342f98e84146106cf5780634f9c10d4146106f95761036b565b8063385320aa146105e05780633adbd0fb146105f55780633e4f49e61461062e5761036b565b80631e8b76ad1161030d5780632c3db6ea116102e75780632c3db6ea1461053b5780632d3c42e11461056e578063325c25a2146105a157806333289a46146105b65761036b565b80631e8b76ad146104a05780632488a69e146104de57806326a49e37146105115761036b565b80631083f761116103495780631083f7611461040e5780631281311d1461043f578063128ee1611461046e57806315488b88146104985761036b565b8063013cc15f146103705780630972c4f8146103a85780630b2efb4c146103d2575b600080fd5b34801561037c57600080fd5b506103a66004803603606081101561039357600080fd5b5080359060208101359060400135611068565b005b3480156103b457600080fd5b506103a6600480360360208110156103cb57600080fd5b50356110c3565b3480156103de57600080fd5b506103fc600480360360208110156103f557600080fd5b503561127d565b60408051918252519081900360200190f35b34801561041a57600080fd5b5061042361128f565b604080516001600160a01b039092168252519081900360200190f35b6103a66004803603608081101561045557600080fd5b508035906020810135906040810135906060013561129e565b34801561047a57600080fd5b506104236004803603602081101561049157600080fd5b50356115c3565b6103a66115de565b3480156104ac57600080fd5b506104ca600480360360208110156104c357600080fd5b50356115e9565b604080519115158252519081900360200190f35b3480156104ea57600080fd5b506103fc6004803603602081101561050157600080fd5b50356001600160a01b031661167a565b34801561051d57600080fd5b506103fc6004803603602081101561053457600080fd5b5035611821565b34801561054757600080fd5b506103a66004803603602081101561055e57600080fd5b50356001600160a01b0316611833565b34801561057a57600080fd5b506103fc6004803603602081101561059157600080fd5b50356001600160a01b031661195a565b3480156105ad57600080fd5b506103fc6119c2565b3480156105c257600080fd5b506103fc600480360360208110156105d957600080fd5b50356119c8565b3480156105ec57600080fd5b506103a66119e4565b34801561060157600080fd5b506103a66004803603604081101561061857600080fd5b50803590602001356001600160a01b03166119ed565b34801561063a57600080fd5b506106586004803603602081101561065157600080fd5b5035611c1f565b6040518082600181111561066857fe5b60ff16815260200191505060405180910390f35b6103a66004803603606081101561069257600080fd5b5080359060208101359060400135611c34565b3480156106b157600080fd5b506103fc600480360360208110156106c857600080fd5b5035611e96565b3480156106db57600080fd5b506103fc600480360360208110156106f257600080fd5b5035611ea8565b34801561070557600080fd5b506103fc6004803603608081101561071c57600080fd5b506001600160a01b038135169060208101359060408101359060600135611eba565b34801561074a57600080fd5b506103fc6004803603602081101561076157600080fd5b50356001600160a01b0316611f53565b34801561077d57600080fd5b506103fc611f65565b34801561079257600080fd5b506103a6600480360360208110156107a957600080fd5b50356001600160a01b0316611f72565b3480156107c557600080fd5b506103a6600480360360208110156107dc57600080fd5b50356001600160a01b031661202b565b3480156107f857600080fd5b50610423612065565b34801561080d57600080fd5b506104236004803603602081101561082457600080fd5b5035612074565b34801561083757600080fd5b506104ca6004803603602081101561084e57600080fd5b503561208f565b34801561086157600080fd5b506103a66004803603602081101561087857600080fd5b50356001600160a01b03166120a4565b34801561089457600080fd5b506103fc612111565b3480156108a957600080fd5b506103fc612117565b3480156108be57600080fd5b506103a660048036036101008110156108d657600080fd5b506001600160a01b038135169060208101359060408101359060608101359060808101359060ff60a0820135169060c08101359060e00135612121565b34801561091f57600080fd5b506103a66004803603604081101561093657600080fd5b506001600160a01b0381358116916020013516612405565b34801561095a57600080fd5b506103fc6004803603602081101561097157600080fd5b50356001600160a01b03166125b0565b34801561098d57600080fd5b506103a6600480360360408110156109a457600080fd5b50803590602001356125c2565b3480156109bd57600080fd5b506103fc6128bf565b3480156109d257600080fd5b506103fc600480360360208110156109e957600080fd5b50356001600160a01b03166128c5565b348015610a0557600080fd5b506103fc60048036036020811015610a1c57600080fd5b50356001600160a01b0316612918565b348015610a3857600080fd5b506103fc60048036036020811015610a4f57600080fd5b50356001600160a01b031661292a565b348015610a6b57600080fd5b506103fc60048036036020811015610a8257600080fd5b50356001600160a01b031661293c565b348015610a9e57600080fd5b506103fc60048036036020811015610ab557600080fd5b50356001600160a01b031661299e565b348015610ad157600080fd5b506103a660048036036060811015610ae857600080fd5b508035906001600160a01b0360208201351690604001356129b0565b6103a660048036036020811015610b1a57600080fd5b50356001600160a01b0316612abb565b348015610b3657600080fd5b50610423612b90565b348015610b4b57600080fd5b506103fc612b9f565b348015610b6057600080fd5b506103fc60048036036020811015610b7757600080fd5b50356001600160a01b0316612ba5565b348015610b9357600080fd5b506103a6600480360360c0811015610baa57600080fd5b810190602081018135600160201b811115610bc457600080fd5b820183602082011115610bd657600080fd5b803590602001918460208302840111600160201b83111715610bf757600080fd5b9190808060200260200160405190810160405280939291908181526020018383602002808284376000920191909152509295949360208101935035915050600160201b811115610c4657600080fd5b820183602082011115610c5857600080fd5b803590602001918460208302840111600160201b83111715610c7957600080fd5b9190808060200260200160405190810160405280939291908181526020018383602002808284376000920191909152509295949360208101935035915050600160201b811115610cc857600080fd5b820183602082011115610cda57600080fd5b803590602001918460208302840111600160201b83111715610cfb57600080fd5b9190808060200260200160405190810160405280939291908181526020018383602002808284376000920191909152509295949360208101935035915050600160201b811115610d4a57600080fd5b820183602082011115610d5c57600080fd5b803590602001918460208302840111600160201b83111715610d7d57600080fd5b9190808060200260200160405190810160405280939291908181526020018383602002808284376000920191909152509295949360208101935035915050600160201b811115610dcc57600080fd5b820183602082011115610dde57600080fd5b803590602001918460208302840111600160201b83111715610dff57600080fd5b9190808060200260200160405190810160405280939291908181526020018383602002808284376000920191909152509295949360208101935035915050600160201b811115610e4e57600080fd5b820183602082011115610e6057600080fd5b803590602001918460208302840111600160201b83111715610e8157600080fd5b919080806020026020016040519081016040528093929190818152602001838360200280828437600092019190915250929550612c0e945050505050565b348015610ecb57600080fd5b506103fc60048036036020811015610ee257600080fd5b50356131e0565b348015610ef557600080fd5b506103fc60048036036020811015610f0c57600080fd5b5035613268565b348015610f1f57600080fd5b506103fc60048036036020811015610f3657600080fd5b50356001600160a01b031661327a565b348015610f5257600080fd5b506104ca60048036036020811015610f6957600080fd5b50356001600160a01b031661328c565b348015610f8557600080fd5b506103a6600480360360e0811015610f9c57600080fd5b506001600160a01b0381358116916020810135821691604082013581169160608101359091169060808101359060a08101359060c001356132c3565b348015610fe457600080fd5b506103a66133ea565b348015610ff957600080fd5b506103fc6004803603602081101561101057600080fd5b50356001600160a01b0316613411565b34801561102c57600080fd5b50610423613423565b34801561104157600080fd5b506103fc6004803603602081101561105857600080fd5b50356001600160a01b0316613432565b6044546001600160a01b031633146110b3576040805162461bcd60e51b81526020600482015260096024820152682737ba1030b236b4b760b91b604482015290519081900360640190fd5b6110be838383613444565b505050565b603454604080516331a9108f60e11b81526004810184905290516000926001600160a01b031691636352211e916024808301926020929190829003018186803b15801561110f57600080fd5b505afa158015611123573d6000803e3d6000fd5b505050506040513d602081101561113957600080fd5b5051905060006111488261167a565b6000848152603b602090815260408083205460439092528220549293506001600160a01b03169160019060ff168181111561117f57fe5b14905060008311801561118f5750805b1561126d576000858152604d602052604081206001850190556111b18361195a565b90506111bc8661352e565b600086815260416020526040812054611224906801b5a660ea44b80000906112189061120c6111f1428b63ffffffff61361716565b60008d8152603360205260409020549063ffffffff61366016565b9063ffffffff61366016565b9063ffffffff6136b916565b90508181101561123f5761123a848284036136fb565b61124b565b61124b8483830361381e565b50506001600160a01b0382166000908152605060205260409020429055611276565b6112768261202b565b5050505050565b604d6020526000908152604090205481565b6034546001600160a01b031681565b836112a8816110c3565b336112b28161167a565b5084600081116112f9576040805162461bcd60e51b815260206004820152600d60248201526c5072696365206973207a65726f60981b604482015290519081900360640190fd5b3360008181526039602052604090205415801561132d57506001600160a01b0381166000908152603a602052604090205415155b1561137f576040805162461bcd60e51b815260206004820152601a60248201527f6e6f206465706f736974206578697374696e6720746f6b656e73000000000000604482015290519081900360640190fd5b848861c35082101580156113a657506000818152604c6020526040902054620f4240038211155b6113e15760405162461bcd60e51b815260040180806020018281038252602b8152602001806147e6602b913960400191505060405180910390fd5b600160008b81526043602052604090205460ff16600181111561140057fe5b14611445576040805162461bcd60e51b815260206004820152601060248201526f3a37b5b2b71037b71030bab1ba34b7b760811b604482015290519081900360640190fd5b60008a81526033602052604090205488146114915760405162461bcd60e51b81526004018080602001828103825260258152602001806147726025913960400191505060405180910390fd5b61149a8a61393e565b60008a8152604b602090815260408083208a905560339091528120546114c790349063ffffffff61361716565b336000908152603960205260409020549091506114ea908263ffffffff613ca316565b336000908152603960209081526040918290209290925560345481516331a9108f60e11b8152600481018f9052915161157f938f936001600160a01b0390931692636352211e9260248083019392829003018186803b15801561154c57600080fd5b505afa158015611560573d6000803e3d6000fd5b505050506040513d602081101561157657600080fd5b5051338d613cfd565b604080518b8152905133918d917f3b599f6217e39be59216b60e543ce0d4c7d534fe64dd9d962334924e7819894e9181900360200190a35050505050505050505050565b603b602052600090815260409020546001600160a01b031681565b6115e733612abb565b565b603454604080516331a9108f60e11b815260048101849052905160009283926001600160a01b0390911691636352211e91602480820192602092909190829003018186803b15801561163a57600080fd5b505afa15801561164e573d6000803e3d6000fd5b505050506040513d602081101561166457600080fd5b505190506116718161328c565b9150505b919050565b6000806116868361293c565b9050600080821180156116b057506001600160a01b03841660009081526039602052604090205482115b15611745576001600160a01b038416600090815260386020908152604080832054603990925290912054611705906116f89085906112189061120c428763ffffffff61361716565b829063ffffffff613ca316565b6001600160a01b03861660009081526038602090815260408083208490556039909152812055935061173d848263ffffffff61361716565b9150506117c2565b6001600160a01b03841660009081526038602052604090205461176f90429063ffffffff61361716565b6001600160a01b038516600090815260386020908152604080832042905560399091529020549091506117a8908363ffffffff61361716565b6001600160a01b0385166000908152603960205260409020555b6117cc8482613fd2565b6001600160a01b03841660008181526039602090815260409182902054825190815291517fbece12534c1381f016e2ce4d456a6eb916094df84a7dd97faa7159f3a44a0d3c9281900390910190a25050919050565b60336020526000908152604090205481565b61183c8161202b565b6001600160a01b0381166000908152603c60205260408120549061185f836140b0565b90508082116118a0576040805162461bcd60e51b81526020600482015260086024820152676e6f2066756e647360c01b604482015290519081900360640190fd5b6001600160a01b0383166000908152603c602052604090208190558082036118c881856140ed565b15611911576040805182815290516001600160a01b038616917f57ecdc53fdf69e9738d68dbb94b76b67d62dfa01122f1f2ac5a66a41dd4c76fa919081900360200190a2611954565b6001600160a01b0384166000908152603c602052604090205461193a908263ffffffff613ca316565b6001600160a01b0385166000908152603c60205260409020555b50505050565b6001600160a01b0381166000908152605060205260408120546119bc906801b5a660ea44b80000906112189061199790429063ffffffff61361716565b6001600160a01b0386166000908152604f60205260409020549063ffffffff61366016565b92915050565b60495481565b6000336119d48161167a565b506119de8361414c565b50919050565b6115e733611833565b6000828152603b602052604090205482906001600160a01b0316331480611a1e57506044546001600160a01b031633145b611a6f576040805162461bcd60e51b815260206004820152601760248201527f4e6f742062656e65666163746f72206f722061646d696e000000000000000000604482015290519081900360640190fd5b6000838152603b60205260409020546001600160a01b0316611a908161202b565b82611a9a8161202b565b836001600160a01b038116611ae5576040805162461bcd60e51b815260206004820152600c60248201526b6e756c6c206164647265737360a01b604482015290519081900360640190fd5b6000868152603b60205260409020546001600160a01b03908116908616811415611b4f576040805162461bcd60e51b815260206004820152601660248201527563616e6e6f742062652073616d65206164647265737360501b604482015290519081900360640190fd5b6000878152604160209081526040808320546033909252822054611b789163ffffffff61366016565b6001600160a01b0383166000908152604f6020526040902054909150611ba4908263ffffffff61361716565b6001600160a01b038084166000908152604f60205260408082209390935590891681522054611bd9908263ffffffff613ca316565b6001600160a01b039097166000818152604f602090815260408083209a909a55998152603b9099529690972080546001600160a01b031916909617909555505050505050565b60436020526000908152604090205460ff1681565b82611c3e816110c3565b33611c488161167a565b508360008111611c8f576040805162461bcd60e51b815260206004820152600d60248201526c5072696365206973207a65726f60981b604482015290519081900360640190fd5b33600081815260396020526040902054158015611cc357506001600160a01b0381166000908152603a602052604090205415155b15611d15576040805162461bcd60e51b815260206004820152601a60248201527f6e6f206465706f736974206578697374696e6720746f6b656e73000000000000604482015290519081900360640190fd5b848761c3508210158015611d3c57506000818152604c6020526040902054620f4240038211155b611d775760405162461bcd60e51b815260040180806020018281038252602b8152602001806147e6602b913960400191505060405180910390fd5b60008981526043602052604081205460ff166001811115611d9457fe5b14611ddd576040805162461bcd60e51b81526020600482015260146024820152731d1bdad95b881b9bdd08199bdc9958db1bdcd95960621b604482015290519081900360640190fd5b6000898152604d6020526040902054421015611e31576040805162461bcd60e51b815260206004820152600e60248201526d3737ba1037b71030bab1ba34b7b760911b604482015290519081900360640190fd5b6000611e3c8a61426b565b90506000611e50348363ffffffff61361716565b9050611e5b8b61434b565b60008b8152604360209081526040808320805460ff19166001179055604b82528083208c905533835260399091529020546114ea9082613ca3565b604c6020526000908152604090205481565b604b6020526000908152604090205481565b6040805160609590951b6bffffffffffffffffffffffff191660208087019190915260348601949094526054850192909252607480850191909152815180850390910181526094840182528051908301207f19457468657265756d205369676e6564204d6573736167653a0a33320000000060b485015260d0808501919091528151808503909101815260f09093019052815191012090565b604f6020526000908152604090205481565b6801b5a660ea44b8000081565b6044546001600160a01b03163314611fbd576040805162461bcd60e51b81526020600482015260096024820152682737ba1030b236b4b760b91b604482015290519081900360640190fd5b806001600160a01b038116612008576040805162461bcd60e51b815260206004820152600c60248201526b6e756c6c206164647265737360a01b604482015290519081900360640190fd5b50605280546001600160a01b0319166001600160a01b0392909216919091179055565b60006120368261195a565b905080156120485761204882826136fb565b506001600160a01b03166000908152605060205260409020429055565b6046546001600160a01b031681565b604a602052600090815260409020546001600160a01b031681565b60536020526000908152604090205460ff1681565b6044546001600160a01b031633146120ef576040805162461bcd60e51b81526020600482015260096024820152682737ba1030b236b4b760b91b604482015290519081900360640190fd5b604480546001600160a01b0319166001600160a01b0392909216919091179055565b60485481565b650a86cc92e3da81565b6052546040805160008152602080820180845288905260ff871682840152606082018690526080820185905291516001600160a01b039093169260019260a0808401939192601f1981019281900390910190855afa158015612187573d6000803e3d6000fd5b505050602060405103516001600160a01b0316146121ec576040805162461bcd60e51b815260206004820152601960248201527f6e6f207065726d697373696f6e20746f20776974686472617700000000000000604482015290519081900360640190fd5b60008581526053602052604090205460ff1615612245576040805162461bcd60e51b81526020600482015260126024820152711b9bdb98d948185b1c9958591e481d5cd95960721b604482015290519081900360640190fd5b61225188888888611eba565b8414612295576040805162461bcd60e51b815260206004820152600e60248201526d0d2dcc6dee4e4cac6e840d0c2e6d60931b604482015290519081900360640190fd5b8542106122da576040805162461bcd60e51b815260206004820152600e60248201526d18dbdd5c1bdb88195e1c1a5c995960921b604482015290519081900360640190fd5b6000858152605360205260409020805460ff191660011790556122fc8861202b565b6001600160a01b0388166000908152603c602052604090205480156123fa578781111561239a5761232d888a6140ed565b1561239557612342818963ffffffff61361716565b6001600160a01b038a166000818152603c6020908152604091829020939093558051848152905191927f9d56808b7d9e1c7950f9b178297ba2c7703524d88ee1df387d174c136011c58492918290030190a25b6123fa565b6123a4818a6140ed565b156123fa576001600160a01b0389166000818152603c6020908152604080832092909255815184815291517f9d56808b7d9e1c7950f9b178297ba2c7703524d88ee1df387d174c136011c5849281900390910190a25b505050505050505050565b6044546001600160a01b03163314612450576040805162461bcd60e51b81526020600482015260096024820152682737ba1030b236b4b760b91b604482015290519081900360640190fd5b806001600160a01b03811661249b576040805162461bcd60e51b815260206004820152600c60248201526b6e756c6c206164647265737360a01b604482015290519081900360640190fd5b8282806001600160a01b0316826001600160a01b031614156124fd576040805162461bcd60e51b815260206004820152601660248201527563616e6e6f742062652073616d65206164647265737360501b604482015290519081900360640190fd5b6001600160a01b0385166000908152603c6020526040902054612552576040805162461bcd60e51b81526020600482015260086024820152676e6f2066756e647360c01b604482015290519081900360640190fd5b6001600160a01b038086166000908152603c60205260408082205492871682529020546125849163ffffffff613ca316565b6001600160a01b039485166000908152603c602052604080822092909255959094168552505050812055565b60386020526000908152604090205481565b603454604080516331a9108f60e11b815260048101859052905184926001600160a01b031691636352211e916024808301926020929190829003018186803b15801561260d57600080fd5b505afa158015612621573d6000803e3d6000fd5b505050506040513d602081101561263757600080fd5b50516001600160a01b03163314612682576040805162461bcd60e51b815260206004820152600a6024820152692737ba103830ba3937b760b11b604482015290519081900360640190fd5b8261268c816110c3565b60008481526043602052604081205460ff1660018111156126a957fe5b14156126e9576040805162461bcd60e51b815260206004820152600a602482015269199bdc9958db1bdcd95960b21b604482015290519081900360640190fd5b8261272d576040805162461bcd60e51b815260206004820152600f60248201526e696e636f727265637420707269636560881b604482015290519081900360640190fd5b69021e19e0c9bab2400000831061277f576040805162461bcd60e51b815260206004820152601160248201527065786365656473206d617820707269636560781b604482015290519081900360640190fd5b60008481526041602090815260408083205460339092528220546127a89163ffffffff61366016565b600086815260416020526040812054919250906127cc90869063ffffffff61366016565b6000878152603b6020908152604080832054338452603a909252909120549192506001600160a01b03169061281990839061280d908663ffffffff61361716565b9063ffffffff613ca316565b336000908152603a60209081526040808320939093556001600160a01b0384168252604f9052205461285790839061280d908663ffffffff61361716565b6001600160a01b0382166000908152604f602090815260408083209390935589825260338152908290208890558151888152915189927ffe6b606ca0477592b5740a0eb00c8e91570a5d0eb736abfa1a6309bd081b4a4d92908290030190a250505050505050565b60425481565b6001600160a01b0381166000908152603a602052604081205481906128f9906801b5a660ea44b8000063ffffffff6136b916565b905061167161290b8261121886612ba5565b429063ffffffff613ca316565b60516020526000908152604090205481565b604e6020526000908152604090205481565b6001600160a01b0381166000908152603860205260408120546119bc906801b5a660ea44b80000906112189061297990429063ffffffff61361716565b6001600160a01b0386166000908152603a60205260409020549063ffffffff61366016565b603c6020526000908152604090205481565b6044546001600160a01b031633146129fb576040805162461bcd60e51b81526020600482015260096024820152682737ba1030b236b4b760b91b604482015290519081900360640190fd5b62030d40811115612a47576040805162461bcd60e51b81526020600482015260116024820152706e6f74206d6f7265207468616e2032302560781b604482015290519081900360640190fd5b6000838152604c60209081526040808320849055604a82529182902080546001600160a01b0319166001600160a01b0386169081179091558251908152908101839052815185927f5586506d614c14a823aceec5aaf06a022867e69afb3fe6e2f5e2d7a5bde61572928290030190a2505050565b6001600160a01b0381166000908152603a6020526040902054612b11576040805162461bcd60e51b81526020600482015260096024820152686e6f20746f6b656e7360b81b604482015290519081900360640190fd5b6001600160a01b038116600090815260396020526040902054612b3a903463ffffffff613ca316565b6001600160a01b0382166000818152603960209081526040918290208490558151938452905191927fbece12534c1381f016e2ce4d456a6eb916094df84a7dd97faa7159f3a44a0d3c929081900390910190a250565b6052546001600160a01b031681565b60475481565b600080612bb18361293c565b6001600160a01b0384166000908152603960205260409020549091508110612bdd576000915050611675565b6001600160a01b038316600090815260396020526040902054612c06908263ffffffff61361716565b915050611675565b6044546001600160a01b03163314612c59576040805162461bcd60e51b81526020600482015260096024820152682737ba1030b236b4b760b91b604482015290519081900360640190fd5b8451865114612c6457fe5b8351865114612c6f57fe5b8051865114612c7a57fe5b8151835114612c8557fe5b60005b86518160ff1610156131d7576000868260ff1681518110612ca557fe5b6020026020010151905060006001600160a01b0316878360ff1681518110612cc957fe5b60200260200101516001600160a01b03161415612d1c576040805162461bcd60e51b815260206004820152600c60248201526b6e756c6c206164647265737360a01b604482015290519081900360640190fd5b6060612d3d898460ff1681518110612d3057fe5b602002602001015161445c565b905060606040518060400160405280601c81526020017f68747470733a2f2f77696c6463617264732e78797a2f746f6b656e2f000000008152509050606081836040516020018083805190602001908083835b60208310612daf5780518252601f199092019160209182019101612d90565b51815160209384036101000a600019018019909216911617905285519190930192850191508083835b60208310612df75780518252601f199092019160209182019101612dd8565b6001836020036101000a038019825116818451168082178552505050505050905001925050506040516020818303038152906040529050603460009054906101000a90046001600160a01b03166001600160a01b03166350bb4e7f308d8860ff1681518110612e6257fe5b6020026020010151846040518463ffffffff1660e01b815260040180846001600160a01b03166001600160a01b0316815260200183815260200180602001828103825283818151815260200191508051906020019080838360005b83811015612ed5578181015183820152602001612ebd565b50505050905090810190601f168015612f025780820380516001836020036101000a031916815260200191505b50945050505050602060405180830381600087803b158015612f2357600080fd5b505af1158015612f37573d6000803e3d6000fd5b505050506040513d6020811015612f4d57600080fd5b505089518a9060ff8716908110612f6057fe5b6020026020010151603b60008d8860ff1681518110612f7b57fe5b6020026020010151815260200190815260200160002060006101000a8154816001600160a01b0302191690836001600160a01b031602179055506000604360008d8860ff1681518110612fca57fe5b6020026020010151815260200190815260200160002060006101000a81548160ff02191690836001811115612ffb57fe5b0217905550888560ff168151811061300f57fe5b6020026020010151604160008d8860ff168151811061302a57fe5b602002602001015181526020019081526020016000208190555042868660ff168151811061305457fe5b602002602001015110156130955742604d60008d8860ff168151811061307657fe5b60200260200101518152602001908152602001600020819055506130da565b858560ff16815181106130a457fe5b6020026020010151604d60008d8860ff16815181106130bf57fe5b60200260200101518152602001908152602001600020819055505b8a8560ff16815181106130e957fe5b60200260200101517f0c954b79cf3caaaad0936916502caf69a5b4c93edeb4cc2ef2642fafc4f968778a8760ff168151811061312157fe5b6020026020010151604d60008f8a60ff168151811061313c57fe5b6020026020010151815260200190815260200160002054604051808381526020018281526020019250505060405180910390a28460ff16885111156131c8576131c88b8660ff168151811061318d57fe5b6020026020010151898760ff16815181106131a457fe5b6020026020010151898860ff16815181106131bb57fe5b60200260200101516129b0565b50505050806001019050612c88565b50505050505050565b603454604080516331a9108f60e11b815260048101849052905160009283926001600160a01b0390911691636352211e91602480820192602092909190829003018186803b15801561323157600080fd5b505afa158015613245573d6000803e3d6000fd5b505050506040513d602081101561325b57600080fd5b50519050611671816128c5565b60416020526000908152604090205481565b60506020526000908152604090205481565b6001600160a01b0381166000908152603960205260408120546132ae8361293c565b106132bb57506001611675565b506000611675565b600054610100900460ff16806132dc57506132dc614517565b806132ea575060005460ff16155b6133255760405162461bcd60e51b815260040180806020018281038252602e8152602001806147b8602e913960400191505060405180910390fd5b600054610100900460ff16158015613350576000805460ff1961ff0019909116610100171660011790555b6040517f9e7c5523d188a1a804de886fe0de6a44b045c186462df5909b2475cff971baf490600090a1603480546001600160a01b03808b166001600160a01b031992831617909255604480548a84169083161790556052805488841690831617905560468054928916929091169190911790556133ce848484613444565b80156133e0576000805461ff00191690555b5050505050505050565b336133f48161167a565b503360009081526039602052604090205461340e9061414c565b50565b60396020526000908152604090205481565b6044546001600160a01b031681565b603a6020526000908152604090205481565b81831015613499576040805162461bcd60e51b815260206004820152601b60248201527f61756374696f6e207374617274203c2061756374696f6e20656e640000000000604482015290519081900360640190fd5b620151808110156134f1576040805162461bcd60e51b815260206004820152601860248201527f3120646179206d696e2061756374696f6e206c656e6774680000000000000000604482015290519081900360640190fd5b6047839055604882905560498190556040517f302fedae2d242dcf051d44de5478e1e00f5a0e972d3cb61423043fecae47152d90600090a1505050565b603454604080516331a9108f60e11b81526004810184905290516000926001600160a01b031691636352211e916024808301926020929190829003018186803b15801561357a57600080fd5b505afa15801561358e573d6000803e3d6000fd5b505050506040513d60208110156135a457600080fd5b505190506135b2828261451d565b6000828152604360209081526040808320805460ff191690556001600160a01b038416808452603883529281902054815190815290517f5c96da7ec020805f8c8976230ffa5316fff9373db995b9a5c11deb511e530c6d929181900390910190a25050565b600061365983836040518060400160405280601e81526020017f536166654d6174683a207375627472616374696f6e206f766572666c6f770000815250614675565b9392505050565b60008261366f575060006119bc565b8282028284828161367c57fe5b04146136595760405162461bcd60e51b81526004018080602001828103825260218152602001806147976021913960400191505060405180910390fd5b600061365983836040518060400160405280601a81526020017f536166654d6174683a206469766973696f6e206279207a65726f00000000000081525061470c565b6001600160a01b038216600090815260516020526040902054156137d7576001600160a01b038216600090815260516020526040902054811015613780576001600160a01b038216600090815260516020526040902054613762908263ffffffff61361716565b6001600160a01b0383166000908152605160205260409020556137d2565b6001600160a01b0382166000908152605160205260409020546137aa90829063ffffffff61361716565b6001600160a01b0383166000908152603c602090815260408083209390935560519052908120555b61381a565b6001600160a01b0382166000908152603c6020526040902054613800908263ffffffff613ca316565b6001600160a01b0383166000908152603c60205260409020555b5050565b6001600160a01b0382166000908152603c6020526040902054156138f8576001600160a01b0382166000908152603c602052604090205481116138a2576001600160a01b0382166000908152603c6020526040902054613884908263ffffffff61361716565b6001600160a01b0383166000908152603c60205260409020556137d2565b6001600160a01b0382166000908152603c60205260409020546138cc90829063ffffffff61361716565b6001600160a01b038316600090815260516020908152604080832093909355603c90529081205561381a565b6001600160a01b038216600090815260516020526040902054613921908263ffffffff613ca316565b6001600160a01b0383166000908152605160205260409020555050565b60008181526033602090815260408083205460345482516331a9108f60e11b81526004810187905292519194936001600160a01b0390911692636352211e9260248083019392829003018186803b15801561399857600080fd5b505afa1580156139ac573d6000803e3d6000fd5b505050506040513d60208110156139c257600080fd5b50516000848152604b60205260409020549091506139ee576000838152604b6020526040902061c35090555b6000838152604b6020526040812054613a1790620f42409061121890869063ffffffff61366016565b6000858152604c602052604081205491925090613a3657506000613abd565b6000858152604c6020526040902054613a5f90620f42409061121890879063ffffffff61366016565b6000868152604a60209081526040808320546001600160a01b031683526039909152902054909150613a97908263ffffffff613ca316565b6000868152604a60209081526040808320546001600160a01b0316835260399091529020555b6000613adf82613ad3878663ffffffff61361716565b9063ffffffff61361716565b600087815260416020908152604080832054603390925290912054919250613b0d919063ffffffff61366016565b6001600160a01b0385166000908152603a60205260409020541415613c12576001600160a01b038416600090815260396020526040902054613b5690829063ffffffff613ca316565b6001600160a01b0385166000818152603960205260408082208290555192935086929091906108fc90859084818181858888f193505050503d8060008114613bba576040519150601f19603f3d011682016040523d82523d6000602084013e613bbf565b606091505b5050905080613c0b576001600160a01b038616600090815260396020526040902054613bf1908463ffffffff613ca316565b6001600160a01b0387166000908152603960205260409020555b5050613c55565b6001600160a01b038416600090815260396020526040902054613c3b908263ffffffff613ca316565b6001600160a01b0385166000908152603960205260409020555b6044546001600160a01b0316600090815260396020526040902054613c80908463ffffffff613ca316565b6044546001600160a01b0316600090815260396020526040902055505050505050565b600082820183811015613659576040805162461bcd60e51b815260206004820152601b60248201527f536166654d6174683a206164646974696f6e206f766572666c6f770000000000604482015290519081900360640190fd5b69021e19e0c9bab24000008110613d4f576040805162461bcd60e51b815260206004820152601160248201527065786365656473206d617820707269636560781b604482015290519081900360640190fd5b6000848152604160209081526040808320546033909252822054613d789163ffffffff61366016565b60008681526041602052604081205491925090613d9c90849063ffffffff61366016565b6001600160a01b0385166000908152603a6020526040902054909150613dc8908263ffffffff613ca316565b6001600160a01b0385166000908152603a6020908152604080832093909355604e90522054613e0390650a86cc92e3da63ffffffff613ca316565b6001600160a01b038086166000908152604e6020908152604080832094909455898252603b815283822054909216808252604f9092529190912054613e4e908363ffffffff613ca316565b6001600160a01b038083166000908152604f602052604090209190915586163014801590613e8457506001600160a01b03861615155b15613f43576001600160a01b0386166000908152603a6020526040902054613eb2908463ffffffff61361716565b6001600160a01b0387166000908152603a6020908152604080832093909355604e90522054613eed90650a86cc92e3da63ffffffff61361716565b6001600160a01b038088166000908152604e60209081526040808320949094559184168152604f9091522054613f29908463ffffffff61361716565b6001600160a01b0382166000908152604f60205260409020555b603454604080516323b872dd60e01b81526001600160a01b0389811660048301528881166024830152604482018b9052915191909216916323b872dd91606480830192600092919082900301818387803b158015613fa057600080fd5b505af1158015613fb4573d6000803e3d6000fd5b50505060009788525050603360205250506040909320929092555050565b801561381a576046546001600160a01b038381166000818152604e6020526040808220548151632ee9130160e01b81526004810194909452602484018790526044840152519290931692632ee913019260648084019382900301818387803b15801561403d57600080fd5b505af1158015614051573d6000803e3d6000fd5b505050506001600160a01b0382166000818152604e60205260409020547f865c2de2ed42d00fd42f3dad539a5ac070456a196db3dac47457b058a8e594899061409b908490613660565b60408051918252519081900360200190a25050565b6049546001600160a01b0382166000908152604f602052604081205490916119bc916801b5a660ea44b8000091611218919063ffffffff61366016565b6040516000906001600160a01b038316906108fc90859084818181858888f193505050503d806000811461413d576040519150601f19603f3d011682016040523d82523d6000602084013e614142565b606091505b5090949350505050565b336000908152603960205260409020548111156141a7576040805162461bcd60e51b81526020600482015260146024820152730eed2e8d0c8e4c2eed2dcce40e8dede40daeac6d60631b604482015290519081900360640190fd5b336000908152603960205260409020546141c7908263ffffffff61361716565b336000818152603960205260408082209390935591516108fc90849084818181858888f193505050503d806000811461421c576040519150601f19603f3d011682016040523d82523d6000602084013e614221565b606091505b505090508061381a576040805162461bcd60e51b81526020600482015260116024820152701dda5d1a191c985dd85b0819985a5b1959607a1b604482015290519081900360640190fd5b6049546000828152604d6020526040812054909182916142909163ffffffff613ca316565b60008481526033602052604081205491925090158015906142c05750604854600085815260336020526040902054115b156142da57506000838152603360205260409020546142df565b506047545b8142106142f25760485492505050611675565b6049546000858152604d602052604090205461434291614335916112189061432190429063ffffffff61361716565b60485461120c90879063ffffffff61361716565b829063ffffffff61361716565b92505050611675565b600081815260336020908152604080832054604c909252822054909190614374575060006143fb565b6000838152604c602052604090205461439d90620f42409061121890859063ffffffff61366016565b6000848152604a60209081526040808320546001600160a01b0316835260399091529020549091506143d5908263ffffffff613ca316565b6000848152604a60209081526040808320546001600160a01b0316835260399091529020555b600061440d838363ffffffff61361716565b6044546001600160a01b031660009081526039602052604090205490915061443b908263ffffffff613ca316565b6044546001600160a01b031660009081526039602052604090205550505050565b60608161448157506040805180820190915260018152600360fc1b6020820152611675565b8160005b811561449957600101600a82049150614485565b6060816040519080825280601f01601f1916602001820160405280156144c6576020820181803883390190505b5090505b841561450f57600a850660300160f81b818360019003935083815181106144ed57fe5b60200101906001600160f81b031916908160001a905350600a850494506144ca565b949350505050565b303b1590565b60008281526041602090815260408083205460339092528220546145469163ffffffff61366016565b6001600160a01b0383166000908152603a6020526040902054909150614572908263ffffffff61361716565b6001600160a01b0383166000908152603a6020908152604080832093909355604e905220546145ad90650a86cc92e3da63ffffffff61361716565b6001600160a01b038084166000908152604e6020908152604080832094909455868252603b815283822054909216808252604f90925291909120546145f8908363ffffffff61361716565b6001600160a01b038083166000908152604f60205260408082209390935560345483516323b872dd60e01b815287841660048201523060248201526044810189905293519216926323b872dd926064808301939282900301818387803b15801561466157600080fd5b505af11580156133e0573d6000803e3d6000fd5b600081848411156147045760405162461bcd60e51b81526004018080602001828103825283818151815260200191508051906020019080838360005b838110156146c95781810151838201526020016146b1565b50505050905090810190601f1680156146f65780820380516001836020036101000a031916815260200191505b509250505060405180910390fd5b505050900390565b6000818361475b5760405162461bcd60e51b81526020600482018181528351602484015283519092839260449091019190850190808383600083156146c95781810151838201526020016146b1565b50600083858161476757fe5b049594505050505056fe6d75737420737065636966792063757272656e742070726963652061636375726174656c79536166654d6174683a206d756c7469706c69636174696f6e206f766572666c6f77436f6e747261637420696e7374616e63652068617320616c7265616479206265656e20696e697469616c697a656477696c64636172647320636f6d6d6973696f6e206e6f74206265747765656e20352520616e642031303025a265627a7a723158201afa2ef5e32636d0beeb528c9e20caecf23df035650a8bfa854d4752e534e36564736f6c63430005110032",
  "source": "pragma solidity 0.5.17;\n\nimport \"./ERC721Patronage_v1.sol\";\nimport \"./MintManager_v2.sol\";\n\n// import \"@nomiclabs/buidler/console.sol\";\n\ncontract WildcardSteward_v3_matic is Initializable {\n    /*\n    This smart contract collects patronage from current owner through a Harberger tax model and \n    takes stewardship of the asset token if the patron can't pay anymore.\n\n    Harberger Tax (COST):\n    - Asset is always on sale.\n    - You have to have a price set.\n    - Tax (Patronage) is paid to maintain ownership.\n    - Steward maints control over ERC721.\n    */\n    using SafeMath for uint256;\n    mapping(uint256 => uint256) public price; //in wei\n    ERC721Patronage_v1 public assetToken; // ERC721 NFT.\n\n    mapping(uint256 => uint256) deprecated_totalCollected; // THIS VALUE IS DEPRECATED\n    mapping(uint256 => uint256) deprecated_currentCollected; // THIS VALUE IS DEPRECATED\n    mapping(uint256 => uint256) deprecated_timeLastCollected; // THIS VALUE IS DEPRECATED.\n    mapping(address => uint256) public timeLastCollectedPatron;\n    mapping(address => uint256) public deposit;\n    mapping(address => uint256) public totalPatronOwnedTokenCost;\n\n    mapping(uint256 => address) public benefactors; // non-profit benefactor\n    mapping(address => uint256) public benefactorFunds;\n\n    mapping(uint256 => address) deprecated_currentPatron; // Deprecate This is different to the current token owner.\n    mapping(uint256 => mapping(address => bool)) deprecated_patrons; // Deprecate\n    mapping(uint256 => mapping(address => uint256)) deprecated_timeHeld; // Deprecate\n\n    mapping(uint256 => uint256) deprecated_timeAcquired; // deprecate\n\n    // 1200% patronage\n    mapping(uint256 => uint256) public patronageNumerator;\n    uint256 public patronageDenominator;\n\n    enum StewardState {Foreclosed, Owned}\n    mapping(uint256 => StewardState) public state;\n\n    address public admin;\n\n    //////////////// NEW variables in v2///////////////////\n    mapping(uint256 => uint256) deprecated_tokenGenerationRate; // we can reuse the patronage denominator\n\n    MintManager_v2 public mintManager;\n    //////////////// NEW variables in v3 ///////////////////\n    uint256 public auctionStartPrice;\n    uint256 public auctionEndPrice;\n    uint256 public auctionLength;\n\n    mapping(uint256 => address) public artistAddresses; //mapping from tokenID to the artists address\n    mapping(uint256 => uint256) public wildcardsPercentages; // mapping from tokenID to the percentage sale cut of wildcards for each token\n    mapping(uint256 => uint256) public artistPercentages; // tokenId to artist percetages. To make it configurable. 10 000 = 100%\n    mapping(uint256 => uint256) public tokenAuctionBeginTimestamp;\n\n    mapping(address => uint256) public totalPatronTokenGenerationRate; // The total token generation rate for all the tokens of the given address.\n    mapping(address => uint256) public totalBenefactorTokenNumerator;\n    mapping(address => uint256) public timeLastCollectedBenefactor; // make my name consistent please\n    mapping(address => uint256) public benefactorCredit;\n    address public withdrawCheckerAdmin;\n\n    mapping(uint256 => bool) public withdrawalNonceUsed; // if true, the nonce (part of a withdrawal signature) has already been used for a withdrawal.\n\n    /*\n    31536000 seconds = 365 days\n\n    divisor = 365 days * 1000000000000\n            = 31536000000000000000\n    */\n\n    // 11574074074074 = 10^18 / 86400 This is just less (rounded down) than one token a day.\n    //       - this can be done since all tokens have the exact same tokenGenerationRate - and hardcoding saves gas.\n    uint256 public constant globalTokenGenerationRate = 11574074074074;\n    uint256 public constant yearTimePatronagDenominator = 31536000000000000000;\n\n    event Buy(uint256 indexed tokenId, address indexed owner, uint256 price);\n    event PriceChange(uint256 indexed tokenId, uint256 newPrice);\n    event Foreclosure(address indexed prevOwner, uint256 foreclosureTime);\n    event RemainingDepositUpdate(\n        address indexed tokenPatron,\n        uint256 remainingDeposit\n    );\n\n    event AddTokenV3(\n        uint256 indexed tokenId,\n        uint256 patronageNumerator,\n        uint256 unixTimestampOfTokenAuctionStart\n    );\n\n    // QUESTION: in future versions, should these two events (CollectPatronage and CollectLoyalty) be combined into one? - they only ever happen at the same time.\n    // NOTE: this event is deprecated - it is only here for the upgrade function.\n    event CollectPatronage(\n        uint256 indexed tokenId,\n        address indexed patron,\n        uint256 remainingDeposit,\n        uint256 amountReceived\n    );\n    event CollectLoyalty(address indexed patron, uint256 amountRecieved);\n\n    event ArtistCommission(\n        uint256 indexed tokenId,\n        address artist,\n        uint256 artistCommission\n    );\n    event WithdrawBenefactorFundsWithSafetyDelay(\n        address indexed benefactor,\n        uint256 withdrawAmount\n    );\n    event WithdrawBenefactorFunds(\n        address indexed benefactor,\n        uint256 withdrawAmount\n    );\n    event UpgradeToV3();\n    event ChangeAuctionParameters();\n\n    modifier onlyPatron(uint256 tokenId) {\n        require(msg.sender == assetToken.ownerOf(tokenId), \"Not patron\");\n        _;\n    }\n\n    modifier onlyAdmin() {\n        require(msg.sender == admin, \"Not admin\");\n        _;\n    }\n\n    modifier onlyReceivingBenefactorOrAdmin(uint256 tokenId) {\n        require(\n            msg.sender == benefactors[tokenId] || msg.sender == admin,\n            \"Not benefactor or admin\"\n        );\n        _;\n    }\n\n    modifier collectPatronageAndSettleBenefactor(uint256 tokenId) {\n        _collectPatronageAndSettleBenefactor(tokenId);\n        _;\n    }\n\n    modifier collectPatronagePatron(address tokenPatron) {\n        _collectPatronagePatron(tokenPatron);\n        _;\n    }\n\n    modifier youCurrentlyAreNotInDefault(address tokenPatron) {\n        require(\n            !(deposit[tokenPatron] == 0 &&\n                totalPatronOwnedTokenCost[tokenPatron] > 0),\n            \"no deposit existing tokens\"\n        );\n        _;\n    }\n\n    modifier updateBenefactorBalance(address benefactor) {\n        _updateBenefactorBalance(benefactor);\n        _;\n    }\n\n    modifier priceGreaterThanZero(uint256 _newPrice) {\n        require(_newPrice > 0, \"Price is zero\");\n        _;\n    }\n    modifier notNullAddress(address checkAddress) {\n        require(checkAddress != address(0), \"null address\");\n        _;\n    }\n    modifier notSameAddress(address firstAddress, address secondAddress) {\n        require(firstAddress != secondAddress, \"cannot be same address\");\n        _;\n    }\n    modifier validWildcardsPercentage(\n        uint256 wildcardsPercentage,\n        uint256 tokenID\n    ) {\n        require(\n            wildcardsPercentage >= 50000 &&\n                wildcardsPercentage <= (1000000 - artistPercentages[tokenID]), // not sub safemath. Is this okay?\n            \"wildcards commision not between 5% and 100%\"\n        );\n        _;\n    }\n\n    function initialize(\n        address _assetToken,\n        address _admin,\n        address _mintManager,\n        address _withdrawCheckerAdmin,\n        uint256 _auctionStartPrice,\n        uint256 _auctionEndPrice,\n        uint256 _auctionLength\n    ) public initializer {\n        emit UpgradeToV3();\n        assetToken = ERC721Patronage_v1(_assetToken);\n        admin = _admin;\n        withdrawCheckerAdmin = _withdrawCheckerAdmin;\n        mintManager = MintManager_v2(_mintManager);\n        _changeAuctionParameters(\n            _auctionStartPrice,\n            _auctionEndPrice,\n            _auctionLength\n        );\n    }\n\n    function uintToStr(uint256 _i)\n        internal\n        pure\n        returns (string memory _uintAsString)\n    {\n        if (_i == 0) {\n            return \"0\";\n        }\n\n        uint256 j = _i;\n        uint256 len;\n        while (j != 0) {\n            len++;\n            j /= 10;\n        }\n\n        bytes memory bstr = new bytes(len);\n        while (_i != 0) {\n            bstr[--len] = bytes1(uint8(48 + (_i % 10)));\n            _i /= 10;\n        }\n        return string(bstr);\n    }\n\n    function listNewTokens(\n        uint256[] memory tokens,\n        address payable[] memory _benefactors,\n        uint256[] memory _patronageNumerator,\n        address[] memory _artists,\n        uint256[] memory _artistCommission,\n        uint256[] memory _releaseDate\n    ) public onlyAdmin {\n        assert(tokens.length == _benefactors.length);\n        assert(tokens.length == _patronageNumerator.length);\n        assert(tokens.length == _releaseDate.length);\n        assert(_artists.length == _artistCommission.length);\n\n        for (uint8 i = 0; i < tokens.length; ++i) {\n            address benefactor = _benefactors[i];\n            require(_benefactors[i] != address(0), \"null address\");\n            string memory idString = uintToStr(tokens[i]);\n            string memory tokenUriBase = \"https://wildcards.xyz/token/\";\n            string memory tokenUri = string(\n                abi.encodePacked(tokenUriBase, idString)\n            );\n            assetToken.mintWithTokenURI(address(this), tokens[i], tokenUri);\n            benefactors[tokens[i]] = _benefactors[i];\n            state[tokens[i]] = StewardState.Foreclosed;\n            patronageNumerator[tokens[i]] = _patronageNumerator[i];\n            // tokenGenerationRate[tokens[i]] = _tokenGenerationRate[i];\n\n            if (_releaseDate[i] < now) {\n                tokenAuctionBeginTimestamp[tokens[i]] = now;\n            } else {\n                tokenAuctionBeginTimestamp[tokens[i]] = _releaseDate[i];\n            }\n\n            emit AddTokenV3(\n                tokens[i],\n                _patronageNumerator[i],\n                tokenAuctionBeginTimestamp[tokens[i]]\n            );\n            // Adding this after the add token emit, so graph can first capture the token before processing the change artist things\n            if (_artists.length > i) {\n                changeArtistAddressAndCommission(\n                    tokens[i],\n                    _artists[i],\n                    _artistCommission[i]\n                );\n            }\n        }\n    }\n\n    function changeReceivingBenefactor(\n        uint256 tokenId,\n        address payable _newReceivingBenefactor\n    )\n        public\n        onlyReceivingBenefactorOrAdmin(tokenId)\n        updateBenefactorBalance(benefactors[tokenId])\n        updateBenefactorBalance(_newReceivingBenefactor)\n        notNullAddress(_newReceivingBenefactor)\n    {\n        address oldBenfactor = benefactors[tokenId];\n\n        require(\n            oldBenfactor != _newReceivingBenefactor,\n            \"cannot be same address\"\n        );\n\n        // Collect patronage from old and new benefactor before changing totalBenefactorTokenNumerator on both\n        uint256 scaledPrice = price[tokenId].mul(patronageNumerator[tokenId]);\n        totalBenefactorTokenNumerator[oldBenfactor] = totalBenefactorTokenNumerator[oldBenfactor]\n            .sub(scaledPrice);\n        totalBenefactorTokenNumerator[_newReceivingBenefactor] = totalBenefactorTokenNumerator[_newReceivingBenefactor]\n            .add(scaledPrice);\n\n        benefactors[tokenId] = _newReceivingBenefactor;\n        // NB No fund exchanging here please!\n    }\n\n    // NB This function is if an organisation loses their keys etc..\n    // It will transfer their deposit to their new benefactor address\n    // It should only be called once all their tokens also changeReceivingBenefactor\n    function changeReceivingBenefactorDeposit(\n        address oldBenfactor,\n        address payable _newReceivingBenefactor\n    )\n        public\n        onlyAdmin\n        notNullAddress(_newReceivingBenefactor)\n        notSameAddress(oldBenfactor, _newReceivingBenefactor)\n    {\n        require(benefactorFunds[oldBenfactor] > 0, \"no funds\");\n\n        benefactorFunds[_newReceivingBenefactor] = benefactorFunds[_newReceivingBenefactor]\n            .add(benefactorFunds[oldBenfactor]);\n        benefactorFunds[oldBenfactor] = 0;\n    }\n\n    function changeAdmin(address _admin) public onlyAdmin {\n        admin = _admin;\n    }\n\n    function changeWithdrawCheckerAdmin(address _withdrawCheckerAdmin)\n        public\n        onlyAdmin\n        notNullAddress(_withdrawCheckerAdmin)\n    {\n        withdrawCheckerAdmin = _withdrawCheckerAdmin;\n    }\n\n    function changeArtistAddressAndCommission(\n        uint256 tokenId,\n        address artistAddress,\n        uint256 percentage\n    ) public onlyAdmin {\n        require(percentage <= 200000, \"not more than 20%\");\n        artistPercentages[tokenId] = percentage;\n        artistAddresses[tokenId] = artistAddress;\n        emit ArtistCommission(tokenId, artistAddress, percentage);\n    }\n\n    function _changeAuctionParameters(\n        uint256 _auctionStartPrice,\n        uint256 _auctionEndPrice,\n        uint256 _auctionLength\n    ) internal {\n        require(\n            _auctionStartPrice >= _auctionEndPrice,\n            \"auction start < auction end\"\n        );\n        require(_auctionLength >= 86400, \"1 day min auction length\");\n\n        auctionStartPrice = _auctionStartPrice;\n        auctionEndPrice = _auctionEndPrice;\n        auctionLength = _auctionLength;\n        emit ChangeAuctionParameters();\n    }\n\n    function changeAuctionParameters(\n        uint256 _auctionStartPrice,\n        uint256 _auctionEndPrice,\n        uint256 _auctionLength\n    ) external onlyAdmin {\n        _changeAuctionParameters(\n            _auctionStartPrice,\n            _auctionEndPrice,\n            _auctionLength\n        );\n    }\n\n    function patronageOwedPatron(address tokenPatron)\n        public\n        view\n        returns (uint256 patronageDue)\n    {\n        // NOTE: Leaving this code here as a reminder: totalPatronOwnedTokenCost[tokenPatron] has to be zero if timeLastCollectedPatron[tokenPatron] is zero. So effectively this line isn't needed.\n        // if (timeLastCollectedPatron[tokenPatron] == 0) return 0;\n        return\n            totalPatronOwnedTokenCost[tokenPatron]\n                .mul(now.sub(timeLastCollectedPatron[tokenPatron]))\n                .div(yearTimePatronagDenominator);\n    }\n\n    function patronageDueBenefactor(address benefactor)\n        public\n        view\n        returns (uint256 payoutDue)\n    {\n        // NOTE: Leaving this code here as a reminder: totalBenefactorTokenNumerator[tokenPatron] has to be zero if timeLastCollectedBenefactor[tokenPatron] is zero. So effectively this line isn't needed.\n        // if (timeLastCollectedBenefactor[benefactor] == 0) return 0;\n        return\n            totalBenefactorTokenNumerator[benefactor]\n                .mul(now.sub(timeLastCollectedBenefactor[benefactor]))\n                .div(yearTimePatronagDenominator);\n    }\n\n    function foreclosedPatron(address tokenPatron) public view returns (bool) {\n        if (patronageOwedPatron(tokenPatron) >= deposit[tokenPatron]) {\n            return true;\n        } else {\n            return false;\n        }\n    }\n\n    function foreclosed(uint256 tokenId) public view returns (bool) {\n        address tokenPatron = assetToken.ownerOf(tokenId);\n        return foreclosedPatron(tokenPatron);\n    }\n\n    function depositAbleToWithdraw(address tokenPatron)\n        public\n        view\n        returns (uint256)\n    {\n        uint256 collection = patronageOwedPatron(tokenPatron);\n        if (collection >= deposit[tokenPatron]) {\n            return 0;\n        } else {\n            return deposit[tokenPatron].sub(collection);\n        }\n    }\n\n    function foreclosureTimePatron(address tokenPatron)\n        public\n        view\n        returns (uint256)\n    {\n        uint256 pps = totalPatronOwnedTokenCost[tokenPatron].div(\n            yearTimePatronagDenominator\n        );\n        return now.add(depositAbleToWithdraw(tokenPatron).div(pps));\n    }\n\n    function foreclosureTime(uint256 tokenId) public view returns (uint256) {\n        address tokenPatron = assetToken.ownerOf(tokenId);\n        return foreclosureTimePatron(tokenPatron);\n    }\n\n    /* actions */\n    function _collectLoyaltyPatron(\n        address tokenPatron,\n        uint256 timeSinceLastMint\n    ) internal {\n        if (timeSinceLastMint != 0) {\n            mintManager.tokenMint(\n                tokenPatron,\n                timeSinceLastMint,\n                totalPatronTokenGenerationRate[tokenPatron]\n            );\n            emit CollectLoyalty(\n                tokenPatron,\n                timeSinceLastMint.mul(\n                    totalPatronTokenGenerationRate[tokenPatron]\n                )\n            );\n        }\n    }\n\n    // TODO: create a version of this function that only collects patronage (and only settles the benefactor if the token forecloses) - is this needed?\n\n    function _collectPatronageAndSettleBenefactor(uint256 tokenId) public {\n        address tokenPatron = assetToken.ownerOf(tokenId);\n        uint256 newTimeLastCollectedOnForeclosure = _collectPatronagePatron(\n            tokenPatron\n        );\n\n        address benefactor = benefactors[tokenId];\n        // bool tokenForeclosed = newTimeLastCollectedOnForeclosure > 0;\n        bool tokenIsOwned = state[tokenId] == StewardState.Owned;\n        if (newTimeLastCollectedOnForeclosure > 0 && tokenIsOwned) {\n            tokenAuctionBeginTimestamp[tokenId] =\n                // The auction starts the second after the last time collected.\n                newTimeLastCollectedOnForeclosure +\n                1;\n\n\n                uint256 patronageDueBenefactorBeforeForeclosure\n             = patronageDueBenefactor(benefactor);\n\n            _foreclose(tokenId);\n\n            uint256 amountOverCredited = price[tokenId]\n                .mul(now.sub(newTimeLastCollectedOnForeclosure))\n                .mul(patronageNumerator[tokenId])\n                .div(yearTimePatronagDenominator);\n\n            if (amountOverCredited < patronageDueBenefactorBeforeForeclosure) {\n                _increaseBenefactorBalance(\n                    benefactor,\n                    patronageDueBenefactorBeforeForeclosure - amountOverCredited\n                );\n            } else {\n                _decreaseBenefactorBalance(\n                    benefactor,\n                    amountOverCredited - patronageDueBenefactorBeforeForeclosure\n                );\n            }\n\n            timeLastCollectedBenefactor[benefactor] = now;\n        } else {\n            _updateBenefactorBalance(benefactor);\n        }\n    }\n\n    function safeSend(uint256 _wei, address payable recipient)\n        internal\n        returns (bool transferSuccess)\n    {\n        (transferSuccess, ) = recipient.call.gas(2300).value(_wei)(\"\");\n    }\n\n    // if credit balance exists,\n    // if amount owed > creidt\n    // credit zero add amount\n    // else reduce credit by certain amount.\n    // else if credit balance doesn't exist\n    // add amount to balance\n\n    function _updateBenefactorBalance(address benefactor) public {\n        uint256 patronageDueBenefactor = patronageDueBenefactor(benefactor);\n\n        if (patronageDueBenefactor > 0) {\n            _increaseBenefactorBalance(benefactor, patronageDueBenefactor);\n        }\n\n        timeLastCollectedBenefactor[benefactor] = now;\n    }\n\n    function _increaseBenefactorBalance(\n        address benefactor,\n        uint256 patronageDueBenefactor\n    ) internal {\n        if (benefactorCredit[benefactor] > 0) {\n            if (patronageDueBenefactor < benefactorCredit[benefactor]) {\n                benefactorCredit[benefactor] = benefactorCredit[benefactor].sub(\n                    patronageDueBenefactor\n                );\n            } else {\n                benefactorFunds[benefactor] = patronageDueBenefactor.sub(\n                    benefactorCredit[benefactor]\n                );\n                benefactorCredit[benefactor] = 0;\n            }\n        } else {\n            benefactorFunds[benefactor] = benefactorFunds[benefactor].add(\n                patronageDueBenefactor\n            );\n        }\n    }\n\n    function _decreaseBenefactorBalance(\n        address benefactor,\n        uint256 amountOverCredited\n    ) internal {\n        if (benefactorFunds[benefactor] > 0) {\n            if (amountOverCredited <= benefactorFunds[benefactor]) {\n                benefactorFunds[benefactor] = benefactorFunds[benefactor].sub(\n                    amountOverCredited\n                );\n            } else {\n                benefactorCredit[benefactor] = amountOverCredited.sub(\n                    benefactorFunds[benefactor]\n                );\n                benefactorFunds[benefactor] = 0;\n            }\n        } else {\n            benefactorCredit[benefactor] = benefactorCredit[benefactor].add(\n                amountOverCredited\n            );\n        }\n    }\n\n    function fundsDueForAuctionPeriodAtCurrentRate(address benefactor)\n        internal\n        view\n        returns (uint256)\n    {\n        return\n            totalBenefactorTokenNumerator[benefactor].mul(auctionLength).div(\n                yearTimePatronagDenominator\n            ); // 365 days * 1000000000000\n    }\n\n    function withdrawBenefactorFundsTo(address payable benefactor) public {\n        _updateBenefactorBalance(benefactor);\n\n        uint256 availableToWithdraw = benefactorFunds[benefactor];\n\n\n            uint256 benefactorWithdrawalSafetyDiscount\n         = fundsDueForAuctionPeriodAtCurrentRate(benefactor);\n\n        require(\n            availableToWithdraw > benefactorWithdrawalSafetyDiscount,\n            \"no funds\"\n        );\n\n        // NOTE: no need for safe-maths, above require prevents issues.\n        uint256 amountToWithdraw = availableToWithdraw -\n            benefactorWithdrawalSafetyDiscount;\n\n        benefactorFunds[benefactor] = benefactorWithdrawalSafetyDiscount;\n        if (safeSend(amountToWithdraw, benefactor)) {\n            emit WithdrawBenefactorFundsWithSafetyDelay(\n                benefactor,\n                amountToWithdraw\n            );\n        } else {\n            benefactorFunds[benefactor] = benefactorFunds[benefactor].add(\n                amountToWithdraw\n            );\n        }\n    }\n\n    function hasher(\n        address benefactor,\n        uint256 maxAmount,\n        uint256 expiry,\n        uint256 nonce\n    ) public view returns (bytes32) {\n        // In ethereum you have to prepend all signature hashes with this message (supposedly to prevent people from)\n        return\n            keccak256(\n                abi.encodePacked(\n                    \"\\x19Ethereum Signed Message:\\n32\",\n                    keccak256(\n                        abi.encodePacked(benefactor, maxAmount, expiry, nonce)\n                    )\n                )\n            );\n    }\n\n    function withdrawBenefactorFundsToValidated(\n        address payable benefactor,\n        uint256 maxAmount,\n        uint256 expiry,\n        uint256 nonce,\n        bytes32 hash,\n        uint8 v,\n        bytes32 r,\n        bytes32 s\n    ) public {\n        require(\n            ecrecover(hash, v, r, s) == withdrawCheckerAdmin,\n            \"no permission to withdraw\"\n        );\n        require(!withdrawalNonceUsed[nonce], \"nonce already used\");\n        require(\n            hash == hasher(benefactor, maxAmount, expiry, nonce),\n            \"incorrect hash\"\n        );\n        require(now < expiry, \"coupon expired\");\n        withdrawalNonceUsed[nonce] = true;\n\n        _updateBenefactorBalance(benefactor);\n\n        uint256 availableToWithdraw = benefactorFunds[benefactor];\n\n        if (availableToWithdraw > 0) {\n            if (availableToWithdraw > maxAmount) {\n                if (safeSend(maxAmount, benefactor)) {\n                    benefactorFunds[benefactor] = availableToWithdraw.sub(\n                        maxAmount\n                    );\n                    emit WithdrawBenefactorFunds(\n                        benefactor,\n                        availableToWithdraw\n                    );\n                }\n            } else {\n                if (safeSend(availableToWithdraw, benefactor)) {\n                    benefactorFunds[benefactor] = 0;\n                    emit WithdrawBenefactorFunds(\n                        benefactor,\n                        availableToWithdraw\n                    );\n                }\n            }\n        }\n    }\n\n    function _collectPatronagePatron(address tokenPatron)\n        public\n        returns (uint256 newTimeLastCollectedOnForeclosure)\n    {\n        uint256 patronageOwedByTokenPatron = patronageOwedPatron(tokenPatron);\n\n        uint256 timeSinceLastMint;\n\n        if (\n            patronageOwedByTokenPatron > 0 &&\n            patronageOwedByTokenPatron > deposit[tokenPatron]\n        ) {\n\n                uint256 previousCollectionTime\n             = timeLastCollectedPatron[tokenPatron];\n            newTimeLastCollectedOnForeclosure = previousCollectionTime.add(\n                (\n                    (now.sub(previousCollectionTime))\n                        .mul(deposit[tokenPatron])\n                        .div(patronageOwedByTokenPatron)\n                )\n            );\n            timeLastCollectedPatron[tokenPatron] = newTimeLastCollectedOnForeclosure;\n            deposit[tokenPatron] = 0;\n            timeSinceLastMint = (\n                newTimeLastCollectedOnForeclosure.sub(previousCollectionTime)\n            );\n        } else {\n            timeSinceLastMint = now.sub(timeLastCollectedPatron[tokenPatron]);\n            timeLastCollectedPatron[tokenPatron] = now;\n            deposit[tokenPatron] = deposit[tokenPatron].sub(\n                patronageOwedByTokenPatron\n            );\n        }\n\n        _collectLoyaltyPatron(tokenPatron, timeSinceLastMint);\n        emit RemainingDepositUpdate(tokenPatron, deposit[tokenPatron]);\n    }\n\n    function depositWei() public payable {\n        depositWeiPatron(msg.sender);\n    }\n\n    function depositWeiPatron(address patron) public payable {\n        require(totalPatronOwnedTokenCost[patron] > 0, \"no tokens\");\n        deposit[patron] = deposit[patron].add(msg.value);\n        emit RemainingDepositUpdate(patron, deposit[patron]);\n    }\n\n    function _auctionPrice(uint256 tokenId) internal view returns (uint256) {\n        uint256 auctionEnd = tokenAuctionBeginTimestamp[tokenId].add(\n            auctionLength\n        );\n\n        // If it is not brand new and foreclosed, use the foreclosre auction price.\n        uint256 _auctionStartPrice;\n        if (price[tokenId] != 0 && price[tokenId] > auctionEndPrice) {\n            _auctionStartPrice = price[tokenId];\n        } else {\n            // Otherwise use starting auction price\n            _auctionStartPrice = auctionStartPrice;\n        }\n\n        if (now >= auctionEnd) {\n            return auctionEndPrice;\n        } else {\n            // startPrice - ( ( (startPrice - endPrice) * howLongThisAuctionBeenGoing ) / auctionLength )\n            return\n                _auctionStartPrice.sub(\n                    (_auctionStartPrice.sub(auctionEndPrice))\n                        .mul(now.sub(tokenAuctionBeginTimestamp[tokenId]))\n                        .div(auctionLength)\n                );\n        }\n    }\n\n    function buy(\n        uint256 tokenId,\n        uint256 _newPrice,\n        uint256 previousPrice,\n        uint256 wildcardsPercentage\n    )\n        public\n        payable\n        collectPatronageAndSettleBenefactor(tokenId)\n        collectPatronagePatron(msg.sender)\n        priceGreaterThanZero(_newPrice)\n        youCurrentlyAreNotInDefault(msg.sender)\n        validWildcardsPercentage(wildcardsPercentage, tokenId)\n    {\n        require(state[tokenId] == StewardState.Owned, \"token on auction\");\n        require(\n            price[tokenId] == previousPrice,\n            \"must specify current price accurately\"\n        );\n\n        _distributePurchaseProceeds(tokenId);\n\n        wildcardsPercentages[tokenId] = wildcardsPercentage;\n        uint256 remainingValueForDeposit = msg.value.sub(price[tokenId]);\n        deposit[msg.sender] = deposit[msg.sender].add(remainingValueForDeposit);\n        transferAssetTokenTo(\n            tokenId,\n            assetToken.ownerOf(tokenId),\n            msg.sender,\n            _newPrice\n        );\n        emit Buy(tokenId, msg.sender, _newPrice);\n    }\n\n    function buyAuction(\n        uint256 tokenId,\n        uint256 _newPrice,\n        uint256 wildcardsPercentage\n    )\n        public\n        payable\n        collectPatronageAndSettleBenefactor(tokenId)\n        collectPatronagePatron(msg.sender)\n        priceGreaterThanZero(_newPrice)\n        youCurrentlyAreNotInDefault(msg.sender)\n        validWildcardsPercentage(wildcardsPercentage, tokenId)\n    {\n        require(\n            state[tokenId] == StewardState.Foreclosed,\n            \"token not foreclosed\"\n        );\n        require(now >= tokenAuctionBeginTimestamp[tokenId], \"not on auction\");\n        uint256 auctionTokenPrice = _auctionPrice(tokenId);\n        uint256 remainingValueForDeposit = msg.value.sub(auctionTokenPrice);\n\n        _distributeAuctionProceeds(tokenId);\n\n        state[tokenId] = StewardState.Owned;\n\n        wildcardsPercentages[tokenId] = wildcardsPercentage;\n        deposit[msg.sender] = deposit[msg.sender].add(remainingValueForDeposit);\n        transferAssetTokenTo(\n            tokenId,\n            assetToken.ownerOf(tokenId),\n            msg.sender,\n            _newPrice\n        );\n        emit Buy(tokenId, msg.sender, _newPrice);\n    }\n\n    function _distributeAuctionProceeds(uint256 tokenId) internal {\n        uint256 totalAmount = price[tokenId];\n        uint256 artistAmount;\n        if (artistPercentages[tokenId] == 0) {\n            artistAmount = 0;\n        } else {\n            artistAmount = totalAmount.mul(artistPercentages[tokenId]).div(\n                1000000\n            );\n            deposit[artistAddresses[tokenId]] = deposit[artistAddresses[tokenId]]\n                .add(artistAmount);\n        }\n        uint256 wildcardsAmount = totalAmount.sub(artistAmount);\n        deposit[admin] = deposit[admin].add(wildcardsAmount);\n    }\n\n    function _distributePurchaseProceeds(uint256 tokenId) internal {\n        uint256 totalAmount = price[tokenId];\n        address tokenPatron = assetToken.ownerOf(tokenId);\n        // Wildcards percentage calc\n        if (wildcardsPercentages[tokenId] == 0) {\n            wildcardsPercentages[tokenId] = 50000;\n        }\n        uint256 wildcardsAmount = totalAmount\n            .mul(wildcardsPercentages[tokenId])\n            .div(1000000);\n\n        // Artist percentage calc\n        uint256 artistAmount;\n        if (artistPercentages[tokenId] == 0) {\n            artistAmount = 0;\n        } else {\n            artistAmount = totalAmount.mul(artistPercentages[tokenId]).div(\n                1000000\n            );\n            deposit[artistAddresses[tokenId]] = deposit[artistAddresses[tokenId]]\n                .add(artistAmount);\n        }\n\n        uint256 previousOwnerProceedsFromSale = totalAmount\n            .sub(wildcardsAmount)\n            .sub(artistAmount);\n        if (\n            totalPatronOwnedTokenCost[tokenPatron] ==\n            price[tokenId].mul(patronageNumerator[tokenId])\n        ) {\n            previousOwnerProceedsFromSale = previousOwnerProceedsFromSale.add(\n                deposit[tokenPatron]\n            );\n            deposit[tokenPatron] = 0;\n            address payable payableCurrentPatron = address(\n                uint160(tokenPatron)\n            );\n            (bool transferSuccess, ) = payableCurrentPatron\n                .call\n                .gas(2300)\n                .value(previousOwnerProceedsFromSale)(\"\");\n            if (!transferSuccess) {\n                deposit[tokenPatron] = deposit[tokenPatron].add(\n                    previousOwnerProceedsFromSale\n                );\n            }\n        } else {\n            deposit[tokenPatron] = deposit[tokenPatron].add(\n                previousOwnerProceedsFromSale\n            );\n        }\n\n        deposit[admin] = deposit[admin].add(wildcardsAmount);\n    }\n\n    function changePrice(uint256 tokenId, uint256 _newPrice)\n        public\n        onlyPatron(tokenId)\n        collectPatronageAndSettleBenefactor(tokenId)\n    {\n        require(state[tokenId] != StewardState.Foreclosed, \"foreclosed\");\n        require(_newPrice != 0, \"incorrect price\");\n        require(_newPrice < 10000 ether, \"exceeds max price\");\n\n        uint256 oldPriceScaled = price[tokenId].mul(\n            patronageNumerator[tokenId]\n        );\n        uint256 newPriceScaled = _newPrice.mul(patronageNumerator[tokenId]);\n        address tokenBenefactor = benefactors[tokenId];\n\n        totalPatronOwnedTokenCost[msg.sender] = totalPatronOwnedTokenCost[msg\n            .sender]\n            .sub(oldPriceScaled)\n            .add(newPriceScaled);\n\n        totalBenefactorTokenNumerator[tokenBenefactor] = totalBenefactorTokenNumerator[tokenBenefactor]\n            .sub(oldPriceScaled)\n            .add(newPriceScaled);\n\n        price[tokenId] = _newPrice;\n        emit PriceChange(tokenId, price[tokenId]);\n    }\n\n    function withdrawDeposit(uint256 _wei)\n        public\n        collectPatronagePatron(msg.sender)\n        returns (uint256)\n    {\n        _withdrawDeposit(_wei);\n    }\n\n    function withdrawBenefactorFunds() public {\n        withdrawBenefactorFundsTo(msg.sender);\n    }\n\n    function exit() public collectPatronagePatron(msg.sender) {\n        _withdrawDeposit(deposit[msg.sender]);\n    }\n\n    function _withdrawDeposit(uint256 _wei) internal {\n        require(deposit[msg.sender] >= _wei, \"withdrawing too much\");\n\n        deposit[msg.sender] = deposit[msg.sender].sub(_wei);\n\n        (bool transferSuccess, ) = msg.sender.call.gas(2300).value(_wei)(\"\");\n        if (!transferSuccess) {\n            revert(\"withdrawal failed\");\n        }\n    }\n\n    function _foreclose(uint256 tokenId) internal {\n        address currentOwner = assetToken.ownerOf(tokenId);\n        resetTokenOnForeclosure(tokenId, currentOwner);\n        state[tokenId] = StewardState.Foreclosed;\n\n        emit Foreclosure(currentOwner, timeLastCollectedPatron[currentOwner]);\n    }\n\n    function transferAssetTokenTo(\n        uint256 tokenId,\n        address _currentOwner,\n        address _newOwner,\n        uint256 _newPrice\n    ) internal {\n        require(_newPrice < 10000 ether, \"exceeds max price\");\n\n        uint256 scaledOldPrice = price[tokenId].mul(\n            patronageNumerator[tokenId]\n        );\n        uint256 scaledNewPrice = _newPrice.mul(patronageNumerator[tokenId]);\n\n        totalPatronOwnedTokenCost[_newOwner] = totalPatronOwnedTokenCost[_newOwner]\n            .add(scaledNewPrice);\n        totalPatronTokenGenerationRate[_newOwner] = totalPatronTokenGenerationRate[_newOwner]\n            .add(globalTokenGenerationRate);\n\n        address tokenBenefactor = benefactors[tokenId];\n        totalBenefactorTokenNumerator[tokenBenefactor] = totalBenefactorTokenNumerator[tokenBenefactor]\n            .add(scaledNewPrice);\n\n        if (_currentOwner != address(this) && _currentOwner != address(0)) {\n            totalPatronOwnedTokenCost[_currentOwner] = totalPatronOwnedTokenCost[_currentOwner]\n                .sub(scaledOldPrice);\n\n            totalPatronTokenGenerationRate[_currentOwner] = totalPatronTokenGenerationRate[_currentOwner]\n                .sub(globalTokenGenerationRate);\n\n            totalBenefactorTokenNumerator[tokenBenefactor] = totalBenefactorTokenNumerator[tokenBenefactor]\n                .sub(scaledOldPrice);\n        }\n\n        assetToken.transferFrom(_currentOwner, _newOwner, tokenId);\n\n        price[tokenId] = _newPrice;\n    }\n\n    function resetTokenOnForeclosure(uint256 tokenId, address _currentOwner)\n        internal\n    {\n        uint256 scaledPrice = price[tokenId].mul(patronageNumerator[tokenId]);\n\n        totalPatronOwnedTokenCost[_currentOwner] = totalPatronOwnedTokenCost[_currentOwner]\n            .sub(scaledPrice);\n\n        totalPatronTokenGenerationRate[_currentOwner] = totalPatronTokenGenerationRate[_currentOwner]\n            .sub((globalTokenGenerationRate));\n\n        address tokenBenefactor = benefactors[tokenId];\n        totalBenefactorTokenNumerator[tokenBenefactor] = totalBenefactorTokenNumerator[tokenBenefactor]\n            .sub(scaledPrice);\n\n        assetToken.transferFrom(_currentOwner, address(this), tokenId);\n    }\n}\n",
  "sourcePath": "/home/jasoons/Documents/code/contracts/contracts/WildcardSteward_v3_matic.sol",
  "compiler": {
    "name": "solc",
    "version": "0.5.17+commit.d19bba13.Emscripten.clang"
  },
  "schemaVersion": "3.2.3",
  "updatedAt": "2020-08-23T14:54:33.987Z",
  "networkType": "ethereum",
  "devdoc": {
    "methods": {}
  },
  "userdoc": {
    "methods": {}
  }
}