{
  "contractName": "ERC20PatronageReceipt_v1",
  "abi": [
    {
      "anonymous": false,
      "inputs": [
        {
          "indexed": true,
          "internalType": "address",
          "name": "owner",
          "type": "address"
        },
        {
          "indexed": true,
          "internalType": "address",
          "name": "spender",
          "type": "address"
        },
        {
          "indexed": false,
          "internalType": "uint256",
          "name": "value",
          "type": "uint256"
        }
      ],
      "name": "Approval",
      "type": "event"
    },
    {
      "anonymous": false,
      "inputs": [
        {
          "indexed": true,
          "internalType": "address",
          "name": "account",
          "type": "address"
        }
      ],
      "name": "MinterAdded",
      "type": "event"
    },
    {
      "anonymous": false,
      "inputs": [
        {
          "indexed": true,
          "internalType": "address",
          "name": "account",
          "type": "address"
        }
      ],
      "name": "MinterRemoved",
      "type": "event"
    },
    {
      "anonymous": false,
      "inputs": [
        {
          "indexed": true,
          "internalType": "address",
          "name": "from",
          "type": "address"
        },
        {
          "indexed": true,
          "internalType": "address",
          "name": "to",
          "type": "address"
        },
        {
          "indexed": false,
          "internalType": "uint256",
          "name": "value",
          "type": "uint256"
        }
      ],
      "name": "Transfer",
      "type": "event"
    },
    {
      "constant": false,
      "inputs": [
        {
          "internalType": "address",
          "name": "account",
          "type": "address"
        }
      ],
      "name": "addMinter",
      "outputs": [],
      "payable": false,
      "stateMutability": "nonpayable",
      "type": "function"
    },
    {
      "constant": true,
      "inputs": [
        {
          "internalType": "address",
          "name": "owner",
          "type": "address"
        },
        {
          "internalType": "address",
          "name": "spender",
          "type": "address"
        }
      ],
      "name": "allowance",
      "outputs": [
        {
          "internalType": "uint256",
          "name": "",
          "type": "uint256"
        }
      ],
      "payable": false,
      "stateMutability": "view",
      "type": "function"
    },
    {
      "constant": false,
      "inputs": [
        {
          "internalType": "address",
          "name": "spender",
          "type": "address"
        },
        {
          "internalType": "uint256",
          "name": "value",
          "type": "uint256"
        }
      ],
      "name": "approve",
      "outputs": [
        {
          "internalType": "bool",
          "name": "",
          "type": "bool"
        }
      ],
      "payable": false,
      "stateMutability": "nonpayable",
      "type": "function"
    },
    {
      "constant": true,
      "inputs": [
        {
          "internalType": "address",
          "name": "account",
          "type": "address"
        }
      ],
      "name": "balanceOf",
      "outputs": [
        {
          "internalType": "uint256",
          "name": "",
          "type": "uint256"
        }
      ],
      "payable": false,
      "stateMutability": "view",
      "type": "function"
    },
    {
      "constant": false,
      "inputs": [
        {
          "internalType": "uint256",
          "name": "amount",
          "type": "uint256"
        }
      ],
      "name": "burn",
      "outputs": [],
      "payable": false,
      "stateMutability": "nonpayable",
      "type": "function"
    },
    {
      "constant": false,
      "inputs": [
        {
          "internalType": "address",
          "name": "account",
          "type": "address"
        },
        {
          "internalType": "uint256",
          "name": "amount",
          "type": "uint256"
        }
      ],
      "name": "burnFrom",
      "outputs": [],
      "payable": false,
      "stateMutability": "nonpayable",
      "type": "function"
    },
    {
      "constant": true,
      "inputs": [],
      "name": "decimals",
      "outputs": [
        {
          "internalType": "uint8",
          "name": "",
          "type": "uint8"
        }
      ],
      "payable": false,
      "stateMutability": "view",
      "type": "function"
    },
    {
      "constant": false,
      "inputs": [
        {
          "internalType": "address",
          "name": "spender",
          "type": "address"
        },
        {
          "internalType": "uint256",
          "name": "subtractedValue",
          "type": "uint256"
        }
      ],
      "name": "decreaseAllowance",
      "outputs": [
        {
          "internalType": "bool",
          "name": "",
          "type": "bool"
        }
      ],
      "payable": false,
      "stateMutability": "nonpayable",
      "type": "function"
    },
    {
      "constant": false,
      "inputs": [
        {
          "internalType": "address",
          "name": "spender",
          "type": "address"
        },
        {
          "internalType": "uint256",
          "name": "addedValue",
          "type": "uint256"
        }
      ],
      "name": "increaseAllowance",
      "outputs": [
        {
          "internalType": "bool",
          "name": "",
          "type": "bool"
        }
      ],
      "payable": false,
      "stateMutability": "nonpayable",
      "type": "function"
    },
    {
      "constant": true,
      "inputs": [
        {
          "internalType": "address",
          "name": "account",
          "type": "address"
        }
      ],
      "name": "isMinter",
      "outputs": [
        {
          "internalType": "bool",
          "name": "",
          "type": "bool"
        }
      ],
      "payable": false,
      "stateMutability": "view",
      "type": "function"
    },
    {
      "constant": false,
      "inputs": [
        {
          "internalType": "address",
          "name": "account",
          "type": "address"
        },
        {
          "internalType": "uint256",
          "name": "amount",
          "type": "uint256"
        }
      ],
      "name": "mint",
      "outputs": [
        {
          "internalType": "bool",
          "name": "",
          "type": "bool"
        }
      ],
      "payable": false,
      "stateMutability": "nonpayable",
      "type": "function"
    },
    {
      "constant": true,
      "inputs": [],
      "name": "name",
      "outputs": [
        {
          "internalType": "string",
          "name": "",
          "type": "string"
        }
      ],
      "payable": false,
      "stateMutability": "view",
      "type": "function"
    },
    {
      "constant": false,
      "inputs": [],
      "name": "renounceMinter",
      "outputs": [],
      "payable": false,
      "stateMutability": "nonpayable",
      "type": "function"
    },
    {
      "constant": true,
      "inputs": [],
      "name": "steward",
      "outputs": [
        {
          "internalType": "address",
          "name": "",
          "type": "address"
        }
      ],
      "payable": false,
      "stateMutability": "view",
      "type": "function"
    },
    {
      "constant": true,
      "inputs": [],
      "name": "symbol",
      "outputs": [
        {
          "internalType": "string",
          "name": "",
          "type": "string"
        }
      ],
      "payable": false,
      "stateMutability": "view",
      "type": "function"
    },
    {
      "constant": true,
      "inputs": [],
      "name": "totalSupply",
      "outputs": [
        {
          "internalType": "uint256",
          "name": "",
          "type": "uint256"
        }
      ],
      "payable": false,
      "stateMutability": "view",
      "type": "function"
    },
    {
      "constant": false,
      "inputs": [
        {
          "internalType": "address",
          "name": "to",
          "type": "address"
        },
        {
          "internalType": "uint256",
          "name": "value",
          "type": "uint256"
        }
      ],
      "name": "transfer",
      "outputs": [
        {
          "internalType": "bool",
          "name": "",
          "type": "bool"
        }
      ],
      "payable": false,
      "stateMutability": "nonpayable",
      "type": "function"
    },
    {
      "constant": false,
      "inputs": [
        {
          "internalType": "address",
          "name": "from",
          "type": "address"
        },
        {
          "internalType": "address",
          "name": "to",
          "type": "address"
        },
        {
          "internalType": "uint256",
          "name": "value",
          "type": "uint256"
        }
      ],
      "name": "transferFrom",
      "outputs": [
        {
          "internalType": "bool",
          "name": "",
          "type": "bool"
        }
      ],
      "payable": false,
      "stateMutability": "nonpayable",
      "type": "function"
    },
    {
      "constant": false,
      "inputs": [
        {
          "internalType": "string",
          "name": "name",
          "type": "string"
        },
        {
          "internalType": "string",
          "name": "symbol",
          "type": "string"
        },
        {
          "internalType": "uint8",
          "name": "decimals",
          "type": "uint8"
        }
      ],
      "name": "initialize",
      "outputs": [],
      "payable": false,
      "stateMutability": "nonpayable",
      "type": "function"
    },
    {
      "constant": false,
      "inputs": [
        {
          "internalType": "address",
          "name": "sender",
          "type": "address"
        }
      ],
      "name": "initialize",
      "outputs": [],
      "payable": false,
      "stateMutability": "nonpayable",
      "type": "function"
    },
    {
      "constant": false,
      "inputs": [
        {
          "internalType": "string",
          "name": "name",
          "type": "string"
        },
        {
          "internalType": "string",
          "name": "symbol",
          "type": "string"
        },
        {
          "internalType": "uint8",
          "name": "decimals",
          "type": "uint8"
        },
        {
          "internalType": "address",
          "name": "minter",
          "type": "address"
        }
      ],
      "name": "initialize",
      "outputs": [],
      "payable": false,
      "stateMutability": "nonpayable",
      "type": "function"
    }
  ],
  "bytecode": "0x6080604052611646806100136000396000f3fe608060405234801561001057600080fd5b50600436106101375760003560e01c806370a08231116100b8578063a457c2d71161007c578063a457c2d7146104b8578063a9059cbb146104e4578063aa271e1a14610510578063c4d66de814610536578063dd62ed3e1461055c578063de7ea79d1461058a57610137565b806370a082311461043057806379cc67901461045657806395d89b4114610482578063983b2d561461048a57806398650275146104b057610137565b8063313ce567116100ff578063313ce56714610379578063395093511461039757806340c10f19146103c357806342966c68146103ef578063637eea191461040c57610137565b806306fdde031461013c578063095ea7b3146101b95780631624f6c6146101f957806318160ddd1461032957806323b872dd14610343575b600080fd5b6101446106c4565b6040805160208082528351818301528351919283929083019185019080838360005b8381101561017e578181015183820152602001610166565b50505050905090810190601f1680156101ab5780820380516001836020036101000a031916815260200191505b509250505060405180910390f35b6101e5600480360360408110156101cf57600080fd5b506001600160a01b03813516906020013561075b565b604080519115158252519081900360200190f35b6103276004803603606081101561020f57600080fd5b810190602081018135600160201b81111561022957600080fd5b82018360208201111561023b57600080fd5b803590602001918460018302840111600160201b8311171561025c57600080fd5b91908080601f0160208091040260200160405190810160405280939291908181526020018383808284376000920191909152509295949360208101935035915050600160201b8111156102ae57600080fd5b8201836020820111156102c057600080fd5b803590602001918460018302840111600160201b831117156102e157600080fd5b91908080601f0160208091040260200160405190810160405280939291908181526020018383808284376000920191909152509295505050903560ff1691506107789050565b005b610331610856565b60408051918252519081900360200190f35b6101e56004803603606081101561035957600080fd5b506001600160a01b0381358116916020810135909116906040013561085c565b6103816108d1565b6040805160ff9092168252519081900360200190f35b6101e5600480360360408110156103ad57600080fd5b506001600160a01b0381351690602001356108db565b6101e5600480360360408110156103d957600080fd5b506001600160a01b03813516906020013561092f565b6103276004803603602081101561040557600080fd5b5035610986565b61041461099a565b604080516001600160a01b039092168252519081900360200190f35b6103316004803603602081101561044657600080fd5b50356001600160a01b03166109aa565b6103276004803603604081101561046c57600080fd5b506001600160a01b0381351690602001356109c5565b6101446109d3565b610327600480360360208110156104a057600080fd5b50356001600160a01b0316610a33565b610327610a82565b6101e5600480360360408110156104ce57600080fd5b506001600160a01b038135169060200135610a94565b6101e5600480360360408110156104fa57600080fd5b506001600160a01b038135169060200135610ae8565b6101e56004803603602081101561052657600080fd5b50356001600160a01b0316610afc565b6103276004803603602081101561054c57600080fd5b50356001600160a01b0316610b15565b6103316004803603604081101561057257600080fd5b506001600160a01b0381358116916020013516610bc0565b610327600480360360808110156105a057600080fd5b810190602081018135600160201b8111156105ba57600080fd5b8201836020820111156105cc57600080fd5b803590602001918460018302840111600160201b831117156105ed57600080fd5b91908080601f0160208091040260200160405190810160405280939291908181526020018383808284376000920191909152509295949360208101935035915050600160201b81111561063f57600080fd5b82018360208201111561065157600080fd5b803590602001918460018302840111600160201b8311171561067257600080fd5b91908080601f0160208091040260200160405190810160405280939291908181526020018383808284376000920191909152509295505050813560ff16925050602001356001600160a01b0316610beb565b60ff8054604080516020601f60026000196101006001881615020190951694909404938401819004810282018101909252828152606093909290918301828280156107505780601f1061072557610100808354040283529160200191610750565b820191906000526020600020905b81548152906001019060200180831161073357829003601f168201915b505050505090505b90565b600061076f610768610ca5565b8484610ca9565b50600192915050565b600054610100900460ff16806107915750610791610d95565b8061079f575060005460ff16155b6107da5760405162461bcd60e51b815260040180806020018281038252602e81526020018061157a602e913960400191505060405180910390fd5b600054610100900460ff16158015610805576000805460ff1961ff0019909116610100171660011790555b83516108189060ff906020870190611429565b50825161082d90610100906020860190611429565b50610101805460ff191660ff84161790558015610850576000805461ff00191690555b50505050565b60355490565b6000610869848484610d9b565b6108c784610875610ca5565b6001600160a01b03871660009081526034602052604081206108c29187919061089c610ca5565b6001600160a01b031681526020810191909152604001600020549063ffffffff610edf16565b610ca9565b5060019392505050565b6101015460ff1690565b600061076f6108e8610ca5565b846108c285603460006108f9610ca5565b6001600160a01b03908116825260208083019390935260409182016000908120918c16815292529020549063ffffffff610f3c16565b600061094161093c610ca5565b610afc565b61097c5760405162461bcd60e51b81526004018080602001828103825260308152602001806115076030913960400191505060405180910390fd5b61076f8383610f9d565b610997610991610ca5565b8261108f565b50565b610134546001600160a01b031681565b6001600160a01b031660009081526033602052604090205490565b6109cf828261116a565b5050565b6101008054604080516020601f6002600019600187161588020190951694909404938401819004810282018101909252828152606093909290918301828280156107505780601f1061072557610100808354040283529160200191610750565b610a3e61093c610ca5565b610a795760405162461bcd60e51b81526004018080602001828103825260308152602001806115076030913960400191505060405180910390fd5b610997816111a7565b610a92610a8d610ca5565b6111ef565b565b600061076f610aa1610ca5565b846108c28560346000610ab2610ca5565b6001600160a01b03908116825260208083019390935260409182016000908120918c16815292529020549063ffffffff610edf16565b600061076f610af5610ca5565b8484610d9b565b6000610b0f60688363ffffffff61123716565b92915050565b600054610100900460ff1680610b2e5750610b2e610d95565b80610b3c575060005460ff16155b610b775760405162461bcd60e51b815260040180806020018281038252602e81526020018061157a602e913960400191505060405180910390fd5b600054610100900460ff16158015610ba2576000805460ff1961ff0019909116610100171660011790555b610bab8261129e565b80156109cf576000805461ff00191690555050565b6001600160a01b03918216600090815260346020908152604080832093909416825291909152205490565b600054610100900460ff1680610c045750610c04610d95565b80610c12575060005460ff16155b610c4d5760405162461bcd60e51b815260040180806020018281038252602e81526020018061157a602e913960400191505060405180910390fd5b600054610100900460ff16158015610c78576000805460ff1961ff0019909116610100171660011790555b610c83858585610778565b610c8c82610b15565b8015610c9e576000805461ff00191690555b5050505050565b3390565b6001600160a01b038316610cee5760405162461bcd60e51b81526004018080602001828103825260248152602001806115ee6024913960400191505060405180910390fd5b6001600160a01b038216610d335760405162461bcd60e51b81526004018080602001828103825260228152602001806114e56022913960400191505060405180910390fd5b6001600160a01b03808416600081815260346020908152604080832094871680845294825291829020859055815185815291517f8c5be1e5ebec7d5bd14f71427d1e84f3dd0314c0f7b2291e5b200ac8c7c3b9259281900390910190a3505050565b303b1590565b6001600160a01b038316610de05760405162461bcd60e51b81526004018080602001828103825260258152602001806115c96025913960400191505060405180910390fd5b6001600160a01b038216610e255760405162461bcd60e51b81526004018080602001828103825260238152602001806114c26023913960400191505060405180910390fd5b6001600160a01b038316600090815260336020526040902054610e4e908263ffffffff610edf16565b6001600160a01b038085166000908152603360205260408082209390935590841681522054610e83908263ffffffff610f3c16565b6001600160a01b0380841660008181526033602090815260409182902094909455805185815290519193928716927fddf252ad1be2c89b69c2b068fc378daa952ba7f163c4a11628f55a4df523b3ef92918290030190a3505050565b600082821115610f36576040805162461bcd60e51b815260206004820152601e60248201527f536166654d6174683a207375627472616374696f6e206f766572666c6f770000604482015290519081900360640190fd5b50900390565b600082820183811015610f96576040805162461bcd60e51b815260206004820152601b60248201527f536166654d6174683a206164646974696f6e206f766572666c6f770000000000604482015290519081900360640190fd5b9392505050565b6001600160a01b038216610ff8576040805162461bcd60e51b815260206004820152601f60248201527f45524332303a206d696e7420746f20746865207a65726f206164647265737300604482015290519081900360640190fd5b60355461100b908263ffffffff610f3c16565b6035556001600160a01b038216600090815260336020526040902054611037908263ffffffff610f3c16565b6001600160a01b03831660008181526033602090815260408083209490945583518581529351929391927fddf252ad1be2c89b69c2b068fc378daa952ba7f163c4a11628f55a4df523b3ef9281900390910190a35050565b6001600160a01b0382166110d45760405162461bcd60e51b81526004018080602001828103825260218152602001806115a86021913960400191505060405180910390fd5b6035546110e7908263ffffffff610edf16565b6035556001600160a01b038216600090815260336020526040902054611113908263ffffffff610edf16565b6001600160a01b0383166000818152603360209081526040808320949094558351858152935191937fddf252ad1be2c89b69c2b068fc378daa952ba7f163c4a11628f55a4df523b3ef929081900390910190a35050565b611174828261108f565b6109cf82611180610ca5565b6001600160a01b03851660009081526034602052604081206108c29186919061089c610ca5565b6111b860688263ffffffff61134116565b6040516001600160a01b038216907f6ae172837ea30b801fbfcdd4108aa1d5bf8ff775444fd70256b44e6bf3dfc3f690600090a250565b61120060688263ffffffff6113c216565b6040516001600160a01b038216907fe94479a9f7e1952cc78f2d6baab678adc1b772d936c6583def489e524cb6669290600090a250565b60006001600160a01b03821661127e5760405162461bcd60e51b81526004018080602001828103825260228152602001806115586022913960400191505060405180910390fd5b506001600160a01b03166000908152602091909152604090205460ff1690565b600054610100900460ff16806112b757506112b7610d95565b806112c5575060005460ff16155b6113005760405162461bcd60e51b815260040180806020018281038252602e81526020018061157a602e913960400191505060405180910390fd5b600054610100900460ff1615801561132b576000805460ff1961ff0019909116610100171660011790555b61133482610afc565b610bab57610bab826111a7565b61134b8282611237565b1561139d576040805162461bcd60e51b815260206004820152601f60248201527f526f6c65733a206163636f756e7420616c72656164792068617320726f6c6500604482015290519081900360640190fd5b6001600160a01b0316600090815260209190915260409020805460ff19166001179055565b6113cc8282611237565b6114075760405162461bcd60e51b81526004018080602001828103825260218152602001806115376021913960400191505060405180910390fd5b6001600160a01b0316600090815260209190915260409020805460ff19169055565b828054600181600116156101000203166002900490600052602060002090601f016020900481019282601f1061146a57805160ff1916838001178555611497565b82800160010185558215611497579182015b8281111561149757825182559160200191906001019061147c565b506114a39291506114a7565b5090565b61075891905b808211156114a357600081556001016114ad56fe45524332303a207472616e7366657220746f20746865207a65726f206164647265737345524332303a20617070726f766520746f20746865207a65726f20616464726573734d696e746572526f6c653a2063616c6c657220646f6573206e6f74206861766520746865204d696e74657220726f6c65526f6c65733a206163636f756e7420646f6573206e6f74206861766520726f6c65526f6c65733a206163636f756e7420697320746865207a65726f2061646472657373436f6e747261637420696e7374616e63652068617320616c7265616479206265656e20696e697469616c697a656445524332303a206275726e2066726f6d20746865207a65726f206164647265737345524332303a207472616e736665722066726f6d20746865207a65726f206164647265737345524332303a20617070726f76652066726f6d20746865207a65726f2061646472657373a265627a7a72315820050bd91e157a581f49c305994a2bce3e2ce24913834aaa63ae3fdb1fd7df478f64736f6c634300050c0032",
  "source": "pragma solidity ^0.5.0;\n\nimport \"@openzeppelin/contracts-ethereum-package/contracts/token/ERC20/ERC20.sol\";\nimport \"@openzeppelin/contracts-ethereum-package/contracts/token/ERC20/ERC20Mintable.sol\";\nimport \"@openzeppelin/contracts-ethereum-package/contracts/token/ERC20/ERC20Burnable.sol\";\nimport \"@openzeppelin/contracts-ethereum-package/contracts/token/ERC20/ERC20Detailed.sol\";\n\ncontract ERC20PatronageReceipt_v1 is ERC20, ERC20Mintable, ERC20Burnable, ERC20Detailed {\n    address public steward;\n\n    function initialize(string memory name, string memory symbol, uint8 decimals, address minter) public initializer {\n        ERC20Detailed.initialize(name, symbol, decimals);\n        ERC20Mintable.initialize(minter);\n    }\n}\n",
  "sourcePath": "/home/jasoons/Documents/clean-code/contracts/contracts/ERC20PatronageReceipt_v1.sol",
  "compiler": {
    "name": "solc",
    "version": "0.5.12+commit.7709ece9.Emscripten.clang"
  },
  "schemaVersion": "3.0.19",
  "updatedAt": "2020-01-02T09:57:22.884Z",
  "devdoc": {
    "methods": {
      "allowance(address,address)": {
        "details": "See `IERC20.allowance`."
      },
      "approve(address,uint256)": {
        "details": "See `IERC20.approve`.     * Requirements:     * - `spender` cannot be the zero address."
      },
      "balanceOf(address)": {
        "details": "See `IERC20.balanceOf`."
      },
      "burn(uint256)": {
        "details": "Destoys `amount` tokens from the caller.     * See `ERC20._burn`."
      },
      "burnFrom(address,uint256)": {
        "details": "See `ERC20._burnFrom`."
      },
      "decimals()": {
        "details": "Returns the number of decimals used to get its user representation. For example, if `decimals` equals `2`, a balance of `505` tokens should be displayed to a user as `5,05` (`505 / 10 ** 2`).     * Tokens usually opt for a value of 18, imitating the relationship between Ether and Wei.     * > Note that this information is only used for _display_ purposes: it in no way affects any of the arithmetic of the contract, including `IERC20.balanceOf` and `IERC20.transfer`."
      },
      "decreaseAllowance(address,uint256)": {
        "details": "Atomically decreases the allowance granted to `spender` by the caller.     * This is an alternative to `approve` that can be used as a mitigation for problems described in `IERC20.approve`.     * Emits an `Approval` event indicating the updated allowance.     * Requirements:     * - `spender` cannot be the zero address. - `spender` must have allowance for the caller of at least `subtractedValue`."
      },
      "increaseAllowance(address,uint256)": {
        "details": "Atomically increases the allowance granted to `spender` by the caller.     * This is an alternative to `approve` that can be used as a mitigation for problems described in `IERC20.approve`.     * Emits an `Approval` event indicating the updated allowance.     * Requirements:     * - `spender` cannot be the zero address."
      },
      "initialize(string,string,uint8)": {
        "details": "Sets the values for `name`, `symbol`, and `decimals`. All three of these values are immutable: they can only be set once during construction."
      },
      "mint(address,uint256)": {
        "details": "See `ERC20._mint`.     * Requirements:     * - the caller must have the `MinterRole`."
      },
      "name()": {
        "details": "Returns the name of the token."
      },
      "symbol()": {
        "details": "Returns the symbol of the token, usually a shorter version of the name."
      },
      "totalSupply()": {
        "details": "See `IERC20.totalSupply`."
      },
      "transfer(address,uint256)": {
        "details": "See `IERC20.transfer`.     * Requirements:     * - `recipient` cannot be the zero address. - the caller must have a balance of at least `amount`."
      },
      "transferFrom(address,address,uint256)": {
        "details": "See `IERC20.transferFrom`.     * Emits an `Approval` event indicating the updated allowance. This is not required by the EIP. See the note at the beginning of `ERC20`;     * Requirements: - `sender` and `recipient` cannot be the zero address. - `sender` must have a balance of at least `value`. - the caller must have allowance for `sender`'s tokens of at least `amount`."
      }
    }
  },
  "userdoc": {
    "methods": {}
  }
}