{
  "contractName": "ERC721Patronage_v0",
  "abi": [
    {
      "anonymous": false,
      "inputs": [
        {
          "indexed": true,
          "internalType": "address",
          "name": "owner",
          "type": "address"
        },
        {
          "indexed": true,
          "internalType": "address",
          "name": "approved",
          "type": "address"
        },
        {
          "indexed": true,
          "internalType": "uint256",
          "name": "tokenId",
          "type": "uint256"
        }
      ],
      "name": "Approval",
      "type": "event"
    },
    {
      "anonymous": false,
      "inputs": [
        {
          "indexed": true,
          "internalType": "address",
          "name": "owner",
          "type": "address"
        },
        {
          "indexed": true,
          "internalType": "address",
          "name": "operator",
          "type": "address"
        },
        {
          "indexed": false,
          "internalType": "bool",
          "name": "approved",
          "type": "bool"
        }
      ],
      "name": "ApprovalForAll",
      "type": "event"
    },
    {
      "anonymous": false,
      "inputs": [
        {
          "indexed": true,
          "internalType": "address",
          "name": "account",
          "type": "address"
        }
      ],
      "name": "MinterAdded",
      "type": "event"
    },
    {
      "anonymous": false,
      "inputs": [
        {
          "indexed": true,
          "internalType": "address",
          "name": "account",
          "type": "address"
        }
      ],
      "name": "MinterRemoved",
      "type": "event"
    },
    {
      "anonymous": false,
      "inputs": [
        {
          "indexed": true,
          "internalType": "address",
          "name": "from",
          "type": "address"
        },
        {
          "indexed": true,
          "internalType": "address",
          "name": "to",
          "type": "address"
        },
        {
          "indexed": true,
          "internalType": "uint256",
          "name": "tokenId",
          "type": "uint256"
        }
      ],
      "name": "Transfer",
      "type": "event"
    },
    {
      "constant": false,
      "inputs": [
        {
          "internalType": "address",
          "name": "account",
          "type": "address"
        }
      ],
      "name": "addMinter",
      "outputs": [],
      "payable": false,
      "stateMutability": "nonpayable",
      "type": "function"
    },
    {
      "constant": false,
      "inputs": [
        {
          "internalType": "address",
          "name": "to",
          "type": "address"
        },
        {
          "internalType": "uint256",
          "name": "tokenId",
          "type": "uint256"
        }
      ],
      "name": "approve",
      "outputs": [],
      "payable": false,
      "stateMutability": "nonpayable",
      "type": "function"
    },
    {
      "constant": true,
      "inputs": [
        {
          "internalType": "address",
          "name": "owner",
          "type": "address"
        }
      ],
      "name": "balanceOf",
      "outputs": [
        {
          "internalType": "uint256",
          "name": "",
          "type": "uint256"
        }
      ],
      "payable": false,
      "stateMutability": "view",
      "type": "function"
    },
    {
      "constant": true,
      "inputs": [],
      "name": "baseURI",
      "outputs": [
        {
          "internalType": "string",
          "name": "",
          "type": "string"
        }
      ],
      "payable": false,
      "stateMutability": "view",
      "type": "function"
    },
    {
      "constant": true,
      "inputs": [
        {
          "internalType": "uint256",
          "name": "tokenId",
          "type": "uint256"
        }
      ],
      "name": "getApproved",
      "outputs": [
        {
          "internalType": "address",
          "name": "",
          "type": "address"
        }
      ],
      "payable": false,
      "stateMutability": "view",
      "type": "function"
    },
    {
      "constant": false,
      "inputs": [
        {
          "internalType": "string",
          "name": "name",
          "type": "string"
        },
        {
          "internalType": "string",
          "name": "symbol",
          "type": "string"
        }
      ],
      "name": "initialize",
      "outputs": [],
      "payable": false,
      "stateMutability": "nonpayable",
      "type": "function"
    },
    {
      "constant": false,
      "inputs": [],
      "name": "initialize",
      "outputs": [],
      "payable": false,
      "stateMutability": "nonpayable",
      "type": "function"
    },
    {
      "constant": false,
      "inputs": [
        {
          "internalType": "address",
          "name": "sender",
          "type": "address"
        }
      ],
      "name": "initialize",
      "outputs": [],
      "payable": false,
      "stateMutability": "nonpayable",
      "type": "function"
    },
    {
      "constant": true,
      "inputs": [
        {
          "internalType": "address",
          "name": "owner",
          "type": "address"
        },
        {
          "internalType": "address",
          "name": "operator",
          "type": "address"
        }
      ],
      "name": "isApprovedForAll",
      "outputs": [
        {
          "internalType": "bool",
          "name": "",
          "type": "bool"
        }
      ],
      "payable": false,
      "stateMutability": "view",
      "type": "function"
    },
    {
      "constant": true,
      "inputs": [
        {
          "internalType": "address",
          "name": "account",
          "type": "address"
        }
      ],
      "name": "isMinter",
      "outputs": [
        {
          "internalType": "bool",
          "name": "",
          "type": "bool"
        }
      ],
      "payable": false,
      "stateMutability": "view",
      "type": "function"
    },
    {
      "constant": false,
      "inputs": [
        {
          "internalType": "address",
          "name": "to",
          "type": "address"
        },
        {
          "internalType": "uint256",
          "name": "tokenId",
          "type": "uint256"
        },
        {
          "internalType": "string",
          "name": "tokenURI",
          "type": "string"
        }
      ],
      "name": "mintWithTokenURI",
      "outputs": [
        {
          "internalType": "bool",
          "name": "",
          "type": "bool"
        }
      ],
      "payable": false,
      "stateMutability": "nonpayable",
      "type": "function"
    },
    {
      "constant": true,
      "inputs": [],
      "name": "name",
      "outputs": [
        {
          "internalType": "string",
          "name": "",
          "type": "string"
        }
      ],
      "payable": false,
      "stateMutability": "view",
      "type": "function"
    },
    {
      "constant": true,
      "inputs": [
        {
          "internalType": "uint256",
          "name": "tokenId",
          "type": "uint256"
        }
      ],
      "name": "ownerOf",
      "outputs": [
        {
          "internalType": "address",
          "name": "",
          "type": "address"
        }
      ],
      "payable": false,
      "stateMutability": "view",
      "type": "function"
    },
    {
      "constant": false,
      "inputs": [],
      "name": "renounceMinter",
      "outputs": [],
      "payable": false,
      "stateMutability": "nonpayable",
      "type": "function"
    },
    {
      "constant": false,
      "inputs": [
        {
          "internalType": "address",
          "name": "from",
          "type": "address"
        },
        {
          "internalType": "address",
          "name": "to",
          "type": "address"
        },
        {
          "internalType": "uint256",
          "name": "tokenId",
          "type": "uint256"
        }
      ],
      "name": "safeTransferFrom",
      "outputs": [],
      "payable": false,
      "stateMutability": "nonpayable",
      "type": "function"
    },
    {
      "constant": false,
      "inputs": [
        {
          "internalType": "address",
          "name": "from",
          "type": "address"
        },
        {
          "internalType": "address",
          "name": "to",
          "type": "address"
        },
        {
          "internalType": "uint256",
          "name": "tokenId",
          "type": "uint256"
        },
        {
          "internalType": "bytes",
          "name": "_data",
          "type": "bytes"
        }
      ],
      "name": "safeTransferFrom",
      "outputs": [],
      "payable": false,
      "stateMutability": "nonpayable",
      "type": "function"
    },
    {
      "constant": false,
      "inputs": [
        {
          "internalType": "address",
          "name": "to",
          "type": "address"
        },
        {
          "internalType": "bool",
          "name": "approved",
          "type": "bool"
        }
      ],
      "name": "setApprovalForAll",
      "outputs": [],
      "payable": false,
      "stateMutability": "nonpayable",
      "type": "function"
    },
    {
      "constant": true,
      "inputs": [],
      "name": "steward",
      "outputs": [
        {
          "internalType": "address",
          "name": "",
          "type": "address"
        }
      ],
      "payable": false,
      "stateMutability": "view",
      "type": "function"
    },
    {
      "constant": true,
      "inputs": [
        {
          "internalType": "bytes4",
          "name": "interfaceId",
          "type": "bytes4"
        }
      ],
      "name": "supportsInterface",
      "outputs": [
        {
          "internalType": "bool",
          "name": "",
          "type": "bool"
        }
      ],
      "payable": false,
      "stateMutability": "view",
      "type": "function"
    },
    {
      "constant": true,
      "inputs": [],
      "name": "symbol",
      "outputs": [
        {
          "internalType": "string",
          "name": "",
          "type": "string"
        }
      ],
      "payable": false,
      "stateMutability": "view",
      "type": "function"
    },
    {
      "constant": true,
      "inputs": [
        {
          "internalType": "uint256",
          "name": "index",
          "type": "uint256"
        }
      ],
      "name": "tokenByIndex",
      "outputs": [
        {
          "internalType": "uint256",
          "name": "",
          "type": "uint256"
        }
      ],
      "payable": false,
      "stateMutability": "view",
      "type": "function"
    },
    {
      "constant": true,
      "inputs": [
        {
          "internalType": "address",
          "name": "owner",
          "type": "address"
        },
        {
          "internalType": "uint256",
          "name": "index",
          "type": "uint256"
        }
      ],
      "name": "tokenOfOwnerByIndex",
      "outputs": [
        {
          "internalType": "uint256",
          "name": "",
          "type": "uint256"
        }
      ],
      "payable": false,
      "stateMutability": "view",
      "type": "function"
    },
    {
      "constant": true,
      "inputs": [
        {
          "internalType": "uint256",
          "name": "tokenId",
          "type": "uint256"
        }
      ],
      "name": "tokenURI",
      "outputs": [
        {
          "internalType": "string",
          "name": "",
          "type": "string"
        }
      ],
      "payable": false,
      "stateMutability": "view",
      "type": "function"
    },
    {
      "constant": true,
      "inputs": [],
      "name": "totalSupply",
      "outputs": [
        {
          "internalType": "uint256",
          "name": "",
          "type": "uint256"
        }
      ],
      "payable": false,
      "stateMutability": "view",
      "type": "function"
    },
    {
      "constant": false,
      "inputs": [
        {
          "internalType": "address",
          "name": "from",
          "type": "address"
        },
        {
          "internalType": "address",
          "name": "to",
          "type": "address"
        },
        {
          "internalType": "uint256",
          "name": "tokenId",
          "type": "uint256"
        }
      ],
      "name": "transferFrom",
      "outputs": [],
      "payable": false,
      "stateMutability": "nonpayable",
      "type": "function"
    },
    {
      "constant": false,
      "inputs": [
        {
          "internalType": "address",
          "name": "_steward",
          "type": "address"
        },
        {
          "internalType": "string",
          "name": "name",
          "type": "string"
        },
        {
          "internalType": "string",
          "name": "symbol",
          "type": "string"
        },
        {
          "internalType": "address",
          "name": "minter",
          "type": "address"
        }
      ],
      "name": "setup",
      "outputs": [],
      "payable": false,
      "stateMutability": "nonpayable",
      "type": "function"
    }
  ],
  "bytecode": "0x608060405261278c806100136000396000f3fe608060405234801561001057600080fd5b506004361061018e5760003560e01c8063637eea19116100de5780639865027511610097578063b88d4fde11610071578063b88d4fde1461078c578063c4d66de814610850578063c87b56dd14610876578063e985e9c5146108935761018e565b80639865027514610730578063a22cb46514610738578063aa271e1a146107665761018e565b8063637eea19146106c45780636c0360eb146106cc57806370a08231146106d45780638129fc1c146106fa57806395d89b4114610702578063983b2d561461070a5761018e565b80632f745c591161014b5780634cd88b76116101255780634cd88b76146104a85780634f6ccce7146105d157806350bb4e7f146105ee5780636352211e146106a75761018e565b80632f745c59146103025780633aaac28e1461032e57806342842e0e146104725761018e565b806301ffc9a71461019357806306fdde03146101ce578063081812fc1461024b578063095ea7b31461028457806318160ddd146102b257806323b872dd146102cc575b600080fd5b6101ba600480360360208110156101a957600080fd5b50356001600160e01b0319166108c1565b604080519115158252519081900360200190f35b6101d66108e4565b6040805160208082528351818301528351919283929083019185019080838360005b838110156102105781810151838201526020016101f8565b50505050905090810190601f16801561023d5780820380516001836020036101000a031916815260200191505b509250505060405180910390f35b6102686004803603602081101561026157600080fd5b503561097b565b604080516001600160a01b039092168252519081900360200190f35b6102b06004803603604081101561029a57600080fd5b506001600160a01b0381351690602001356109dd565b005b6102ba610b05565b60408051918252519081900360200190f35b6102b0600480360360608110156102e257600080fd5b506001600160a01b03813581169160208101359091169060400135610b0b565b6102ba6004803603604081101561031857600080fd5b506001600160a01b038135169060200135610b67565b6102b06004803603608081101561034457600080fd5b6001600160a01b038235169190810190604081016020820135600160201b81111561036e57600080fd5b82018360208201111561038057600080fd5b803590602001918460018302840111600160201b831117156103a157600080fd5b91908080601f0160208091040260200160405190810160405280939291908181526020018383808284376000920191909152509295949360208101935035915050600160201b8111156103f357600080fd5b82018360208201111561040557600080fd5b803590602001918460018302840111600160201b8311171561042657600080fd5b91908080601f016020809104026020016040519081016040528093929190818152602001838380828437600092019190915250929550505090356001600160a01b03169150610be69050565b6102b06004803603606081101561048857600080fd5b506001600160a01b03813581169160208101359091169060400135610cdd565b6102b0600480360360408110156104be57600080fd5b810190602081018135600160201b8111156104d857600080fd5b8201836020820111156104ea57600080fd5b803590602001918460018302840111600160201b8311171561050b57600080fd5b91908080601f0160208091040260200160405190810160405280939291908181526020018383808284376000920191909152509295949360208101935035915050600160201b81111561055d57600080fd5b82018360208201111561056f57600080fd5b803590602001918460018302840111600160201b8311171561059057600080fd5b91908080601f016020809104026020016040519081016040528093929190818152602001838380828437600092019190915250929550610cf8945050505050565b6102ba600480360360208110156105e757600080fd5b5035610de4565b6101ba6004803603606081101561060457600080fd5b6001600160a01b0382351691602081013591810190606081016040820135600160201b81111561063357600080fd5b82018360208201111561064557600080fd5b803590602001918460018302840111600160201b8311171561066657600080fd5b91908080601f016020809104026020016040519081016040528093929190818152602001838380828437600092019190915250929550610e4a945050505050565b610268600480360360208110156106bd57600080fd5b5035610eb5565b610268610f0f565b6101d6610f1f565b6102ba600480360360208110156106ea57600080fd5b50356001600160a01b0316610f80565b6102b0610fe8565b6101d66110ab565b6102b06004803603602081101561072057600080fd5b50356001600160a01b031661110c565b6102b061115b565b6102b06004803603604081101561074e57600080fd5b506001600160a01b038135169060200135151561116d565b6101ba6004803603602081101561077c57600080fd5b50356001600160a01b0316611272565b6102b0600480360360808110156107a257600080fd5b6001600160a01b03823581169260208101359091169160408201359190810190608081016060820135600160201b8111156107dc57600080fd5b8201836020820111156107ee57600080fd5b803590602001918460018302840111600160201b8311171561080f57600080fd5b91908080601f016020809104026020016040519081016040528093929190818152602001838380828437600092019190915250929550611286945050505050565b6102b06004803603602081101561086657600080fd5b50356001600160a01b03166112e4565b6101d66004803603602081101561088c57600080fd5b50356113b2565b6101ba600480360360408110156108a957600080fd5b506001600160a01b038135811691602001351661157e565b6001600160e01b0319811660009081526033602052604090205460ff165b919050565b60d28054604080516020601f60026000196101006001881615020190951694909404938401819004810282018101909252828152606093909290918301828280156109705780601f1061094557610100808354040283529160200191610970565b820191906000526020600020905b81548152906001019060200180831161095357829003601f168201915b505050505090505b90565b6000610986826115ac565b6109c15760405162461bcd60e51b815260040180806020018281038252602c8152602001806125da602c913960400191505060405180910390fd5b506000908152606760205260409020546001600160a01b031690565b60006109e882610eb5565b9050806001600160a01b0316836001600160a01b03161415610a3b5760405162461bcd60e51b81526004018080602001828103825260218152602001806126da6021913960400191505060405180910390fd5b806001600160a01b0316610a4d6115c9565b6001600160a01b03161480610a6e5750610a6e81610a696115c9565b61157e565b610aa95760405162461bcd60e51b81526004018080602001828103825260388152602001806124fe6038913960400191505060405180910390fd5b60008281526067602052604080822080546001600160a01b0319166001600160a01b0387811691821790925591518593918516917f8c5be1e5ebec7d5bd14f71427d1e84f3dd0314c0f7b2291e5b200ac8c7c3b92591a4505050565b609e5490565b610b1c610b166115c9565b826115cd565b610b575760405162461bcd60e51b81526004018080602001828103825260318152602001806126fb6031913960400191505060405180910390fd5b610b628383836115f9565b505050565b6000610b7283610f80565b8210610baf5760405162461bcd60e51b815260040180806020018281038252602b815260200180612451602b913960400191505060405180910390fd5b6001600160a01b0383166000908152609c60205260409020805483908110610bd357fe5b9060005260206000200154905092915050565b600054610100900460ff1680610bff5750610bff611618565b80610c0d575060005460ff16155b610c485760405162461bcd60e51b815260040180806020018281038252602e815260200180612654602e913960400191505060405180910390fd5b600054610100900460ff16158015610c73576000805460ff1961ff0019909116610100171660011790555b61016c80546001600160a01b0319166001600160a01b038716179055610c9761161e565b610c9f610fe8565b610ca98484610cf8565b610cb2306112e4565b610cbb306116c3565b610cc48261170c565b8015610cd6576000805461ff00191690555b5050505050565b610b6283838360405180602001604052806000815250611286565b600054610100900460ff1680610d115750610d11611618565b80610d1f575060005460ff16155b610d5a5760405162461bcd60e51b815260040180806020018281038252602e815260200180612654602e913960400191505060405180910390fd5b600054610100900460ff16158015610d85576000805460ff1961ff0019909116610100171660011790555b610d8d611755565b610d9657600080fd5b8251610da99060d2906020860190612398565b508151610dbd9060d3906020850190612398565b50610dce635b5e139f60e01b61176c565b8015610b62576000805461ff0019169055505050565b6000610dee610b05565b8210610e2b5760405162461bcd60e51b815260040180806020018281038252602c81526020018061272c602c913960400191505060405180910390fd5b609e8281548110610e3857fe5b90600052602060002001549050919050565b6000610e5c610e576115c9565b611272565b610e975760405162461bcd60e51b81526004018080602001828103825260308152602001806125896030913960400191505060405180910390fd5b610ea184846117f0565b610eab838361180d565b5060019392505050565b6000818152606660205260408120546001600160a01b031680610f095760405162461bcd60e51b81526004018080602001828103825260298152602001806125606029913960400191505060405180910390fd5b92915050565b61016c546001600160a01b031681565b60d58054604080516020601f60026000196101006001881615020190951694909404938401819004810282018101909252828152606093909290918301828280156109705780601f1061094557610100808354040283529160200191610970565b60006001600160a01b038216610fc75760405162461bcd60e51b815260040180806020018281038252602a815260200180612536602a913960400191505060405180910390fd5b6001600160a01b0382166000908152606860205260409020610f0990611870565b600054610100900460ff16806110015750611001611618565b8061100f575060005460ff16155b61104a5760405162461bcd60e51b815260040180806020018281038252602e815260200180612654602e913960400191505060405180910390fd5b600054610100900460ff16158015611075576000805460ff1961ff0019909116610100171660011790555b61107d611755565b61108657600080fd5b61109663780e9d6360e01b61176c565b80156110a8576000805461ff00191690555b50565b60d38054604080516020601f60026000196101006001881615020190951694909404938401819004810282018101909252828152606093909290918301828280156109705780601f1061094557610100808354040283529160200191610970565b611117610e576115c9565b6111525760405162461bcd60e51b81526004018080602001828103825260308152602001806125896030913960400191505060405180910390fd5b6110a88161170c565b61116b6111666115c9565b6116c3565b565b6111756115c9565b6001600160a01b0316826001600160a01b031614156111db576040805162461bcd60e51b815260206004820152601960248201527f4552433732313a20617070726f766520746f2063616c6c657200000000000000604482015290519081900360640190fd5b80606960006111e86115c9565b6001600160a01b03908116825260208083019390935260409182016000908120918716808252919093529120805460ff19169215159290921790915561122c6115c9565b60408051841515815290516001600160a01b0392909216917f17307eab39ab6107e8899845ad3d59bd9653f200f220920489ca2b5937696c319181900360200190a35050565b6000610f096101078363ffffffff61187416565b6112976112916115c9565b836115cd565b6112d25760405162461bcd60e51b81526004018080602001828103825260318152602001806126fb6031913960400191505060405180910390fd5b6112de848484846118db565b50505050565b600054610100900460ff16806112fd57506112fd611618565b8061130b575060005460ff16155b6113465760405162461bcd60e51b815260040180806020018281038252602e815260200180612654602e913960400191505060405180910390fd5b600054610100900460ff16158015611371576000805460ff1961ff0019909116610100171660011790555b611379611755565b61138257600080fd5b61138a61192d565b61139357600080fd5b61139c8261193f565b80156113ae576000805461ff00191690555b5050565b60606113bd826115ac565b6113f85760405162461bcd60e51b815260040180806020018281038252602f8152602001806126ab602f913960400191505060405180910390fd5b600082815260d4602090815260409182902080548351601f600260001961010060018616150201909316929092049182018490048402810184019094528084526060939283018282801561148d5780601f106114625761010080835404028352916020019161148d565b820191906000526020600020905b81548152906001019060200180831161147057829003601f168201915b505050505090508051600014156114b45750506040805160208101909152600081526108df565b60d58160405160200180838054600181600116156101000203166002900480156115155780601f106114f3576101008083540402835291820191611515565b820191906000526020600020905b815481529060010190602001808311611501575b5050825160208401908083835b602083106115415780518252601f199092019160209182019101611522565b6001836020036101000a038019825116818451168082178552505050505050905001925050506040516020818303038152906040529150506108df565b6001600160a01b03918216600090815260696020908152604080832093909416825291909152205460ff1690565b6000908152606660205260409020546001600160a01b0316151590565b3390565b61016c546000906001600160a01b03848116911614806115f257506115f283836119e2565b9392505050565b611604838383611a86565b61160e8382611bca565b610b628282611cb8565b303b1590565b600054610100900460ff16806116375750611637611618565b80611645575060005460ff16155b6116805760405162461bcd60e51b815260040180806020018281038252602e815260200180612654602e913960400191505060405180910390fd5b600054610100900460ff161580156116ab576000805460ff1961ff0019909116610100171660011790555b6116b3611cf6565b6110966380ac58cd60e01b61176c565b6116d56101078263ffffffff611d9316565b6040516001600160a01b038216907fe94479a9f7e1952cc78f2d6baab678adc1b772d936c6583def489e524cb6669290600090a250565b61171e6101078263ffffffff611dfa16565b6040516001600160a01b038216907f6ae172837ea30b801fbfcdd4108aa1d5bf8ff775444fd70256b44e6bf3dfc3f690600090a250565b60006117676380ac58cd60e01b6108c1565b905090565b6001600160e01b031980821614156117cb576040805162461bcd60e51b815260206004820152601c60248201527f4552433136353a20696e76616c696420696e7465726661636520696400000000604482015290519081900360640190fd5b6001600160e01b0319166000908152603360205260409020805460ff19166001179055565b6117fa8282611e7b565b6118048282611cb8565b6113ae81611fac565b611816826115ac565b6118515760405162461bcd60e51b815260040180806020018281038252602c815260200180612606602c913960400191505060405180910390fd5b600082815260d4602090815260409091208251610b6292840190612398565b5490565b60006001600160a01b0382166118bb5760405162461bcd60e51b81526004018080602001828103825260228152602001806126326022913960400191505060405180910390fd5b506001600160a01b03166000908152602091909152604090205460ff1690565b6118e68484846115f9565b6118f284848484611ff0565b6112de5760405162461bcd60e51b815260040180806020018281038252603281526020018061247c6032913960400191505060405180910390fd5b6000611767635b5e139f60e01b6108c1565b600054610100900460ff16806119585750611958611618565b80611966575060005460ff16155b6119a15760405162461bcd60e51b815260040180806020018281038252602e815260200180612654602e913960400191505060405180910390fd5b600054610100900460ff161580156119cc576000805460ff1961ff0019909116610100171660011790555b6119d582611272565b61139c5761139c8261170c565b60006119ed826115ac565b611a285760405162461bcd60e51b815260040180806020018281038252602c8152602001806124d2602c913960400191505060405180910390fd5b6000611a3383610eb5565b9050806001600160a01b0316846001600160a01b03161480611a6e5750836001600160a01b0316611a638461097b565b6001600160a01b0316145b80611a7e5750611a7e818561157e565b949350505050565b826001600160a01b0316611a9982610eb5565b6001600160a01b031614611ade5760405162461bcd60e51b81526004018080602001828103825260298152602001806126826029913960400191505060405180910390fd5b6001600160a01b038216611b235760405162461bcd60e51b81526004018080602001828103825260248152602001806124ae6024913960400191505060405180910390fd5b611b2c8161222b565b6001600160a01b0383166000908152606860205260409020611b4d90612266565b6001600160a01b0382166000908152606860205260409020611b6e9061227d565b60008181526066602052604080822080546001600160a01b0319166001600160a01b0386811691821790925591518493918716917fddf252ad1be2c89b69c2b068fc378daa952ba7f163c4a11628f55a4df523b3ef91a4505050565b6001600160a01b0382166000908152609c6020526040812054611bf490600163ffffffff61228616565b6000838152609d6020526040902054909150808214611c8f576001600160a01b0384166000908152609c60205260408120805484908110611c3157fe5b9060005260206000200154905080609c6000876001600160a01b03166001600160a01b031681526020019081526020016000208381548110611c6f57fe5b6000918252602080832090910192909255918252609d9052604090208190555b6001600160a01b0384166000908152609c60205260409020805490610cd6906000198301612416565b6001600160a01b039091166000908152609c602081815260408084208054868652609d84529185208290559282526001810183559183529091200155565b600054610100900460ff1680611d0f5750611d0f611618565b80611d1d575060005460ff16155b611d585760405162461bcd60e51b815260040180806020018281038252602e815260200180612654602e913960400191505060405180910390fd5b600054610100900460ff16158015611d83576000805460ff1961ff0019909116610100171660011790555b6110966301ffc9a760e01b61176c565b611d9d8282611874565b611dd85760405162461bcd60e51b81526004018080602001828103825260218152602001806125b96021913960400191505060405180910390fd5b6001600160a01b0316600090815260209190915260409020805460ff19169055565b611e048282611874565b15611e56576040805162461bcd60e51b815260206004820152601f60248201527f526f6c65733a206163636f756e7420616c72656164792068617320726f6c6500604482015290519081900360640190fd5b6001600160a01b0316600090815260209190915260409020805460ff19166001179055565b6001600160a01b038216611ed6576040805162461bcd60e51b815260206004820181905260248201527f4552433732313a206d696e7420746f20746865207a65726f2061646472657373604482015290519081900360640190fd5b611edf816115ac565b15611f31576040805162461bcd60e51b815260206004820152601c60248201527f4552433732313a20746f6b656e20616c7265616479206d696e74656400000000604482015290519081900360640190fd5b600081815260666020908152604080832080546001600160a01b0319166001600160a01b038716908117909155835260689091529020611f709061227d565b60405181906001600160a01b038416906000907fddf252ad1be2c89b69c2b068fc378daa952ba7f163c4a11628f55a4df523b3ef908290a45050565b609e80546000838152609f60205260408120829055600182018355919091527fcfe2a20ff701a1f3e14f63bd70d6c6bc6fba8172ec6d5a505cdab3927c0a9de60155565b6000612004846001600160a01b03166122c8565b61201057506001611a7e565b600060606001600160a01b038616630a85bd0160e11b61202e6115c9565b89888860405160240180856001600160a01b03166001600160a01b03168152602001846001600160a01b03166001600160a01b0316815260200183815260200180602001828103825283818151815260200191508051906020019080838360005b838110156120a757818101518382015260200161208f565b50505050905090810190601f1680156120d45780820380516001836020036101000a031916815260200191505b5060408051601f198184030181529181526020820180516001600160e01b03166001600160e01b0319909a16999099178952518151919890975087965094509250829150849050835b6020831061213c5780518252601f19909201916020918201910161211d565b6001836020036101000a0380198251168184511680821785525050505050509050019150506000604051808303816000865af19150503d806000811461219e576040519150601f19603f3d011682016040523d82523d6000602084013e6121a3565b606091505b5091509150816121f4578051156121bd5780518082602001fd5b60405162461bcd60e51b815260040180806020018281038252603281526020018061247c6032913960400191505060405180910390fd5b600081806020019051602081101561220b57600080fd5b50516001600160e01b031916630a85bd0160e11b149350611a7e92505050565b6000818152606760205260409020546001600160a01b0316156110a857600090815260676020526040902080546001600160a01b0319169055565b805461227990600163ffffffff61228616565b9055565b80546001019055565b60006115f283836040518060400160405280601e81526020017f536166654d6174683a207375627472616374696f6e206f766572666c6f770000815250612301565b6000813f7fc5d2460186f7233c927e7db2dcc703c0e500b653ca82273b7bfad8045d85a470818114801590611a7e575050151592915050565b600081848411156123905760405162461bcd60e51b81526004018080602001828103825283818151815260200191508051906020019080838360005b8381101561235557818101518382015260200161233d565b50505050905090810190601f1680156123825780820380516001836020036101000a031916815260200191505b509250505060405180910390fd5b505050900390565b828054600181600116156101000203166002900490600052602060002090601f016020900481019282601f106123d957805160ff1916838001178555612406565b82800160010185558215612406579182015b828111156124065782518255916020019190600101906123eb565b50612412929150612436565b5090565b815481835581811115610b6257600083815260209020610b629181019083015b61097891905b80821115612412576000815560010161243c56fe455243373231456e756d657261626c653a206f776e657220696e646578206f7574206f6620626f756e64734552433732313a207472616e7366657220746f206e6f6e20455243373231526563656976657220696d706c656d656e7465724552433732313a207472616e7366657220746f20746865207a65726f20616464726573734552433732313a206f70657261746f7220717565727920666f72206e6f6e6578697374656e7420746f6b656e4552433732313a20617070726f76652063616c6c6572206973206e6f74206f776e6572206e6f7220617070726f76656420666f7220616c6c4552433732313a2062616c616e636520717565727920666f7220746865207a65726f20616464726573734552433732313a206f776e657220717565727920666f72206e6f6e6578697374656e7420746f6b656e4d696e746572526f6c653a2063616c6c657220646f6573206e6f74206861766520746865204d696e74657220726f6c65526f6c65733a206163636f756e7420646f6573206e6f74206861766520726f6c654552433732313a20617070726f76656420717565727920666f72206e6f6e6578697374656e7420746f6b656e4552433732314d657461646174613a2055524920736574206f66206e6f6e6578697374656e7420746f6b656e526f6c65733a206163636f756e7420697320746865207a65726f2061646472657373436f6e747261637420696e7374616e63652068617320616c7265616479206265656e20696e697469616c697a65644552433732313a207472616e73666572206f6620746f6b656e2074686174206973206e6f74206f776e4552433732314d657461646174613a2055524920717565727920666f72206e6f6e6578697374656e7420746f6b656e4552433732313a20617070726f76616c20746f2063757272656e74206f776e65724552433732313a207472616e736665722063616c6c6572206973206e6f74206f776e6572206e6f7220617070726f766564455243373231456e756d657261626c653a20676c6f62616c20696e646578206f7574206f6620626f756e6473a265627a7a723158207827861e9b0d42d7b68c0f9d0edaeb0960ac1a703bbb85671676e7474515afda64736f6c63430005110032",
  "source": "pragma solidity ^0.5.0;\n\nimport \"../vendered/@openzeppelin/contracts-ethereum-package-3.0.0/contracts/token/ERC721/ERC721.sol\";\nimport \"../vendered/@openzeppelin/contracts-ethereum-package-3.0.0/contracts/token/ERC721/ERC721Enumerable.sol\";\nimport \"../vendered/@openzeppelin/contracts-ethereum-package-3.0.0/contracts/token/ERC721/ERC721Metadata.sol\";\nimport \"../vendered/@openzeppelin/contracts-ethereum-package-3.0.0/contracts/token/ERC721/ERC721MetadataMintable.sol\";\n// import \"../node_modules/../vendered/@openzeppelin/contracts-ethereum-package-3.0.0/contracts/token/ERC721/ERC721.sol\";\n// import \"../node_modules/../vendered/@openzeppelin/contracts-ethereum-package-3.0.0/contracts/token/ERC721/ERC721Enumerable.sol\";\n// import \"../node_modules/../vendered/@openzeppelin/contracts-ethereum-package-3.0.0/contracts/token/ERC721/ERC721Metadata.sol\";\ncontract ERC721Patronage_v0 is\n    Initializable,\n    ERC721,\n    ERC721Enumerable,\n    ERC721Metadata,\n    ERC721MetadataMintable\n{\n    address public steward;\n\n    function setup(\n        address _steward,\n        string memory name,\n        string memory symbol,\n        address minter\n    ) public initializer {\n        steward = _steward;\n        ERC721.initialize();\n        ERC721Enumerable.initialize();\n        ERC721Metadata.initialize(name, symbol);\n        // Initialize the minter and pauser roles, and renounce them\n        ERC721MetadataMintable.initialize(address(this));\n        _removeMinter(address(this));\n        _addMinter(minter);\n    }\n\n    function _isApprovedOrOwner(address spender, uint256 tokenId)\n        internal\n        view\n        returns (bool)\n    {\n        return (spender == steward ||\n            ERC721._isApprovedOrOwner(spender, tokenId));\n    }\n}\n",
  "sourcePath": "/home/jasoons/Documents/code/contracts/contracts/previousVersions/ERC721Patronage_v0.sol",
  "compiler": {
    "name": "solc",
    "version": "0.5.17+commit.d19bba13.Emscripten.clang"
  },
  "schemaVersion": "3.2.1",
  "updatedAt": "2020-08-06T08:49:43.551Z",
  "networkType": "ethereum",
  "devdoc": {
    "methods": {
      "approve(address,uint256)": {
        "details": "Approves another address to transfer the given token ID The zero address indicates there is no approved address. There can only be one approved address per token at a given time. Can only be called by the token owner or an approved operator.",
        "params": {
          "to": "address to be approved for the given token ID",
          "tokenId": "uint256 ID of the token to be approved"
        }
      },
      "balanceOf(address)": {
        "details": "Gets the balance of the specified address.",
        "params": {
          "owner": "address to query the balance of"
        },
        "return": "uint256 representing the amount owned by the passed address"
      },
      "baseURI()": {
        "details": "Returns the base URI set via {_setBaseURI}. This will be automatically added as a preffix in {tokenURI} to each token's URI, when they are non-empty.    * _Available since v2.5.0._"
      },
      "getApproved(uint256)": {
        "details": "Gets the approved address for a token ID, or zero if no address set Reverts if the token ID does not exist.",
        "params": {
          "tokenId": "uint256 ID of the token to query the approval of"
        },
        "return": "address currently approved for the given token ID"
      },
      "initialize()": {
        "details": "Constructor function."
      },
      "initialize(string,string)": {
        "details": "Constructor function"
      },
      "isApprovedForAll(address,address)": {
        "details": "Tells whether an operator is approved by a given owner.",
        "params": {
          "operator": "operator address which you want to query the approval of",
          "owner": "owner address which you want to query the approval of"
        },
        "return": "bool whether the given operator is approved by the given owner"
      },
      "mintWithTokenURI(address,uint256,string)": {
        "details": "Function to mint tokens.",
        "params": {
          "to": "The address that will receive the minted tokens.",
          "tokenId": "The token id to mint.",
          "tokenURI": "The token URI of the minted token."
        },
        "return": "A boolean that indicates if the operation was successful."
      },
      "name()": {
        "details": "Gets the token name.",
        "return": "string representing the token name"
      },
      "ownerOf(uint256)": {
        "details": "Gets the owner of the specified token ID.",
        "params": {
          "tokenId": "uint256 ID of the token to query the owner of"
        },
        "return": "address currently marked as the owner of the given token ID"
      },
      "safeTransferFrom(address,address,uint256)": {
        "details": "Safely transfers the ownership of a given token ID to another address If the target address is a contract, it must implement {IERC721Receiver-onERC721Received}, which is called upon a safe transfer, and return the magic value `bytes4(keccak256(\"onERC721Received(address,address,uint256,bytes)\"))`; otherwise, the transfer is reverted. Requires the msg.sender to be the owner, approved, or operator",
        "params": {
          "from": "current owner of the token",
          "to": "address to receive the ownership of the given token ID",
          "tokenId": "uint256 ID of the token to be transferred"
        }
      },
      "safeTransferFrom(address,address,uint256,bytes)": {
        "details": "Safely transfers the ownership of a given token ID to another address If the target address is a contract, it must implement {IERC721Receiver-onERC721Received}, which is called upon a safe transfer, and return the magic value `bytes4(keccak256(\"onERC721Received(address,address,uint256,bytes)\"))`; otherwise, the transfer is reverted. Requires the _msgSender() to be the owner, approved, or operator",
        "params": {
          "_data": "bytes data to send along with a safe transfer check",
          "from": "current owner of the token",
          "to": "address to receive the ownership of the given token ID",
          "tokenId": "uint256 ID of the token to be transferred"
        }
      },
      "setApprovalForAll(address,bool)": {
        "details": "Sets or unsets the approval of a given operator An operator is allowed to transfer all tokens of the sender on their behalf.",
        "params": {
          "approved": "representing the status of the approval to be set",
          "to": "operator address to set the approval"
        }
      },
      "supportsInterface(bytes4)": {
        "details": "See {IERC165-supportsInterface}.     * Time complexity O(1), guaranteed to always use less than 30 000 gas."
      },
      "symbol()": {
        "details": "Gets the token symbol.",
        "return": "string representing the token symbol"
      },
      "tokenByIndex(uint256)": {
        "details": "Gets the token ID at a given index of all the tokens in this contract Reverts if the index is greater or equal to the total number of tokens.",
        "params": {
          "index": "uint256 representing the index to be accessed of the tokens list"
        },
        "return": "uint256 token ID at the given index of the tokens list"
      },
      "tokenOfOwnerByIndex(address,uint256)": {
        "details": "Gets the token ID at a given index of the tokens list of the requested owner.",
        "params": {
          "index": "uint256 representing the index to be accessed of the requested tokens list",
          "owner": "address owning the tokens list to be accessed"
        },
        "return": "uint256 token ID at the given index of the tokens list owned by the requested address"
      },
      "tokenURI(uint256)": {
        "details": "Returns the URI for a given token ID. May return an empty string.     * If the token's URI is non-empty and a base URI was set (via {_setBaseURI}), it will be added to the token ID's URI as a prefix.     * Reverts if the token ID does not exist."
      },
      "totalSupply()": {
        "details": "Gets the total amount of tokens stored by the contract.",
        "return": "uint256 representing the total amount of tokens"
      },
      "transferFrom(address,address,uint256)": {
        "details": "Transfers the ownership of a given token ID to another address. Usage of this method is discouraged, use {safeTransferFrom} whenever possible. Requires the msg.sender to be the owner, approved, or operator.",
        "params": {
          "from": "current owner of the token",
          "to": "address to receive the ownership of the given token ID",
          "tokenId": "uint256 ID of the token to be transferred"
        }
      }
    }
  },
  "userdoc": {
    "methods": {}
  }
}