{
  "contractName": "ERC721Patronage_v1",
  "abi": [
    {
      "anonymous": false,
      "inputs": [
        {
          "indexed": true,
          "internalType": "address",
          "name": "owner",
          "type": "address"
        },
        {
          "indexed": true,
          "internalType": "address",
          "name": "approved",
          "type": "address"
        },
        {
          "indexed": true,
          "internalType": "uint256",
          "name": "tokenId",
          "type": "uint256"
        }
      ],
      "name": "Approval",
      "type": "event"
    },
    {
      "anonymous": false,
      "inputs": [
        {
          "indexed": true,
          "internalType": "address",
          "name": "owner",
          "type": "address"
        },
        {
          "indexed": true,
          "internalType": "address",
          "name": "operator",
          "type": "address"
        },
        {
          "indexed": false,
          "internalType": "bool",
          "name": "approved",
          "type": "bool"
        }
      ],
      "name": "ApprovalForAll",
      "type": "event"
    },
    {
      "anonymous": false,
      "inputs": [
        {
          "indexed": true,
          "internalType": "address",
          "name": "account",
          "type": "address"
        }
      ],
      "name": "MinterAdded",
      "type": "event"
    },
    {
      "anonymous": false,
      "inputs": [
        {
          "indexed": true,
          "internalType": "address",
          "name": "account",
          "type": "address"
        }
      ],
      "name": "MinterRemoved",
      "type": "event"
    },
    {
      "anonymous": false,
      "inputs": [
        {
          "indexed": true,
          "internalType": "address",
          "name": "from",
          "type": "address"
        },
        {
          "indexed": true,
          "internalType": "address",
          "name": "to",
          "type": "address"
        },
        {
          "indexed": true,
          "internalType": "uint256",
          "name": "tokenId",
          "type": "uint256"
        }
      ],
      "name": "Transfer",
      "type": "event"
    },
    {
      "constant": false,
      "inputs": [
        {
          "internalType": "address",
          "name": "account",
          "type": "address"
        }
      ],
      "name": "addMinter",
      "outputs": [],
      "payable": false,
      "stateMutability": "nonpayable",
      "type": "function"
    },
    {
      "constant": false,
      "inputs": [
        {
          "internalType": "address",
          "name": "to",
          "type": "address"
        },
        {
          "internalType": "uint256",
          "name": "tokenId",
          "type": "uint256"
        }
      ],
      "name": "approve",
      "outputs": [],
      "payable": false,
      "stateMutability": "nonpayable",
      "type": "function"
    },
    {
      "constant": true,
      "inputs": [
        {
          "internalType": "address",
          "name": "owner",
          "type": "address"
        }
      ],
      "name": "balanceOf",
      "outputs": [
        {
          "internalType": "uint256",
          "name": "",
          "type": "uint256"
        }
      ],
      "payable": false,
      "stateMutability": "view",
      "type": "function"
    },
    {
      "constant": true,
      "inputs": [
        {
          "internalType": "uint256",
          "name": "tokenId",
          "type": "uint256"
        }
      ],
      "name": "getApproved",
      "outputs": [
        {
          "internalType": "address",
          "name": "",
          "type": "address"
        }
      ],
      "payable": false,
      "stateMutability": "view",
      "type": "function"
    },
    {
      "constant": false,
      "inputs": [
        {
          "internalType": "string",
          "name": "name",
          "type": "string"
        },
        {
          "internalType": "string",
          "name": "symbol",
          "type": "string"
        }
      ],
      "name": "initialize",
      "outputs": [],
      "payable": false,
      "stateMutability": "nonpayable",
      "type": "function"
    },
    {
      "constant": false,
      "inputs": [],
      "name": "initialize",
      "outputs": [],
      "payable": false,
      "stateMutability": "nonpayable",
      "type": "function"
    },
    {
      "constant": false,
      "inputs": [
        {
          "internalType": "address",
          "name": "sender",
          "type": "address"
        }
      ],
      "name": "initialize",
      "outputs": [],
      "payable": false,
      "stateMutability": "nonpayable",
      "type": "function"
    },
    {
      "constant": true,
      "inputs": [
        {
          "internalType": "address",
          "name": "owner",
          "type": "address"
        },
        {
          "internalType": "address",
          "name": "operator",
          "type": "address"
        }
      ],
      "name": "isApprovedForAll",
      "outputs": [
        {
          "internalType": "bool",
          "name": "",
          "type": "bool"
        }
      ],
      "payable": false,
      "stateMutability": "view",
      "type": "function"
    },
    {
      "constant": true,
      "inputs": [
        {
          "internalType": "address",
          "name": "account",
          "type": "address"
        }
      ],
      "name": "isMinter",
      "outputs": [
        {
          "internalType": "bool",
          "name": "",
          "type": "bool"
        }
      ],
      "payable": false,
      "stateMutability": "view",
      "type": "function"
    },
    {
      "constant": false,
      "inputs": [
        {
          "internalType": "address",
          "name": "to",
          "type": "address"
        },
        {
          "internalType": "uint256",
          "name": "tokenId",
          "type": "uint256"
        },
        {
          "internalType": "string",
          "name": "tokenURI",
          "type": "string"
        }
      ],
      "name": "mintWithTokenURI",
      "outputs": [
        {
          "internalType": "bool",
          "name": "",
          "type": "bool"
        }
      ],
      "payable": false,
      "stateMutability": "nonpayable",
      "type": "function"
    },
    {
      "constant": true,
      "inputs": [],
      "name": "name",
      "outputs": [
        {
          "internalType": "string",
          "name": "",
          "type": "string"
        }
      ],
      "payable": false,
      "stateMutability": "view",
      "type": "function"
    },
    {
      "constant": true,
      "inputs": [
        {
          "internalType": "uint256",
          "name": "tokenId",
          "type": "uint256"
        }
      ],
      "name": "ownerOf",
      "outputs": [
        {
          "internalType": "address",
          "name": "",
          "type": "address"
        }
      ],
      "payable": false,
      "stateMutability": "view",
      "type": "function"
    },
    {
      "constant": false,
      "inputs": [],
      "name": "renounceMinter",
      "outputs": [],
      "payable": false,
      "stateMutability": "nonpayable",
      "type": "function"
    },
    {
      "constant": false,
      "inputs": [
        {
          "internalType": "address",
          "name": "from",
          "type": "address"
        },
        {
          "internalType": "address",
          "name": "to",
          "type": "address"
        },
        {
          "internalType": "uint256",
          "name": "tokenId",
          "type": "uint256"
        }
      ],
      "name": "safeTransferFrom",
      "outputs": [],
      "payable": false,
      "stateMutability": "nonpayable",
      "type": "function"
    },
    {
      "constant": false,
      "inputs": [
        {
          "internalType": "address",
          "name": "from",
          "type": "address"
        },
        {
          "internalType": "address",
          "name": "to",
          "type": "address"
        },
        {
          "internalType": "uint256",
          "name": "tokenId",
          "type": "uint256"
        },
        {
          "internalType": "bytes",
          "name": "_data",
          "type": "bytes"
        }
      ],
      "name": "safeTransferFrom",
      "outputs": [],
      "payable": false,
      "stateMutability": "nonpayable",
      "type": "function"
    },
    {
      "constant": false,
      "inputs": [
        {
          "internalType": "address",
          "name": "to",
          "type": "address"
        },
        {
          "internalType": "bool",
          "name": "approved",
          "type": "bool"
        }
      ],
      "name": "setApprovalForAll",
      "outputs": [],
      "payable": false,
      "stateMutability": "nonpayable",
      "type": "function"
    },
    {
      "constant": true,
      "inputs": [],
      "name": "steward",
      "outputs": [
        {
          "internalType": "address",
          "name": "",
          "type": "address"
        }
      ],
      "payable": false,
      "stateMutability": "view",
      "type": "function"
    },
    {
      "constant": true,
      "inputs": [
        {
          "internalType": "bytes4",
          "name": "interfaceId",
          "type": "bytes4"
        }
      ],
      "name": "supportsInterface",
      "outputs": [
        {
          "internalType": "bool",
          "name": "",
          "type": "bool"
        }
      ],
      "payable": false,
      "stateMutability": "view",
      "type": "function"
    },
    {
      "constant": true,
      "inputs": [],
      "name": "symbol",
      "outputs": [
        {
          "internalType": "string",
          "name": "",
          "type": "string"
        }
      ],
      "payable": false,
      "stateMutability": "view",
      "type": "function"
    },
    {
      "constant": true,
      "inputs": [
        {
          "internalType": "uint256",
          "name": "index",
          "type": "uint256"
        }
      ],
      "name": "tokenByIndex",
      "outputs": [
        {
          "internalType": "uint256",
          "name": "",
          "type": "uint256"
        }
      ],
      "payable": false,
      "stateMutability": "view",
      "type": "function"
    },
    {
      "constant": true,
      "inputs": [
        {
          "internalType": "address",
          "name": "owner",
          "type": "address"
        },
        {
          "internalType": "uint256",
          "name": "index",
          "type": "uint256"
        }
      ],
      "name": "tokenOfOwnerByIndex",
      "outputs": [
        {
          "internalType": "uint256",
          "name": "",
          "type": "uint256"
        }
      ],
      "payable": false,
      "stateMutability": "view",
      "type": "function"
    },
    {
      "constant": true,
      "inputs": [
        {
          "internalType": "uint256",
          "name": "tokenId",
          "type": "uint256"
        }
      ],
      "name": "tokenURI",
      "outputs": [
        {
          "internalType": "string",
          "name": "",
          "type": "string"
        }
      ],
      "payable": false,
      "stateMutability": "view",
      "type": "function"
    },
    {
      "constant": true,
      "inputs": [],
      "name": "totalSupply",
      "outputs": [
        {
          "internalType": "uint256",
          "name": "",
          "type": "uint256"
        }
      ],
      "payable": false,
      "stateMutability": "view",
      "type": "function"
    },
    {
      "constant": false,
      "inputs": [
        {
          "internalType": "address",
          "name": "from",
          "type": "address"
        },
        {
          "internalType": "address",
          "name": "to",
          "type": "address"
        },
        {
          "internalType": "uint256",
          "name": "tokenId",
          "type": "uint256"
        }
      ],
      "name": "transferFrom",
      "outputs": [],
      "payable": false,
      "stateMutability": "nonpayable",
      "type": "function"
    },
    {
      "constant": false,
      "inputs": [
        {
          "internalType": "address",
          "name": "_steward",
          "type": "address"
        },
        {
          "internalType": "string",
          "name": "name",
          "type": "string"
        },
        {
          "internalType": "string",
          "name": "symbol",
          "type": "string"
        },
        {
          "internalType": "address",
          "name": "minter",
          "type": "address"
        }
      ],
      "name": "setup",
      "outputs": [],
      "payable": false,
      "stateMutability": "nonpayable",
      "type": "function"
    }
  ],
  "bytecode": "0x608060405261234d806100136000396000f3fe608060405234801561001057600080fd5b50600436106101735760003560e01c80636352211e116100de5780639865027511610097578063b88d4fde11610071578063b88d4fde14610769578063c4d66de81461082d578063c87b56dd14610853578063e985e9c51461087057610173565b8063986502751461070d578063a22cb46514610715578063aa271e1a1461074357610173565b80636352211e1461068c578063637eea19146106a957806370a08231146106b15780638129fc1c146106d757806395d89b41146106df578063983b2d56146106e757610173565b80632f745c59116101305780632f745c59146102e75780633aaac28e1461031357806342842e0e146104575780634cd88b761461048d5780634f6ccce7146105b657806350bb4e7f146105d357610173565b806301ffc9a71461017857806306fdde03146101b3578063081812fc14610230578063095ea7b31461026957806318160ddd1461029757806323b872dd146102b1575b600080fd5b61019f6004803603602081101561018e57600080fd5b50356001600160e01b03191661089e565b604080519115158252519081900360200190f35b6101bb6108bd565b6040805160208082528351818301528351919283929083019185019080838360005b838110156101f55781810151838201526020016101dd565b50505050905090810190601f1680156102225780820380516001836020036101000a031916815260200191505b509250505060405180910390f35b61024d6004803603602081101561024657600080fd5b5035610954565b604080516001600160a01b039092168252519081900360200190f35b6102956004803603604081101561027f57600080fd5b506001600160a01b0381351690602001356109b6565b005b61029f610ade565b60408051918252519081900360200190f35b610295600480360360608110156102c757600080fd5b506001600160a01b03813581169160208101359091169060400135610ae4565b61029f600480360360408110156102fd57600080fd5b506001600160a01b038135169060200135610b40565b6102956004803603608081101561032957600080fd5b6001600160a01b038235169190810190604081016020820135600160201b81111561035357600080fd5b82018360208201111561036557600080fd5b803590602001918460018302840111600160201b8311171561038657600080fd5b91908080601f0160208091040260200160405190810160405280939291908181526020018383808284376000920191909152509295949360208101935035915050600160201b8111156103d857600080fd5b8201836020820111156103ea57600080fd5b803590602001918460018302840111600160201b8311171561040b57600080fd5b91908080601f016020809104026020016040519081016040528093929190818152602001838380828437600092019190915250929550505090356001600160a01b03169150610bbf9050565b6102956004803603606081101561046d57600080fd5b506001600160a01b03813581169160208101359091169060400135610cb6565b610295600480360360408110156104a357600080fd5b810190602081018135600160201b8111156104bd57600080fd5b8201836020820111156104cf57600080fd5b803590602001918460018302840111600160201b831117156104f057600080fd5b91908080601f0160208091040260200160405190810160405280939291908181526020018383808284376000920191909152509295949360208101935035915050600160201b81111561054257600080fd5b82018360208201111561055457600080fd5b803590602001918460018302840111600160201b8311171561057557600080fd5b91908080601f016020809104026020016040519081016040528093929190818152602001838380828437600092019190915250929550610cd1945050505050565b61029f600480360360208110156105cc57600080fd5b5035610dbd565b61019f600480360360608110156105e957600080fd5b6001600160a01b0382351691602081013591810190606081016040820135600160201b81111561061857600080fd5b82018360208201111561062a57600080fd5b803590602001918460018302840111600160201b8311171561064b57600080fd5b91908080601f016020809104026020016040519081016040528093929190818152602001838380828437600092019190915250929550610e23945050505050565b61024d600480360360208110156106a257600080fd5b5035610e8e565b61024d610ee8565b61029f600480360360208110156106c757600080fd5b50356001600160a01b0316610ef8565b610295610f60565b6101bb611023565b610295600480360360208110156106fd57600080fd5b50356001600160a01b0316611084565b6102956110d3565b6102956004803603604081101561072b57600080fd5b506001600160a01b03813516906020013515156110e5565b61019f6004803603602081101561075957600080fd5b50356001600160a01b03166111ea565b6102956004803603608081101561077f57600080fd5b6001600160a01b03823581169260208101359091169160408201359190810190608081016060820135600160201b8111156107b957600080fd5b8201836020820111156107cb57600080fd5b803590602001918460018302840111600160201b831117156107ec57600080fd5b91908080601f0160208091040260200160405190810160405280939291908181526020018383808284376000920191909152509295506111fe945050505050565b6102956004803603602081101561084357600080fd5b50356001600160a01b0316611256565b6101bb6004803603602081101561086957600080fd5b5035611324565b61019f6004803603604081101561088657600080fd5b506001600160a01b0381358116916020013516611409565b6001600160e01b03191660009081526033602052604090205460ff1690565b60d28054604080516020601f60026000196101006001881615020190951694909404938401819004810282018101909252828152606093909290918301828280156109495780601f1061091e57610100808354040283529160200191610949565b820191906000526020600020905b81548152906001019060200180831161092c57829003601f168201915b505050505090505b90565b600061095f82611437565b61099a5760405162461bcd60e51b815260040180806020018281038252602c81526020018061219b602c913960400191505060405180910390fd5b506000908152606760205260409020546001600160a01b031690565b60006109c182610e8e565b9050806001600160a01b0316836001600160a01b03161415610a145760405162461bcd60e51b815260040180806020018281038252602181526020018061229b6021913960400191505060405180910390fd5b806001600160a01b0316610a26611454565b6001600160a01b03161480610a475750610a4781610a42611454565b611409565b610a825760405162461bcd60e51b81526004018080602001828103825260388152602001806120bf6038913960400191505060405180910390fd5b60008281526067602052604080822080546001600160a01b0319166001600160a01b0387811691821790925591518593918516917f8c5be1e5ebec7d5bd14f71427d1e84f3dd0314c0f7b2291e5b200ac8c7c3b92591a4505050565b609e5490565b610af5610aef611454565b82611458565b610b305760405162461bcd60e51b81526004018080602001828103825260318152602001806122bc6031913960400191505060405180910390fd5b610b3b83838361146e565b505050565b6000610b4b83610ef8565b8210610b885760405162461bcd60e51b815260040180806020018281038252602b81526020018061203e602b913960400191505060405180910390fd5b6001600160a01b0383166000908152609c60205260409020805483908110610bac57fe5b9060005260206000200154905092915050565b600054610100900460ff1680610bd85750610bd861148d565b80610be6575060005460ff16155b610c215760405162461bcd60e51b815260040180806020018281038252602e815260200180612215602e913960400191505060405180910390fd5b600054610100900460ff16158015610c4c576000805460ff1961ff0019909116610100171660011790555b61016c80546001600160a01b0319166001600160a01b038716179055610c70611493565b610c78610f60565b610c828484610cd1565b610c8b30611256565b610c9430611538565b610c9d82611581565b8015610caf576000805461ff00191690555b5050505050565b610b3b838383604051806020016040528060008152506111fe565b600054610100900460ff1680610cea5750610cea61148d565b80610cf8575060005460ff16155b610d335760405162461bcd60e51b815260040180806020018281038252602e815260200180612215602e913960400191505060405180910390fd5b600054610100900460ff16158015610d5e576000805460ff1961ff0019909116610100171660011790555b610d666115ca565b610d6f57600080fd5b8251610d829060d2906020860190611f85565b508151610d969060d3906020850190611f85565b50610da7635b5e139f60e01b6115e1565b8015610b3b576000805461ff0019169055505050565b6000610dc7610ade565b8210610e045760405162461bcd60e51b815260040180806020018281038252602c8152602001806122ed602c913960400191505060405180910390fd5b609e8281548110610e1157fe5b90600052602060002001549050919050565b6000610e35610e30611454565b6111ea565b610e705760405162461bcd60e51b815260040180806020018281038252603081526020018061214a6030913960400191505060405180910390fd5b610e7a8484611665565b610e848383611682565b5060019392505050565b6000818152606660205260408120546001600160a01b031680610ee25760405162461bcd60e51b81526004018080602001828103825260298152602001806121216029913960400191505060405180910390fd5b92915050565b61016c546001600160a01b031681565b60006001600160a01b038216610f3f5760405162461bcd60e51b815260040180806020018281038252602a8152602001806120f7602a913960400191505060405180910390fd5b6001600160a01b0382166000908152606860205260409020610ee2906116e5565b600054610100900460ff1680610f795750610f7961148d565b80610f87575060005460ff16155b610fc25760405162461bcd60e51b815260040180806020018281038252602e815260200180612215602e913960400191505060405180910390fd5b600054610100900460ff16158015610fed576000805460ff1961ff0019909116610100171660011790555b610ff56115ca565b610ffe57600080fd5b61100e63780e9d6360e01b6115e1565b8015611020576000805461ff00191690555b50565b60d38054604080516020601f60026000196101006001881615020190951694909404938401819004810282018101909252828152606093909290918301828280156109495780601f1061091e57610100808354040283529160200191610949565b61108f610e30611454565b6110ca5760405162461bcd60e51b815260040180806020018281038252603081526020018061214a6030913960400191505060405180910390fd5b61102081611581565b6110e36110de611454565b611538565b565b6110ed611454565b6001600160a01b0316826001600160a01b03161415611153576040805162461bcd60e51b815260206004820152601960248201527f4552433732313a20617070726f766520746f2063616c6c657200000000000000604482015290519081900360640190fd5b8060696000611160611454565b6001600160a01b03908116825260208083019390935260409182016000908120918716808252919093529120805460ff1916921515929092179091556111a4611454565b60408051841515815290516001600160a01b0392909216917f17307eab39ab6107e8899845ad3d59bd9653f200f220920489ca2b5937696c319181900360200190a35050565b6000610ee26101078363ffffffff6116e916565b611209848484610ae4565b61121584848484611750565b6112505760405162461bcd60e51b81526004018080602001828103825260328152602001806120696032913960400191505060405180910390fd5b50505050565b600054610100900460ff168061126f575061126f61148d565b8061127d575060005460ff16155b6112b85760405162461bcd60e51b815260040180806020018281038252602e815260200180612215602e913960400191505060405180910390fd5b600054610100900460ff161580156112e3576000805460ff1961ff0019909116610100171660011790555b6112eb6115ca565b6112f457600080fd5b6112fc6118a8565b61130557600080fd5b61130e826118ba565b8015611320576000805461ff00191690555b5050565b606061132f82611437565b61136a5760405162461bcd60e51b815260040180806020018281038252602f81526020018061226c602f913960400191505060405180910390fd5b600082815260d4602090815260409182902080548351601f6002600019610100600186161502019093169290920491820184900484028101840190945280845290918301828280156113fd5780601f106113d2576101008083540402835291602001916113fd565b820191906000526020600020905b8154815290600101906020018083116113e057829003601f168201915b50505050509050919050565b6001600160a01b03918216600090815260696020908152604080832093909416825291909152205460ff1690565b6000908152606660205260409020546001600160a01b0316151590565b3390565b5061016c546001600160a01b0390811691161490565b61147983838361195d565b6114838382611aa1565b610b3b8282611b8f565b303b1590565b600054610100900460ff16806114ac57506114ac61148d565b806114ba575060005460ff16155b6114f55760405162461bcd60e51b815260040180806020018281038252602e815260200180612215602e913960400191505060405180910390fd5b600054610100900460ff16158015611520576000805460ff1961ff0019909116610100171660011790555b611528611bcd565b61100e6380ac58cd60e01b6115e1565b61154a6101078263ffffffff611c6a16565b6040516001600160a01b038216907fe94479a9f7e1952cc78f2d6baab678adc1b772d936c6583def489e524cb6669290600090a250565b6115936101078263ffffffff611cd116565b6040516001600160a01b038216907f6ae172837ea30b801fbfcdd4108aa1d5bf8ff775444fd70256b44e6bf3dfc3f690600090a250565b60006115dc6380ac58cd60e01b61089e565b905090565b6001600160e01b03198082161415611640576040805162461bcd60e51b815260206004820152601c60248201527f4552433136353a20696e76616c696420696e7465726661636520696400000000604482015290519081900360640190fd5b6001600160e01b0319166000908152603360205260409020805460ff19166001179055565b61166f8282611d52565b6116798282611b8f565b61132081611e83565b61168b82611437565b6116c65760405162461bcd60e51b815260040180806020018281038252602c8152602001806121c7602c913960400191505060405180910390fd5b600082815260d4602090815260409091208251610b3b92840190611f85565b5490565b60006001600160a01b0382166117305760405162461bcd60e51b81526004018080602001828103825260228152602001806121f36022913960400191505060405180910390fd5b506001600160a01b03166000908152602091909152604090205460ff1690565b6000611764846001600160a01b0316611ec7565b611770575060016118a0565b6000846001600160a01b031663150b7a02611789611454565b8887876040518563ffffffff1660e01b815260040180856001600160a01b03166001600160a01b03168152602001846001600160a01b03166001600160a01b0316815260200183815260200180602001828103825283818151815260200191508051906020019080838360005b8381101561180e5781810151838201526020016117f6565b50505050905090810190601f16801561183b5780820380516001836020036101000a031916815260200191505b5095505050505050602060405180830381600087803b15801561185d57600080fd5b505af1158015611871573d6000803e3d6000fd5b505050506040513d602081101561188757600080fd5b50516001600160e01b031916630a85bd0160e11b149150505b949350505050565b60006115dc635b5e139f60e01b61089e565b600054610100900460ff16806118d357506118d361148d565b806118e1575060005460ff16155b61191c5760405162461bcd60e51b815260040180806020018281038252602e815260200180612215602e913960400191505060405180910390fd5b600054610100900460ff16158015611947576000805460ff1961ff0019909116610100171660011790555b611950826111ea565b61130e5761130e82611581565b826001600160a01b031661197082610e8e565b6001600160a01b0316146119b55760405162461bcd60e51b81526004018080602001828103825260298152602001806122436029913960400191505060405180910390fd5b6001600160a01b0382166119fa5760405162461bcd60e51b815260040180806020018281038252602481526020018061209b6024913960400191505060405180910390fd5b611a0381611ecd565b6001600160a01b0383166000908152606860205260409020611a2490611f08565b6001600160a01b0382166000908152606860205260409020611a4590611f1f565b60008181526066602052604080822080546001600160a01b0319166001600160a01b0386811691821790925591518493918716917fddf252ad1be2c89b69c2b068fc378daa952ba7f163c4a11628f55a4df523b3ef91a4505050565b6001600160a01b0382166000908152609c6020526040812054611acb90600163ffffffff611f2816565b6000838152609d6020526040902054909150808214611b66576001600160a01b0384166000908152609c60205260408120805484908110611b0857fe5b9060005260206000200154905080609c6000876001600160a01b03166001600160a01b031681526020019081526020016000208381548110611b4657fe5b6000918252602080832090910192909255918252609d9052604090208190555b6001600160a01b0384166000908152609c60205260409020805490610caf906000198301612003565b6001600160a01b039091166000908152609c602081815260408084208054868652609d84529185208290559282526001810183559183529091200155565b600054610100900460ff1680611be65750611be661148d565b80611bf4575060005460ff16155b611c2f5760405162461bcd60e51b815260040180806020018281038252602e815260200180612215602e913960400191505060405180910390fd5b600054610100900460ff16158015611c5a576000805460ff1961ff0019909116610100171660011790555b61100e6301ffc9a760e01b6115e1565b611c7482826116e9565b611caf5760405162461bcd60e51b815260040180806020018281038252602181526020018061217a6021913960400191505060405180910390fd5b6001600160a01b0316600090815260209190915260409020805460ff19169055565b611cdb82826116e9565b15611d2d576040805162461bcd60e51b815260206004820152601f60248201527f526f6c65733a206163636f756e7420616c72656164792068617320726f6c6500604482015290519081900360640190fd5b6001600160a01b0316600090815260209190915260409020805460ff19166001179055565b6001600160a01b038216611dad576040805162461bcd60e51b815260206004820181905260248201527f4552433732313a206d696e7420746f20746865207a65726f2061646472657373604482015290519081900360640190fd5b611db681611437565b15611e08576040805162461bcd60e51b815260206004820152601c60248201527f4552433732313a20746f6b656e20616c7265616479206d696e74656400000000604482015290519081900360640190fd5b600081815260666020908152604080832080546001600160a01b0319166001600160a01b038716908117909155835260689091529020611e4790611f1f565b60405181906001600160a01b038416906000907fddf252ad1be2c89b69c2b068fc378daa952ba7f163c4a11628f55a4df523b3ef908290a45050565b609e80546000838152609f60205260408120829055600182018355919091527fcfe2a20ff701a1f3e14f63bd70d6c6bc6fba8172ec6d5a505cdab3927c0a9de60155565b3b151590565b6000818152606760205260409020546001600160a01b03161561102057600090815260676020526040902080546001600160a01b0319169055565b8054611f1b90600163ffffffff611f2816565b9055565b80546001019055565b600082821115611f7f576040805162461bcd60e51b815260206004820152601e60248201527f536166654d6174683a207375627472616374696f6e206f766572666c6f770000604482015290519081900360640190fd5b50900390565b828054600181600116156101000203166002900490600052602060002090601f016020900481019282601f10611fc657805160ff1916838001178555611ff3565b82800160010185558215611ff3579182015b82811115611ff3578251825591602001919060010190611fd8565b50611fff929150612023565b5090565b815481835581811115610b3b57600083815260209020610b3b9181019083015b61095191905b80821115611fff576000815560010161202956fe455243373231456e756d657261626c653a206f776e657220696e646578206f7574206f6620626f756e64734552433732313a207472616e7366657220746f206e6f6e20455243373231526563656976657220696d706c656d656e7465724552433732313a207472616e7366657220746f20746865207a65726f20616464726573734552433732313a20617070726f76652063616c6c6572206973206e6f74206f776e6572206e6f7220617070726f76656420666f7220616c6c4552433732313a2062616c616e636520717565727920666f7220746865207a65726f20616464726573734552433732313a206f776e657220717565727920666f72206e6f6e6578697374656e7420746f6b656e4d696e746572526f6c653a2063616c6c657220646f6573206e6f74206861766520746865204d696e74657220726f6c65526f6c65733a206163636f756e7420646f6573206e6f74206861766520726f6c654552433732313a20617070726f76656420717565727920666f72206e6f6e6578697374656e7420746f6b656e4552433732314d657461646174613a2055524920736574206f66206e6f6e6578697374656e7420746f6b656e526f6c65733a206163636f756e7420697320746865207a65726f2061646472657373436f6e747261637420696e7374616e63652068617320616c7265616479206265656e20696e697469616c697a65644552433732313a207472616e73666572206f6620746f6b656e2074686174206973206e6f74206f776e4552433732314d657461646174613a2055524920717565727920666f72206e6f6e6578697374656e7420746f6b656e4552433732313a20617070726f76616c20746f2063757272656e74206f776e65724552433732313a207472616e736665722063616c6c6572206973206e6f74206f776e6572206e6f7220617070726f766564455243373231456e756d657261626c653a20676c6f62616c20696e646578206f7574206f6620626f756e6473a265627a7a72315820b43f10c57ea6763277080db7277d1caf9677f073481c25f5a0bd5db7c937b1d864736f6c634300050c0032",
  "source": "pragma solidity ^0.5.0;\n\nimport \"@openzeppelin/contracts-ethereum-package/contracts/token/ERC721/ERC721.sol\";\nimport \"@openzeppelin/contracts-ethereum-package/contracts/token/ERC721/ERC721Enumerable.sol\";\nimport \"@openzeppelin/contracts-ethereum-package/contracts/token/ERC721/ERC721Metadata.sol\";\nimport \"@openzeppelin/contracts-ethereum-package/contracts/token/ERC721/ERC721MetadataMintable.sol\";\n\n// import \"./WildcardSteward_v1.sol\";\n\ncontract ERC721Patronage_v1 is Initializable, ERC721, ERC721Enumerable, ERC721Metadata, ERC721MetadataMintable {\n    address public steward;\n\n    function setup(address _steward, string memory name, string memory symbol, address minter) public initializer {\n        steward = _steward;\n        ERC721.initialize();\n        ERC721Enumerable.initialize();\n        ERC721Metadata.initialize(name, symbol);\n                // Initialize the minter and pauser roles, and renounce them\n        ERC721MetadataMintable.initialize(address(this));\n        _removeMinter(address(this));\n        _addMinter(minter);\n    }\n\n    function _isApprovedOrOwner(address spender, uint256 tokenId) internal view returns (bool) {\n        return (\n          spender == steward \n          /*\n          // NOTE: temporarily disabling sending of the tokens independently. A protective messure since it isn't clear to users how this function should work.\n          //       Will re-add once a mechanism is agreed on by the community.\n          || ERC721._isApprovedOrOwner(spender, tokenId)\n          */\n          );\n    }\n\n    // function transferFrom(address from, address to, uint256 tokenId) public {\n    //     if (msg.sender != steward) {\n    //         WildcardSteward_v1 stewardContract = WildcardSteward_v1(steward);\n\n    //         // Calculate remaining deposit for the two addresses involved in transfer.\n    //         stewardContract._collectPatronagePatron(to);\n    //         stewardContract._collectPatronage(tokenId);\n\n    //         // Do not allow someone to transfer a token if their deposit is Zero.\n    //         require(stewardContract.deposit(to) > 0, \"Recipient needs to have a deposit.\");\n    //         require(stewardContract.deposit(from) > 0, \"Sender deposit has run out.\");\n    //     }\n\n    //     ERC721.transferFrom(from, to, tokenId);\n    // }\n}\n",
  "sourcePath": "/home/jasoons/Documents/clean-code/contracts/contracts/ERC721Patronage_v1.sol",
  "compiler": {
    "name": "solc",
    "version": "0.5.12+commit.7709ece9.Emscripten.clang"
  },
  "schemaVersion": "3.0.19",
  "updatedAt": "2020-01-02T09:57:22.915Z",
  "devdoc": {
    "methods": {
      "approve(address,uint256)": {
        "details": "Approves another address to transfer the given token ID The zero address indicates there is no approved address. There can only be one approved address per token at a given time. Can only be called by the token owner or an approved operator.",
        "params": {
          "to": "address to be approved for the given token ID",
          "tokenId": "uint256 ID of the token to be approved"
        }
      },
      "balanceOf(address)": {
        "details": "Gets the balance of the specified address.",
        "params": {
          "owner": "address to query the balance of"
        },
        "return": "uint256 representing the amount owned by the passed address"
      },
      "getApproved(uint256)": {
        "details": "Gets the approved address for a token ID, or zero if no address set Reverts if the token ID does not exist.",
        "params": {
          "tokenId": "uint256 ID of the token to query the approval of"
        },
        "return": "address currently approved for the given token ID"
      },
      "initialize()": {
        "details": "Constructor function."
      },
      "initialize(string,string)": {
        "details": "Constructor function"
      },
      "isApprovedForAll(address,address)": {
        "details": "Tells whether an operator is approved by a given owner.",
        "params": {
          "operator": "operator address which you want to query the approval of",
          "owner": "owner address which you want to query the approval of"
        },
        "return": "bool whether the given operator is approved by the given owner"
      },
      "mintWithTokenURI(address,uint256,string)": {
        "details": "Function to mint tokens.",
        "params": {
          "to": "The address that will receive the minted tokens.",
          "tokenId": "The token id to mint.",
          "tokenURI": "The token URI of the minted token."
        },
        "return": "A boolean that indicates if the operation was successful."
      },
      "name()": {
        "details": "Gets the token name.",
        "return": "string representing the token name"
      },
      "ownerOf(uint256)": {
        "details": "Gets the owner of the specified token ID.",
        "params": {
          "tokenId": "uint256 ID of the token to query the owner of"
        },
        "return": "address currently marked as the owner of the given token ID"
      },
      "safeTransferFrom(address,address,uint256)": {
        "details": "Safely transfers the ownership of a given token ID to another address If the target address is a contract, it must implement `onERC721Received`, which is called upon a safe transfer, and return the magic value `bytes4(keccak256(\"onERC721Received(address,address,uint256,bytes)\"))`; otherwise, the transfer is reverted. Requires the msg.sender to be the owner, approved, or operator",
        "params": {
          "from": "current owner of the token",
          "to": "address to receive the ownership of the given token ID",
          "tokenId": "uint256 ID of the token to be transferred"
        }
      },
      "safeTransferFrom(address,address,uint256,bytes)": {
        "details": "Safely transfers the ownership of a given token ID to another address If the target address is a contract, it must implement `onERC721Received`, which is called upon a safe transfer, and return the magic value `bytes4(keccak256(\"onERC721Received(address,address,uint256,bytes)\"))`; otherwise, the transfer is reverted. Requires the _msgSender() to be the owner, approved, or operator",
        "params": {
          "_data": "bytes data to send along with a safe transfer check",
          "from": "current owner of the token",
          "to": "address to receive the ownership of the given token ID",
          "tokenId": "uint256 ID of the token to be transferred"
        }
      },
      "setApprovalForAll(address,bool)": {
        "details": "Sets or unsets the approval of a given operator An operator is allowed to transfer all tokens of the sender on their behalf.",
        "params": {
          "approved": "representing the status of the approval to be set",
          "to": "operator address to set the approval"
        }
      },
      "supportsInterface(bytes4)": {
        "details": "See `IERC165.supportsInterface`.     * Time complexity O(1), guaranteed to always use less than 30 000 gas."
      },
      "symbol()": {
        "details": "Gets the token symbol.",
        "return": "string representing the token symbol"
      },
      "tokenByIndex(uint256)": {
        "details": "Gets the token ID at a given index of all the tokens in this contract Reverts if the index is greater or equal to the total number of tokens.",
        "params": {
          "index": "uint256 representing the index to be accessed of the tokens list"
        },
        "return": "uint256 token ID at the given index of the tokens list"
      },
      "tokenOfOwnerByIndex(address,uint256)": {
        "details": "Gets the token ID at a given index of the tokens list of the requested owner.",
        "params": {
          "index": "uint256 representing the index to be accessed of the requested tokens list",
          "owner": "address owning the tokens list to be accessed"
        },
        "return": "uint256 token ID at the given index of the tokens list owned by the requested address"
      },
      "tokenURI(uint256)": {
        "details": "Returns an URI for a given token ID. Throws if the token ID does not exist. May return an empty string.",
        "params": {
          "tokenId": "uint256 ID of the token to query"
        }
      },
      "totalSupply()": {
        "details": "Gets the total amount of tokens stored by the contract.",
        "return": "uint256 representing the total amount of tokens"
      },
      "transferFrom(address,address,uint256)": {
        "details": "Transfers the ownership of a given token ID to another address. Usage of this method is discouraged, use `safeTransferFrom` whenever possible. Requires the msg.sender to be the owner, approved, or operator.",
        "params": {
          "from": "current owner of the token",
          "to": "address to receive the ownership of the given token ID",
          "tokenId": "uint256 ID of the token to be transferred"
        }
      }
    }
  },
  "userdoc": {
    "methods": {}
  }
}