{
  "contractName": "ERC721MetadataMintable",
  "abi": [
    {
      "anonymous": false,
      "inputs": [
        {
          "indexed": true,
          "internalType": "address",
          "name": "owner",
          "type": "address"
        },
        {
          "indexed": true,
          "internalType": "address",
          "name": "approved",
          "type": "address"
        },
        {
          "indexed": true,
          "internalType": "uint256",
          "name": "tokenId",
          "type": "uint256"
        }
      ],
      "name": "Approval",
      "type": "event"
    },
    {
      "anonymous": false,
      "inputs": [
        {
          "indexed": true,
          "internalType": "address",
          "name": "owner",
          "type": "address"
        },
        {
          "indexed": true,
          "internalType": "address",
          "name": "operator",
          "type": "address"
        },
        {
          "indexed": false,
          "internalType": "bool",
          "name": "approved",
          "type": "bool"
        }
      ],
      "name": "ApprovalForAll",
      "type": "event"
    },
    {
      "anonymous": false,
      "inputs": [
        {
          "indexed": true,
          "internalType": "address",
          "name": "account",
          "type": "address"
        }
      ],
      "name": "MinterAdded",
      "type": "event"
    },
    {
      "anonymous": false,
      "inputs": [
        {
          "indexed": true,
          "internalType": "address",
          "name": "account",
          "type": "address"
        }
      ],
      "name": "MinterRemoved",
      "type": "event"
    },
    {
      "anonymous": false,
      "inputs": [
        {
          "indexed": true,
          "internalType": "address",
          "name": "from",
          "type": "address"
        },
        {
          "indexed": true,
          "internalType": "address",
          "name": "to",
          "type": "address"
        },
        {
          "indexed": true,
          "internalType": "uint256",
          "name": "tokenId",
          "type": "uint256"
        }
      ],
      "name": "Transfer",
      "type": "event"
    },
    {
      "constant": false,
      "inputs": [
        {
          "internalType": "address",
          "name": "account",
          "type": "address"
        }
      ],
      "name": "addMinter",
      "outputs": [],
      "payable": false,
      "stateMutability": "nonpayable",
      "type": "function"
    },
    {
      "constant": false,
      "inputs": [
        {
          "internalType": "address",
          "name": "to",
          "type": "address"
        },
        {
          "internalType": "uint256",
          "name": "tokenId",
          "type": "uint256"
        }
      ],
      "name": "approve",
      "outputs": [],
      "payable": false,
      "stateMutability": "nonpayable",
      "type": "function"
    },
    {
      "constant": true,
      "inputs": [
        {
          "internalType": "address",
          "name": "owner",
          "type": "address"
        }
      ],
      "name": "balanceOf",
      "outputs": [
        {
          "internalType": "uint256",
          "name": "",
          "type": "uint256"
        }
      ],
      "payable": false,
      "stateMutability": "view",
      "type": "function"
    },
    {
      "constant": true,
      "inputs": [
        {
          "internalType": "uint256",
          "name": "tokenId",
          "type": "uint256"
        }
      ],
      "name": "getApproved",
      "outputs": [
        {
          "internalType": "address",
          "name": "",
          "type": "address"
        }
      ],
      "payable": false,
      "stateMutability": "view",
      "type": "function"
    },
    {
      "constant": true,
      "inputs": [
        {
          "internalType": "address",
          "name": "owner",
          "type": "address"
        },
        {
          "internalType": "address",
          "name": "operator",
          "type": "address"
        }
      ],
      "name": "isApprovedForAll",
      "outputs": [
        {
          "internalType": "bool",
          "name": "",
          "type": "bool"
        }
      ],
      "payable": false,
      "stateMutability": "view",
      "type": "function"
    },
    {
      "constant": true,
      "inputs": [
        {
          "internalType": "address",
          "name": "account",
          "type": "address"
        }
      ],
      "name": "isMinter",
      "outputs": [
        {
          "internalType": "bool",
          "name": "",
          "type": "bool"
        }
      ],
      "payable": false,
      "stateMutability": "view",
      "type": "function"
    },
    {
      "constant": true,
      "inputs": [],
      "name": "name",
      "outputs": [
        {
          "internalType": "string",
          "name": "",
          "type": "string"
        }
      ],
      "payable": false,
      "stateMutability": "view",
      "type": "function"
    },
    {
      "constant": true,
      "inputs": [
        {
          "internalType": "uint256",
          "name": "tokenId",
          "type": "uint256"
        }
      ],
      "name": "ownerOf",
      "outputs": [
        {
          "internalType": "address",
          "name": "",
          "type": "address"
        }
      ],
      "payable": false,
      "stateMutability": "view",
      "type": "function"
    },
    {
      "constant": false,
      "inputs": [],
      "name": "renounceMinter",
      "outputs": [],
      "payable": false,
      "stateMutability": "nonpayable",
      "type": "function"
    },
    {
      "constant": false,
      "inputs": [
        {
          "internalType": "address",
          "name": "from",
          "type": "address"
        },
        {
          "internalType": "address",
          "name": "to",
          "type": "address"
        },
        {
          "internalType": "uint256",
          "name": "tokenId",
          "type": "uint256"
        }
      ],
      "name": "safeTransferFrom",
      "outputs": [],
      "payable": false,
      "stateMutability": "nonpayable",
      "type": "function"
    },
    {
      "constant": false,
      "inputs": [
        {
          "internalType": "address",
          "name": "from",
          "type": "address"
        },
        {
          "internalType": "address",
          "name": "to",
          "type": "address"
        },
        {
          "internalType": "uint256",
          "name": "tokenId",
          "type": "uint256"
        },
        {
          "internalType": "bytes",
          "name": "_data",
          "type": "bytes"
        }
      ],
      "name": "safeTransferFrom",
      "outputs": [],
      "payable": false,
      "stateMutability": "nonpayable",
      "type": "function"
    },
    {
      "constant": false,
      "inputs": [
        {
          "internalType": "address",
          "name": "to",
          "type": "address"
        },
        {
          "internalType": "bool",
          "name": "approved",
          "type": "bool"
        }
      ],
      "name": "setApprovalForAll",
      "outputs": [],
      "payable": false,
      "stateMutability": "nonpayable",
      "type": "function"
    },
    {
      "constant": true,
      "inputs": [
        {
          "internalType": "bytes4",
          "name": "interfaceId",
          "type": "bytes4"
        }
      ],
      "name": "supportsInterface",
      "outputs": [
        {
          "internalType": "bool",
          "name": "",
          "type": "bool"
        }
      ],
      "payable": false,
      "stateMutability": "view",
      "type": "function"
    },
    {
      "constant": true,
      "inputs": [],
      "name": "symbol",
      "outputs": [
        {
          "internalType": "string",
          "name": "",
          "type": "string"
        }
      ],
      "payable": false,
      "stateMutability": "view",
      "type": "function"
    },
    {
      "constant": true,
      "inputs": [
        {
          "internalType": "uint256",
          "name": "tokenId",
          "type": "uint256"
        }
      ],
      "name": "tokenURI",
      "outputs": [
        {
          "internalType": "string",
          "name": "",
          "type": "string"
        }
      ],
      "payable": false,
      "stateMutability": "view",
      "type": "function"
    },
    {
      "constant": false,
      "inputs": [
        {
          "internalType": "address",
          "name": "from",
          "type": "address"
        },
        {
          "internalType": "address",
          "name": "to",
          "type": "address"
        },
        {
          "internalType": "uint256",
          "name": "tokenId",
          "type": "uint256"
        }
      ],
      "name": "transferFrom",
      "outputs": [],
      "payable": false,
      "stateMutability": "nonpayable",
      "type": "function"
    },
    {
      "constant": false,
      "inputs": [
        {
          "internalType": "string",
          "name": "name",
          "type": "string"
        },
        {
          "internalType": "string",
          "name": "symbol",
          "type": "string"
        }
      ],
      "name": "initialize",
      "outputs": [],
      "payable": false,
      "stateMutability": "nonpayable",
      "type": "function"
    },
    {
      "constant": false,
      "inputs": [],
      "name": "initialize",
      "outputs": [],
      "payable": false,
      "stateMutability": "nonpayable",
      "type": "function"
    },
    {
      "constant": false,
      "inputs": [
        {
          "internalType": "address",
          "name": "sender",
          "type": "address"
        }
      ],
      "name": "initialize",
      "outputs": [],
      "payable": false,
      "stateMutability": "nonpayable",
      "type": "function"
    },
    {
      "constant": false,
      "inputs": [
        {
          "internalType": "address",
          "name": "to",
          "type": "address"
        },
        {
          "internalType": "uint256",
          "name": "tokenId",
          "type": "uint256"
        },
        {
          "internalType": "string",
          "name": "tokenURI",
          "type": "string"
        }
      ],
      "name": "mintWithTokenURI",
      "outputs": [
        {
          "internalType": "bool",
          "name": "",
          "type": "bool"
        }
      ],
      "payable": false,
      "stateMutability": "nonpayable",
      "type": "function"
    }
  ],
  "bytecode": "0x6080604052611e68806100136000396000f3fe608060405234801561001057600080fd5b506004361061012c5760003560e01c80638129fc1c116100ad578063aa271e1a11610071578063aa271e1a1461055f578063b88d4fde14610585578063c4d66de814610649578063c87b56dd1461066f578063e985e9c51461068c5761012c565b80638129fc1c146104f357806395d89b41146104fb578063983b2d56146105035780639865027514610529578063a22cb465146105315761012c565b806342842e0e116100f457806342842e0e146102865780634cd88b76146102bc57806350bb4e7f146103e55780636352211e1461049e57806370a08231146104bb5761012c565b806301ffc9a71461013157806306fdde031461016c578063081812fc146101e9578063095ea7b31461022257806323b872dd14610250575b600080fd5b6101586004803603602081101561014757600080fd5b50356001600160e01b0319166106ba565b604080519115158252519081900360200190f35b6101746106d9565b6040805160208082528351818301528351919283929083019185019080838360005b838110156101ae578181015183820152602001610196565b50505050905090810190601f1680156101db5780820380516001836020036101000a031916815260200191505b509250505060405180910390f35b610206600480360360208110156101ff57600080fd5b5035610770565b604080516001600160a01b039092168252519081900360200190f35b61024e6004803603604081101561023857600080fd5b506001600160a01b0381351690602001356107d2565b005b61024e6004803603606081101561026657600080fd5b506001600160a01b038135811691602081013590911690604001356108fa565b61024e6004803603606081101561029c57600080fd5b506001600160a01b03813581169160208101359091169060400135610956565b61024e600480360360408110156102d257600080fd5b810190602081018135600160201b8111156102ec57600080fd5b8201836020820111156102fe57600080fd5b803590602001918460018302840111600160201b8311171561031f57600080fd5b91908080601f0160208091040260200160405190810160405280939291908181526020018383808284376000920191909152509295949360208101935035915050600160201b81111561037157600080fd5b82018360208201111561038357600080fd5b803590602001918460018302840111600160201b831117156103a457600080fd5b91908080601f016020809104026020016040519081016040528093929190818152602001838380828437600092019190915250929550610971945050505050565b610158600480360360608110156103fb57600080fd5b6001600160a01b0382351691602081013591810190606081016040820135600160201b81111561042a57600080fd5b82018360208201111561043c57600080fd5b803590602001918460018302840111600160201b8311171561045d57600080fd5b91908080601f016020809104026020016040519081016040528093929190818152602001838380828437600092019190915250929550610a5d945050505050565b610206600480360360208110156104b457600080fd5b5035610ac8565b6104e1600480360360208110156104d157600080fd5b50356001600160a01b0316610b22565b60408051918252519081900360200190f35b61024e610b8a565b610174610c44565b61024e6004803603602081101561051957600080fd5b50356001600160a01b0316610ca5565b61024e610cf4565b61024e6004803603604081101561054757600080fd5b506001600160a01b0381351690602001351515610d06565b6101586004803603602081101561057557600080fd5b50356001600160a01b0316610e0b565b61024e6004803603608081101561059b57600080fd5b6001600160a01b03823581169260208101359091169160408201359190810190608081016060820135600160201b8111156105d557600080fd5b8201836020820111156105e757600080fd5b803590602001918460018302840111600160201b8311171561060857600080fd5b91908080601f016020809104026020016040519081016040528093929190818152602001838380828437600092019190915250929550610e1e945050505050565b61024e6004803603602081101561065f57600080fd5b50356001600160a01b0316610e7c565b6101746004803603602081101561068557600080fd5b5035610f4a565b610158600480360360408110156106a257600080fd5b506001600160a01b038135811691602001351661102f565b6001600160e01b03191660009081526033602052604090205460ff1690565b609c8054604080516020601f60026000196101006001881615020190951694909404938401819004810282018101909252828152606093909290918301828280156107655780601f1061073a57610100808354040283529160200191610765565b820191906000526020600020905b81548152906001019060200180831161074857829003601f168201915b505050505090505b90565b600061077b8261105d565b6107b65760405162461bcd60e51b815260040180806020018281038252602c815260200180611ce2602c913960400191505060405180910390fd5b506000908152606760205260409020546001600160a01b031690565b60006107dd82610ac8565b9050806001600160a01b0316836001600160a01b031614156108305760405162461bcd60e51b8152600401808060200182810382526021815260200180611de26021913960400191505060405180910390fd5b806001600160a01b031661084261107a565b6001600160a01b0316148061086357506108638161085e61107a565b61102f565b61089e5760405162461bcd60e51b8152600401808060200182810382526038815260200180611c066038913960400191505060405180910390fd5b60008281526067602052604080822080546001600160a01b0319166001600160a01b0387811691821790925591518593918516917f8c5be1e5ebec7d5bd14f71427d1e84f3dd0314c0f7b2291e5b200ac8c7c3b92591a4505050565b61090b61090561107a565b8261107e565b6109465760405162461bcd60e51b8152600401808060200182810382526031815260200180611e036031913960400191505060405180910390fd5b610951838383611122565b505050565b61095183838360405180602001604052806000815250610e1e565b600054610100900460ff168061098a575061098a611266565b80610998575060005460ff16155b6109d35760405162461bcd60e51b815260040180806020018281038252602e815260200180611d5c602e913960400191505060405180910390fd5b600054610100900460ff161580156109fe576000805460ff1961ff0019909116610100171660011790555b610a0661126c565b610a0f57600080fd5b8251610a2290609c906020860190611aeb565b508151610a3690609d906020850190611aeb565b50610a47635b5e139f60e01b611283565b8015610951576000805461ff0019169055505050565b6000610a6f610a6a61107a565b610e0b565b610aaa5760405162461bcd60e51b8152600401808060200182810382526030815260200180611c916030913960400191505060405180910390fd5b610ab48484611307565b610abe8383611438565b5060019392505050565b6000818152606660205260408120546001600160a01b031680610b1c5760405162461bcd60e51b8152600401808060200182810382526029815260200180611c686029913960400191505060405180910390fd5b92915050565b60006001600160a01b038216610b695760405162461bcd60e51b815260040180806020018281038252602a815260200180611c3e602a913960400191505060405180910390fd5b6001600160a01b0382166000908152606860205260409020610b1c9061149b565b600054610100900460ff1680610ba35750610ba3611266565b80610bb1575060005460ff16155b610bec5760405162461bcd60e51b815260040180806020018281038252602e815260200180611d5c602e913960400191505060405180910390fd5b600054610100900460ff16158015610c17576000805460ff1961ff0019909116610100171660011790555b610c1f61149f565b610c2f6380ac58cd60e01b611283565b8015610c41576000805461ff00191690555b50565b609d8054604080516020601f60026000196101006001881615020190951694909404938401819004810282018101909252828152606093909290918301828280156107655780601f1061073a57610100808354040283529160200191610765565b610cb0610a6a61107a565b610ceb5760405162461bcd60e51b8152600401808060200182810382526030815260200180611c916030913960400191505060405180910390fd5b610c418161153c565b610d04610cff61107a565b611584565b565b610d0e61107a565b6001600160a01b0316826001600160a01b03161415610d74576040805162461bcd60e51b815260206004820152601960248201527f4552433732313a20617070726f766520746f2063616c6c657200000000000000604482015290519081900360640190fd5b8060696000610d8161107a565b6001600160a01b03908116825260208083019390935260409182016000908120918716808252919093529120805460ff191692151592909217909155610dc561107a565b60408051841515815290516001600160a01b0392909216917f17307eab39ab6107e8899845ad3d59bd9653f200f220920489ca2b5937696c319181900360200190a35050565b6000610b1c60d18363ffffffff6115cc16565b610e2f610e2961107a565b8361107e565b610e6a5760405162461bcd60e51b8152600401808060200182810382526031815260200180611e036031913960400191505060405180910390fd5b610e7684848484611633565b50505050565b600054610100900460ff1680610e955750610e95611266565b80610ea3575060005460ff16155b610ede5760405162461bcd60e51b815260040180806020018281038252602e815260200180611d5c602e913960400191505060405180910390fd5b600054610100900460ff16158015610f09576000805460ff1961ff0019909116610100171660011790555b610f1161126c565b610f1a57600080fd5b610f22611685565b610f2b57600080fd5b610f3482611697565b8015610f46576000805461ff00191690555b5050565b6060610f558261105d565b610f905760405162461bcd60e51b815260040180806020018281038252602f815260200180611db3602f913960400191505060405180910390fd5b6000828152609e602090815260409182902080548351601f6002600019610100600186161502019093169290920491820184900484028101840190945280845290918301828280156110235780601f10610ff857610100808354040283529160200191611023565b820191906000526020600020905b81548152906001019060200180831161100657829003601f168201915b50505050509050919050565b6001600160a01b03918216600090815260696020908152604080832093909416825291909152205460ff1690565b6000908152606660205260409020546001600160a01b0316151590565b3390565b60006110898261105d565b6110c45760405162461bcd60e51b815260040180806020018281038252602c815260200180611bda602c913960400191505060405180910390fd5b60006110cf83610ac8565b9050806001600160a01b0316846001600160a01b0316148061110a5750836001600160a01b03166110ff84610770565b6001600160a01b0316145b8061111a575061111a818561102f565b949350505050565b826001600160a01b031661113582610ac8565b6001600160a01b03161461117a5760405162461bcd60e51b8152600401808060200182810382526029815260200180611d8a6029913960400191505060405180910390fd5b6001600160a01b0382166111bf5760405162461bcd60e51b8152600401808060200182810382526024815260200180611bb66024913960400191505060405180910390fd5b6111c88161173a565b6001600160a01b03831660009081526068602052604090206111e990611775565b6001600160a01b038216600090815260686020526040902061120a9061178c565b60008181526066602052604080822080546001600160a01b0319166001600160a01b0386811691821790925591518493918716917fddf252ad1be2c89b69c2b068fc378daa952ba7f163c4a11628f55a4df523b3ef91a4505050565b303b1590565b600061127e6380ac58cd60e01b6106ba565b905090565b6001600160e01b031980821614156112e2576040805162461bcd60e51b815260206004820152601c60248201527f4552433136353a20696e76616c696420696e7465726661636520696400000000604482015290519081900360640190fd5b6001600160e01b0319166000908152603360205260409020805460ff19166001179055565b6001600160a01b038216611362576040805162461bcd60e51b815260206004820181905260248201527f4552433732313a206d696e7420746f20746865207a65726f2061646472657373604482015290519081900360640190fd5b61136b8161105d565b156113bd576040805162461bcd60e51b815260206004820152601c60248201527f4552433732313a20746f6b656e20616c7265616479206d696e74656400000000604482015290519081900360640190fd5b600081815260666020908152604080832080546001600160a01b0319166001600160a01b0387169081179091558352606890915290206113fc9061178c565b60405181906001600160a01b038416906000907fddf252ad1be2c89b69c2b068fc378daa952ba7f163c4a11628f55a4df523b3ef908290a45050565b6114418261105d565b61147c5760405162461bcd60e51b815260040180806020018281038252602c815260200180611d0e602c913960400191505060405180910390fd5b6000828152609e60209081526040909120825161095192840190611aeb565b5490565b600054610100900460ff16806114b857506114b8611266565b806114c6575060005460ff16155b6115015760405162461bcd60e51b815260040180806020018281038252602e815260200180611d5c602e913960400191505060405180910390fd5b600054610100900460ff1615801561152c576000805460ff1961ff0019909116610100171660011790555b610c2f6301ffc9a760e01b611283565b61154d60d18263ffffffff61179516565b6040516001600160a01b038216907f6ae172837ea30b801fbfcdd4108aa1d5bf8ff775444fd70256b44e6bf3dfc3f690600090a250565b61159560d18263ffffffff61181616565b6040516001600160a01b038216907fe94479a9f7e1952cc78f2d6baab678adc1b772d936c6583def489e524cb6669290600090a250565b60006001600160a01b0382166116135760405162461bcd60e51b8152600401808060200182810382526022815260200180611d3a6022913960400191505060405180910390fd5b506001600160a01b03166000908152602091909152604090205460ff1690565b61163e848484611122565b61164a8484848461187d565b610e765760405162461bcd60e51b8152600401808060200182810382526032815260200180611b846032913960400191505060405180910390fd5b600061127e635b5e139f60e01b6106ba565b600054610100900460ff16806116b057506116b0611266565b806116be575060005460ff16155b6116f95760405162461bcd60e51b815260040180806020018281038252602e815260200180611d5c602e913960400191505060405180910390fd5b600054610100900460ff16158015611724576000805460ff1961ff0019909116610100171660011790555b61172d82610e0b565b610f3457610f348261153c565b6000818152606760205260409020546001600160a01b031615610c4157600090815260676020526040902080546001600160a01b0319169055565b805461178890600163ffffffff6119d416565b9055565b80546001019055565b61179f82826115cc565b156117f1576040805162461bcd60e51b815260206004820152601f60248201527f526f6c65733a206163636f756e7420616c72656164792068617320726f6c6500604482015290519081900360640190fd5b6001600160a01b0316600090815260209190915260409020805460ff19166001179055565b61182082826115cc565b61185b5760405162461bcd60e51b8152600401808060200182810382526021815260200180611cc16021913960400191505060405180910390fd5b6001600160a01b0316600090815260209190915260409020805460ff19169055565b6000611891846001600160a01b0316611a1d565b61189d5750600161111a565b6000846001600160a01b031663150b7a026118b661107a565b8887876040518563ffffffff1660e01b815260040180856001600160a01b03166001600160a01b03168152602001846001600160a01b03166001600160a01b0316815260200183815260200180602001828103825283818151815260200191508051906020019080838360005b8381101561193b578181015183820152602001611923565b50505050905090810190601f1680156119685780820380516001836020036101000a031916815260200191505b5095505050505050602060405180830381600087803b15801561198a57600080fd5b505af115801561199e573d6000803e3d6000fd5b505050506040513d60208110156119b457600080fd5b50516001600160e01b031916630a85bd0160e11b14915050949350505050565b6000611a1683836040518060400160405280601e81526020017f536166654d6174683a207375627472616374696f6e206f766572666c6f770000815250611a54565b9392505050565b6000813f7fc5d2460186f7233c927e7db2dcc703c0e500b653ca82273b7bfad8045d85a470811580159061111a5750141592915050565b60008184841115611ae35760405162461bcd60e51b81526004018080602001828103825283818151815260200191508051906020019080838360005b83811015611aa8578181015183820152602001611a90565b50505050905090810190601f168015611ad55780820380516001836020036101000a031916815260200191505b509250505060405180910390fd5b505050900390565b828054600181600116156101000203166002900490600052602060002090601f016020900481019282601f10611b2c57805160ff1916838001178555611b59565b82800160010185558215611b59579182015b82811115611b59578251825591602001919060010190611b3e565b50611b65929150611b69565b5090565b61076d91905b80821115611b655760008155600101611b6f56fe4552433732313a207472616e7366657220746f206e6f6e20455243373231526563656976657220696d706c656d656e7465724552433732313a207472616e7366657220746f20746865207a65726f20616464726573734552433732313a206f70657261746f7220717565727920666f72206e6f6e6578697374656e7420746f6b656e4552433732313a20617070726f76652063616c6c6572206973206e6f74206f776e6572206e6f7220617070726f76656420666f7220616c6c4552433732313a2062616c616e636520717565727920666f7220746865207a65726f20616464726573734552433732313a206f776e657220717565727920666f72206e6f6e6578697374656e7420746f6b656e4d696e746572526f6c653a2063616c6c657220646f6573206e6f74206861766520746865204d696e74657220726f6c65526f6c65733a206163636f756e7420646f6573206e6f74206861766520726f6c654552433732313a20617070726f76656420717565727920666f72206e6f6e6578697374656e7420746f6b656e4552433732314d657461646174613a2055524920736574206f66206e6f6e6578697374656e7420746f6b656e526f6c65733a206163636f756e7420697320746865207a65726f2061646472657373436f6e747261637420696e7374616e63652068617320616c7265616479206265656e20696e697469616c697a65644552433732313a207472616e73666572206f6620746f6b656e2074686174206973206e6f74206f776e4552433732314d657461646174613a2055524920717565727920666f72206e6f6e6578697374656e7420746f6b656e4552433732313a20617070726f76616c20746f2063757272656e74206f776e65724552433732313a207472616e736665722063616c6c6572206973206e6f74206f776e6572206e6f7220617070726f766564a265627a7a72315820daf7993f914c576fe1374134e61f17c2099c68f64a8807875ea5a7c7d376e9a264736f6c63430005100032",
  "source": "pragma solidity ^0.5.0;\n\nimport \"@openzeppelin/upgrades/contracts/Initializable.sol\";\nimport \"./ERC721Metadata.sol\";\nimport \"../../access/roles/MinterRole.sol\";\n\n\n/**\n * @title ERC721MetadataMintable\n * @dev ERC721 minting logic with metadata.\n */\ncontract ERC721MetadataMintable is Initializable, ERC721, ERC721Metadata, MinterRole {\n    function initialize(address sender) public initializer {\n        require(ERC721._hasBeenInitialized());\n        require(ERC721Metadata._hasBeenInitialized());\n        MinterRole.initialize(sender);\n    }\n\n    /**\n     * @dev Function to mint tokens.\n     * @param to The address that will receive the minted tokens.\n     * @param tokenId The token id to mint.\n     * @param tokenURI The token URI of the minted token.\n     * @return A boolean that indicates if the operation was successful.\n     */\n    function mintWithTokenURI(address to, uint256 tokenId, string memory tokenURI) public onlyMinter returns (bool) {\n        _mint(to, tokenId);\n        _setTokenURI(tokenId, tokenURI);\n        return true;\n    }\n\n    uint256[50] private ______gap;\n}\n",
  "sourcePath": "@openzeppelin/contracts-ethereum-package/contracts/token/ERC721/ERC721MetadataMintable.sol",
  "compiler": {
    "name": "solc",
    "version": "0.5.16+commit.9c3226ce.Emscripten.clang"
  },
  "schemaVersion": "3.0.23",
  "updatedAt": "2020-04-25T19:55:57.046Z",
  "devdoc": {
    "details": "ERC721 minting logic with metadata.",
    "methods": {
      "approve(address,uint256)": {
        "details": "Approves another address to transfer the given token ID The zero address indicates there is no approved address. There can only be one approved address per token at a given time. Can only be called by the token owner or an approved operator.",
        "params": {
          "to": "address to be approved for the given token ID",
          "tokenId": "uint256 ID of the token to be approved"
        }
      },
      "balanceOf(address)": {
        "details": "Gets the balance of the specified address.",
        "params": {
          "owner": "address to query the balance of"
        },
        "return": "uint256 representing the amount owned by the passed address"
      },
      "getApproved(uint256)": {
        "details": "Gets the approved address for a token ID, or zero if no address set Reverts if the token ID does not exist.",
        "params": {
          "tokenId": "uint256 ID of the token to query the approval of"
        },
        "return": "address currently approved for the given token ID"
      },
      "initialize(string,string)": {
        "details": "Constructor function"
      },
      "isApprovedForAll(address,address)": {
        "details": "Tells whether an operator is approved by a given owner.",
        "params": {
          "operator": "operator address which you want to query the approval of",
          "owner": "owner address which you want to query the approval of"
        },
        "return": "bool whether the given operator is approved by the given owner"
      },
      "mintWithTokenURI(address,uint256,string)": {
        "details": "Function to mint tokens.",
        "params": {
          "to": "The address that will receive the minted tokens.",
          "tokenId": "The token id to mint.",
          "tokenURI": "The token URI of the minted token."
        },
        "return": "A boolean that indicates if the operation was successful."
      },
      "name()": {
        "details": "Gets the token name.",
        "return": "string representing the token name"
      },
      "ownerOf(uint256)": {
        "details": "Gets the owner of the specified token ID.",
        "params": {
          "tokenId": "uint256 ID of the token to query the owner of"
        },
        "return": "address currently marked as the owner of the given token ID"
      },
      "safeTransferFrom(address,address,uint256)": {
        "details": "Safely transfers the ownership of a given token ID to another address If the target address is a contract, it must implement {IERC721Receiver-onERC721Received}, which is called upon a safe transfer, and return the magic value `bytes4(keccak256(\"onERC721Received(address,address,uint256,bytes)\"))`; otherwise, the transfer is reverted. Requires the msg.sender to be the owner, approved, or operator",
        "params": {
          "from": "current owner of the token",
          "to": "address to receive the ownership of the given token ID",
          "tokenId": "uint256 ID of the token to be transferred"
        }
      },
      "safeTransferFrom(address,address,uint256,bytes)": {
        "details": "Safely transfers the ownership of a given token ID to another address If the target address is a contract, it must implement {IERC721Receiver-onERC721Received}, which is called upon a safe transfer, and return the magic value `bytes4(keccak256(\"onERC721Received(address,address,uint256,bytes)\"))`; otherwise, the transfer is reverted. Requires the _msgSender() to be the owner, approved, or operator",
        "params": {
          "_data": "bytes data to send along with a safe transfer check",
          "from": "current owner of the token",
          "to": "address to receive the ownership of the given token ID",
          "tokenId": "uint256 ID of the token to be transferred"
        }
      },
      "setApprovalForAll(address,bool)": {
        "details": "Sets or unsets the approval of a given operator An operator is allowed to transfer all tokens of the sender on their behalf.",
        "params": {
          "approved": "representing the status of the approval to be set",
          "to": "operator address to set the approval"
        }
      },
      "supportsInterface(bytes4)": {
        "details": "See {IERC165-supportsInterface}.     * Time complexity O(1), guaranteed to always use less than 30 000 gas."
      },
      "symbol()": {
        "details": "Gets the token symbol.",
        "return": "string representing the token symbol"
      },
      "tokenURI(uint256)": {
        "details": "Returns an URI for a given token ID. Throws if the token ID does not exist. May return an empty string.",
        "params": {
          "tokenId": "uint256 ID of the token to query"
        }
      },
      "transferFrom(address,address,uint256)": {
        "details": "Transfers the ownership of a given token ID to another address. Usage of this method is discouraged, use {safeTransferFrom} whenever possible. Requires the msg.sender to be the owner, approved, or operator.",
        "params": {
          "from": "current owner of the token",
          "to": "address to receive the ownership of the given token ID",
          "tokenId": "uint256 ID of the token to be transferred"
        }
      }
    },
    "title": "ERC721MetadataMintable"
  },
  "userdoc": {
    "methods": {}
  }
}