{
  "contractName": "SendBlockAttacker",
  "abi": [
    {
      "payable": true,
      "stateMutability": "payable",
      "type": "fallback"
    },
    {
      "constant": false,
      "inputs": [
        {
          "internalType": "contract WildcardSteward_v2",
          "name": "stewardAddress",
          "type": "address"
        },
        {
          "internalType": "uint256",
          "name": "tokenId",
          "type": "uint256"
        },
        {
          "internalType": "uint256",
          "name": "newPrice",
          "type": "uint256"
        }
      ],
      "name": "buyOnBehalf",
      "outputs": [],
      "payable": true,
      "stateMutability": "payable",
      "type": "function"
    },
    {
      "constant": false,
      "inputs": [
        {
          "internalType": "contract WildcardSteward_v2",
          "name": "stewardAddress",
          "type": "address"
        },
        {
          "internalType": "uint256",
          "name": "amount",
          "type": "uint256"
        }
      ],
      "name": "withdrawDeposit",
      "outputs": [],
      "payable": false,
      "stateMutability": "nonpayable",
      "type": "function"
    }
  ],
  "bytecode": "0x608060405234801561001057600080fd5b506101ea806100206000396000f3fe6080604052600436106100295760003560e01c80637f07bfdc14610066578063aedcca81146100a1575b6040805162461bcd60e51b815260206004820152600d60248201526c49276d204d616c6963696f757360981b604482015290519081900360640190fd5b34801561007257600080fd5b5061009f6004803603604081101561008957600080fd5b506001600160a01b0381351690602001356100d3565b005b61009f600480360360608110156100b757600080fd5b506001600160a01b038135169060208101359060400135610149565b816001600160a01b03166333289a46826040518263ffffffff1660e01b815260040180828152602001915050602060405180830381600087803b15801561011957600080fd5b505af115801561012d573d6000803e3d6000fd5b505050506040513d602081101561014357600080fd5b50505050565b826001600160a01b031663d6febde83484846040518463ffffffff1660e01b815260040180838152602001828152602001925050506000604051808303818588803b15801561019757600080fd5b505af11580156101ab573d6000803e3d6000fd5b505050505050505056fea265627a7a72315820d8f96cce1615121fb1903d4dbafabfc0f191cb7883d147831796bcb21a180c4364736f6c63430005100032",
  "source": "pragma solidity 0.5.16;\n\nimport \"../WildcardSteward_v2.sol\";\n\ncontract SendBlockAttacker {\n    function buyOnBehalf(\n        WildcardSteward_v2 stewardAddress,\n        uint256 tokenId,\n        uint256 newPrice\n    ) public payable {\n        stewardAddress.buy.value(msg.value)(tokenId, newPrice);\n    }\n\n    function withdrawDeposit(WildcardSteward_v2 stewardAddress, uint256 amount)\n        public\n    {\n        stewardAddress.withdrawDeposit(amount);\n    }\n\n    function() external payable {\n        revert(\"I'm Malicious\");\n    }\n}\n",
  "sourcePath": "/home/jasoons/Documents/clean-code/contracts/contracts/tests/SendBlockAttacker.sol",
  "compiler": {
    "name": "solc",
    "version": "0.5.16+commit.9c3226ce.Emscripten.clang"
  },
  "schemaVersion": "3.0.23",
  "updatedAt": "2020-03-28T20:39:36.718Z",
  "devdoc": {
    "methods": {}
  },
  "userdoc": {
    "methods": {}
  }
}