{
  "contractName": "URIFixer",
  "abi": [
    {
      "constant": true,
      "inputs": [],
      "name": "metadataAdmin",
      "outputs": [
        {
          "internalType": "address",
          "name": "",
          "type": "address"
        }
      ],
      "payable": false,
      "stateMutability": "view",
      "type": "function"
    },
    {
      "constant": true,
      "inputs": [],
      "name": "steward",
      "outputs": [
        {
          "internalType": "address",
          "name": "",
          "type": "address"
        }
      ],
      "payable": false,
      "stateMutability": "view",
      "type": "function"
    },
    {
      "constant": false,
      "inputs": [
        {
          "internalType": "address",
          "name": "upgradeAdmin",
          "type": "address"
        }
      ],
      "name": "setOwner",
      "outputs": [],
      "payable": false,
      "stateMutability": "nonpayable",
      "type": "function"
    },
    {
      "constant": false,
      "inputs": [
        {
          "internalType": "uint256",
          "name": "tokenIds",
          "type": "uint256"
        },
        {
          "internalType": "string",
          "name": "newTokenUri",
          "type": "string"
        }
      ],
      "name": "updateTokenUri",
      "outputs": [],
      "payable": false,
      "stateMutability": "nonpayable",
      "type": "function"
    }
  ],
  "bytecode": "0x608060405234801561001057600080fd5b506102b8806100206000396000f3fe608060405234801561001057600080fd5b506004361061004c5760003560e01c806313af4035146100515780633292bead14610079578063637eea191461009d578063d31af484146100a5575b600080fd5b6100776004803603602081101561006757600080fd5b50356001600160a01b0316610152565b005b61008161018c565b604080516001600160a01b039092168252519081900360200190f35b61008161019c565b610077600480360360408110156100bb57600080fd5b813591908101906040810160208201356401000000008111156100dd57600080fd5b8201836020820111156100ef57600080fd5b8035906020019184600183028401116401000000008311171561011157600080fd5b91908080601f0160208091040260200160405190810160405280939291908181526020018383808284376000920191909152509295506101ac945050505050565b61016b546001600160a01b03161561016957600080fd5b61016b80546001600160a01b0319166001600160a01b0392909216919091179055565b61016b546001600160a01b031681565b61016c546001600160a01b031681565b61016b546001600160a01b031633146101c457600080fd5b600082815260d46020908152604090912082516101e3928401906101e8565b505050565b828054600181600116156101000203166002900490600052602060002090601f016020900481019282601f1061022957805160ff1916838001178555610256565b82800160010185558215610256579182015b8281111561025657825182559160200191906001019061023b565b50610262929150610266565b5090565b61028091905b80821115610262576000815560010161026c565b9056fea265627a7a7231582048a8efbf8f31842cd1d0ff2699709e29547261e3634abce0244fd0a5f04f540c64736f6c634300050c0032",
  "source": "pragma solidity ^0.5.0;\n\ncontract Initializable {\n  bool private initialized;\n  bool private initializing;\n  uint256[50] private ______gap;\n}\n\n\ncontract Context {\n}\n\ninterface IERC165 {\n}\n\ncontract IERC721 is Initializable, IERC165 {\n}\n\ncontract IERC721Receiver {\n}\n\nlibrary SafeMath {\n}\n\nlibrary Address {\n}\n\nlibrary Counters {\n    using SafeMath for uint256;\n\n    struct Counter {\n        uint256 _value;\n    }\n}\n\ncontract ERC165 is Initializable, IERC165 {\n\n    bytes4 private constant _INTERFACE_ID_ERC165 = 0x01ffc9a7;\n\n    mapping(bytes4 => bool) private _supportedInterfaces;\n\n    uint256[50] private ______gap;\n}\n\n\ncontract ERC721 is Initializable, Context, ERC165, IERC721 {\n    using SafeMath for uint256;\n    using Address for address;\n    using Counters for Counters.Counter;\n\n    bytes4 private constant _ERC721_RECEIVED = 0x150b7a02;\n\n    mapping (uint256 => address) private _tokenOwner;\n\n    mapping (uint256 => address) private _tokenApprovals;\n\n    mapping (address => Counters.Counter) private _ownedTokensCount;\n\n    mapping (address => mapping (address => bool)) private _operatorApprovals;\n\n    bytes4 private constant _INTERFACE_ID_ERC721 = 0x80ac58cd;\n\n    uint256[50] private ______gap;\n}\n\n\ncontract IERC721Enumerable is Initializable, IERC721 {\n}\n\ncontract ERC721Enumerable is Initializable, Context, ERC165, ERC721, IERC721Enumerable {\n    mapping(address => uint256[]) private _ownedTokens;\n\n    mapping(uint256 => uint256) private _ownedTokensIndex;\n\n    uint256[] private _allTokens;\n\n    mapping(uint256 => uint256) private _allTokensIndex;\n\n    bytes4 private constant _INTERFACE_ID_ERC721_ENUMERABLE = 0x780e9d63;\n\n    uint256[50] private ______gap;\n}\n\n\ncontract IERC721Metadata is Initializable, IERC721 {\n}\n\ncontract ERC721Metadata is Initializable, Context, ERC165, ERC721, IERC721Metadata {\n    string private _name;\n\n    string private _symbol;\n\n    mapping(uint256 => string) _tokenURIs;\n\n    bytes4 private constant _INTERFACE_ID_ERC721_METADATA = 0x5b5e139f;\n\n    uint256[50] private ______gap;\n}\n\nlibrary Roles {\n    struct Role {\n        mapping (address => bool) bearer;\n    }\n}\n\ncontract MinterRole is Initializable, Context {\n    using Roles for Roles.Role;\n\n    Roles.Role private _minters;\n\n    uint256[50] private ______gap;\n}\n\ncontract ERC721MetadataMintable is Initializable, ERC721, ERC721Metadata, MinterRole {\n    uint256[49] private ______gap;\n    address public metadataAdmin;\n}\n\ncontract URIFixer is Initializable, ERC721, ERC721Enumerable, ERC721Metadata, ERC721MetadataMintable {\n  address public steward;\n  // mapping(uint256 => bytes32) _tokenURInew;\n\n  function setOwner(address upgradeAdmin) public {\n    require(metadataAdmin == address(0)); // This can only be called once!\n    metadataAdmin = upgradeAdmin;\n  }\n\n  function updateTokenUri(uint256 tokenIds, string memory newTokenUri) public {\n    require(metadataAdmin == msg.sender);\n    _tokenURIs[tokenIds] = newTokenUri;\n  }\n}\n",
  "sourcePath": "/home/jasoons/Documents/clean-code/contracts/contracts/patches_and_utilities/URIFixer.sol",
  "compiler": {
    "name": "solc",
    "version": "0.5.12+commit.7709ece9.Emscripten.clang"
  },
  "schemaVersion": "3.0.19",
  "updatedAt": "2020-01-04T17:05:18.006Z",
  "networkType": "ethereum",
  "devdoc": {
    "methods": {}
  },
  "userdoc": {
    "methods": {}
  }
}