{
  "contractName": "WildcardSteward_v2",
  "abi": [
    {
      "anonymous": false,
      "inputs": [
        {
          "indexed": true,
          "internalType": "uint256",
          "name": "tokenId",
          "type": "uint256"
        },
        {
          "indexed": false,
          "internalType": "uint256",
          "name": "patronageNumerator",
          "type": "uint256"
        }
      ],
      "name": "AddToken",
      "type": "event"
    },
    {
      "anonymous": false,
      "inputs": [
        {
          "indexed": true,
          "internalType": "uint256",
          "name": "tokenId",
          "type": "uint256"
        },
        {
          "indexed": true,
          "internalType": "address",
          "name": "owner",
          "type": "address"
        },
        {
          "indexed": false,
          "internalType": "uint256",
          "name": "price",
          "type": "uint256"
        }
      ],
      "name": "Buy",
      "type": "event"
    },
    {
      "anonymous": false,
      "inputs": [
        {
          "indexed": true,
          "internalType": "uint256",
          "name": "tokenId",
          "type": "uint256"
        },
        {
          "indexed": true,
          "internalType": "address",
          "name": "patron",
          "type": "address"
        },
        {
          "indexed": false,
          "internalType": "uint256",
          "name": "remainingDeposit",
          "type": "uint256"
        },
        {
          "indexed": false,
          "internalType": "uint256",
          "name": "amountRecieved",
          "type": "uint256"
        },
        {
          "indexed": false,
          "internalType": "uint256",
          "name": "amountMinted",
          "type": "uint256"
        }
      ],
      "name": "CollectPatronageAndRecordMinting",
      "type": "event"
    },
    {
      "anonymous": false,
      "inputs": [
        {
          "indexed": true,
          "internalType": "address",
          "name": "prevOwner",
          "type": "address"
        }
      ],
      "name": "Foreclosure",
      "type": "event"
    },
    {
      "anonymous": false,
      "inputs": [
        {
          "indexed": true,
          "internalType": "uint256",
          "name": "tokenId",
          "type": "uint256"
        },
        {
          "indexed": false,
          "internalType": "uint256",
          "name": "newPrice",
          "type": "uint256"
        }
      ],
      "name": "PriceChange",
      "type": "event"
    },
    {
      "anonymous": false,
      "inputs": [
        {
          "indexed": true,
          "internalType": "address",
          "name": "tokenPatron",
          "type": "address"
        },
        {
          "indexed": false,
          "internalType": "uint256",
          "name": "remainingDeposit",
          "type": "uint256"
        }
      ],
      "name": "RemainingDepositUpdate",
      "type": "event"
    },
    {
      "constant": true,
      "inputs": [],
      "name": "admin",
      "outputs": [
        {
          "internalType": "address",
          "name": "",
          "type": "address"
        }
      ],
      "payable": false,
      "stateMutability": "view",
      "type": "function"
    },
    {
      "constant": true,
      "inputs": [],
      "name": "assetToken",
      "outputs": [
        {
          "internalType": "contract ERC721Patronage_v1",
          "name": "",
          "type": "address"
        }
      ],
      "payable": false,
      "stateMutability": "view",
      "type": "function"
    },
    {
      "constant": true,
      "inputs": [
        {
          "internalType": "address",
          "name": "",
          "type": "address"
        }
      ],
      "name": "benefactorFunds",
      "outputs": [
        {
          "internalType": "uint256",
          "name": "",
          "type": "uint256"
        }
      ],
      "payable": false,
      "stateMutability": "view",
      "type": "function"
    },
    {
      "constant": true,
      "inputs": [
        {
          "internalType": "uint256",
          "name": "",
          "type": "uint256"
        }
      ],
      "name": "benefactors",
      "outputs": [
        {
          "internalType": "address payable",
          "name": "",
          "type": "address"
        }
      ],
      "payable": false,
      "stateMutability": "view",
      "type": "function"
    },
    {
      "constant": true,
      "inputs": [
        {
          "internalType": "uint256",
          "name": "",
          "type": "uint256"
        }
      ],
      "name": "currentCollected",
      "outputs": [
        {
          "internalType": "uint256",
          "name": "",
          "type": "uint256"
        }
      ],
      "payable": false,
      "stateMutability": "view",
      "type": "function"
    },
    {
      "constant": true,
      "inputs": [
        {
          "internalType": "uint256",
          "name": "",
          "type": "uint256"
        }
      ],
      "name": "currentPatron",
      "outputs": [
        {
          "internalType": "address",
          "name": "",
          "type": "address"
        }
      ],
      "payable": false,
      "stateMutability": "view",
      "type": "function"
    },
    {
      "constant": true,
      "inputs": [
        {
          "internalType": "address",
          "name": "",
          "type": "address"
        }
      ],
      "name": "deposit",
      "outputs": [
        {
          "internalType": "uint256",
          "name": "",
          "type": "uint256"
        }
      ],
      "payable": false,
      "stateMutability": "view",
      "type": "function"
    },
    {
      "constant": true,
      "inputs": [
        {
          "internalType": "uint256",
          "name": "",
          "type": "uint256"
        }
      ],
      "name": "erc20Minter",
      "outputs": [
        {
          "internalType": "contract IERC20Mintable",
          "name": "",
          "type": "address"
        }
      ],
      "payable": false,
      "stateMutability": "view",
      "type": "function"
    },
    {
      "constant": true,
      "inputs": [],
      "name": "patronageDenominator",
      "outputs": [
        {
          "internalType": "uint256",
          "name": "",
          "type": "uint256"
        }
      ],
      "payable": false,
      "stateMutability": "view",
      "type": "function"
    },
    {
      "constant": true,
      "inputs": [
        {
          "internalType": "uint256",
          "name": "",
          "type": "uint256"
        }
      ],
      "name": "patronageNumerator",
      "outputs": [
        {
          "internalType": "uint256",
          "name": "",
          "type": "uint256"
        }
      ],
      "payable": false,
      "stateMutability": "view",
      "type": "function"
    },
    {
      "constant": true,
      "inputs": [
        {
          "internalType": "uint256",
          "name": "",
          "type": "uint256"
        },
        {
          "internalType": "address",
          "name": "",
          "type": "address"
        }
      ],
      "name": "patrons",
      "outputs": [
        {
          "internalType": "bool",
          "name": "",
          "type": "bool"
        }
      ],
      "payable": false,
      "stateMutability": "view",
      "type": "function"
    },
    {
      "constant": true,
      "inputs": [
        {
          "internalType": "uint256",
          "name": "",
          "type": "uint256"
        }
      ],
      "name": "price",
      "outputs": [
        {
          "internalType": "uint256",
          "name": "",
          "type": "uint256"
        }
      ],
      "payable": false,
      "stateMutability": "view",
      "type": "function"
    },
    {
      "constant": true,
      "inputs": [
        {
          "internalType": "uint256",
          "name": "",
          "type": "uint256"
        }
      ],
      "name": "state",
      "outputs": [
        {
          "internalType": "enum WildcardSteward_v2.StewardState",
          "name": "",
          "type": "uint8"
        }
      ],
      "payable": false,
      "stateMutability": "view",
      "type": "function"
    },
    {
      "constant": true,
      "inputs": [
        {
          "internalType": "uint256",
          "name": "",
          "type": "uint256"
        }
      ],
      "name": "timeAcquired",
      "outputs": [
        {
          "internalType": "uint256",
          "name": "",
          "type": "uint256"
        }
      ],
      "payable": false,
      "stateMutability": "view",
      "type": "function"
    },
    {
      "constant": true,
      "inputs": [
        {
          "internalType": "uint256",
          "name": "",
          "type": "uint256"
        },
        {
          "internalType": "address",
          "name": "",
          "type": "address"
        }
      ],
      "name": "timeHeld",
      "outputs": [
        {
          "internalType": "uint256",
          "name": "",
          "type": "uint256"
        }
      ],
      "payable": false,
      "stateMutability": "view",
      "type": "function"
    },
    {
      "constant": true,
      "inputs": [
        {
          "internalType": "uint256",
          "name": "",
          "type": "uint256"
        }
      ],
      "name": "timeLastCollected",
      "outputs": [
        {
          "internalType": "uint256",
          "name": "",
          "type": "uint256"
        }
      ],
      "payable": false,
      "stateMutability": "view",
      "type": "function"
    },
    {
      "constant": true,
      "inputs": [
        {
          "internalType": "address",
          "name": "",
          "type": "address"
        }
      ],
      "name": "timeLastCollectedPatron",
      "outputs": [
        {
          "internalType": "uint256",
          "name": "",
          "type": "uint256"
        }
      ],
      "payable": false,
      "stateMutability": "view",
      "type": "function"
    },
    {
      "constant": true,
      "inputs": [
        {
          "internalType": "uint256",
          "name": "",
          "type": "uint256"
        }
      ],
      "name": "tokenGenerationRate",
      "outputs": [
        {
          "internalType": "uint256",
          "name": "",
          "type": "uint256"
        }
      ],
      "payable": false,
      "stateMutability": "view",
      "type": "function"
    },
    {
      "constant": true,
      "inputs": [
        {
          "internalType": "uint256",
          "name": "",
          "type": "uint256"
        }
      ],
      "name": "totalCollected",
      "outputs": [
        {
          "internalType": "uint256",
          "name": "",
          "type": "uint256"
        }
      ],
      "payable": false,
      "stateMutability": "view",
      "type": "function"
    },
    {
      "constant": true,
      "inputs": [
        {
          "internalType": "address",
          "name": "",
          "type": "address"
        }
      ],
      "name": "totalPatronOwnedTokenCost",
      "outputs": [
        {
          "internalType": "uint256",
          "name": "",
          "type": "uint256"
        }
      ],
      "payable": false,
      "stateMutability": "view",
      "type": "function"
    },
    {
      "constant": false,
      "inputs": [
        {
          "internalType": "address",
          "name": "_assetToken",
          "type": "address"
        },
        {
          "internalType": "address",
          "name": "_admin",
          "type": "address"
        },
        {
          "internalType": "uint256",
          "name": "_patronageDenominator",
          "type": "uint256"
        }
      ],
      "name": "initialize",
      "outputs": [],
      "payable": false,
      "stateMutability": "nonpayable",
      "type": "function"
    },
    {
      "constant": false,
      "inputs": [
        {
          "internalType": "uint256[]",
          "name": "tokens",
          "type": "uint256[]"
        },
        {
          "internalType": "address payable[]",
          "name": "_benefactors",
          "type": "address[]"
        },
        {
          "internalType": "uint256[]",
          "name": "_patronageNumerator",
          "type": "uint256[]"
        },
        {
          "internalType": "uint256[]",
          "name": "_tokenGenerationRate",
          "type": "uint256[]"
        },
        {
          "internalType": "address[]",
          "name": "_receiptERC20",
          "type": "address[]"
        }
      ],
      "name": "listNewTokens",
      "outputs": [],
      "payable": false,
      "stateMutability": "nonpayable",
      "type": "function"
    },
    {
      "constant": false,
      "inputs": [
        {
          "internalType": "uint256",
          "name": "tokenId",
          "type": "uint256"
        },
        {
          "internalType": "address payable",
          "name": "_newReceivingBenefactor",
          "type": "address"
        }
      ],
      "name": "changeReceivingBenefactor",
      "outputs": [],
      "payable": false,
      "stateMutability": "nonpayable",
      "type": "function"
    },
    {
      "constant": false,
      "inputs": [
        {
          "internalType": "address",
          "name": "_admin",
          "type": "address"
        }
      ],
      "name": "changeAdmin",
      "outputs": [],
      "payable": false,
      "stateMutability": "nonpayable",
      "type": "function"
    },
    {
      "constant": false,
      "inputs": [
        {
          "internalType": "uint256",
          "name": "tokenId",
          "type": "uint256"
        },
        {
          "internalType": "address",
          "name": "_newERC",
          "type": "address"
        }
      ],
      "name": "changeERC20",
      "outputs": [],
      "payable": false,
      "stateMutability": "nonpayable",
      "type": "function"
    },
    {
      "constant": true,
      "inputs": [
        {
          "internalType": "uint256",
          "name": "tokenId",
          "type": "uint256"
        }
      ],
      "name": "patronageOwed",
      "outputs": [
        {
          "internalType": "uint256",
          "name": "patronageDue",
          "type": "uint256"
        }
      ],
      "payable": false,
      "stateMutability": "view",
      "type": "function"
    },
    {
      "constant": true,
      "inputs": [
        {
          "internalType": "uint256",
          "name": "tokenId",
          "type": "uint256"
        }
      ],
      "name": "patronageOwedWithTimestamp",
      "outputs": [
        {
          "internalType": "uint256",
          "name": "patronageDue",
          "type": "uint256"
        },
        {
          "internalType": "uint256",
          "name": "timestamp",
          "type": "uint256"
        }
      ],
      "payable": false,
      "stateMutability": "view",
      "type": "function"
    },
    {
      "constant": true,
      "inputs": [
        {
          "internalType": "address",
          "name": "tokenPatron",
          "type": "address"
        }
      ],
      "name": "patronageOwedPatron",
      "outputs": [
        {
          "internalType": "uint256",
          "name": "patronageDue",
          "type": "uint256"
        }
      ],
      "payable": false,
      "stateMutability": "view",
      "type": "function"
    },
    {
      "constant": true,
      "inputs": [
        {
          "internalType": "address",
          "name": "tokenPatron",
          "type": "address"
        }
      ],
      "name": "patronageOwedPatronWithTimestamp",
      "outputs": [
        {
          "internalType": "uint256",
          "name": "patronageDue",
          "type": "uint256"
        },
        {
          "internalType": "uint256",
          "name": "timestamp",
          "type": "uint256"
        }
      ],
      "payable": false,
      "stateMutability": "view",
      "type": "function"
    },
    {
      "constant": true,
      "inputs": [
        {
          "internalType": "address",
          "name": "tokenPatron",
          "type": "address"
        }
      ],
      "name": "foreclosedPatron",
      "outputs": [
        {
          "internalType": "bool",
          "name": "",
          "type": "bool"
        }
      ],
      "payable": false,
      "stateMutability": "view",
      "type": "function"
    },
    {
      "constant": true,
      "inputs": [
        {
          "internalType": "uint256",
          "name": "tokenId",
          "type": "uint256"
        }
      ],
      "name": "foreclosed",
      "outputs": [
        {
          "internalType": "bool",
          "name": "",
          "type": "bool"
        }
      ],
      "payable": false,
      "stateMutability": "view",
      "type": "function"
    },
    {
      "constant": true,
      "inputs": [
        {
          "internalType": "address",
          "name": "tokenPatron",
          "type": "address"
        }
      ],
      "name": "depositAbleToWithdraw",
      "outputs": [
        {
          "internalType": "uint256",
          "name": "",
          "type": "uint256"
        }
      ],
      "payable": false,
      "stateMutability": "view",
      "type": "function"
    },
    {
      "constant": true,
      "inputs": [
        {
          "internalType": "address",
          "name": "tokenPatron",
          "type": "address"
        }
      ],
      "name": "foreclosureTimePatron",
      "outputs": [
        {
          "internalType": "uint256",
          "name": "",
          "type": "uint256"
        }
      ],
      "payable": false,
      "stateMutability": "view",
      "type": "function"
    },
    {
      "constant": true,
      "inputs": [
        {
          "internalType": "uint256",
          "name": "tokenId",
          "type": "uint256"
        }
      ],
      "name": "foreclosureTime",
      "outputs": [
        {
          "internalType": "uint256",
          "name": "",
          "type": "uint256"
        }
      ],
      "payable": false,
      "stateMutability": "view",
      "type": "function"
    },
    {
      "constant": false,
      "inputs": [
        {
          "internalType": "uint256",
          "name": "tokenId",
          "type": "uint256"
        }
      ],
      "name": "_collectPatronage",
      "outputs": [],
      "payable": false,
      "stateMutability": "nonpayable",
      "type": "function"
    },
    {
      "constant": false,
      "inputs": [
        {
          "internalType": "address",
          "name": "tokenPatron",
          "type": "address"
        }
      ],
      "name": "_collectPatronagePatron",
      "outputs": [],
      "payable": false,
      "stateMutability": "nonpayable",
      "type": "function"
    },
    {
      "constant": false,
      "inputs": [],
      "name": "depositWei",
      "outputs": [],
      "payable": true,
      "stateMutability": "payable",
      "type": "function"
    },
    {
      "constant": false,
      "inputs": [
        {
          "internalType": "address",
          "name": "patron",
          "type": "address"
        }
      ],
      "name": "depositWeiPatron",
      "outputs": [],
      "payable": true,
      "stateMutability": "payable",
      "type": "function"
    },
    {
      "constant": false,
      "inputs": [
        {
          "internalType": "uint256",
          "name": "tokenId",
          "type": "uint256"
        },
        {
          "internalType": "uint256",
          "name": "_newPrice",
          "type": "uint256"
        }
      ],
      "name": "buy",
      "outputs": [],
      "payable": true,
      "stateMutability": "payable",
      "type": "function"
    },
    {
      "constant": false,
      "inputs": [
        {
          "internalType": "uint256",
          "name": "tokenId",
          "type": "uint256"
        },
        {
          "internalType": "uint256",
          "name": "_newPrice",
          "type": "uint256"
        }
      ],
      "name": "changePrice",
      "outputs": [],
      "payable": false,
      "stateMutability": "nonpayable",
      "type": "function"
    },
    {
      "constant": false,
      "inputs": [
        {
          "internalType": "uint256",
          "name": "_wei",
          "type": "uint256"
        }
      ],
      "name": "withdrawDeposit",
      "outputs": [
        {
          "internalType": "uint256",
          "name": "",
          "type": "uint256"
        }
      ],
      "payable": false,
      "stateMutability": "nonpayable",
      "type": "function"
    },
    {
      "constant": false,
      "inputs": [],
      "name": "withdrawBenefactorFunds",
      "outputs": [],
      "payable": false,
      "stateMutability": "nonpayable",
      "type": "function"
    },
    {
      "constant": false,
      "inputs": [
        {
          "internalType": "address payable",
          "name": "benefactor",
          "type": "address"
        }
      ],
      "name": "withdrawBenefactorFundsTo",
      "outputs": [],
      "payable": false,
      "stateMutability": "nonpayable",
      "type": "function"
    },
    {
      "constant": false,
      "inputs": [],
      "name": "exit",
      "outputs": [],
      "payable": false,
      "stateMutability": "nonpayable",
      "type": "function"
    }
  ],
  "bytecode": "0x608060405234801561001057600080fd5b506128d7806100206000396000f3fe6080604052600436106102675760003560e01c80638cb3c25f11610144578063d530bff9116100b6578063e4fb7aa91161007a578063e4fb7aa914610bf5578063e9fad8ee14610c28578063f340fa0114610c3d578063f851a44014610c70578063f9345df514610c85578063fb84e7ec14610cb857610267565b8063d530bff914610b18578063d6febde814610b4b578063d9d85b0714610b6e578063e1c214c614610ba1578063e2e7ec2114610bcb57610267565b8063b9af132c11610108578063b9af132c14610a1a578063b9c3c38d14610a2f578063c08f66cb14610a62578063c255dd0014610a95578063c331005214610ac8578063cad6797114610af257610267565b80638cb3c25f146109175780638cb688991461095a5780638f28397014610984578063b08d024b146109b7578063b3de019c146109ea57610267565b806326a49e37116101dd578063385320aa116101a1578063385320aa146107fd5780633adbd0fb146108125780633e4f49e61461084b5780635b2ace641461089957806366eec119146108c35780636c6863b6146108ed57610267565b806326a49e37146107135780632a9cdd7a1461073d5780632b09e013146107675780632c3db6ea146107a057806333289a46146107d357610267565b80631794bb3c1161022f5780631794bb3c146105b157806319220948146105f45780631b2527811461062d5780631e8b76ad14610669578063237b5e4f146106a75780632488a69e146106e057610267565b8063027cd9a11461026c5780630e8f274f146105245780631083f7611461056a578063128ee1611461057f57806315488b88146105a9575b600080fd5b34801561027857600080fd5b50610522600480360360a081101561028f57600080fd5b810190602081018135600160201b8111156102a957600080fd5b8201836020820111156102bb57600080fd5b803590602001918460208302840111600160201b831117156102dc57600080fd5b9190808060200260200160405190810160405280939291908181526020018383602002808284376000920191909152509295949360208101935035915050600160201b81111561032b57600080fd5b82018360208201111561033d57600080fd5b803590602001918460208302840111600160201b8311171561035e57600080fd5b9190808060200260200160405190810160405280939291908181526020018383602002808284376000920191909152509295949360208101935035915050600160201b8111156103ad57600080fd5b8201836020820111156103bf57600080fd5b803590602001918460208302840111600160201b831117156103e057600080fd5b9190808060200260200160405190810160405280939291908181526020018383602002808284376000920191909152509295949360208101935035915050600160201b81111561042f57600080fd5b82018360208201111561044157600080fd5b803590602001918460208302840111600160201b8311171561046257600080fd5b9190808060200260200160405190810160405280939291908181526020018383602002808284376000920191909152509295949360208101935035915050600160201b8111156104b157600080fd5b8201836020820111156104c357600080fd5b803590602001918460208302840111600160201b831117156104e457600080fd5b919080806020026020016040519081016040528093929190818152602001838360200280828437600092019190915250929550610ce2945050505050565b005b34801561053057600080fd5b5061054e6004803603602081101561054757600080fd5b5035610f89565b604080516001600160a01b039092168252519081900360200190f35b34801561057657600080fd5b5061054e610fa4565b34801561058b57600080fd5b5061054e600480360360208110156105a257600080fd5b5035610fb3565b610522610fce565b3480156105bd57600080fd5b50610522600480360360608110156105d457600080fd5b506001600160a01b03813581169160208101359091169060400135610fd9565b34801561060057600080fd5b506105226004803603604081101561061757600080fd5b50803590602001356001600160a01b03166110b3565b34801561063957600080fd5b506106576004803603602081101561065057600080fd5b5035611137565b60408051918252519081900360200190f35b34801561067557600080fd5b506106936004803603602081101561068c57600080fd5b5035611149565b604080519115158252519081900360200190f35b3480156106b357600080fd5b50610657600480360360408110156106ca57600080fd5b50803590602001356001600160a01b0316611173565b3480156106ec57600080fd5b506105226004803603602081101561070357600080fd5b50356001600160a01b0316611190565b34801561071f57600080fd5b506106576004803603602081101561073657600080fd5b5035611305565b34801561074957600080fd5b506106576004803603602081101561076057600080fd5b5035611317565b34801561077357600080fd5b506106936004803603604081101561078a57600080fd5b50803590602001356001600160a01b0316611397565b3480156107ac57600080fd5b50610522600480360360208110156107c357600080fd5b50356001600160a01b03166113b7565b3480156107df57600080fd5b50610657600480360360208110156107f657600080fd5b5035611471565b34801561080957600080fd5b5061052261148c565b34801561081e57600080fd5b506105226004803603604081101561083557600080fd5b50803590602001356001600160a01b0316611495565b34801561085757600080fd5b506108756004803603602081101561086e57600080fd5b5035611566565b6040518082600181111561088557fe5b60ff16815260200191505060405180910390f35b3480156108a557600080fd5b50610657600480360360208110156108bc57600080fd5b503561157b565b3480156108cf57600080fd5b50610657600480360360208110156108e657600080fd5b503561158d565b3480156108f957600080fd5b5061054e6004803603602081101561091057600080fd5b503561159f565b34801561092357600080fd5b506109416004803603602081101561093a57600080fd5b50356115ba565b6040805192835260208301919091528051918290030190f35b34801561096657600080fd5b506106576004803603602081101561097d57600080fd5b50356115cf565b34801561099057600080fd5b50610522600480360360208110156109a757600080fd5b50356001600160a01b03166115e1565b3480156109c357600080fd5b50610657600480360360208110156109da57600080fd5b50356001600160a01b031661164e565b3480156109f657600080fd5b5061052260048036036040811015610a0d57600080fd5b5080359060200135611660565b348015610a2657600080fd5b5061065761183c565b348015610a3b57600080fd5b5061065760048036036020811015610a5257600080fd5b50356001600160a01b0316611842565b348015610a6e57600080fd5b5061065760048036036020811015610a8557600080fd5b50356001600160a01b031661189a565b348015610aa157600080fd5b5061065760048036036020811015610ab857600080fd5b50356001600160a01b0316611922565b348015610ad457600080fd5b5061065760048036036020811015610aeb57600080fd5b5035611934565b61052260048036036020811015610b0857600080fd5b50356001600160a01b0316611946565b348015610b2457600080fd5b5061094160048036036020811015610b3b57600080fd5b50356001600160a01b0316611a21565b61052260048036036040811015610b6157600080fd5b5080359060200135611a2d565b348015610b7a57600080fd5b5061065760048036036020811015610b9157600080fd5b50356001600160a01b0316611d59565b348015610bad57600080fd5b5061065760048036036020811015610bc457600080fd5b5035611dc2565b348015610bd757600080fd5b5061065760048036036020811015610bee57600080fd5b5035611de3565b348015610c0157600080fd5b5061069360048036036020811015610c1857600080fd5b50356001600160a01b0316611df5565b348015610c3457600080fd5b50610522611e2c565b348015610c4957600080fd5b5061065760048036036020811015610c6057600080fd5b50356001600160a01b0316611e52565b348015610c7c57600080fd5b5061054e611e64565b348015610c9157600080fd5b5061065760048036036020811015610ca857600080fd5b50356001600160a01b0316611e73565b348015610cc457600080fd5b5061052260048036036020811015610cdb57600080fd5b5035611e85565b6044546001600160a01b03163314610d2d576040805162461bcd60e51b81526020600482015260096024820152682737ba1030b236b4b760b91b604482015290519081900360640190fd5b8351855114610d3857fe5b60005b85518160ff161015610f815760006001600160a01b0316858260ff1681518110610d6157fe5b60200260200101516001600160a01b03161415610d7a57fe5b848160ff1681518110610d8957fe5b6020026020010151603b6000888460ff1681518110610da457fe5b6020026020010151815260200190815260200160002060006101000a8154816001600160a01b0302191690836001600160a01b03160217905550600060436000888460ff1681518110610df357fe5b6020026020010151815260200190815260200160002060006101000a81548160ff02191690836001811115610e2457fe5b0217905550838160ff1681518110610e3857fe5b602002602001015160416000888460ff1681518110610e5357fe5b6020026020010151815260200190815260200160002081905550828160ff1681518110610e7c57fe5b602002602001015160456000888460ff1681518110610e9757fe5b6020026020010151815260200190815260200160002081905550818160ff1681518110610ec057fe5b602002602001015160466000888460ff1681518110610edb57fe5b6020026020010151815260200190815260200160002060006101000a8154816001600160a01b0302191690836001600160a01b03160217905550858160ff1681518110610f2457fe5b60200260200101517f210ae353ce16aa90d4e1030c30c12482a2dc45bbfed71e98267e93fb7684fa07858360ff1681518110610f5c57fe5b60200260200101516040518082815260200191505060405180910390a2600101610d3b565b505050505050565b603d602052600090815260409020546001600160a01b031681565b6034546001600160a01b031681565b603b602052600090815260409020546001600160a01b031681565b610fd733611946565b565b600054610100900460ff1680610ff25750610ff26122f7565b80611000575060005460ff16155b61103b5760405162461bcd60e51b815260040180806020018281038252602e815260200180612875602e913960400191505060405180910390fd5b600054610100900460ff16158015611066576000805460ff1961ff0019909116610100171660011790555b603480546001600160a01b038087166001600160a01b0319928316179092556044805492861692909116919091179055604282905580156110ad576000805461ff00191690555b50505050565b6044546001600160a01b031633146110fe576040805162461bcd60e51b81526020600482015260096024820152682737ba1030b236b4b760b91b604482015290519081900360640190fd5b8161110881611e85565b5060009182526046602052604090912080546001600160a01b0319166001600160a01b03909216919091179055565b60366020526000908152604090205481565b6000818152603d60205260408120546001600160a01b031661116a81611df5565b9150505b919050565b603f60209081526000928352604080842090915290825290205481565b600061119b8261189a565b90506000811180156111c557506001600160a01b0382166000908152603960205260409020548110155b15611263576001600160a01b03821660009081526038602090815260408083205460399092528220549091906112349061122790859061121b9061120f428863ffffffff6122fd16565b9063ffffffff61235a16565b9063ffffffff6123ba16565b839063ffffffff61242416565b6001600160a01b0385166000908152603860209081526040808320939093556039905290812055506112b39050565b6001600160a01b03821660009081526038602090815260408083204290556039909152902054611299908263ffffffff6122fd16565b6001600160a01b0383166000908152603960205260409020555b6001600160a01b03821660008181526039602090815260409182902054825190815291517fbece12534c1381f016e2ce4d456a6eb916094df84a7dd97faa7159f3a44a0d3c9281900390910190a25050565b60336020526000908152604090205481565b6000818152603760205260408120546113325750600061116e565b604254600083815260416020908152604080832054603790925290912054611391926301e133809261121b9283919061120f9061137690429063ffffffff6122fd16565b60008a8152603360205260409020549063ffffffff61235a16565b92915050565b603e60209081526000928352604080842090915290825290205460ff1681565b6001600160a01b0381166000908152603c6020526040902054611416576040805162461bcd60e51b81526020600482015260126024820152714e6f2066756e647320617661696c61626c6560701b604482015290519081900360640190fd5b6001600160a01b0381166000818152603c602052604080822054905181156108fc0292818181858888f19350505050158015611456573d6000803e3d6000fd5b506001600160a01b03166000908152603c6020526040812055565b60003361147d81611190565b6114868361247e565b50919050565b610fd7336113b7565b6000828152603b602052604090205482906001600160a01b03163314806114c657506044546001600160a01b031633145b611517576040805162461bcd60e51b815260206004820152601760248201527f4e6f742062656e65666163746f72206f722061646d696e000000000000000000604482015290519081900360640190fd5b506000918252603b6020908152604080842080546001600160a01b039485166001600160a01b03198216811790925593909316808552603c909252808420805493855290842092909255825255565b60436020526000908152604090205460ff1681565b60406020819052600091825290205481565b60456020526000908152604090205481565b6046602052600090815260409020546001600160a01b031681565b6000806115c683611317565b93429350915050565b60376020526000908152604090205481565b6044546001600160a01b0316331461162c576040805162461bcd60e51b81526020600482015260096024820152682737ba1030b236b4b760b91b604482015290519081900360640190fd5b604480546001600160a01b0319166001600160a01b0392909216919091179055565b60386020526000908152604090205481565b6000828152603d602052604090205482906001600160a01b031633146116ba576040805162461bcd60e51b815260206004820152600a6024820152692737ba103830ba3937b760b11b604482015290519081900360640190fd5b826116c481611e85565b60008481526043602052604081205460ff1660018111156116e157fe5b1415611721576040805162461bcd60e51b815260206004820152600a602482015269119bdc9958db1bdcd95960b21b604482015290519081900360640190fd5b82611765576040805162461bcd60e51b815260206004820152600f60248201526e496e636f727265637420507269636560881b604482015290519081900360640190fd5b6000848152604160205260409020546117e09061178990859063ffffffff61235a16565b6000868152604160209081526040808320546033909252909120546117d4916117b8919063ffffffff61235a16565b336000908152603a60205260409020549063ffffffff6122fd16565b9063ffffffff61242416565b336000908152603a602090815260408083209390935586825260338152908290208590558151858152915186927ffe6b606ca0477592b5740a0eb00c8e91570a5d0eb736abfa1a6309bd081b4a4d92908290030190a250505050565b60425481565b6042546001600160a01b0382166000908152603a60205260408120549091829161187b916301e133809161121b9163ffffffff6123ba16565b905061116a61188d8261121b86611d59565b429063ffffffff61242416565b6001600160a01b0381166000908152603860205260408120546118bf5750600061116e565b6042546001600160a01b038316600090815260386020526040902054611391916301e133809161121b919082906118fd90429063ffffffff6122fd16565b6001600160a01b0388166000908152603a60205260409020549063ffffffff61235a16565b603c6020526000908152604090205481565b60356020526000908152604090205481565b6001600160a01b0381166000908152603a60205260409020546119a2576040805162461bcd60e51b815260206004820152600f60248201526e139bc81d1bdad95b9cc81bdddb9959608a1b604482015290519081900360640190fd5b6001600160a01b0381166000908152603960205260409020546119cb903463ffffffff61242416565b6001600160a01b0382166000818152603960209081526040918290208490558151938452905191927fbece12534c1381f016e2ce4d456a6eb916094df84a7dd97faa7159f3a44a0d3c929081900390910190a250565b6000806115c68361189a565b81611a3781611e85565b33611a4181611190565b60008311611a86576040805162461bcd60e51b815260206004820152600d60248201526c5072696365206973207a65726f60981b604482015290519081900360640190fd5b6000848152603360205260409020543411611ad5576040805162461bcd60e51b815260206004820152600a60248201526909cdee840cadcdeeaced60b31b604482015290519081900360640190fd5b603454604080516331a9108f60e11b81526004810187905290516000926001600160a01b031691636352211e916024808301926020929190829003018186803b158015611b2157600080fd5b505afa158015611b35573d6000803e3d6000fd5b505050506040513d6020811015611b4b57600080fd5b50516000868152603d60205260409020549091506001600160a01b0316600160008781526043602052604090205460ff166001811115611b8757fe5b1415611c5f5760008681526033602081815260408084205460418352932054919052611bba90829063ffffffff61235a16565b6001600160a01b0383166000908152603a60205260409020541415611c1f576001600160a01b038216600090815260396020526040902054611c0390829063ffffffff61242416565b6001600160a01b03831660009081526039602052604081205590505b60405182906001600160a01b0382169083156108fc029084906000818181858888f19350505050158015611c57573d6000803e3d6000fd5b505050611cb7565b60008681526043602052604081205460ff166001811115611c7c57fe5b1415611cb7576000868152604360209081526040808320805460ff191660011790556037825280832042908190553384526038909252909120555b600086815260336020526040902054611cf790611cdb90349063ffffffff6122fd16565b336000908152603960205260409020549063ffffffff61242416565b33600081815260396020526040902091909155611d1a908790849084908961253b565b604080518681529051339188917f3b599f6217e39be59216b60e543ce0d4c7d534fe64dd9d962334924e7819894e9181900360200190a3505050505050565b600080611d658361189a565b6001600160a01b0384166000908152603960205260409020549091508110611d9157600091505061116e565b6001600160a01b038316600090815260396020526040902054611dba908263ffffffff6122fd16565b91505061116e565b6000818152603d60205260408120546001600160a01b031661116a81611842565b60416020526000908152604090205481565b6001600160a01b038116600090815260396020526040812054611e178361189a565b10611e245750600161116e565b50600061116e565b33611e3681611190565b33600090815260396020526040902054611e4f9061247e565b50565b60396020526000908152604090205481565b6044546001600160a01b031681565b603a6020526000908152604090205481565b600160008281526043602052604090205460ff166001811115611ea457fe5b1415611e4f57600081815260376020908152604080832054603d909252822054909190611ed9906001600160a01b031661189a565b6000848152603d60209081526040808320546001600160a01b031683526039909152812054919250908190831061205e576000858152603d60209081526040808320546001600160a01b0316835260398252808320546038909252822054611f8191611f5091879161121b9161120f9042906122fd565b6000888152603d60209081526040808320546001600160a01b0316835260389091529020549063ffffffff61242416565b6000878152603760209081526040808320849055603d8252808320546001600160a01b03168352603882528083208490556042548a8452604190925290912054919250612002916301e133809161121b91829061120f611fe7888d63ffffffff6122fd16565b60008e8152603360205260409020549063ffffffff61235a16565b6000878152604560205260409020549093506120289061120f838863ffffffff6122fd16565b6000878152603d60209081526040808320546001600160a01b031683526039909152812055915061205886612754565b50612185565b6042546000868152604160205260409020546120af916301e133809161121b9190829061120f612094428c63ffffffff6122fd16565b60008d8152603360205260409020549063ffffffff61235a16565b6000868152603760205260409020549092506120d290429063ffffffff6122fd16565b60008681526037602090815260408083204290819055603d8352818420546001600160a01b0316845260388352818420558883526036909152902054909150612121908363ffffffff61242416565b600086815260366020908152604080832093909355603d8152828220546001600160a01b0316825260399052205461215f908463ffffffff6122fd16565b6000868152603d60209081526040808320546001600160a01b0316835260399091529020555b6000858152603560205260409020546121a4908363ffffffff61242416565b600086815260356020908152604080832093909355603b8152828220546001600160a01b0316808352603c909152919020546121e6908463ffffffff61242416565b6001600160a01b038083166000908152603c60209081526040808320949094558982526046815283822054603d82528483205485516340c10f1960e01b815290851660048201526024810188905294519316936340c10f199360448083019491928390030190829087803b15801561225d57600080fd5b505af1158015612271573d6000803e3d6000fd5b505050506040513d602081101561228757600080fd5b50506000868152603d60209081526040808320546001600160a01b031680845260398352928190205481519081529182018690528181018590525188917fc14d303fd078a64aad9f29d0cbbaafb60c9259b1bd33b62a9810b0a0dcbeca46919081900360600190a3505050505050565b303b1590565b600082821115612354576040805162461bcd60e51b815260206004820152601e60248201527f536166654d6174683a207375627472616374696f6e206f766572666c6f770000604482015290519081900360640190fd5b50900390565b60008261236957506000611391565b8282028284828161237657fe5b04146123b35760405162461bcd60e51b81526004018080602001828103825260218152602001806128546021913960400191505060405180910390fd5b9392505050565b6000808211612410576040805162461bcd60e51b815260206004820152601a60248201527f536166654d6174683a206469766973696f6e206279207a65726f000000000000604482015290519081900360640190fd5b600082848161241b57fe5b04949350505050565b6000828201838110156123b3576040805162461bcd60e51b815260206004820152601b60248201527f536166654d6174683a206164646974696f6e206f766572666c6f770000000000604482015290519081900360640190fd5b336000908152603960205260409020548111156124d9576040805162461bcd60e51b81526020600482015260146024820152730aed2e8d0c8e4c2eed2dcce40e8dede40daeac6d60631b604482015290519081900360640190fd5b336000908152603960205260409020546124f9908263ffffffff6122fd16565b33600081815260396020526040808220939093559151909183156108fc02918491818181858888f19350505050158015612537573d6000803e3d6000fd5b5050565b6000858152604160205260409020546125849061255f90839063ffffffff61235a16565b6001600160a01b0384166000908152603a60205260409020549063ffffffff61242416565b6001600160a01b0383166000908152603a602090815260408083209390935587825260418152828220546033909152919020546125f0916125cb919063ffffffff61235a16565b6001600160a01b0385166000908152603a60205260409020549063ffffffff6122fd16565b6001600160a01b0384166000908152603a60209081526040808320939093558782528281528282205460379091529190205461266591612636919063ffffffff6122fd16565b6000878152603f602090815260408083206001600160a01b03891684529091529020549063ffffffff61242416565b6000868152603f602090815260408083206001600160a01b03808916855292528083209390935560345483516323b872dd60e01b815288831660048201528683166024820152604481018a905293519116926323b872dd92606480830193919282900301818387803b1580156126da57600080fd5b505af11580156126ee573d6000803e3d6000fd5b505050600095865250603d6020908152604080872080546001600160a01b039095166001600160a01b0319909516851790556033825280872092909255818152818620429055603e815281862092865291909152909220805460ff191660011790555050565b603454604080516331a9108f60e11b81526004810184905290516000926001600160a01b031691636352211e916024808301926020929190829003018186803b1580156127a057600080fd5b505afa1580156127b4573d6000803e3d6000fd5b505050506040513d60208110156127ca57600080fd5b50516000838152603d60205260408120549192506001600160a01b03909116906127fb90849084908490309061253b565b6000838152604360209081526040808320805460ff191690556036909152808220829055516001600160a01b038416917f291a173dc1d60343addf35bd4d31946df82daa8c496dc8acb03ea68b4db91e0f91a250505056fe536166654d6174683a206d756c7469706c69636174696f6e206f766572666c6f77436f6e747261637420696e7374616e63652068617320616c7265616479206265656e20696e697469616c697a6564a265627a7a7231582087be0b047b510a4683236534a0010ac64b2b3c820b133e366566576fb593630e64736f6c634300050c0032",
  "source": "pragma solidity ^0.5.0;\nimport \"./ERC721Patronage_v1.sol\";\nimport \"./ERC20PatronageReceipt_v1.sol\";\nimport \"./interfaces/IERC20Mintable.sol\";\n\ncontract WildcardSteward_v2 is Initializable {\n\n    /*\n    This smart contract collects patronage from current owner through a Harberger tax model and \n    takes stewardship of the asset token if the patron can't pay anymore.\n\n    Harberger Tax (COST): \n    - Asset is always on sale.\n    - You have to have a price set.\n    - Tax (Patronage) is paid to maintain ownership.\n    - Steward maints control over ERC721.\n    */\n    using SafeMath for uint256;\n\n    mapping(uint256 => uint256) public price; //in wei\n    ERC721Patronage_v1 public assetToken; // ERC721 NFT.\n\n    mapping(uint256 => uint256) public totalCollected; // all patronage ever collected\n    mapping(uint256 => uint256) public currentCollected; // amount currently collected for patron\n    mapping(uint256 => uint256) public timeLastCollected;\n    mapping(address => uint256) public timeLastCollectedPatron;\n    mapping(address => uint256) public deposit;\n    mapping(address => uint256) public totalPatronOwnedTokenCost;\n\n    mapping(uint256 => address payable) public benefactors; // non-profit benefactor\n    mapping(address => uint256) public benefactorFunds;\n\n    mapping(uint256 => address) public currentPatron; // This is different to the current token owner.\n    mapping(uint256 => mapping (address => bool)) public patrons;\n    mapping(uint256 => mapping (address => uint256)) public timeHeld;\n\n    mapping(uint256 => uint256) public timeAcquired;\n\n    // 1200% patronage\n    mapping(uint256 => uint256) public patronageNumerator;\n    uint256 public patronageDenominator;\n\n\n    enum StewardState { Foreclosed, Owned }\n    mapping(uint256 => StewardState) public state;\n\n    address public admin;\n\n    //////////////// NEW ///////////////////\n    mapping(uint256 => uint256) public tokenGenerationRate; // we can reuse the patronage denominator\n\n    // These are for every NFT, the erc20 contract we are poiting too.\n    // Note that the steward needs to have permission to call the mint function on the erc20\n    mapping(uint256 => IERC20Mintable) public erc20Minter; // set our erc20 token as default\n\n    // NOTE: This isn't really needed, and it can be calculated from the \"timeHeld\". Removed for now (or forever)\n    // mapping(uint256 => mapping (address => uint256)) public tokensGenerated;\n\n    event Buy(uint256 indexed tokenId, address indexed owner, uint256 price);\n    event PriceChange(uint256 indexed tokenId, uint256 newPrice);\n    event Foreclosure(address indexed prevOwner);\n    event RemainingDepositUpdate(address indexed tokenPatron, uint256 remainingDeposit);\n\n    event AddToken(uint256 indexed tokenId, uint256 patronageNumerator);\n    // QUESTION: should these two events be combined into one? - they only ever happen at the same time.\n    // event Collection(uint256 indexed tokenId, address indexed payedBy, uint256 collected);\n    // event ERC20Minted(uint256 indexed tokenId, address indexed reciever, uint256 amount);\n    event CollectPatronageAndRecordMinting(\n      uint256 indexed tokenId,\n      address indexed patron,\n      uint256 remainingDeposit,\n      uint256 amountRecieved,\n      uint256 amountMinted\n    );\n    // TODO add events for erc20 mints\n\n    modifier onlyPatron(uint256 tokenId) {\n        require(msg.sender == currentPatron[tokenId], \"Not patron\");\n        _;\n    }\n\n    modifier onlyAdmin() {\n        require(msg.sender == admin, \"Not admin\");\n        _;\n    }\n\n     modifier onlyReceivingBenefactorOrAdmin(uint256 tokenId) {\n        require(msg.sender == benefactors[tokenId] || msg.sender == admin, \"Not benefactor or admin\");\n        _;\n    }\n\n    modifier collectPatronage(uint256 tokenId) {\n       _collectPatronage(tokenId);\n       _;\n    }\n\n    modifier collectPatronageAddress(address tokenPatron) {\n       _collectPatronagePatron(tokenPatron);\n       _;\n    }\n\n    function initialize(address _assetToken, address _admin, uint256 _patronageDenominator) public initializer {\n        assetToken = ERC721Patronage_v1(_assetToken);\n        admin = _admin;\n        patronageDenominator = _patronageDenominator;\n    }\n\n    // TODO:: add validation that the token that is complient with the \"PatronageToken\" ERC721 interface extension somehow!\n    function listNewTokens(\n        uint256[] memory tokens, \n        address payable[] memory _benefactors, \n        uint256[] memory _patronageNumerator, \n        uint256[] memory _tokenGenerationRate, \n        address[] memory _receiptERC20\n    ) public onlyAdmin {\n        assert(tokens.length == _benefactors.length);\n        for (uint8 i = 0; i < tokens.length; ++i){\n            assert(_benefactors[i]!=address(0));\n            benefactors[tokens[i]] = _benefactors[i];\n            state[tokens[i]] = StewardState.Foreclosed;\n            patronageNumerator[tokens[i]] = _patronageNumerator[i];\n            tokenGenerationRate[tokens[i]] = _tokenGenerationRate[i]; // TODO: set these for old tokens\n            erc20Minter[tokens[i]] = IERC20Mintable(_receiptERC20[i]); // TODO: set for old tokens\n            emit AddToken(tokens[i], _patronageNumerator[i]);\n        }\n    }\n\n    function changeReceivingBenefactor(uint256 tokenId, address payable _newReceivingBenefactor)\n    public onlyReceivingBenefactorOrAdmin(tokenId) {\n        address oldBenfactor = benefactors[tokenId];\n        benefactors[tokenId] = _newReceivingBenefactor;\n        benefactorFunds[_newReceivingBenefactor] = benefactorFunds[oldBenfactor];\n        benefactorFunds[oldBenfactor] = 0;\n    }\n\n    function changeAdmin(address _admin) public onlyAdmin {\n        admin = _admin;\n    }\n\n    // This function will change which token is being minted from loyalty.\n    function changeERC20(uint256 tokenId, address _newERC) public onlyAdmin collectPatronage(tokenId){\n        erc20Minter[tokenId] = IERC20Mintable(_newERC);\n    }\n\n    /* public view functions */\n    function patronageOwed(uint256 tokenId) public view returns (uint256 patronageDue) {\n        if (timeLastCollected[tokenId] == 0) return 0;\n\n        return price[tokenId].mul(now.sub(timeLastCollected[tokenId])).mul(patronageNumerator[tokenId])\n          .div(patronageDenominator).div(365 days);\n    }\n\n    function patronageOwedWithTimestamp(uint256 tokenId) public view returns (uint256 patronageDue, uint256 timestamp) {\n        return (patronageOwed(tokenId), now);\n    }\n\n    // TODO: make a version of this function that is for patronage owed by token rather than by tokenPatron like it is now.\n    function patronageOwedPatron(address tokenPatron) public view returns (uint256 patronageDue) {\n        if (timeLastCollectedPatron[tokenPatron] == 0) return 0;\n\n        // NOTE/TODO: to cater to different patronage rates, we should include it in the `totalPatronOwnedTokenCost` (and probably rename that variable)\n        return totalPatronOwnedTokenCost[tokenPatron].mul(now.sub(timeLastCollectedPatron[tokenPatron]))\n          .div(patronageDenominator).div(365 days);\n    }\n\n    function patronageOwedPatronWithTimestamp(address tokenPatron) public view returns (uint256 patronageDue, uint256 timestamp) {\n        return (patronageOwedPatron(tokenPatron), now);\n    }\n\n    function foreclosedPatron(address tokenPatron) public view returns (bool) {\n        // returns whether it is in foreclosed state or not\n        // depending on whether deposit covers patronage due\n        // useful helper function when price should be zero, but contract doesn't reflect it yet.\n        if (patronageOwedPatron(tokenPatron) >= deposit[tokenPatron]) {\n            return true;\n        } else {\n            return false;\n        }\n    }\n\n    function foreclosed(uint256 tokenId) public view returns (bool) {\n        // returns whether it is in foreclosed state or not\n        // depending on whether deposit covers patronage due\n        // useful helper function when price should be zero, but contract doesn't reflect it yet.\n        address tokenPatron = currentPatron[tokenId];\n        return foreclosedPatron(tokenPatron);\n    }\n\n    // same function as above, basically\n    function depositAbleToWithdraw(address tokenPatron) public view returns (uint256) {\n        uint256 collection = patronageOwedPatron(tokenPatron);\n        if(collection >= deposit[tokenPatron]) {\n            return 0;\n        } else {\n            return deposit[tokenPatron].sub(collection);\n        }\n    }\n\n    /*\n    now + deposit/patronage per second \n    now + depositAbleToWithdraw/(price*nume/denom/365).\n    */\n    function foreclosureTimePatron(address tokenPatron) public view returns (uint256) {\n        // patronage per second\n        uint256 pps = totalPatronOwnedTokenCost[tokenPatron].div(patronageDenominator).div(365 days);\n        return now.add(depositAbleToWithdraw(tokenPatron).div(pps)); // zero division if price is zero.\n    }\n    function foreclosureTime(uint256 tokenId) public view returns (uint256) {\n        address tokenPatron = currentPatron[tokenId];\n        return foreclosureTimePatron(tokenPatron);\n    }\n\n    /* actions */\n    // TODO:: think of more efficient ways for recipients to collect patronage for lots of tokens at the same time.\n    function _collectPatronage(uint256 tokenId) public {\n        // determine patronage to pay\n        if (state[tokenId] == StewardState.Owned) {\n            uint256 previousTokenCollection = timeLastCollected[tokenId];\n            uint256 patronageOwedByTokenPatron = patronageOwedPatron(currentPatron[tokenId]);\n            uint256 collection;\n            uint256 amountToMint;\n\n            // should foreclose and stake stewardship\n            if (patronageOwedByTokenPatron >= deposit[currentPatron[tokenId]]) {\n                // up to when was it actually paid for?\n                uint256 newTimeLastCollected = timeLastCollectedPatron[currentPatron[tokenId]].add(((now.sub(timeLastCollectedPatron[currentPatron[tokenId]])).mul(deposit[currentPatron[tokenId]]).div(patronageOwedByTokenPatron)));\n\n                timeLastCollected[tokenId] = newTimeLastCollected;\n                timeLastCollectedPatron[currentPatron[tokenId]] = newTimeLastCollected;\n                collection = price[tokenId].mul(newTimeLastCollected.sub(previousTokenCollection)).mul(patronageNumerator[tokenId]).div(patronageDenominator).div(365 days);\n                amountToMint = (newTimeLastCollected.sub(previousTokenCollection)).mul(tokenGenerationRate[tokenId]);\n\n                deposit[currentPatron[tokenId]] = 0;\n                _foreclose(tokenId);\n            } else {\n                // just a normal collection\n                collection = price[tokenId].mul(now.sub(previousTokenCollection)).mul(patronageNumerator[tokenId]).div(patronageDenominator).div(365 days);\n                amountToMint = now.sub(timeLastCollected[tokenId]);\n                timeLastCollected[tokenId] = now;\n                timeLastCollectedPatron[currentPatron[tokenId]] = now;\n                currentCollected[tokenId] = currentCollected[tokenId].add(collection);\n                deposit[currentPatron[tokenId]] = deposit[currentPatron[tokenId]].sub(patronageOwedByTokenPatron);\n            }\n            totalCollected[tokenId] = totalCollected[tokenId].add(collection);\n            address benefactor = benefactors[tokenId];\n            benefactorFunds[benefactor] = benefactorFunds[benefactor].add(collection);\n            erc20Minter[tokenId].mint(currentPatron[tokenId], amountToMint);\n            // tokensGenerated[tokenId][currentPatron[tokenId]] = tokensGenerated[tokenId][currentPatron[tokenId]].add(amountToMint);\n            emit CollectPatronageAndRecordMinting(tokenId, currentPatron[tokenId], deposit[currentPatron[tokenId]], collection, amountToMint);\n        }\n    }\n\n    // This does accounting without transfering any tokens\n    function _collectPatronagePatron(address tokenPatron) public {\n        uint256 patronageOwedByTokenPatron = patronageOwedPatron(tokenPatron);\n        if (patronageOwedByTokenPatron > 0 && patronageOwedByTokenPatron >= deposit[tokenPatron]) {\n            uint256 previousCollectionTime = timeLastCollectedPatron[tokenPatron];\n            // up to when was it actually paid for?\n            uint256 newTimeLastCollected = previousCollectionTime.add(((now.sub(previousCollectionTime)).mul(deposit[tokenPatron]).div(patronageOwedByTokenPatron)));\n            timeLastCollectedPatron[tokenPatron] = newTimeLastCollected;\n            deposit[tokenPatron] = 0;\n        } else  {\n            timeLastCollectedPatron[tokenPatron] = now;\n            deposit[tokenPatron] = deposit[tokenPatron].sub(patronageOwedByTokenPatron);\n        }\n\n        emit RemainingDepositUpdate(tokenPatron, deposit[tokenPatron]);\n    }\n\n\n\n    // note: anyone can deposit\n    function depositWei() public payable {\n      depositWeiPatron(msg.sender);\n    }\n    function depositWeiPatron(address patron) public payable {\n        require(totalPatronOwnedTokenCost[patron] > 0, \"No tokens owned\");\n        deposit[patron] = deposit[patron].add(msg.value);\n        emit RemainingDepositUpdate(patron, deposit[patron]);\n    }\n\n    function buy(uint256 tokenId, uint256 _newPrice) public payable collectPatronage(tokenId) collectPatronageAddress(msg.sender) {\n        require(_newPrice > 0, \"Price is zero\");\n        require(msg.value > price[tokenId], \"Not enough\"); // >, coz need to have at least something for deposit\n        address currentOwner = assetToken.ownerOf(tokenId);\n        address tokenPatron = currentPatron[tokenId];\n\n        if (state[tokenId] == StewardState.Owned) {\n            uint256 totalToPayBack = price[tokenId];\n            // NOTE: pay back the deposit only if it is the only token the patron owns.\n            if(totalPatronOwnedTokenCost[tokenPatron] == price[tokenId].mul(patronageNumerator[tokenId])) {\n                totalToPayBack = totalToPayBack.add(deposit[tokenPatron]);\n                deposit[tokenPatron] = 0;\n            }\n\n            // pay previous owner their price + deposit back.\n            address payable payableCurrentPatron = address(uint160(tokenPatron));\n            payableCurrentPatron.transfer(totalToPayBack);\n        } else if(state[tokenId] == StewardState.Foreclosed) {\n            state[tokenId] = StewardState.Owned;\n            timeLastCollected[tokenId] = now;\n            timeLastCollectedPatron[msg.sender] = now;\n        }\n\n        deposit[msg.sender] = deposit[msg.sender].add(msg.value.sub(price[tokenId]));\n        transferAssetTokenTo(tokenId, currentOwner, tokenPatron, msg.sender, _newPrice);\n        emit Buy(tokenId, msg.sender, _newPrice);\n    }\n\n    function changePrice(uint256 tokenId, uint256 _newPrice) public onlyPatron(tokenId) collectPatronage(tokenId) {\n        require(state[tokenId] != StewardState.Foreclosed, \"Foreclosed\");\n        require(_newPrice != 0, \"Incorrect Price\");\n\n        totalPatronOwnedTokenCost[msg.sender] = totalPatronOwnedTokenCost[msg.sender]\n          .sub(price[tokenId].mul(patronageNumerator[tokenId]))\n          .add(_newPrice.mul(patronageNumerator[tokenId]));\n\n        price[tokenId] = _newPrice;\n        emit PriceChange(tokenId, price[tokenId]);\n    }\n\n    function withdrawDeposit(uint256 _wei) public collectPatronageAddress(msg.sender) returns (uint256) {\n        _withdrawDeposit(_wei);\n    }\n\n    function withdrawBenefactorFunds() public {\n        withdrawBenefactorFundsTo(msg.sender);\n    }\n\n    function withdrawBenefactorFundsTo(address payable benefactor) public {\n        require(benefactorFunds[benefactor] > 0, \"No funds available\");\n        benefactor.transfer(benefactorFunds[benefactor]);\n        benefactorFunds[benefactor] = 0;\n    }\n\n    function exit() public collectPatronageAddress(msg.sender) {\n        _withdrawDeposit(deposit[msg.sender]);\n    }\n\n    /* internal */\n    function _withdrawDeposit(uint256 _wei) internal {\n        // note: can withdraw whole deposit, which puts it in immediate to be foreclosed state.\n        require(deposit[msg.sender] >= _wei, 'Withdrawing too much');\n\n        deposit[msg.sender] = deposit[msg.sender].sub(_wei);\n        msg.sender.transfer(_wei); // msg.sender == patron\n    }\n\n    function _foreclose(uint256 tokenId) internal {\n        // become steward of assetToken (aka foreclose)\n        address currentOwner = assetToken.ownerOf(tokenId);\n        address tokenPatron = currentPatron[tokenId];\n        transferAssetTokenTo(tokenId, currentOwner, tokenPatron, address(this), 0);\n        state[tokenId] = StewardState.Foreclosed;\n        currentCollected[tokenId] = 0;\n\n        emit Foreclosure(currentOwner);\n    }\n\n\n    function transferAssetTokenTo(uint256 tokenId, address _currentOwner, address _currentPatron, address _newOwner, uint256 _newPrice) internal {\n        // TODO: add the patronage rate as a multiplier here: https://github.com/wild-cards/contracts/issues/7\n        totalPatronOwnedTokenCost[_newOwner] = totalPatronOwnedTokenCost[_newOwner].add(_newPrice.mul(patronageNumerator[tokenId]));\n        totalPatronOwnedTokenCost[_currentPatron] = totalPatronOwnedTokenCost[_currentPatron].sub(price[tokenId].mul(patronageNumerator[tokenId]));\n\n        // note: it would also tabulate time held in stewardship by smart contract\n        timeHeld[tokenId][_currentPatron] = timeHeld[tokenId][_currentPatron].add((timeLastCollected[tokenId].sub(timeAcquired[tokenId])));\n        assetToken.transferFrom(_currentOwner, _newOwner, tokenId);\n        currentPatron[tokenId] = _newOwner;\n\n        price[tokenId] = _newPrice;\n        timeAcquired[tokenId] = now;\n        patrons[tokenId][_newOwner] = true;\n    }\n}\n",
  "sourcePath": "/home/jasoons/Documents/clean-code/contracts/contracts/WildcardSteward_v2.sol",
  "compiler": {
    "name": "solc",
    "version": "0.5.12+commit.7709ece9.Emscripten.clang"
  },
  "schemaVersion": "3.0.19",
  "updatedAt": "2020-01-02T09:57:23.045Z",
  "devdoc": {
    "methods": {}
  },
  "userdoc": {
    "methods": {}
  }
}