{
  "contractName": "WildcardSteward_v1",
  "abi": [
    {
      "anonymous": false,
      "inputs": [
        {
          "indexed": true,
          "internalType": "uint256",
          "name": "tokenId",
          "type": "uint256"
        },
        {
          "indexed": false,
          "internalType": "uint256",
          "name": "patronageNumerator",
          "type": "uint256"
        }
      ],
      "name": "AddToken",
      "type": "event"
    },
    {
      "anonymous": false,
      "inputs": [
        {
          "indexed": true,
          "internalType": "uint256",
          "name": "tokenId",
          "type": "uint256"
        },
        {
          "indexed": true,
          "internalType": "address",
          "name": "owner",
          "type": "address"
        },
        {
          "indexed": false,
          "internalType": "uint256",
          "name": "price",
          "type": "uint256"
        }
      ],
      "name": "Buy",
      "type": "event"
    },
    {
      "anonymous": false,
      "inputs": [
        {
          "indexed": true,
          "internalType": "uint256",
          "name": "tokenId",
          "type": "uint256"
        },
        {
          "indexed": true,
          "internalType": "address",
          "name": "patron",
          "type": "address"
        },
        {
          "indexed": false,
          "internalType": "uint256",
          "name": "remainingDeposit",
          "type": "uint256"
        },
        {
          "indexed": false,
          "internalType": "uint256",
          "name": "amountReceived",
          "type": "uint256"
        }
      ],
      "name": "CollectPatronage",
      "type": "event"
    },
    {
      "anonymous": false,
      "inputs": [
        {
          "indexed": true,
          "internalType": "address",
          "name": "prevOwner",
          "type": "address"
        }
      ],
      "name": "Foreclosure",
      "type": "event"
    },
    {
      "anonymous": false,
      "inputs": [
        {
          "indexed": true,
          "internalType": "uint256",
          "name": "tokenId",
          "type": "uint256"
        },
        {
          "indexed": false,
          "internalType": "uint256",
          "name": "newPrice",
          "type": "uint256"
        }
      ],
      "name": "PriceChange",
      "type": "event"
    },
    {
      "anonymous": false,
      "inputs": [
        {
          "indexed": true,
          "internalType": "address",
          "name": "tokenPatron",
          "type": "address"
        },
        {
          "indexed": false,
          "internalType": "uint256",
          "name": "remainingDeposit",
          "type": "uint256"
        }
      ],
      "name": "RemainingDepositUpdate",
      "type": "event"
    },
    {
      "constant": true,
      "inputs": [],
      "name": "admin",
      "outputs": [
        {
          "internalType": "address",
          "name": "",
          "type": "address"
        }
      ],
      "payable": false,
      "stateMutability": "view",
      "type": "function"
    },
    {
      "constant": true,
      "inputs": [],
      "name": "assetToken",
      "outputs": [
        {
          "internalType": "contract ERC721Patronage_v1",
          "name": "",
          "type": "address"
        }
      ],
      "payable": false,
      "stateMutability": "view",
      "type": "function"
    },
    {
      "constant": true,
      "inputs": [
        {
          "internalType": "address",
          "name": "",
          "type": "address"
        }
      ],
      "name": "benefactorFunds",
      "outputs": [
        {
          "internalType": "uint256",
          "name": "",
          "type": "uint256"
        }
      ],
      "payable": false,
      "stateMutability": "view",
      "type": "function"
    },
    {
      "constant": true,
      "inputs": [
        {
          "internalType": "uint256",
          "name": "",
          "type": "uint256"
        }
      ],
      "name": "benefactors",
      "outputs": [
        {
          "internalType": "address payable",
          "name": "",
          "type": "address"
        }
      ],
      "payable": false,
      "stateMutability": "view",
      "type": "function"
    },
    {
      "constant": true,
      "inputs": [
        {
          "internalType": "uint256",
          "name": "",
          "type": "uint256"
        }
      ],
      "name": "currentCollected",
      "outputs": [
        {
          "internalType": "uint256",
          "name": "",
          "type": "uint256"
        }
      ],
      "payable": false,
      "stateMutability": "view",
      "type": "function"
    },
    {
      "constant": true,
      "inputs": [
        {
          "internalType": "uint256",
          "name": "",
          "type": "uint256"
        }
      ],
      "name": "currentPatron",
      "outputs": [
        {
          "internalType": "address",
          "name": "",
          "type": "address"
        }
      ],
      "payable": false,
      "stateMutability": "view",
      "type": "function"
    },
    {
      "constant": true,
      "inputs": [
        {
          "internalType": "address",
          "name": "",
          "type": "address"
        }
      ],
      "name": "deposit",
      "outputs": [
        {
          "internalType": "uint256",
          "name": "",
          "type": "uint256"
        }
      ],
      "payable": false,
      "stateMutability": "view",
      "type": "function"
    },
    {
      "constant": true,
      "inputs": [],
      "name": "patronageDenominator",
      "outputs": [
        {
          "internalType": "uint256",
          "name": "",
          "type": "uint256"
        }
      ],
      "payable": false,
      "stateMutability": "view",
      "type": "function"
    },
    {
      "constant": true,
      "inputs": [
        {
          "internalType": "uint256",
          "name": "",
          "type": "uint256"
        }
      ],
      "name": "patronageNumerator",
      "outputs": [
        {
          "internalType": "uint256",
          "name": "",
          "type": "uint256"
        }
      ],
      "payable": false,
      "stateMutability": "view",
      "type": "function"
    },
    {
      "constant": true,
      "inputs": [
        {
          "internalType": "uint256",
          "name": "",
          "type": "uint256"
        },
        {
          "internalType": "address",
          "name": "",
          "type": "address"
        }
      ],
      "name": "patrons",
      "outputs": [
        {
          "internalType": "bool",
          "name": "",
          "type": "bool"
        }
      ],
      "payable": false,
      "stateMutability": "view",
      "type": "function"
    },
    {
      "constant": true,
      "inputs": [
        {
          "internalType": "uint256",
          "name": "",
          "type": "uint256"
        }
      ],
      "name": "price",
      "outputs": [
        {
          "internalType": "uint256",
          "name": "",
          "type": "uint256"
        }
      ],
      "payable": false,
      "stateMutability": "view",
      "type": "function"
    },
    {
      "constant": true,
      "inputs": [
        {
          "internalType": "uint256",
          "name": "",
          "type": "uint256"
        }
      ],
      "name": "state",
      "outputs": [
        {
          "internalType": "enum WildcardSteward_v1.StewardState",
          "name": "",
          "type": "uint8"
        }
      ],
      "payable": false,
      "stateMutability": "view",
      "type": "function"
    },
    {
      "constant": true,
      "inputs": [
        {
          "internalType": "uint256",
          "name": "",
          "type": "uint256"
        }
      ],
      "name": "timeAcquired",
      "outputs": [
        {
          "internalType": "uint256",
          "name": "",
          "type": "uint256"
        }
      ],
      "payable": false,
      "stateMutability": "view",
      "type": "function"
    },
    {
      "constant": true,
      "inputs": [
        {
          "internalType": "uint256",
          "name": "",
          "type": "uint256"
        },
        {
          "internalType": "address",
          "name": "",
          "type": "address"
        }
      ],
      "name": "timeHeld",
      "outputs": [
        {
          "internalType": "uint256",
          "name": "",
          "type": "uint256"
        }
      ],
      "payable": false,
      "stateMutability": "view",
      "type": "function"
    },
    {
      "constant": true,
      "inputs": [
        {
          "internalType": "uint256",
          "name": "",
          "type": "uint256"
        }
      ],
      "name": "timeLastCollected",
      "outputs": [
        {
          "internalType": "uint256",
          "name": "",
          "type": "uint256"
        }
      ],
      "payable": false,
      "stateMutability": "view",
      "type": "function"
    },
    {
      "constant": true,
      "inputs": [
        {
          "internalType": "address",
          "name": "",
          "type": "address"
        }
      ],
      "name": "timeLastCollectedPatron",
      "outputs": [
        {
          "internalType": "uint256",
          "name": "",
          "type": "uint256"
        }
      ],
      "payable": false,
      "stateMutability": "view",
      "type": "function"
    },
    {
      "constant": true,
      "inputs": [
        {
          "internalType": "uint256",
          "name": "",
          "type": "uint256"
        }
      ],
      "name": "totalCollected",
      "outputs": [
        {
          "internalType": "uint256",
          "name": "",
          "type": "uint256"
        }
      ],
      "payable": false,
      "stateMutability": "view",
      "type": "function"
    },
    {
      "constant": true,
      "inputs": [
        {
          "internalType": "address",
          "name": "",
          "type": "address"
        }
      ],
      "name": "totalPatronOwnedTokenCost",
      "outputs": [
        {
          "internalType": "uint256",
          "name": "",
          "type": "uint256"
        }
      ],
      "payable": false,
      "stateMutability": "view",
      "type": "function"
    },
    {
      "constant": false,
      "inputs": [
        {
          "internalType": "address",
          "name": "_assetToken",
          "type": "address"
        },
        {
          "internalType": "address",
          "name": "_admin",
          "type": "address"
        },
        {
          "internalType": "uint256",
          "name": "_patronageDenominator",
          "type": "uint256"
        }
      ],
      "name": "initialize",
      "outputs": [],
      "payable": false,
      "stateMutability": "nonpayable",
      "type": "function"
    },
    {
      "constant": false,
      "inputs": [
        {
          "internalType": "uint256[]",
          "name": "tokens",
          "type": "uint256[]"
        },
        {
          "internalType": "address payable[]",
          "name": "_benefactors",
          "type": "address[]"
        },
        {
          "internalType": "uint256[]",
          "name": "_patronageNumerator",
          "type": "uint256[]"
        }
      ],
      "name": "listNewTokens",
      "outputs": [],
      "payable": false,
      "stateMutability": "nonpayable",
      "type": "function"
    },
    {
      "constant": false,
      "inputs": [
        {
          "internalType": "uint256",
          "name": "tokenId",
          "type": "uint256"
        },
        {
          "internalType": "address payable",
          "name": "_newReceivingBenefactor",
          "type": "address"
        }
      ],
      "name": "changeReceivingBenefactor",
      "outputs": [],
      "payable": false,
      "stateMutability": "nonpayable",
      "type": "function"
    },
    {
      "constant": false,
      "inputs": [
        {
          "internalType": "address",
          "name": "_admin",
          "type": "address"
        }
      ],
      "name": "changeAdmin",
      "outputs": [],
      "payable": false,
      "stateMutability": "nonpayable",
      "type": "function"
    },
    {
      "constant": true,
      "inputs": [
        {
          "internalType": "uint256",
          "name": "tokenId",
          "type": "uint256"
        }
      ],
      "name": "patronageOwed",
      "outputs": [
        {
          "internalType": "uint256",
          "name": "patronageDue",
          "type": "uint256"
        }
      ],
      "payable": false,
      "stateMutability": "view",
      "type": "function"
    },
    {
      "constant": true,
      "inputs": [
        {
          "internalType": "uint256",
          "name": "tokenId",
          "type": "uint256"
        }
      ],
      "name": "patronageOwedWithTimestamp",
      "outputs": [
        {
          "internalType": "uint256",
          "name": "patronageDue",
          "type": "uint256"
        },
        {
          "internalType": "uint256",
          "name": "timestamp",
          "type": "uint256"
        }
      ],
      "payable": false,
      "stateMutability": "view",
      "type": "function"
    },
    {
      "constant": true,
      "inputs": [
        {
          "internalType": "address",
          "name": "tokenPatron",
          "type": "address"
        }
      ],
      "name": "patronageOwedPatron",
      "outputs": [
        {
          "internalType": "uint256",
          "name": "patronageDue",
          "type": "uint256"
        }
      ],
      "payable": false,
      "stateMutability": "view",
      "type": "function"
    },
    {
      "constant": true,
      "inputs": [
        {
          "internalType": "address",
          "name": "tokenPatron",
          "type": "address"
        }
      ],
      "name": "patronageOwedPatronWithTimestamp",
      "outputs": [
        {
          "internalType": "uint256",
          "name": "patronageDue",
          "type": "uint256"
        },
        {
          "internalType": "uint256",
          "name": "timestamp",
          "type": "uint256"
        }
      ],
      "payable": false,
      "stateMutability": "view",
      "type": "function"
    },
    {
      "constant": true,
      "inputs": [
        {
          "internalType": "address",
          "name": "tokenPatron",
          "type": "address"
        }
      ],
      "name": "foreclosedPatron",
      "outputs": [
        {
          "internalType": "bool",
          "name": "",
          "type": "bool"
        }
      ],
      "payable": false,
      "stateMutability": "view",
      "type": "function"
    },
    {
      "constant": true,
      "inputs": [
        {
          "internalType": "uint256",
          "name": "tokenId",
          "type": "uint256"
        }
      ],
      "name": "foreclosed",
      "outputs": [
        {
          "internalType": "bool",
          "name": "",
          "type": "bool"
        }
      ],
      "payable": false,
      "stateMutability": "view",
      "type": "function"
    },
    {
      "constant": true,
      "inputs": [
        {
          "internalType": "address",
          "name": "tokenPatron",
          "type": "address"
        }
      ],
      "name": "depositAbleToWithdraw",
      "outputs": [
        {
          "internalType": "uint256",
          "name": "",
          "type": "uint256"
        }
      ],
      "payable": false,
      "stateMutability": "view",
      "type": "function"
    },
    {
      "constant": true,
      "inputs": [
        {
          "internalType": "address",
          "name": "tokenPatron",
          "type": "address"
        }
      ],
      "name": "foreclosureTimePatron",
      "outputs": [
        {
          "internalType": "uint256",
          "name": "",
          "type": "uint256"
        }
      ],
      "payable": false,
      "stateMutability": "view",
      "type": "function"
    },
    {
      "constant": true,
      "inputs": [
        {
          "internalType": "uint256",
          "name": "tokenId",
          "type": "uint256"
        }
      ],
      "name": "foreclosureTime",
      "outputs": [
        {
          "internalType": "uint256",
          "name": "",
          "type": "uint256"
        }
      ],
      "payable": false,
      "stateMutability": "view",
      "type": "function"
    },
    {
      "constant": false,
      "inputs": [
        {
          "internalType": "uint256",
          "name": "tokenId",
          "type": "uint256"
        }
      ],
      "name": "_collectPatronage",
      "outputs": [],
      "payable": false,
      "stateMutability": "nonpayable",
      "type": "function"
    },
    {
      "constant": false,
      "inputs": [
        {
          "internalType": "address",
          "name": "tokenPatron",
          "type": "address"
        }
      ],
      "name": "_collectPatronagePatron",
      "outputs": [],
      "payable": false,
      "stateMutability": "nonpayable",
      "type": "function"
    },
    {
      "constant": false,
      "inputs": [],
      "name": "depositWei",
      "outputs": [],
      "payable": true,
      "stateMutability": "payable",
      "type": "function"
    },
    {
      "constant": false,
      "inputs": [
        {
          "internalType": "address",
          "name": "patron",
          "type": "address"
        }
      ],
      "name": "depositWeiPatron",
      "outputs": [],
      "payable": true,
      "stateMutability": "payable",
      "type": "function"
    },
    {
      "constant": false,
      "inputs": [
        {
          "internalType": "uint256",
          "name": "tokenId",
          "type": "uint256"
        },
        {
          "internalType": "uint256",
          "name": "_newPrice",
          "type": "uint256"
        }
      ],
      "name": "buy",
      "outputs": [],
      "payable": true,
      "stateMutability": "payable",
      "type": "function"
    },
    {
      "constant": false,
      "inputs": [
        {
          "internalType": "uint256",
          "name": "tokenId",
          "type": "uint256"
        },
        {
          "internalType": "uint256",
          "name": "_newPrice",
          "type": "uint256"
        }
      ],
      "name": "changePrice",
      "outputs": [],
      "payable": false,
      "stateMutability": "nonpayable",
      "type": "function"
    },
    {
      "constant": false,
      "inputs": [
        {
          "internalType": "uint256",
          "name": "_wei",
          "type": "uint256"
        }
      ],
      "name": "withdrawDeposit",
      "outputs": [
        {
          "internalType": "uint256",
          "name": "",
          "type": "uint256"
        }
      ],
      "payable": false,
      "stateMutability": "nonpayable",
      "type": "function"
    },
    {
      "constant": false,
      "inputs": [],
      "name": "withdrawBenefactorFunds",
      "outputs": [],
      "payable": false,
      "stateMutability": "nonpayable",
      "type": "function"
    },
    {
      "constant": false,
      "inputs": [
        {
          "internalType": "address payable",
          "name": "benefactor",
          "type": "address"
        }
      ],
      "name": "withdrawBenefactorFundsTo",
      "outputs": [],
      "payable": false,
      "stateMutability": "nonpayable",
      "type": "function"
    },
    {
      "constant": false,
      "inputs": [],
      "name": "exit",
      "outputs": [],
      "payable": false,
      "stateMutability": "nonpayable",
      "type": "function"
    }
  ],
  "bytecode": "0x608060405234801561001057600080fd5b506124eb806100206000396000f3fe6080604052600436106102465760003560e01c80638cb6889911610139578063d530bff9116100b6578063e4fb7aa91161007a578063e4fb7aa914610a49578063e9fad8ee14610a7c578063f340fa0114610a91578063f851a44014610ac4578063f9345df514610ad9578063fb84e7ec14610b0c57610246565b8063d530bff91461096c578063d6febde81461099f578063d9d85b07146109c2578063e1c214c6146109f5578063e2e7ec2114610a1f57610246565b8063b9c3c38d116100fd578063b9c3c38d14610883578063c08f66cb146108b6578063c255dd00146108e9578063c33100521461091c578063cad679711461094657610246565b80638cb68899146107ae5780638f283970146107d8578063b08d024b1461080b578063b3de019c1461083e578063b9af132c1461086e57610246565b80632a9cdd7a116101c75780633adbd0fb1161018b5780633adbd0fb146105025780633e4f49e61461053b5780634b36bf0e146105895780635b2ace64146107415780638cb3c25f1461076b57610246565b80632a9cdd7a1461042d5780632b09e013146104575780632c3db6ea1461049057806333289a46146104c3578063385320aa146104ed57610246565b80631b2527811161020e5780631b2527811461031d5780631e8b76ad14610359578063237b5e4f146103975780632488a69e146103d057806326a49e371461040357610246565b80630e8f274f1461024b5780631083f76114610291578063128ee161146102a657806315488b88146102d05780631794bb3c146102da575b600080fd5b34801561025757600080fd5b506102756004803603602081101561026e57600080fd5b5035610b36565b604080516001600160a01b039092168252519081900360200190f35b34801561029d57600080fd5b50610275610b51565b3480156102b257600080fd5b50610275600480360360208110156102c957600080fd5b5035610b60565b6102d8610b7b565b005b3480156102e657600080fd5b506102d8600480360360608110156102fd57600080fd5b506001600160a01b03813581169160208101359091169060400135610b86565b34801561032957600080fd5b506103476004803603602081101561034057600080fd5b5035610c60565b60408051918252519081900360200190f35b34801561036557600080fd5b506103836004803603602081101561037c57600080fd5b5035610c72565b604080519115158252519081900360200190f35b3480156103a357600080fd5b50610347600480360360408110156103ba57600080fd5b50803590602001356001600160a01b0316610c9c565b3480156103dc57600080fd5b506102d8600480360360208110156103f357600080fd5b50356001600160a01b0316610cb9565b34801561040f57600080fd5b506103476004803603602081101561042657600080fd5b5035610e2e565b34801561043957600080fd5b506103476004803603602081101561045057600080fd5b5035610e40565b34801561046357600080fd5b506103836004803603604081101561047a57600080fd5b50803590602001356001600160a01b0316610ec0565b34801561049c57600080fd5b506102d8600480360360208110156104b357600080fd5b50356001600160a01b0316610ee0565b3480156104cf57600080fd5b50610347600480360360208110156104e657600080fd5b5035610f9a565b3480156104f957600080fd5b506102d8610fb5565b34801561050e57600080fd5b506102d86004803603604081101561052557600080fd5b50803590602001356001600160a01b0316610fbe565b34801561054757600080fd5b506105656004803603602081101561055e57600080fd5b503561108f565b6040518082600181111561057557fe5b60ff16815260200191505060405180910390f35b34801561059557600080fd5b506102d8600480360360608110156105ac57600080fd5b8101906020810181356401000000008111156105c757600080fd5b8201836020820111156105d957600080fd5b803590602001918460208302840111640100000000831117156105fb57600080fd5b919080806020026020016040519081016040528093929190818152602001838360200280828437600092019190915250929594936020810193503591505064010000000081111561064b57600080fd5b82018360208201111561065d57600080fd5b8035906020019184602083028401116401000000008311171561067f57600080fd5b91908080602002602001604051908101604052809392919081815260200183836020028082843760009201919091525092959493602081019350359150506401000000008111156106cf57600080fd5b8201836020820111156106e157600080fd5b8035906020019184602083028401116401000000008311171561070357600080fd5b9190808060200260200160405190810160405280939291908181526020018383602002808284376000920191909152509295506110a4945050505050565b34801561074d57600080fd5b506103476004803603602081101561076457600080fd5b503561129b565b34801561077757600080fd5b506107956004803603602081101561078e57600080fd5b50356112ad565b6040805192835260208301919091528051918290030190f35b3480156107ba57600080fd5b50610347600480360360208110156107d157600080fd5b50356112c2565b3480156107e457600080fd5b506102d8600480360360208110156107fb57600080fd5b50356001600160a01b03166112d4565b34801561081757600080fd5b506103476004803603602081101561082e57600080fd5b50356001600160a01b0316611341565b34801561084a57600080fd5b506102d86004803603604081101561086157600080fd5b5080359060200135611353565b34801561087a57600080fd5b5061034761152f565b34801561088f57600080fd5b50610347600480360360208110156108a657600080fd5b50356001600160a01b0316611535565b3480156108c257600080fd5b50610347600480360360208110156108d957600080fd5b50356001600160a01b031661158d565b3480156108f557600080fd5b506103476004803603602081101561090c57600080fd5b50356001600160a01b0316611615565b34801561092857600080fd5b506103476004803603602081101561093f57600080fd5b5035611627565b6102d86004803603602081101561095c57600080fd5b50356001600160a01b0316611639565b34801561097857600080fd5b506107956004803603602081101561098f57600080fd5b50356001600160a01b0316611714565b6102d8600480360360408110156109b557600080fd5b5080359060200135611720565b3480156109ce57600080fd5b50610347600480360360208110156109e557600080fd5b50356001600160a01b0316611a4c565b348015610a0157600080fd5b5061034760048036036020811015610a1857600080fd5b5035611ab5565b348015610a2b57600080fd5b5061034760048036036020811015610a4257600080fd5b5035611ad6565b348015610a5557600080fd5b5061038360048036036020811015610a6c57600080fd5b50356001600160a01b0316611ae8565b348015610a8857600080fd5b506102d8611b1f565b348015610a9d57600080fd5b5061034760048036036020811015610ab457600080fd5b50356001600160a01b0316611b45565b348015610ad057600080fd5b50610275611b57565b348015610ae557600080fd5b5061034760048036036020811015610afc57600080fd5b50356001600160a01b0316611b66565b348015610b1857600080fd5b506102d860048036036020811015610b2f57600080fd5b5035611b78565b603d602052600090815260409020546001600160a01b031681565b6034546001600160a01b031681565b603b602052600090815260409020546001600160a01b031681565b610b8433611639565b565b600054610100900460ff1680610b9f5750610b9f611f0b565b80610bad575060005460ff16155b610be85760405162461bcd60e51b815260040180806020018281038252602e815260200180612489602e913960400191505060405180910390fd5b600054610100900460ff16158015610c13576000805460ff1961ff0019909116610100171660011790555b603480546001600160a01b038087166001600160a01b031992831617909255604480549286169290911691909117905560428290558015610c5a576000805461ff00191690555b50505050565b60366020526000908152604090205481565b6000818152603d60205260408120546001600160a01b0316610c9381611ae8565b9150505b919050565b603f60209081526000928352604080842090915290825290205481565b6000610cc48261158d565b9050600081118015610cee57506001600160a01b0382166000908152603960205260409020548110155b15610d8c576001600160a01b0382166000908152603860209081526040808320546039909252822054909190610d5d90610d50908590610d4490610d38428863ffffffff611f1116565b9063ffffffff611f6e16565b9063ffffffff611fce16565b839063ffffffff61203816565b6001600160a01b038516600090815260386020908152604080832093909355603990529081205550610ddc9050565b6001600160a01b03821660009081526038602090815260408083204290556039909152902054610dc2908263ffffffff611f1116565b6001600160a01b0383166000908152603960205260409020555b6001600160a01b03821660008181526039602090815260409182902054825190815291517fbece12534c1381f016e2ce4d456a6eb916094df84a7dd97faa7159f3a44a0d3c9281900390910190a25050565b60336020526000908152604090205481565b600081815260376020526040812054610e5b57506000610c97565b604254600083815260416020908152604080832054603790925290912054610eba926301e1338092610d4492839190610d3890610e9f90429063ffffffff611f1116565b60008a8152603360205260409020549063ffffffff611f6e16565b92915050565b603e60209081526000928352604080842090915290825290205460ff1681565b6001600160a01b0381166000908152603c6020526040902054610f3f576040805162461bcd60e51b81526020600482015260126024820152714e6f2066756e647320617661696c61626c6560701b604482015290519081900360640190fd5b6001600160a01b0381166000818152603c602052604080822054905181156108fc0292818181858888f19350505050158015610f7f573d6000803e3d6000fd5b506001600160a01b03166000908152603c6020526040812055565b600033610fa681610cb9565b610faf83612092565b50919050565b610b8433610ee0565b6000828152603b602052604090205482906001600160a01b0316331480610fef57506044546001600160a01b031633145b611040576040805162461bcd60e51b815260206004820152601760248201527f4e6f742062656e65666163746f72206f722061646d696e000000000000000000604482015290519081900360640190fd5b506000918252603b6020908152604080842080546001600160a01b039485166001600160a01b03198216811790925593909316808552603c909252808420805493855290842092909255825255565b60436020526000908152604090205460ff1681565b6044546001600160a01b031633146110ef576040805162461bcd60e51b81526020600482015260096024820152682737ba1030b236b4b760b91b604482015290519081900360640190fd5b81518351146110fa57fe5b60005b83518160ff161015610c5a5760006001600160a01b0316838260ff168151811061112357fe5b60200260200101516001600160a01b0316141561113c57fe5b828160ff168151811061114b57fe5b6020026020010151603b6000868460ff168151811061116657fe5b6020026020010151815260200190815260200160002060006101000a8154816001600160a01b0302191690836001600160a01b03160217905550600060436000868460ff16815181106111b557fe5b6020026020010151815260200190815260200160002060006101000a81548160ff021916908360018111156111e657fe5b0217905550818160ff16815181106111fa57fe5b602002602001015160416000868460ff168151811061121557fe5b6020026020010151815260200190815260200160002081905550838160ff168151811061123e57fe5b60200260200101517f210ae353ce16aa90d4e1030c30c12482a2dc45bbfed71e98267e93fb7684fa07838360ff168151811061127657fe5b60200260200101516040518082815260200191505060405180910390a26001016110fd565b60406020819052600091825290205481565b6000806112b983610e40565b93429350915050565b60376020526000908152604090205481565b6044546001600160a01b0316331461131f576040805162461bcd60e51b81526020600482015260096024820152682737ba1030b236b4b760b91b604482015290519081900360640190fd5b604480546001600160a01b0319166001600160a01b0392909216919091179055565b60386020526000908152604090205481565b6000828152603d602052604090205482906001600160a01b031633146113ad576040805162461bcd60e51b815260206004820152600a6024820152692737ba103830ba3937b760b11b604482015290519081900360640190fd5b826113b781611b78565b60008481526043602052604081205460ff1660018111156113d457fe5b1415611414576040805162461bcd60e51b815260206004820152600a602482015269119bdc9958db1bdcd95960b21b604482015290519081900360640190fd5b82611458576040805162461bcd60e51b815260206004820152600f60248201526e496e636f727265637420507269636560881b604482015290519081900360640190fd5b6000848152604160205260409020546114d39061147c90859063ffffffff611f6e16565b6000868152604160209081526040808320546033909252909120546114c7916114ab919063ffffffff611f6e16565b336000908152603a60205260409020549063ffffffff611f1116565b9063ffffffff61203816565b336000908152603a602090815260408083209390935586825260338152908290208590558151858152915186927ffe6b606ca0477592b5740a0eb00c8e91570a5d0eb736abfa1a6309bd081b4a4d92908290030190a250505050565b60425481565b6042546001600160a01b0382166000908152603a60205260408120549091829161156e916301e1338091610d449163ffffffff611fce16565b9050610c9361158082610d4486611a4c565b429063ffffffff61203816565b6001600160a01b0381166000908152603860205260408120546115b257506000610c97565b6042546001600160a01b038316600090815260386020526040902054610eba916301e1338091610d44919082906115f090429063ffffffff611f1116565b6001600160a01b0388166000908152603a60205260409020549063ffffffff611f6e16565b603c6020526000908152604090205481565b60356020526000908152604090205481565b6001600160a01b0381166000908152603a6020526040902054611695576040805162461bcd60e51b815260206004820152600f60248201526e139bc81d1bdad95b9cc81bdddb9959608a1b604482015290519081900360640190fd5b6001600160a01b0381166000908152603960205260409020546116be903463ffffffff61203816565b6001600160a01b0382166000818152603960209081526040918290208490558151938452905191927fbece12534c1381f016e2ce4d456a6eb916094df84a7dd97faa7159f3a44a0d3c929081900390910190a250565b6000806112b98361158d565b8161172a81611b78565b3361173481610cb9565b60008311611779576040805162461bcd60e51b815260206004820152600d60248201526c5072696365206973207a65726f60981b604482015290519081900360640190fd5b60008481526033602052604090205434116117c8576040805162461bcd60e51b815260206004820152600a60248201526909cdee840cadcdeeaced60b31b604482015290519081900360640190fd5b603454604080516331a9108f60e11b81526004810187905290516000926001600160a01b031691636352211e916024808301926020929190829003018186803b15801561181457600080fd5b505afa158015611828573d6000803e3d6000fd5b505050506040513d602081101561183e57600080fd5b50516000868152603d60205260409020549091506001600160a01b0316600160008781526043602052604090205460ff16600181111561187a57fe5b141561195257600086815260336020818152604080842054604183529320549190526118ad90829063ffffffff611f6e16565b6001600160a01b0383166000908152603a60205260409020541415611912576001600160a01b0382166000908152603960205260409020546118f690829063ffffffff61203816565b6001600160a01b03831660009081526039602052604081205590505b60405182906001600160a01b0382169083156108fc029084906000818181858888f1935050505015801561194a573d6000803e3d6000fd5b5050506119aa565b60008681526043602052604081205460ff16600181111561196f57fe5b14156119aa576000868152604360209081526040808320805460ff191660011790556037825280832042908190553384526038909252909120555b6000868152603360205260409020546119ea906119ce90349063ffffffff611f1116565b336000908152603960205260409020549063ffffffff61203816565b33600081815260396020526040902091909155611a0d908790849084908961214f565b604080518681529051339188917f3b599f6217e39be59216b60e543ce0d4c7d534fe64dd9d962334924e7819894e9181900360200190a3505050505050565b600080611a588361158d565b6001600160a01b0384166000908152603960205260409020549091508110611a84576000915050610c97565b6001600160a01b038316600090815260396020526040902054611aad908263ffffffff611f1116565b915050610c97565b6000818152603d60205260408120546001600160a01b0316610c9381611535565b60416020526000908152604090205481565b6001600160a01b038116600090815260396020526040812054611b0a8361158d565b10611b1757506001610c97565b506000610c97565b33611b2981610cb9565b33600090815260396020526040902054611b4290612092565b50565b60396020526000908152604090205481565b6044546001600160a01b031681565b603a6020526000908152604090205481565b600160008281526043602052604090205460ff166001811115611b9757fe5b1415611b4257600081815260376020908152604080832054603d909252822054909190611bcc906001600160a01b031661158d565b6000848152603d60209081526040808320546001600160a01b031683526039909152812054919250908210611d29576000848152603d60209081526040808320546001600160a01b0316835260398252808320546038909252822054611c7291611c41918691610d4491610d38904290611f11565b6000878152603d60209081526040808320546001600160a01b0316835260389091529020549063ffffffff61203816565b6000868152603760209081526040808320849055603d8252808320546001600160a01b0316835260388252808320849055604254898452604190925290912054919250611cf3916301e1338091610d44918290610d38611cd8888c63ffffffff611f1116565b60008d8152603360205260409020549063ffffffff611f6e16565b6000868152603d60209081526040808320546001600160a01b0316835260399091528120559150611d2385612368565b50611e2d565b604254600085815260416020526040902054611d7a916301e1338091610d4491908290610d38611d5f428b63ffffffff611f1116565b60008c8152603360205260409020549063ffffffff611f6e16565b60008581526037602090815260408083204290819055603d8352818420546001600160a01b0316845260388352818420558783526036909152902054909150611dc9908263ffffffff61203816565b600085815260366020908152604080832093909355603d8152828220546001600160a01b03168252603990522054611e07908363ffffffff611f1116565b6000858152603d60209081526040808320546001600160a01b0316835260399091529020555b600084815260356020526040902054611e4c908263ffffffff61203816565b600085815260356020908152604080832093909355603b8152828220546001600160a01b0316808352603c90915291902054611e8e908363ffffffff61203816565b6001600160a01b038083166000908152603c6020908152604080832094909455888252603d81528382205490921680825260398352908390205483519081529182018590528251909288927f939ba75588ef4ead6e17d8cd3cffe6231558a84a74907c6746780c20ccef5158929081900390910190a35050505050565b303b1590565b600082821115611f68576040805162461bcd60e51b815260206004820152601e60248201527f536166654d6174683a207375627472616374696f6e206f766572666c6f770000604482015290519081900360640190fd5b50900390565b600082611f7d57506000610eba565b82820282848281611f8a57fe5b0414611fc75760405162461bcd60e51b81526004018080602001828103825260218152602001806124686021913960400191505060405180910390fd5b9392505050565b6000808211612024576040805162461bcd60e51b815260206004820152601a60248201527f536166654d6174683a206469766973696f6e206279207a65726f000000000000604482015290519081900360640190fd5b600082848161202f57fe5b04949350505050565b600082820183811015611fc7576040805162461bcd60e51b815260206004820152601b60248201527f536166654d6174683a206164646974696f6e206f766572666c6f770000000000604482015290519081900360640190fd5b336000908152603960205260409020548111156120ed576040805162461bcd60e51b81526020600482015260146024820152730aed2e8d0c8e4c2eed2dcce40e8dede40daeac6d60631b604482015290519081900360640190fd5b3360009081526039602052604090205461210d908263ffffffff611f1116565b33600081815260396020526040808220939093559151909183156108fc02918491818181858888f1935050505015801561214b573d6000803e3d6000fd5b5050565b6000858152604160205260409020546121989061217390839063ffffffff611f6e16565b6001600160a01b0384166000908152603a60205260409020549063ffffffff61203816565b6001600160a01b0383166000908152603a60209081526040808320939093558782526041815282822054603390915291902054612204916121df919063ffffffff611f6e16565b6001600160a01b0385166000908152603a60205260409020549063ffffffff611f1116565b6001600160a01b0384166000908152603a6020908152604080832093909355878252828152828220546037909152919020546122799161224a919063ffffffff611f1116565b6000878152603f602090815260408083206001600160a01b03891684529091529020549063ffffffff61203816565b6000868152603f602090815260408083206001600160a01b03808916855292528083209390935560345483516323b872dd60e01b815288831660048201528683166024820152604481018a905293519116926323b872dd92606480830193919282900301818387803b1580156122ee57600080fd5b505af1158015612302573d6000803e3d6000fd5b505050600095865250603d6020908152604080872080546001600160a01b039095166001600160a01b0319909516851790556033825280872092909255818152818620429055603e815281862092865291909152909220805460ff191660011790555050565b603454604080516331a9108f60e11b81526004810184905290516000926001600160a01b031691636352211e916024808301926020929190829003018186803b1580156123b457600080fd5b505afa1580156123c8573d6000803e3d6000fd5b505050506040513d60208110156123de57600080fd5b50516000838152603d60205260408120549192506001600160a01b039091169061240f90849084908490309061214f565b6000838152604360209081526040808320805460ff191690556036909152808220829055516001600160a01b038416917f291a173dc1d60343addf35bd4d31946df82daa8c496dc8acb03ea68b4db91e0f91a250505056fe536166654d6174683a206d756c7469706c69636174696f6e206f766572666c6f77436f6e747261637420696e7374616e63652068617320616c7265616479206265656e20696e697469616c697a6564a265627a7a72315820f273753485aa035fdbb98a99488ef6950cc5adb40bff4f6cfbb81f645443ca5464736f6c634300050c0032",
  "source": "pragma solidity ^0.5.0;\nimport \"./ERC721Patronage_v1.sol\";\n\ncontract WildcardSteward_v1 is Initializable {\n\n    /*\n    This smart contract collects patronage from current owner through a Harberger tax model and \n    takes stewardship of the asset token if the patron can't pay anymore.\n\n    Harberger Tax (COST): \n    - Asset is always on sale.\n    - You have to have a price set.\n    - Tax (Patronage) is paid to maintain ownership.\n    - Steward maints control over ERC721.\n    */\n    using SafeMath for uint256;\n\n    mapping(uint256 => uint256) public price; //in wei\n    ERC721Patronage_v1 public assetToken; // ERC721 NFT.\n\n    mapping(uint256 => uint256) public totalCollected; // all patronage ever collected\n    mapping(uint256 => uint256) public currentCollected; // amount currently collected for patron\n    mapping(uint256 => uint256) public timeLastCollected;\n    mapping(address => uint256) public timeLastCollectedPatron;\n    mapping(address => uint256) public deposit;\n    mapping(address => uint256) public totalPatronOwnedTokenCost;\n\n    mapping(uint256 => address payable) public benefactors; // non-profit benefactor\n    mapping(address => uint256) public benefactorFunds;\n\n    mapping(uint256 => address) public currentPatron; // This is different to the current token owner.\n    mapping(uint256 => mapping (address => bool)) public patrons;\n    mapping(uint256 => mapping (address => uint256)) public timeHeld;\n\n    mapping(uint256 => uint256) public timeAcquired;\n\n    // 1200% patronage\n    mapping(uint256 => uint256) public patronageNumerator;\n    uint256 public patronageDenominator;\n\n    enum StewardState { Foreclosed, Owned }\n    mapping(uint256 => StewardState) public state;\n\n    address public admin;\n\n    event Buy(uint256 indexed tokenId, address indexed owner, uint256 price);\n    event PriceChange(uint256 indexed tokenId, uint256 newPrice);\n    event Foreclosure(address indexed prevOwner);\n    event RemainingDepositUpdate(address indexed tokenPatron, uint256 remainingDeposit);\n\n    event AddToken(uint256 indexed tokenId, uint256 patronageNumerator);\n    event CollectPatronage(\n      uint256 indexed tokenId,\n      address indexed patron,\n      uint256 remainingDeposit,\n      uint256 amountReceived\n    );\n\n    modifier onlyPatron(uint256 tokenId) {\n        require(msg.sender == currentPatron[tokenId], \"Not patron\");\n        _;\n    }\n\n    modifier onlyAdmin() {\n        require(msg.sender == admin, \"Not admin\");\n        _;\n    }\n\n     modifier onlyReceivingBenefactorOrAdmin(uint256 tokenId) {\n        require(msg.sender == benefactors[tokenId] || msg.sender == admin, \"Not benefactor or admin\");\n        _;\n    }\n\n    modifier collectPatronage(uint256 tokenId) {\n       _collectPatronage(tokenId);\n       _;\n    }\n\n    modifier collectPatronageAddress(address tokenPatron) {\n       _collectPatronagePatron(tokenPatron);\n       _;\n    }\n\n    function initialize(address _assetToken, address _admin, uint256 _patronageDenominator) public initializer {\n        assetToken = ERC721Patronage_v1(_assetToken);\n        admin = _admin;\n        patronageDenominator = _patronageDenominator;\n    }\n\n    // TODO:: add validation that the token that is complient with the \"PatronageToken\" ERC721 interface extension somehow!\n    function listNewTokens(\n        uint256[] memory tokens, \n        address payable[] memory _benefactors, \n        uint256[] memory _patronageNumerator\n    ) public onlyAdmin {\n        assert(tokens.length == _benefactors.length);\n        for (uint8 i = 0; i < tokens.length; ++i){\n            assert(_benefactors[i]!=address(0));\n            benefactors[tokens[i]] = _benefactors[i];\n            state[tokens[i]] = StewardState.Foreclosed;\n            patronageNumerator[tokens[i]] = _patronageNumerator[i];\n            emit AddToken(tokens[i], _patronageNumerator[i]);\n        }\n    }\n\n    function changeReceivingBenefactor(uint256 tokenId, address payable _newReceivingBenefactor)\n    public onlyReceivingBenefactorOrAdmin(tokenId) {\n        address oldBenfactor = benefactors[tokenId];\n        benefactors[tokenId] = _newReceivingBenefactor;\n        benefactorFunds[_newReceivingBenefactor] = benefactorFunds[oldBenfactor];\n        benefactorFunds[oldBenfactor] = 0;\n    }\n\n    function changeAdmin(address _admin) public onlyAdmin {\n        admin = _admin;\n    }\n\n    /* public view functions */\n    function patronageOwed(uint256 tokenId) public view returns (uint256 patronageDue) {\n        if (timeLastCollected[tokenId] == 0) return 0;\n\n        return price[tokenId].mul(now.sub(timeLastCollected[tokenId])).mul(patronageNumerator[tokenId])\n          .div(patronageDenominator).div(365 days);\n    }\n\n    function patronageOwedWithTimestamp(uint256 tokenId) public view returns (uint256 patronageDue, uint256 timestamp) {\n        return (patronageOwed(tokenId), now);\n    }\n\n    // TODO: make a version of this function that is for patronage owed by token rather than by tokenPatron like it is now.\n    function patronageOwedPatron(address tokenPatron) public view returns (uint256 patronageDue) {\n        if (timeLastCollectedPatron[tokenPatron] == 0) return 0;\n\n        // NOTE/TODO: to cater to different patronage rates, we should include it in the `totalPatronOwnedTokenCost` (and probably rename that variable)\n        return totalPatronOwnedTokenCost[tokenPatron].mul(now.sub(timeLastCollectedPatron[tokenPatron]))\n          .div(patronageDenominator).div(365 days);\n    }\n\n    function patronageOwedPatronWithTimestamp(address tokenPatron) public view returns (uint256 patronageDue, uint256 timestamp) {\n        return (patronageOwedPatron(tokenPatron), now);\n    }\n\n    function foreclosedPatron(address tokenPatron) public view returns (bool) {\n        // returns whether it is in foreclosed state or not\n        // depending on whether deposit covers patronage due\n        // useful helper function when price should be zero, but contract doesn't reflect it yet.\n        if (patronageOwedPatron(tokenPatron) >= deposit[tokenPatron]) {\n            return true;\n        } else {\n            return false;\n        }\n    }\n\n    function foreclosed(uint256 tokenId) public view returns (bool) {\n        // returns whether it is in foreclosed state or not\n        // depending on whether deposit covers patronage due\n        // useful helper function when price should be zero, but contract doesn't reflect it yet.\n        address tokenPatron = currentPatron[tokenId];\n        return foreclosedPatron(tokenPatron);\n    }\n\n    // same function as above, basically\n    function depositAbleToWithdraw(address tokenPatron) public view returns (uint256) {\n        uint256 collection = patronageOwedPatron(tokenPatron);\n        if(collection >= deposit[tokenPatron]) {\n            return 0;\n        } else {\n            return deposit[tokenPatron].sub(collection);\n        }\n    }\n\n    /*\n    now + deposit/patronage per second \n    now + depositAbleToWithdraw/(price*nume/denom/365).\n    */\n    function foreclosureTimePatron(address tokenPatron) public view returns (uint256) {\n        // patronage per second\n        uint256 pps = totalPatronOwnedTokenCost[tokenPatron].div(patronageDenominator).div(365 days);\n        return now.add(depositAbleToWithdraw(tokenPatron).div(pps)); // zero division if price is zero.\n    }\n    function foreclosureTime(uint256 tokenId) public view returns (uint256) {\n        address tokenPatron = currentPatron[tokenId];\n        return foreclosureTimePatron(tokenPatron);\n    }\n\n    /* actions */\n    // TODO:: think of more efficient ways for recipients to collect patronage for lots of tokens at the same time.\n    function _collectPatronage(uint256 tokenId) public {\n        // determine patronage to pay\n        if (state[tokenId] == StewardState.Owned) {\n            uint256 previousTokenCollection = timeLastCollected[tokenId];\n            uint256 patronageOwedByTokenPatron = patronageOwedPatron(currentPatron[tokenId]);\n            uint256 collection;\n\n            // should foreclose and stake stewardship\n            if (patronageOwedByTokenPatron >= deposit[currentPatron[tokenId]]) {\n                // up to when was it actually paid for?\n                uint256 newTimeLastCollected = timeLastCollectedPatron[currentPatron[tokenId]].add(((now.sub(timeLastCollectedPatron[currentPatron[tokenId]])).mul(deposit[currentPatron[tokenId]]).div(patronageOwedByTokenPatron)));\n\n                timeLastCollected[tokenId] = newTimeLastCollected;\n                timeLastCollectedPatron[currentPatron[tokenId]] = newTimeLastCollected;\n                collection = price[tokenId].mul(newTimeLastCollected.sub(previousTokenCollection)).mul(patronageNumerator[tokenId]).div(patronageDenominator).div(365 days);\n\n                deposit[currentPatron[tokenId]] = 0;\n                _foreclose(tokenId);\n            } else {\n                // just a normal collection\n                collection = price[tokenId].mul(now.sub(previousTokenCollection)).mul(patronageNumerator[tokenId]).div(patronageDenominator).div(365 days);\n                timeLastCollected[tokenId] = now;\n                timeLastCollectedPatron[currentPatron[tokenId]] = now;\n                currentCollected[tokenId] = currentCollected[tokenId].add(collection);\n                deposit[currentPatron[tokenId]] = deposit[currentPatron[tokenId]].sub(patronageOwedByTokenPatron);\n            }\n            totalCollected[tokenId] = totalCollected[tokenId].add(collection);\n            address benefactor = benefactors[tokenId];\n            benefactorFunds[benefactor] = benefactorFunds[benefactor].add(collection);\n            emit CollectPatronage(tokenId, currentPatron[tokenId], deposit[currentPatron[tokenId]], collection);\n        }\n    }\n\n    // This does accounting without transfering any tokens\n    function _collectPatronagePatron(address tokenPatron) public {\n        uint256 patronageOwedByTokenPatron = patronageOwedPatron(tokenPatron);\n        if (patronageOwedByTokenPatron > 0 && patronageOwedByTokenPatron >= deposit[tokenPatron]) {\n            uint256 previousCollectionTime = timeLastCollectedPatron[tokenPatron];\n            // up to when was it actually paid for?\n            uint256 newTimeLastCollected = previousCollectionTime.add(((now.sub(previousCollectionTime)).mul(deposit[tokenPatron]).div(patronageOwedByTokenPatron)));\n            timeLastCollectedPatron[tokenPatron] = newTimeLastCollected;\n            deposit[tokenPatron] = 0;\n        } else  {\n            timeLastCollectedPatron[tokenPatron] = now;\n            deposit[tokenPatron] = deposit[tokenPatron].sub(patronageOwedByTokenPatron);\n        }\n\n        emit RemainingDepositUpdate(tokenPatron, deposit[tokenPatron]);\n    }\n\n\n\n    // note: anyone can deposit\n    function depositWei() public payable {\n      depositWeiPatron(msg.sender);\n    }\n    function depositWeiPatron(address patron) public payable {\n        require(totalPatronOwnedTokenCost[patron] > 0, \"No tokens owned\");\n        deposit[patron] = deposit[patron].add(msg.value);\n        emit RemainingDepositUpdate(patron, deposit[patron]);\n    }\n\n    function buy(uint256 tokenId, uint256 _newPrice) public payable collectPatronage(tokenId) collectPatronageAddress(msg.sender) {\n        require(_newPrice > 0, \"Price is zero\");\n        require(msg.value > price[tokenId], \"Not enough\"); // >, coz need to have at least something for deposit\n        address currentOwner = assetToken.ownerOf(tokenId);\n        address tokenPatron = currentPatron[tokenId];\n\n        if (state[tokenId] == StewardState.Owned) {\n            uint256 totalToPayBack = price[tokenId];\n            // NOTE: pay back the deposit only if it is the only token the patron owns.\n            if(totalPatronOwnedTokenCost[tokenPatron] == price[tokenId].mul(patronageNumerator[tokenId])) {\n                totalToPayBack = totalToPayBack.add(deposit[tokenPatron]);\n                deposit[tokenPatron] = 0;\n            }\n\n            // pay previous owner their price + deposit back.\n            address payable payableCurrentPatron = address(uint160(tokenPatron));\n            payableCurrentPatron.transfer(totalToPayBack);\n        } else if(state[tokenId] == StewardState.Foreclosed) {\n            state[tokenId] = StewardState.Owned;\n            timeLastCollected[tokenId] = now;\n            timeLastCollectedPatron[msg.sender] = now;\n        }\n\n        deposit[msg.sender] = deposit[msg.sender].add(msg.value.sub(price[tokenId]));\n        transferAssetTokenTo(tokenId, currentOwner, tokenPatron, msg.sender, _newPrice);\n        emit Buy(tokenId, msg.sender, _newPrice);\n    }\n\n    function changePrice(uint256 tokenId, uint256 _newPrice) public onlyPatron(tokenId) collectPatronage(tokenId) {\n        require(state[tokenId] != StewardState.Foreclosed, \"Foreclosed\");\n        require(_newPrice != 0, \"Incorrect Price\");\n\n        totalPatronOwnedTokenCost[msg.sender] = totalPatronOwnedTokenCost[msg.sender]\n          .sub(price[tokenId].mul(patronageNumerator[tokenId]))\n          .add(_newPrice.mul(patronageNumerator[tokenId]));\n\n        price[tokenId] = _newPrice;\n        emit PriceChange(tokenId, price[tokenId]);\n    }\n\n    function withdrawDeposit(uint256 _wei) public collectPatronageAddress(msg.sender) returns (uint256) {\n        _withdrawDeposit(_wei);\n    }\n\n    function withdrawBenefactorFunds() public {\n        withdrawBenefactorFundsTo(msg.sender);\n    }\n\n    function withdrawBenefactorFundsTo(address payable benefactor) public {\n        require(benefactorFunds[benefactor] > 0, \"No funds available\");\n        benefactor.transfer(benefactorFunds[benefactor]);\n        benefactorFunds[benefactor] = 0;\n    }\n\n    function exit() public collectPatronageAddress(msg.sender) {\n        _withdrawDeposit(deposit[msg.sender]);\n    }\n\n    /* internal */\n    function _withdrawDeposit(uint256 _wei) internal {\n        // note: can withdraw whole deposit, which puts it in immediate to be foreclosed state.\n        require(deposit[msg.sender] >= _wei, 'Withdrawing too much');\n\n        deposit[msg.sender] = deposit[msg.sender].sub(_wei);\n        msg.sender.transfer(_wei); // msg.sender == patron\n    }\n\n    function _foreclose(uint256 tokenId) internal {\n        // become steward of assetToken (aka foreclose)\n        address currentOwner = assetToken.ownerOf(tokenId);\n        address tokenPatron = currentPatron[tokenId];\n        transferAssetTokenTo(tokenId, currentOwner, tokenPatron, address(this), 0);\n        state[tokenId] = StewardState.Foreclosed;\n        currentCollected[tokenId] = 0;\n\n        emit Foreclosure(currentOwner);\n    }\n\n    function transferAssetTokenTo(uint256 tokenId, address _currentOwner, address _currentPatron, address _newOwner, uint256 _newPrice) internal {\n        // TODO: add the patronage rate as a multiplier here: https://github.com/wild-cards/contracts/issues/7\n        totalPatronOwnedTokenCost[_newOwner] = totalPatronOwnedTokenCost[_newOwner].add(_newPrice.mul(patronageNumerator[tokenId]));\n        totalPatronOwnedTokenCost[_currentPatron] = totalPatronOwnedTokenCost[_currentPatron].sub(price[tokenId].mul(patronageNumerator[tokenId]));\n\n        // note: it would also tabulate time held in stewardship by smart contract\n        timeHeld[tokenId][_currentPatron] = timeHeld[tokenId][_currentPatron].add((timeLastCollected[tokenId].sub(timeAcquired[tokenId])));\n        assetToken.transferFrom(_currentOwner, _newOwner, tokenId);\n        currentPatron[tokenId] = _newOwner;\n\n        price[tokenId] = _newPrice;\n        timeAcquired[tokenId] = now;\n        patrons[tokenId][_newOwner] = true;\n    }\n}\n",
  "sourcePath": "/home/jasoons/Documents/clean-code/contracts/contracts/WildcardSteward_v1.sol",
  "compiler": {
    "name": "solc",
    "version": "0.5.12+commit.7709ece9.Emscripten.clang"
  },
  "schemaVersion": "3.0.19",
  "updatedAt": "2020-01-02T09:57:23.013Z",
  "devdoc": {
    "methods": {}
  },
  "userdoc": {
    "methods": {}
  }
}