{
  "contractName": "ERC721Metadata",
  "abi": [
    {
      "anonymous": false,
      "inputs": [
        {
          "indexed": true,
          "internalType": "address",
          "name": "owner",
          "type": "address"
        },
        {
          "indexed": true,
          "internalType": "address",
          "name": "approved",
          "type": "address"
        },
        {
          "indexed": true,
          "internalType": "uint256",
          "name": "tokenId",
          "type": "uint256"
        }
      ],
      "name": "Approval",
      "type": "event"
    },
    {
      "anonymous": false,
      "inputs": [
        {
          "indexed": true,
          "internalType": "address",
          "name": "owner",
          "type": "address"
        },
        {
          "indexed": true,
          "internalType": "address",
          "name": "operator",
          "type": "address"
        },
        {
          "indexed": false,
          "internalType": "bool",
          "name": "approved",
          "type": "bool"
        }
      ],
      "name": "ApprovalForAll",
      "type": "event"
    },
    {
      "anonymous": false,
      "inputs": [
        {
          "indexed": true,
          "internalType": "address",
          "name": "from",
          "type": "address"
        },
        {
          "indexed": true,
          "internalType": "address",
          "name": "to",
          "type": "address"
        },
        {
          "indexed": true,
          "internalType": "uint256",
          "name": "tokenId",
          "type": "uint256"
        }
      ],
      "name": "Transfer",
      "type": "event"
    },
    {
      "constant": false,
      "inputs": [
        {
          "internalType": "address",
          "name": "to",
          "type": "address"
        },
        {
          "internalType": "uint256",
          "name": "tokenId",
          "type": "uint256"
        }
      ],
      "name": "approve",
      "outputs": [],
      "payable": false,
      "stateMutability": "nonpayable",
      "type": "function"
    },
    {
      "constant": true,
      "inputs": [
        {
          "internalType": "address",
          "name": "owner",
          "type": "address"
        }
      ],
      "name": "balanceOf",
      "outputs": [
        {
          "internalType": "uint256",
          "name": "",
          "type": "uint256"
        }
      ],
      "payable": false,
      "stateMutability": "view",
      "type": "function"
    },
    {
      "constant": true,
      "inputs": [
        {
          "internalType": "uint256",
          "name": "tokenId",
          "type": "uint256"
        }
      ],
      "name": "getApproved",
      "outputs": [
        {
          "internalType": "address",
          "name": "",
          "type": "address"
        }
      ],
      "payable": false,
      "stateMutability": "view",
      "type": "function"
    },
    {
      "constant": true,
      "inputs": [
        {
          "internalType": "address",
          "name": "owner",
          "type": "address"
        },
        {
          "internalType": "address",
          "name": "operator",
          "type": "address"
        }
      ],
      "name": "isApprovedForAll",
      "outputs": [
        {
          "internalType": "bool",
          "name": "",
          "type": "bool"
        }
      ],
      "payable": false,
      "stateMutability": "view",
      "type": "function"
    },
    {
      "constant": true,
      "inputs": [
        {
          "internalType": "uint256",
          "name": "tokenId",
          "type": "uint256"
        }
      ],
      "name": "ownerOf",
      "outputs": [
        {
          "internalType": "address",
          "name": "",
          "type": "address"
        }
      ],
      "payable": false,
      "stateMutability": "view",
      "type": "function"
    },
    {
      "constant": false,
      "inputs": [
        {
          "internalType": "address",
          "name": "from",
          "type": "address"
        },
        {
          "internalType": "address",
          "name": "to",
          "type": "address"
        },
        {
          "internalType": "uint256",
          "name": "tokenId",
          "type": "uint256"
        }
      ],
      "name": "safeTransferFrom",
      "outputs": [],
      "payable": false,
      "stateMutability": "nonpayable",
      "type": "function"
    },
    {
      "constant": false,
      "inputs": [
        {
          "internalType": "address",
          "name": "from",
          "type": "address"
        },
        {
          "internalType": "address",
          "name": "to",
          "type": "address"
        },
        {
          "internalType": "uint256",
          "name": "tokenId",
          "type": "uint256"
        },
        {
          "internalType": "bytes",
          "name": "_data",
          "type": "bytes"
        }
      ],
      "name": "safeTransferFrom",
      "outputs": [],
      "payable": false,
      "stateMutability": "nonpayable",
      "type": "function"
    },
    {
      "constant": false,
      "inputs": [
        {
          "internalType": "address",
          "name": "to",
          "type": "address"
        },
        {
          "internalType": "bool",
          "name": "approved",
          "type": "bool"
        }
      ],
      "name": "setApprovalForAll",
      "outputs": [],
      "payable": false,
      "stateMutability": "nonpayable",
      "type": "function"
    },
    {
      "constant": true,
      "inputs": [
        {
          "internalType": "bytes4",
          "name": "interfaceId",
          "type": "bytes4"
        }
      ],
      "name": "supportsInterface",
      "outputs": [
        {
          "internalType": "bool",
          "name": "",
          "type": "bool"
        }
      ],
      "payable": false,
      "stateMutability": "view",
      "type": "function"
    },
    {
      "constant": false,
      "inputs": [
        {
          "internalType": "address",
          "name": "from",
          "type": "address"
        },
        {
          "internalType": "address",
          "name": "to",
          "type": "address"
        },
        {
          "internalType": "uint256",
          "name": "tokenId",
          "type": "uint256"
        }
      ],
      "name": "transferFrom",
      "outputs": [],
      "payable": false,
      "stateMutability": "nonpayable",
      "type": "function"
    },
    {
      "constant": false,
      "inputs": [
        {
          "internalType": "string",
          "name": "name",
          "type": "string"
        },
        {
          "internalType": "string",
          "name": "symbol",
          "type": "string"
        }
      ],
      "name": "initialize",
      "outputs": [],
      "payable": false,
      "stateMutability": "nonpayable",
      "type": "function"
    },
    {
      "constant": false,
      "inputs": [],
      "name": "initialize",
      "outputs": [],
      "payable": false,
      "stateMutability": "nonpayable",
      "type": "function"
    },
    {
      "constant": true,
      "inputs": [],
      "name": "name",
      "outputs": [
        {
          "internalType": "string",
          "name": "",
          "type": "string"
        }
      ],
      "payable": false,
      "stateMutability": "view",
      "type": "function"
    },
    {
      "constant": true,
      "inputs": [],
      "name": "symbol",
      "outputs": [
        {
          "internalType": "string",
          "name": "",
          "type": "string"
        }
      ],
      "payable": false,
      "stateMutability": "view",
      "type": "function"
    },
    {
      "constant": true,
      "inputs": [
        {
          "internalType": "uint256",
          "name": "tokenId",
          "type": "uint256"
        }
      ],
      "name": "tokenURI",
      "outputs": [
        {
          "internalType": "string",
          "name": "",
          "type": "string"
        }
      ],
      "payable": false,
      "stateMutability": "view",
      "type": "function"
    },
    {
      "constant": true,
      "inputs": [],
      "name": "baseURI",
      "outputs": [
        {
          "internalType": "string",
          "name": "",
          "type": "string"
        }
      ],
      "payable": false,
      "stateMutability": "view",
      "type": "function"
    }
  ],
  "bytecode": "0x60806040526118d5806100136000396000f3fe608060405234801561001057600080fd5b50600436106101005760003560e01c80636c0360eb11610097578063a22cb46511610066578063a22cb4651461042a578063b88d4fde14610458578063c87b56dd1461051e578063e985e9c51461053b57610100565b80636c0360eb146103da57806370a08231146103e25780638129fc1c1461041a57806395d89b411461042257610100565b806323b872dd116100d357806323b872dd1461022457806342842e0e1461025a5780634cd88b76146102905780636352211e146103bd57610100565b806301ffc9a71461010557806306fdde0314610140578063081812fc146101bd578063095ea7b3146101f6575b600080fd5b61012c6004803603602081101561011b57600080fd5b50356001600160e01b031916610569565b604080519115158252519081900360200190f35b61014861058c565b6040805160208082528351818301528351919283929083019185019080838360005b8381101561018257818101518382015260200161016a565b50505050905090810190601f1680156101af5780820380516001836020036101000a031916815260200191505b509250505060405180910390f35b6101da600480360360208110156101d357600080fd5b5035610623565b604080516001600160a01b039092168252519081900360200190f35b6102226004803603604081101561020c57600080fd5b506001600160a01b038135169060200135610685565b005b6102226004803603606081101561023a57600080fd5b506001600160a01b038135811691602081013590911690604001356107ad565b6102226004803603606081101561027057600080fd5b506001600160a01b03813581169160208101359091169060400135610809565b610222600480360360408110156102a657600080fd5b8101906020810181356401000000008111156102c157600080fd5b8201836020820111156102d357600080fd5b803590602001918460018302840111640100000000831117156102f557600080fd5b91908080601f016020809104026020016040519081016040528093929190818152602001838380828437600092019190915250929594936020810193503591505064010000000081111561034857600080fd5b82018360208201111561035a57600080fd5b8035906020019184600183028401116401000000008311171561037c57600080fd5b91908080601f016020809104026020016040519081016040528093929190818152602001838380828437600092019190915250929550610824945050505050565b6101da600480360360208110156103d357600080fd5b5035610910565b61014861096a565b610408600480360360208110156103f857600080fd5b50356001600160a01b03166109cb565b60408051918252519081900360200190f35b610222610a33565b610148610aed565b6102226004803603604081101561044057600080fd5b506001600160a01b0381351690602001351515610b4e565b6102226004803603608081101561046e57600080fd5b6001600160a01b038235811692602081013590911691604082013591908101906080810160608201356401000000008111156104a957600080fd5b8201836020820111156104bb57600080fd5b803590602001918460018302840111640100000000831117156104dd57600080fd5b91908080601f016020809104026020016040519081016040528093929190818152602001838380828437600092019190915250929550610c53945050505050565b6101486004803603602081101561053457600080fd5b5035610cb1565b61012c6004803603604081101561055157600080fd5b506001600160a01b0381358116916020013516610e7d565b6001600160e01b0319811660009081526033602052604090205460ff165b919050565b609c8054604080516020601f60026000196101006001881615020190951694909404938401819004810282018101909252828152606093909290918301828280156106185780601f106105ed57610100808354040283529160200191610618565b820191906000526020600020905b8154815290600101906020018083116105fb57829003601f168201915b505050505090505b90565b600061062e82610eab565b6106695760405162461bcd60e51b815260040180806020018281038252602c81526020018061179d602c913960400191505060405180910390fd5b506000908152606760205260409020546001600160a01b031690565b600061069082610910565b9050806001600160a01b0316836001600160a01b031614156106e35760405162461bcd60e51b815260040180806020018281038252602181526020018061184f6021913960400191505060405180910390fd5b806001600160a01b03166106f5610ec8565b6001600160a01b03161480610716575061071681610711610ec8565b610e7d565b6107515760405162461bcd60e51b81526004018080602001828103825260388152602001806117126038913960400191505060405180910390fd5b60008281526067602052604080822080546001600160a01b0319166001600160a01b0387811691821790925591518593918516917f8c5be1e5ebec7d5bd14f71427d1e84f3dd0314c0f7b2291e5b200ac8c7c3b92591a4505050565b6107be6107b8610ec8565b82610ecc565b6107f95760405162461bcd60e51b81526004018080602001828103825260318152602001806118706031913960400191505060405180910390fd5b610804838383610f70565b505050565b61080483838360405180602001604052806000815250610c53565b600054610100900460ff168061083d575061083d6110b4565b8061084b575060005460ff16155b6108865760405162461bcd60e51b815260040180806020018281038252602e8152602001806117c9602e913960400191505060405180910390fd5b600054610100900460ff161580156108b1576000805460ff1961ff0019909116610100171660011790555b6108b96110ba565b6108c257600080fd5b82516108d590609c9060208601906115f7565b5081516108e990609d9060208501906115f7565b506108fa635b5e139f60e01b6110d1565b8015610804576000805461ff0019169055505050565b6000818152606660205260408120546001600160a01b0316806109645760405162461bcd60e51b81526004018080602001828103825260298152602001806117746029913960400191505060405180910390fd5b92915050565b609f8054604080516020601f60026000196101006001881615020190951694909404938401819004810282018101909252828152606093909290918301828280156106185780601f106105ed57610100808354040283529160200191610618565b60006001600160a01b038216610a125760405162461bcd60e51b815260040180806020018281038252602a81526020018061174a602a913960400191505060405180910390fd5b6001600160a01b038216600090815260686020526040902061096490611155565b600054610100900460ff1680610a4c5750610a4c6110b4565b80610a5a575060005460ff16155b610a955760405162461bcd60e51b815260040180806020018281038252602e8152602001806117c9602e913960400191505060405180910390fd5b600054610100900460ff16158015610ac0576000805460ff1961ff0019909116610100171660011790555b610ac8611159565b610ad86380ac58cd60e01b6110d1565b8015610aea576000805461ff00191690555b50565b609d8054604080516020601f60026000196101006001881615020190951694909404938401819004810282018101909252828152606093909290918301828280156106185780601f106105ed57610100808354040283529160200191610618565b610b56610ec8565b6001600160a01b0316826001600160a01b03161415610bbc576040805162461bcd60e51b815260206004820152601960248201527f4552433732313a20617070726f766520746f2063616c6c657200000000000000604482015290519081900360640190fd5b8060696000610bc9610ec8565b6001600160a01b03908116825260208083019390935260409182016000908120918716808252919093529120805460ff191692151592909217909155610c0d610ec8565b60408051841515815290516001600160a01b0392909216917f17307eab39ab6107e8899845ad3d59bd9653f200f220920489ca2b5937696c319181900360200190a35050565b610c64610c5e610ec8565b83610ecc565b610c9f5760405162461bcd60e51b81526004018080602001828103825260318152602001806118706031913960400191505060405180910390fd5b610cab848484846111f6565b50505050565b6060610cbc82610eab565b610cf75760405162461bcd60e51b815260040180806020018281038252602f815260200180611820602f913960400191505060405180910390fd5b6000828152609e602090815260409182902080548351601f6002600019610100600186161502019093169290920491820184900484028101840190945280845260609392830182828015610d8c5780601f10610d6157610100808354040283529160200191610d8c565b820191906000526020600020905b815481529060010190602001808311610d6f57829003601f168201915b50505050509050805160001415610db3575050604080516020810190915260008152610587565b609f816040516020018083805460018160011615610100020316600290048015610e145780601f10610df2576101008083540402835291820191610e14565b820191906000526020600020905b815481529060010190602001808311610e00575b5050825160208401908083835b60208310610e405780518252601f199092019160209182019101610e21565b6001836020036101000a03801982511681845116808217855250505050505090500192505050604051602081830303815290604052915050610587565b6001600160a01b03918216600090815260696020908152604080832093909416825291909152205460ff1690565b6000908152606660205260409020546001600160a01b0316151590565b3390565b6000610ed782610eab565b610f125760405162461bcd60e51b815260040180806020018281038252602c8152602001806116e6602c913960400191505060405180910390fd5b6000610f1d83610910565b9050806001600160a01b0316846001600160a01b03161480610f585750836001600160a01b0316610f4d84610623565b6001600160a01b0316145b80610f685750610f688185610e7d565b949350505050565b826001600160a01b0316610f8382610910565b6001600160a01b031614610fc85760405162461bcd60e51b81526004018080602001828103825260298152602001806117f76029913960400191505060405180910390fd5b6001600160a01b03821661100d5760405162461bcd60e51b81526004018080602001828103825260248152602001806116c26024913960400191505060405180910390fd5b61101681611248565b6001600160a01b038316600090815260686020526040902061103790611283565b6001600160a01b03821660009081526068602052604090206110589061129a565b60008181526066602052604080822080546001600160a01b0319166001600160a01b0386811691821790925591518493918716917fddf252ad1be2c89b69c2b068fc378daa952ba7f163c4a11628f55a4df523b3ef91a4505050565b303b1590565b60006110cc6380ac58cd60e01b610569565b905090565b6001600160e01b03198082161415611130576040805162461bcd60e51b815260206004820152601c60248201527f4552433136353a20696e76616c696420696e7465726661636520696400000000604482015290519081900360640190fd5b6001600160e01b0319166000908152603360205260409020805460ff19166001179055565b5490565b600054610100900460ff168061117257506111726110b4565b80611180575060005460ff16155b6111bb5760405162461bcd60e51b815260040180806020018281038252602e8152602001806117c9602e913960400191505060405180910390fd5b600054610100900460ff161580156111e6576000805460ff1961ff0019909116610100171660011790555b610ad86301ffc9a760e01b6110d1565b611201848484610f70565b61120d848484846112a3565b610cab5760405162461bcd60e51b81526004018080602001828103825260328152602001806116906032913960400191505060405180910390fd5b6000818152606760205260409020546001600160a01b031615610aea57600090815260676020526040902080546001600160a01b0319169055565b805461129690600163ffffffff6114de16565b9055565b80546001019055565b60006112b7846001600160a01b0316611527565b6112c357506001610f68565b600060606001600160a01b038616630a85bd0160e11b6112e1610ec8565b89888860405160240180856001600160a01b03166001600160a01b03168152602001846001600160a01b03166001600160a01b0316815260200183815260200180602001828103825283818151815260200191508051906020019080838360005b8381101561135a578181015183820152602001611342565b50505050905090810190601f1680156113875780820380516001836020036101000a031916815260200191505b5060408051601f198184030181529181526020820180516001600160e01b03166001600160e01b0319909a16999099178952518151919890975087965094509250829150849050835b602083106113ef5780518252601f1990920191602091820191016113d0565b6001836020036101000a0380198251168184511680821785525050505050509050019150506000604051808303816000865af19150503d8060008114611451576040519150601f19603f3d011682016040523d82523d6000602084013e611456565b606091505b5091509150816114a7578051156114705780518082602001fd5b60405162461bcd60e51b81526004018080602001828103825260328152602001806116906032913960400191505060405180910390fd5b60008180602001905160208110156114be57600080fd5b50516001600160e01b031916630a85bd0160e11b149350610f6892505050565b600061152083836040518060400160405280601e81526020017f536166654d6174683a207375627472616374696f6e206f766572666c6f770000815250611560565b9392505050565b6000813f7fc5d2460186f7233c927e7db2dcc703c0e500b653ca82273b7bfad8045d85a470818114801590610f68575050151592915050565b600081848411156115ef5760405162461bcd60e51b81526004018080602001828103825283818151815260200191508051906020019080838360005b838110156115b457818101518382015260200161159c565b50505050905090810190601f1680156115e15780820380516001836020036101000a031916815260200191505b509250505060405180910390fd5b505050900390565b828054600181600116156101000203166002900490600052602060002090601f016020900481019282601f1061163857805160ff1916838001178555611665565b82800160010185558215611665579182015b8281111561166557825182559160200191906001019061164a565b50611671929150611675565b5090565b61062091905b80821115611671576000815560010161167b56fe4552433732313a207472616e7366657220746f206e6f6e20455243373231526563656976657220696d706c656d656e7465724552433732313a207472616e7366657220746f20746865207a65726f20616464726573734552433732313a206f70657261746f7220717565727920666f72206e6f6e6578697374656e7420746f6b656e4552433732313a20617070726f76652063616c6c6572206973206e6f74206f776e6572206e6f7220617070726f76656420666f7220616c6c4552433732313a2062616c616e636520717565727920666f7220746865207a65726f20616464726573734552433732313a206f776e657220717565727920666f72206e6f6e6578697374656e7420746f6b656e4552433732313a20617070726f76656420717565727920666f72206e6f6e6578697374656e7420746f6b656e436f6e747261637420696e7374616e63652068617320616c7265616479206265656e20696e697469616c697a65644552433732313a207472616e73666572206f6620746f6b656e2074686174206973206e6f74206f776e4552433732314d657461646174613a2055524920717565727920666f72206e6f6e6578697374656e7420746f6b656e4552433732313a20617070726f76616c20746f2063757272656e74206f776e65724552433732313a207472616e736665722063616c6c6572206973206e6f74206f776e6572206e6f7220617070726f766564a265627a7a723158200ce5be232f9df53077e7f962be203762ecdfcfbfd7ab60fe44e8987f7f39096a64736f6c63430005110032",
  "source": "pragma solidity ^0.5.0;\n\nimport \"@openzeppelin/upgrades/contracts/Initializable.sol\";\n\nimport \"../../GSN/Context.sol\";\nimport \"./ERC721.sol\";\nimport \"./IERC721Metadata.sol\";\nimport \"../../introspection/ERC165.sol\";\n\ncontract ERC721Metadata is Initializable, Context, ERC165, ERC721, IERC721Metadata {\n    // Token name\n    string private _name;\n\n    // Token symbol\n    string private _symbol;\n\n    // Optional mapping for token URIs\n    mapping(uint256 => string) private _tokenURIs;\n\n    // Base URI\n    string private _baseURI;\n\n    /*\n     *     bytes4(keccak256('name()')) == 0x06fdde03\n     *     bytes4(keccak256('symbol()')) == 0x95d89b41\n     *     bytes4(keccak256('tokenURI(uint256)')) == 0xc87b56dd\n     *\n     *     => 0x06fdde03 ^ 0x95d89b41 ^ 0xc87b56dd == 0x5b5e139f\n     */\n    bytes4 private constant _INTERFACE_ID_ERC721_METADATA = 0x5b5e139f;\n\n    /**\n     * @dev Constructor function\n     */\n    function initialize(string memory name, string memory symbol) public initializer {\n        require(ERC721._hasBeenInitialized());\n\n        _name = name;\n        _symbol = symbol;\n\n        // register the supported interfaces to conform to ERC721 via ERC165\n        _registerInterface(_INTERFACE_ID_ERC721_METADATA);\n    }\n\n    function _hasBeenInitialized() internal view returns (bool) {\n        return supportsInterface(_INTERFACE_ID_ERC721_METADATA);\n    }\n\n    /**\n     * @dev Gets the token name.\n     * @return string representing the token name\n     */\n    function name() external view returns (string memory) {\n        return _name;\n    }\n\n    /**\n     * @dev Gets the token symbol.\n     * @return string representing the token symbol\n     */\n    function symbol() external view returns (string memory) {\n        return _symbol;\n    }\n\n    /**\n     * @dev Returns the URI for a given token ID. May return an empty string.\n     *\n     * If the token's URI is non-empty and a base URI was set (via\n     * {_setBaseURI}), it will be added to the token ID's URI as a prefix.\n     *\n     * Reverts if the token ID does not exist.\n     */\n    function tokenURI(uint256 tokenId) external view returns (string memory) {\n        require(_exists(tokenId), \"ERC721Metadata: URI query for nonexistent token\");\n\n        string memory _tokenURI = _tokenURIs[tokenId];\n\n        // Even if there is a base URI, it is only appended to non-empty token-specific URIs\n        if (bytes(_tokenURI).length == 0) {\n            return \"\";\n        } else {\n            // abi.encodePacked is being used to concatenate strings\n            return string(abi.encodePacked(_baseURI, _tokenURI));\n        }\n    }\n\n    /**\n     * @dev Internal function to set the token URI for a given token.\n     *\n     * Reverts if the token ID does not exist.\n     *\n     * TIP: if all token IDs share a prefix (e.g. if your URIs look like\n     * `http://api.myproject.com/token/<id>`), use {_setBaseURI} to store\n     * it and save gas.\n     */\n    function _setTokenURI(uint256 tokenId, string memory _tokenURI) internal {\n        require(_exists(tokenId), \"ERC721Metadata: URI set of nonexistent token\");\n        _tokenURIs[tokenId] = _tokenURI;\n    }\n\n    /**\n     * @dev Internal function to set the base URI for all token IDs. It is\n     * automatically added as a prefix to the value returned in {tokenURI}.\n     *\n     * _Available since v2.5.0._\n     */\n    function _setBaseURI(string memory baseURI) internal {\n        _baseURI = baseURI;\n    }\n\n    /**\n    * @dev Returns the base URI set via {_setBaseURI}. This will be\n    * automatically added as a preffix in {tokenURI} to each token's URI, when\n    * they are non-empty.\n    *\n    * _Available since v2.5.0._\n    */\n    function baseURI() external view returns (string memory) {\n        return _baseURI;\n    }\n\n    /**\n     * @dev Internal function to burn a specific token.\n     * Reverts if the token does not exist.\n     * Deprecated, use _burn(uint256) instead.\n     * @param owner owner of the token to burn\n     * @param tokenId uint256 ID of the token being burned by the msg.sender\n     */\n    function _burn(address owner, uint256 tokenId) internal {\n        super._burn(owner, tokenId);\n\n        // Clear metadata (if any)\n        if (bytes(_tokenURIs[tokenId]).length != 0) {\n            delete _tokenURIs[tokenId];\n        }\n    }\n\n    uint256[49] private ______gap;\n}\n",
  "sourcePath": "../vendered/@openzeppelin/contracts-ethereum-package-3.0.0/contracts/token/ERC721/ERC721Metadata.sol",
  "compiler": {
    "name": "solc",
    "version": "0.5.17+commit.d19bba13.Emscripten.clang"
  },
  "schemaVersion": "3.2.1",
  "updatedAt": "2020-07-13T06:59:11.399Z",
  "devdoc": {
    "methods": {
      "approve(address,uint256)": {
        "details": "Approves another address to transfer the given token ID The zero address indicates there is no approved address. There can only be one approved address per token at a given time. Can only be called by the token owner or an approved operator.",
        "params": {
          "to": "address to be approved for the given token ID",
          "tokenId": "uint256 ID of the token to be approved"
        }
      },
      "balanceOf(address)": {
        "details": "Gets the balance of the specified address.",
        "params": {
          "owner": "address to query the balance of"
        },
        "return": "uint256 representing the amount owned by the passed address"
      },
      "baseURI()": {
        "details": "Returns the base URI set via {_setBaseURI}. This will be automatically added as a preffix in {tokenURI} to each token's URI, when they are non-empty.    * _Available since v2.5.0._"
      },
      "getApproved(uint256)": {
        "details": "Gets the approved address for a token ID, or zero if no address set Reverts if the token ID does not exist.",
        "params": {
          "tokenId": "uint256 ID of the token to query the approval of"
        },
        "return": "address currently approved for the given token ID"
      },
      "initialize(string,string)": {
        "details": "Constructor function"
      },
      "isApprovedForAll(address,address)": {
        "details": "Tells whether an operator is approved by a given owner.",
        "params": {
          "operator": "operator address which you want to query the approval of",
          "owner": "owner address which you want to query the approval of"
        },
        "return": "bool whether the given operator is approved by the given owner"
      },
      "name()": {
        "details": "Gets the token name.",
        "return": "string representing the token name"
      },
      "ownerOf(uint256)": {
        "details": "Gets the owner of the specified token ID.",
        "params": {
          "tokenId": "uint256 ID of the token to query the owner of"
        },
        "return": "address currently marked as the owner of the given token ID"
      },
      "safeTransferFrom(address,address,uint256)": {
        "details": "Safely transfers the ownership of a given token ID to another address If the target address is a contract, it must implement {IERC721Receiver-onERC721Received}, which is called upon a safe transfer, and return the magic value `bytes4(keccak256(\"onERC721Received(address,address,uint256,bytes)\"))`; otherwise, the transfer is reverted. Requires the msg.sender to be the owner, approved, or operator",
        "params": {
          "from": "current owner of the token",
          "to": "address to receive the ownership of the given token ID",
          "tokenId": "uint256 ID of the token to be transferred"
        }
      },
      "safeTransferFrom(address,address,uint256,bytes)": {
        "details": "Safely transfers the ownership of a given token ID to another address If the target address is a contract, it must implement {IERC721Receiver-onERC721Received}, which is called upon a safe transfer, and return the magic value `bytes4(keccak256(\"onERC721Received(address,address,uint256,bytes)\"))`; otherwise, the transfer is reverted. Requires the _msgSender() to be the owner, approved, or operator",
        "params": {
          "_data": "bytes data to send along with a safe transfer check",
          "from": "current owner of the token",
          "to": "address to receive the ownership of the given token ID",
          "tokenId": "uint256 ID of the token to be transferred"
        }
      },
      "setApprovalForAll(address,bool)": {
        "details": "Sets or unsets the approval of a given operator An operator is allowed to transfer all tokens of the sender on their behalf.",
        "params": {
          "approved": "representing the status of the approval to be set",
          "to": "operator address to set the approval"
        }
      },
      "supportsInterface(bytes4)": {
        "details": "See {IERC165-supportsInterface}.     * Time complexity O(1), guaranteed to always use less than 30 000 gas."
      },
      "symbol()": {
        "details": "Gets the token symbol.",
        "return": "string representing the token symbol"
      },
      "tokenURI(uint256)": {
        "details": "Returns the URI for a given token ID. May return an empty string.     * If the token's URI is non-empty and a base URI was set (via {_setBaseURI}), it will be added to the token ID's URI as a prefix.     * Reverts if the token ID does not exist."
      },
      "transferFrom(address,address,uint256)": {
        "details": "Transfers the ownership of a given token ID to another address. Usage of this method is discouraged, use {safeTransferFrom} whenever possible. Requires the msg.sender to be the owner, approved, or operator.",
        "params": {
          "from": "current owner of the token",
          "to": "address to receive the ownership of the given token ID",
          "tokenId": "uint256 ID of the token to be transferred"
        }
      }
    }
  },
  "userdoc": {
    "methods": {}
  }
}