{
  "contractName": "ERC721MetadataMintable",
  "abi": [
    {
      "anonymous": false,
      "inputs": [
        {
          "indexed": true,
          "internalType": "address",
          "name": "owner",
          "type": "address"
        },
        {
          "indexed": true,
          "internalType": "address",
          "name": "approved",
          "type": "address"
        },
        {
          "indexed": true,
          "internalType": "uint256",
          "name": "tokenId",
          "type": "uint256"
        }
      ],
      "name": "Approval",
      "type": "event"
    },
    {
      "anonymous": false,
      "inputs": [
        {
          "indexed": true,
          "internalType": "address",
          "name": "owner",
          "type": "address"
        },
        {
          "indexed": true,
          "internalType": "address",
          "name": "operator",
          "type": "address"
        },
        {
          "indexed": false,
          "internalType": "bool",
          "name": "approved",
          "type": "bool"
        }
      ],
      "name": "ApprovalForAll",
      "type": "event"
    },
    {
      "anonymous": false,
      "inputs": [
        {
          "indexed": true,
          "internalType": "address",
          "name": "account",
          "type": "address"
        }
      ],
      "name": "MinterAdded",
      "type": "event"
    },
    {
      "anonymous": false,
      "inputs": [
        {
          "indexed": true,
          "internalType": "address",
          "name": "account",
          "type": "address"
        }
      ],
      "name": "MinterRemoved",
      "type": "event"
    },
    {
      "anonymous": false,
      "inputs": [
        {
          "indexed": true,
          "internalType": "address",
          "name": "from",
          "type": "address"
        },
        {
          "indexed": true,
          "internalType": "address",
          "name": "to",
          "type": "address"
        },
        {
          "indexed": true,
          "internalType": "uint256",
          "name": "tokenId",
          "type": "uint256"
        }
      ],
      "name": "Transfer",
      "type": "event"
    },
    {
      "constant": false,
      "inputs": [
        {
          "internalType": "address",
          "name": "account",
          "type": "address"
        }
      ],
      "name": "addMinter",
      "outputs": [],
      "payable": false,
      "stateMutability": "nonpayable",
      "type": "function"
    },
    {
      "constant": false,
      "inputs": [
        {
          "internalType": "address",
          "name": "to",
          "type": "address"
        },
        {
          "internalType": "uint256",
          "name": "tokenId",
          "type": "uint256"
        }
      ],
      "name": "approve",
      "outputs": [],
      "payable": false,
      "stateMutability": "nonpayable",
      "type": "function"
    },
    {
      "constant": true,
      "inputs": [
        {
          "internalType": "address",
          "name": "owner",
          "type": "address"
        }
      ],
      "name": "balanceOf",
      "outputs": [
        {
          "internalType": "uint256",
          "name": "",
          "type": "uint256"
        }
      ],
      "payable": false,
      "stateMutability": "view",
      "type": "function"
    },
    {
      "constant": true,
      "inputs": [],
      "name": "baseURI",
      "outputs": [
        {
          "internalType": "string",
          "name": "",
          "type": "string"
        }
      ],
      "payable": false,
      "stateMutability": "view",
      "type": "function"
    },
    {
      "constant": true,
      "inputs": [
        {
          "internalType": "uint256",
          "name": "tokenId",
          "type": "uint256"
        }
      ],
      "name": "getApproved",
      "outputs": [
        {
          "internalType": "address",
          "name": "",
          "type": "address"
        }
      ],
      "payable": false,
      "stateMutability": "view",
      "type": "function"
    },
    {
      "constant": true,
      "inputs": [
        {
          "internalType": "address",
          "name": "owner",
          "type": "address"
        },
        {
          "internalType": "address",
          "name": "operator",
          "type": "address"
        }
      ],
      "name": "isApprovedForAll",
      "outputs": [
        {
          "internalType": "bool",
          "name": "",
          "type": "bool"
        }
      ],
      "payable": false,
      "stateMutability": "view",
      "type": "function"
    },
    {
      "constant": true,
      "inputs": [
        {
          "internalType": "address",
          "name": "account",
          "type": "address"
        }
      ],
      "name": "isMinter",
      "outputs": [
        {
          "internalType": "bool",
          "name": "",
          "type": "bool"
        }
      ],
      "payable": false,
      "stateMutability": "view",
      "type": "function"
    },
    {
      "constant": true,
      "inputs": [],
      "name": "name",
      "outputs": [
        {
          "internalType": "string",
          "name": "",
          "type": "string"
        }
      ],
      "payable": false,
      "stateMutability": "view",
      "type": "function"
    },
    {
      "constant": true,
      "inputs": [
        {
          "internalType": "uint256",
          "name": "tokenId",
          "type": "uint256"
        }
      ],
      "name": "ownerOf",
      "outputs": [
        {
          "internalType": "address",
          "name": "",
          "type": "address"
        }
      ],
      "payable": false,
      "stateMutability": "view",
      "type": "function"
    },
    {
      "constant": false,
      "inputs": [],
      "name": "renounceMinter",
      "outputs": [],
      "payable": false,
      "stateMutability": "nonpayable",
      "type": "function"
    },
    {
      "constant": false,
      "inputs": [
        {
          "internalType": "address",
          "name": "from",
          "type": "address"
        },
        {
          "internalType": "address",
          "name": "to",
          "type": "address"
        },
        {
          "internalType": "uint256",
          "name": "tokenId",
          "type": "uint256"
        }
      ],
      "name": "safeTransferFrom",
      "outputs": [],
      "payable": false,
      "stateMutability": "nonpayable",
      "type": "function"
    },
    {
      "constant": false,
      "inputs": [
        {
          "internalType": "address",
          "name": "from",
          "type": "address"
        },
        {
          "internalType": "address",
          "name": "to",
          "type": "address"
        },
        {
          "internalType": "uint256",
          "name": "tokenId",
          "type": "uint256"
        },
        {
          "internalType": "bytes",
          "name": "_data",
          "type": "bytes"
        }
      ],
      "name": "safeTransferFrom",
      "outputs": [],
      "payable": false,
      "stateMutability": "nonpayable",
      "type": "function"
    },
    {
      "constant": false,
      "inputs": [
        {
          "internalType": "address",
          "name": "to",
          "type": "address"
        },
        {
          "internalType": "bool",
          "name": "approved",
          "type": "bool"
        }
      ],
      "name": "setApprovalForAll",
      "outputs": [],
      "payable": false,
      "stateMutability": "nonpayable",
      "type": "function"
    },
    {
      "constant": true,
      "inputs": [
        {
          "internalType": "bytes4",
          "name": "interfaceId",
          "type": "bytes4"
        }
      ],
      "name": "supportsInterface",
      "outputs": [
        {
          "internalType": "bool",
          "name": "",
          "type": "bool"
        }
      ],
      "payable": false,
      "stateMutability": "view",
      "type": "function"
    },
    {
      "constant": true,
      "inputs": [],
      "name": "symbol",
      "outputs": [
        {
          "internalType": "string",
          "name": "",
          "type": "string"
        }
      ],
      "payable": false,
      "stateMutability": "view",
      "type": "function"
    },
    {
      "constant": true,
      "inputs": [
        {
          "internalType": "uint256",
          "name": "tokenId",
          "type": "uint256"
        }
      ],
      "name": "tokenURI",
      "outputs": [
        {
          "internalType": "string",
          "name": "",
          "type": "string"
        }
      ],
      "payable": false,
      "stateMutability": "view",
      "type": "function"
    },
    {
      "constant": false,
      "inputs": [
        {
          "internalType": "address",
          "name": "from",
          "type": "address"
        },
        {
          "internalType": "address",
          "name": "to",
          "type": "address"
        },
        {
          "internalType": "uint256",
          "name": "tokenId",
          "type": "uint256"
        }
      ],
      "name": "transferFrom",
      "outputs": [],
      "payable": false,
      "stateMutability": "nonpayable",
      "type": "function"
    },
    {
      "constant": false,
      "inputs": [
        {
          "internalType": "string",
          "name": "name",
          "type": "string"
        },
        {
          "internalType": "string",
          "name": "symbol",
          "type": "string"
        }
      ],
      "name": "initialize",
      "outputs": [],
      "payable": false,
      "stateMutability": "nonpayable",
      "type": "function"
    },
    {
      "constant": false,
      "inputs": [],
      "name": "initialize",
      "outputs": [],
      "payable": false,
      "stateMutability": "nonpayable",
      "type": "function"
    },
    {
      "constant": false,
      "inputs": [
        {
          "internalType": "address",
          "name": "sender",
          "type": "address"
        }
      ],
      "name": "initialize",
      "outputs": [],
      "payable": false,
      "stateMutability": "nonpayable",
      "type": "function"
    },
    {
      "constant": false,
      "inputs": [
        {
          "internalType": "address",
          "name": "to",
          "type": "address"
        },
        {
          "internalType": "uint256",
          "name": "tokenId",
          "type": "uint256"
        },
        {
          "internalType": "string",
          "name": "tokenURI",
          "type": "string"
        }
      ],
      "name": "mintWithTokenURI",
      "outputs": [
        {
          "internalType": "bool",
          "name": "",
          "type": "bool"
        }
      ],
      "payable": false,
      "stateMutability": "nonpayable",
      "type": "function"
    }
  ],
  "bytecode": "0x60806040526120ad806100136000396000f3fe608060405234801561001057600080fd5b50600436106101375760003560e01c806370a08231116100b8578063a22cb4651161007c578063a22cb46514610544578063aa271e1a14610572578063b88d4fde14610598578063c4d66de81461065c578063c87b56dd14610682578063e985e9c51461069f57610137565b806370a08231146104ce5780638129fc1c1461050657806395d89b411461050e578063983b2d5614610516578063986502751461053c57610137565b806342842e0e116100ff57806342842e0e146102915780634cd88b76146102c757806350bb4e7f146103f05780636352211e146104a95780636c0360eb146104c657610137565b806301ffc9a71461013c57806306fdde0314610177578063081812fc146101f4578063095ea7b31461022d57806323b872dd1461025b575b600080fd5b6101636004803603602081101561015257600080fd5b50356001600160e01b0319166106cd565b604080519115158252519081900360200190f35b61017f6106f0565b6040805160208082528351818301528351919283929083019185019080838360005b838110156101b95781810151838201526020016101a1565b50505050905090810190601f1680156101e65780820380516001836020036101000a031916815260200191505b509250505060405180910390f35b6102116004803603602081101561020a57600080fd5b5035610787565b604080516001600160a01b039092168252519081900360200190f35b6102596004803603604081101561024357600080fd5b506001600160a01b0381351690602001356107e9565b005b6102596004803603606081101561027157600080fd5b506001600160a01b03813581169160208101359091169060400135610911565b610259600480360360608110156102a757600080fd5b506001600160a01b0381358116916020810135909116906040013561096d565b610259600480360360408110156102dd57600080fd5b810190602081018135600160201b8111156102f757600080fd5b82018360208201111561030957600080fd5b803590602001918460018302840111600160201b8311171561032a57600080fd5b91908080601f0160208091040260200160405190810160405280939291908181526020018383808284376000920191909152509295949360208101935035915050600160201b81111561037c57600080fd5b82018360208201111561038e57600080fd5b803590602001918460018302840111600160201b831117156103af57600080fd5b91908080601f016020809104026020016040519081016040528093929190818152602001838380828437600092019190915250929550610988945050505050565b6101636004803603606081101561040657600080fd5b6001600160a01b0382351691602081013591810190606081016040820135600160201b81111561043557600080fd5b82018360208201111561044757600080fd5b803590602001918460018302840111600160201b8311171561046857600080fd5b91908080601f016020809104026020016040519081016040528093929190818152602001838380828437600092019190915250929550610a74945050505050565b610211600480360360208110156104bf57600080fd5b5035610adf565b61017f610b39565b6104f4600480360360208110156104e457600080fd5b50356001600160a01b0316610b9a565b60408051918252519081900360200190f35b610259610c02565b61017f610cbc565b6102596004803603602081101561052c57600080fd5b50356001600160a01b0316610d1d565b610259610d6c565b6102596004803603604081101561055a57600080fd5b506001600160a01b0381351690602001351515610d7e565b6101636004803603602081101561058857600080fd5b50356001600160a01b0316610e83565b610259600480360360808110156105ae57600080fd5b6001600160a01b03823581169260208101359091169160408201359190810190608081016060820135600160201b8111156105e857600080fd5b8201836020820111156105fa57600080fd5b803590602001918460018302840111600160201b8311171561061b57600080fd5b91908080601f016020809104026020016040519081016040528093929190818152602001838380828437600092019190915250929550610e96945050505050565b6102596004803603602081101561067257600080fd5b50356001600160a01b0316610ef4565b61017f6004803603602081101561069857600080fd5b5035610fc2565b610163600480360360408110156106b557600080fd5b506001600160a01b038135811691602001351661118e565b6001600160e01b0319811660009081526033602052604090205460ff165b919050565b609c8054604080516020601f600260001961010060018816150201909516949094049384018190048102820181019092528281526060939092909183018282801561077c5780601f106107515761010080835404028352916020019161077c565b820191906000526020600020905b81548152906001019060200180831161075f57829003601f168201915b505050505090505b90565b6000610792826111bc565b6107cd5760405162461bcd60e51b815260040180806020018281038252602c815260200180611f27602c913960400191505060405180910390fd5b506000908152606760205260409020546001600160a01b031690565b60006107f482610adf565b9050806001600160a01b0316836001600160a01b031614156108475760405162461bcd60e51b81526004018080602001828103825260218152602001806120276021913960400191505060405180910390fd5b806001600160a01b03166108596111d9565b6001600160a01b0316148061087a575061087a816108756111d9565b61118e565b6108b55760405162461bcd60e51b8152600401808060200182810382526038815260200180611e4b6038913960400191505060405180910390fd5b60008281526067602052604080822080546001600160a01b0319166001600160a01b0387811691821790925591518593918516917f8c5be1e5ebec7d5bd14f71427d1e84f3dd0314c0f7b2291e5b200ac8c7c3b92591a4505050565b61092261091c6111d9565b826111dd565b61095d5760405162461bcd60e51b81526004018080602001828103825260318152602001806120486031913960400191505060405180910390fd5b610968838383611281565b505050565b61096883838360405180602001604052806000815250610e96565b600054610100900460ff16806109a157506109a16113c5565b806109af575060005460ff16155b6109ea5760405162461bcd60e51b815260040180806020018281038252602e815260200180611fa1602e913960400191505060405180910390fd5b600054610100900460ff16158015610a15576000805460ff1961ff0019909116610100171660011790555b610a1d6113cb565b610a2657600080fd5b8251610a3990609c906020860190611d30565b508151610a4d90609d906020850190611d30565b50610a5e635b5e139f60e01b6113e2565b8015610968576000805461ff0019169055505050565b6000610a86610a816111d9565b610e83565b610ac15760405162461bcd60e51b8152600401808060200182810382526030815260200180611ed66030913960400191505060405180910390fd5b610acb8484611466565b610ad58383611597565b5060019392505050565b6000818152606660205260408120546001600160a01b031680610b335760405162461bcd60e51b8152600401808060200182810382526029815260200180611ead6029913960400191505060405180910390fd5b92915050565b609f8054604080516020601f600260001961010060018816150201909516949094049384018190048102820181019092528281526060939092909183018282801561077c5780601f106107515761010080835404028352916020019161077c565b60006001600160a01b038216610be15760405162461bcd60e51b815260040180806020018281038252602a815260200180611e83602a913960400191505060405180910390fd5b6001600160a01b0382166000908152606860205260409020610b33906115fa565b600054610100900460ff1680610c1b5750610c1b6113c5565b80610c29575060005460ff16155b610c645760405162461bcd60e51b815260040180806020018281038252602e815260200180611fa1602e913960400191505060405180910390fd5b600054610100900460ff16158015610c8f576000805460ff1961ff0019909116610100171660011790555b610c976115fe565b610ca76380ac58cd60e01b6113e2565b8015610cb9576000805461ff00191690555b50565b609d8054604080516020601f600260001961010060018816150201909516949094049384018190048102820181019092528281526060939092909183018282801561077c5780601f106107515761010080835404028352916020019161077c565b610d28610a816111d9565b610d635760405162461bcd60e51b8152600401808060200182810382526030815260200180611ed66030913960400191505060405180910390fd5b610cb98161169b565b610d7c610d776111d9565b6116e3565b565b610d866111d9565b6001600160a01b0316826001600160a01b03161415610dec576040805162461bcd60e51b815260206004820152601960248201527f4552433732313a20617070726f766520746f2063616c6c657200000000000000604482015290519081900360640190fd5b8060696000610df96111d9565b6001600160a01b03908116825260208083019390935260409182016000908120918716808252919093529120805460ff191692151592909217909155610e3d6111d9565b60408051841515815290516001600160a01b0392909216917f17307eab39ab6107e8899845ad3d59bd9653f200f220920489ca2b5937696c319181900360200190a35050565b6000610b3360d18363ffffffff61172b16565b610ea7610ea16111d9565b836111dd565b610ee25760405162461bcd60e51b81526004018080602001828103825260318152602001806120486031913960400191505060405180910390fd5b610eee84848484611792565b50505050565b600054610100900460ff1680610f0d5750610f0d6113c5565b80610f1b575060005460ff16155b610f565760405162461bcd60e51b815260040180806020018281038252602e815260200180611fa1602e913960400191505060405180910390fd5b600054610100900460ff16158015610f81576000805460ff1961ff0019909116610100171660011790555b610f896113cb565b610f9257600080fd5b610f9a6117e4565b610fa357600080fd5b610fac826117f6565b8015610fbe576000805461ff00191690555b5050565b6060610fcd826111bc565b6110085760405162461bcd60e51b815260040180806020018281038252602f815260200180611ff8602f913960400191505060405180910390fd5b6000828152609e602090815260409182902080548351601f600260001961010060018616150201909316929092049182018490048402810184019094528084526060939283018282801561109d5780601f106110725761010080835404028352916020019161109d565b820191906000526020600020905b81548152906001019060200180831161108057829003601f168201915b505050505090508051600014156110c45750506040805160208101909152600081526106eb565b609f8160405160200180838054600181600116156101000203166002900480156111255780601f10611103576101008083540402835291820191611125565b820191906000526020600020905b815481529060010190602001808311611111575b5050825160208401908083835b602083106111515780518252601f199092019160209182019101611132565b6001836020036101000a038019825116818451168082178552505050505050905001925050506040516020818303038152906040529150506106eb565b6001600160a01b03918216600090815260696020908152604080832093909416825291909152205460ff1690565b6000908152606660205260409020546001600160a01b0316151590565b3390565b60006111e8826111bc565b6112235760405162461bcd60e51b815260040180806020018281038252602c815260200180611e1f602c913960400191505060405180910390fd5b600061122e83610adf565b9050806001600160a01b0316846001600160a01b031614806112695750836001600160a01b031661125e84610787565b6001600160a01b0316145b806112795750611279818561118e565b949350505050565b826001600160a01b031661129482610adf565b6001600160a01b0316146112d95760405162461bcd60e51b8152600401808060200182810382526029815260200180611fcf6029913960400191505060405180910390fd5b6001600160a01b03821661131e5760405162461bcd60e51b8152600401808060200182810382526024815260200180611dfb6024913960400191505060405180910390fd5b61132781611899565b6001600160a01b0383166000908152606860205260409020611348906118d4565b6001600160a01b0382166000908152606860205260409020611369906118eb565b60008181526066602052604080822080546001600160a01b0319166001600160a01b0386811691821790925591518493918716917fddf252ad1be2c89b69c2b068fc378daa952ba7f163c4a11628f55a4df523b3ef91a4505050565b303b1590565b60006113dd6380ac58cd60e01b6106cd565b905090565b6001600160e01b03198082161415611441576040805162461bcd60e51b815260206004820152601c60248201527f4552433136353a20696e76616c696420696e7465726661636520696400000000604482015290519081900360640190fd5b6001600160e01b0319166000908152603360205260409020805460ff19166001179055565b6001600160a01b0382166114c1576040805162461bcd60e51b815260206004820181905260248201527f4552433732313a206d696e7420746f20746865207a65726f2061646472657373604482015290519081900360640190fd5b6114ca816111bc565b1561151c576040805162461bcd60e51b815260206004820152601c60248201527f4552433732313a20746f6b656e20616c7265616479206d696e74656400000000604482015290519081900360640190fd5b600081815260666020908152604080832080546001600160a01b0319166001600160a01b03871690811790915583526068909152902061155b906118eb565b60405181906001600160a01b038416906000907fddf252ad1be2c89b69c2b068fc378daa952ba7f163c4a11628f55a4df523b3ef908290a45050565b6115a0826111bc565b6115db5760405162461bcd60e51b815260040180806020018281038252602c815260200180611f53602c913960400191505060405180910390fd5b6000828152609e60209081526040909120825161096892840190611d30565b5490565b600054610100900460ff168061161757506116176113c5565b80611625575060005460ff16155b6116605760405162461bcd60e51b815260040180806020018281038252602e815260200180611fa1602e913960400191505060405180910390fd5b600054610100900460ff1615801561168b576000805460ff1961ff0019909116610100171660011790555b610ca76301ffc9a760e01b6113e2565b6116ac60d18263ffffffff6118f416565b6040516001600160a01b038216907f6ae172837ea30b801fbfcdd4108aa1d5bf8ff775444fd70256b44e6bf3dfc3f690600090a250565b6116f460d18263ffffffff61197516565b6040516001600160a01b038216907fe94479a9f7e1952cc78f2d6baab678adc1b772d936c6583def489e524cb6669290600090a250565b60006001600160a01b0382166117725760405162461bcd60e51b8152600401808060200182810382526022815260200180611f7f6022913960400191505060405180910390fd5b506001600160a01b03166000908152602091909152604090205460ff1690565b61179d848484611281565b6117a9848484846119dc565b610eee5760405162461bcd60e51b8152600401808060200182810382526032815260200180611dc96032913960400191505060405180910390fd5b60006113dd635b5e139f60e01b6106cd565b600054610100900460ff168061180f575061180f6113c5565b8061181d575060005460ff16155b6118585760405162461bcd60e51b815260040180806020018281038252602e815260200180611fa1602e913960400191505060405180910390fd5b600054610100900460ff16158015611883576000805460ff1961ff0019909116610100171660011790555b61188c82610e83565b610fac57610fac8261169b565b6000818152606760205260409020546001600160a01b031615610cb957600090815260676020526040902080546001600160a01b0319169055565b80546118e790600163ffffffff611c1716565b9055565b80546001019055565b6118fe828261172b565b15611950576040805162461bcd60e51b815260206004820152601f60248201527f526f6c65733a206163636f756e7420616c72656164792068617320726f6c6500604482015290519081900360640190fd5b6001600160a01b0316600090815260209190915260409020805460ff19166001179055565b61197f828261172b565b6119ba5760405162461bcd60e51b8152600401808060200182810382526021815260200180611f066021913960400191505060405180910390fd5b6001600160a01b0316600090815260209190915260409020805460ff19169055565b60006119f0846001600160a01b0316611c60565b6119fc57506001611279565b600060606001600160a01b038616630a85bd0160e11b611a1a6111d9565b89888860405160240180856001600160a01b03166001600160a01b03168152602001846001600160a01b03166001600160a01b0316815260200183815260200180602001828103825283818151815260200191508051906020019080838360005b83811015611a93578181015183820152602001611a7b565b50505050905090810190601f168015611ac05780820380516001836020036101000a031916815260200191505b5060408051601f198184030181529181526020820180516001600160e01b03166001600160e01b0319909a16999099178952518151919890975087965094509250829150849050835b60208310611b285780518252601f199092019160209182019101611b09565b6001836020036101000a0380198251168184511680821785525050505050509050019150506000604051808303816000865af19150503d8060008114611b8a576040519150601f19603f3d011682016040523d82523d6000602084013e611b8f565b606091505b509150915081611be057805115611ba95780518082602001fd5b60405162461bcd60e51b8152600401808060200182810382526032815260200180611dc96032913960400191505060405180910390fd5b6000818060200190516020811015611bf757600080fd5b50516001600160e01b031916630a85bd0160e11b14935061127992505050565b6000611c5983836040518060400160405280601e81526020017f536166654d6174683a207375627472616374696f6e206f766572666c6f770000815250611c99565b9392505050565b6000813f7fc5d2460186f7233c927e7db2dcc703c0e500b653ca82273b7bfad8045d85a470818114801590611279575050151592915050565b60008184841115611d285760405162461bcd60e51b81526004018080602001828103825283818151815260200191508051906020019080838360005b83811015611ced578181015183820152602001611cd5565b50505050905090810190601f168015611d1a5780820380516001836020036101000a031916815260200191505b509250505060405180910390fd5b505050900390565b828054600181600116156101000203166002900490600052602060002090601f016020900481019282601f10611d7157805160ff1916838001178555611d9e565b82800160010185558215611d9e579182015b82811115611d9e578251825591602001919060010190611d83565b50611daa929150611dae565b5090565b61078491905b80821115611daa5760008155600101611db456fe4552433732313a207472616e7366657220746f206e6f6e20455243373231526563656976657220696d706c656d656e7465724552433732313a207472616e7366657220746f20746865207a65726f20616464726573734552433732313a206f70657261746f7220717565727920666f72206e6f6e6578697374656e7420746f6b656e4552433732313a20617070726f76652063616c6c6572206973206e6f74206f776e6572206e6f7220617070726f76656420666f7220616c6c4552433732313a2062616c616e636520717565727920666f7220746865207a65726f20616464726573734552433732313a206f776e657220717565727920666f72206e6f6e6578697374656e7420746f6b656e4d696e746572526f6c653a2063616c6c657220646f6573206e6f74206861766520746865204d696e74657220726f6c65526f6c65733a206163636f756e7420646f6573206e6f74206861766520726f6c654552433732313a20617070726f76656420717565727920666f72206e6f6e6578697374656e7420746f6b656e4552433732314d657461646174613a2055524920736574206f66206e6f6e6578697374656e7420746f6b656e526f6c65733a206163636f756e7420697320746865207a65726f2061646472657373436f6e747261637420696e7374616e63652068617320616c7265616479206265656e20696e697469616c697a65644552433732313a207472616e73666572206f6620746f6b656e2074686174206973206e6f74206f776e4552433732314d657461646174613a2055524920717565727920666f72206e6f6e6578697374656e7420746f6b656e4552433732313a20617070726f76616c20746f2063757272656e74206f776e65724552433732313a207472616e736665722063616c6c6572206973206e6f74206f776e6572206e6f7220617070726f766564a265627a7a723158209ec2f16abe01d384aaa57a0ef4bfeac56aeb2ff154189722cc80f11b24a0b1cf64736f6c63430005110032",
  "source": "pragma solidity ^0.5.0;\n\nimport \"@openzeppelin/upgrades/contracts/Initializable.sol\";\nimport \"./ERC721Metadata.sol\";\nimport \"../../access/roles/MinterRole.sol\";\n\n\n/**\n * @title ERC721MetadataMintable\n * @dev ERC721 minting logic with metadata.\n */\ncontract ERC721MetadataMintable is Initializable, ERC721, ERC721Metadata, MinterRole {\n    function initialize(address sender) public initializer {\n        require(ERC721._hasBeenInitialized());\n        require(ERC721Metadata._hasBeenInitialized());\n        MinterRole.initialize(sender);\n    }\n\n    /**\n     * @dev Function to mint tokens.\n     * @param to The address that will receive the minted tokens.\n     * @param tokenId The token id to mint.\n     * @param tokenURI The token URI of the minted token.\n     * @return A boolean that indicates if the operation was successful.\n     */\n    function mintWithTokenURI(address to, uint256 tokenId, string memory tokenURI) public onlyMinter returns (bool) {\n        _mint(to, tokenId);\n        _setTokenURI(tokenId, tokenURI);\n        return true;\n    }\n\n    uint256[50] private ______gap;\n}\n",
  "sourcePath": "../vendered/@openzeppelin/contracts-ethereum-package-3.0.0/contracts/token/ERC721/ERC721MetadataMintable.sol",
  "compiler": {
    "name": "solc",
    "version": "0.5.17+commit.d19bba13.Emscripten.clang"
  },
  "schemaVersion": "3.2.1",
  "updatedAt": "2020-07-13T06:59:11.402Z",
  "devdoc": {
    "details": "ERC721 minting logic with metadata.",
    "methods": {
      "approve(address,uint256)": {
        "details": "Approves another address to transfer the given token ID The zero address indicates there is no approved address. There can only be one approved address per token at a given time. Can only be called by the token owner or an approved operator.",
        "params": {
          "to": "address to be approved for the given token ID",
          "tokenId": "uint256 ID of the token to be approved"
        }
      },
      "balanceOf(address)": {
        "details": "Gets the balance of the specified address.",
        "params": {
          "owner": "address to query the balance of"
        },
        "return": "uint256 representing the amount owned by the passed address"
      },
      "baseURI()": {
        "details": "Returns the base URI set via {_setBaseURI}. This will be automatically added as a preffix in {tokenURI} to each token's URI, when they are non-empty.    * _Available since v2.5.0._"
      },
      "getApproved(uint256)": {
        "details": "Gets the approved address for a token ID, or zero if no address set Reverts if the token ID does not exist.",
        "params": {
          "tokenId": "uint256 ID of the token to query the approval of"
        },
        "return": "address currently approved for the given token ID"
      },
      "initialize(string,string)": {
        "details": "Constructor function"
      },
      "isApprovedForAll(address,address)": {
        "details": "Tells whether an operator is approved by a given owner.",
        "params": {
          "operator": "operator address which you want to query the approval of",
          "owner": "owner address which you want to query the approval of"
        },
        "return": "bool whether the given operator is approved by the given owner"
      },
      "mintWithTokenURI(address,uint256,string)": {
        "details": "Function to mint tokens.",
        "params": {
          "to": "The address that will receive the minted tokens.",
          "tokenId": "The token id to mint.",
          "tokenURI": "The token URI of the minted token."
        },
        "return": "A boolean that indicates if the operation was successful."
      },
      "name()": {
        "details": "Gets the token name.",
        "return": "string representing the token name"
      },
      "ownerOf(uint256)": {
        "details": "Gets the owner of the specified token ID.",
        "params": {
          "tokenId": "uint256 ID of the token to query the owner of"
        },
        "return": "address currently marked as the owner of the given token ID"
      },
      "safeTransferFrom(address,address,uint256)": {
        "details": "Safely transfers the ownership of a given token ID to another address If the target address is a contract, it must implement {IERC721Receiver-onERC721Received}, which is called upon a safe transfer, and return the magic value `bytes4(keccak256(\"onERC721Received(address,address,uint256,bytes)\"))`; otherwise, the transfer is reverted. Requires the msg.sender to be the owner, approved, or operator",
        "params": {
          "from": "current owner of the token",
          "to": "address to receive the ownership of the given token ID",
          "tokenId": "uint256 ID of the token to be transferred"
        }
      },
      "safeTransferFrom(address,address,uint256,bytes)": {
        "details": "Safely transfers the ownership of a given token ID to another address If the target address is a contract, it must implement {IERC721Receiver-onERC721Received}, which is called upon a safe transfer, and return the magic value `bytes4(keccak256(\"onERC721Received(address,address,uint256,bytes)\"))`; otherwise, the transfer is reverted. Requires the _msgSender() to be the owner, approved, or operator",
        "params": {
          "_data": "bytes data to send along with a safe transfer check",
          "from": "current owner of the token",
          "to": "address to receive the ownership of the given token ID",
          "tokenId": "uint256 ID of the token to be transferred"
        }
      },
      "setApprovalForAll(address,bool)": {
        "details": "Sets or unsets the approval of a given operator An operator is allowed to transfer all tokens of the sender on their behalf.",
        "params": {
          "approved": "representing the status of the approval to be set",
          "to": "operator address to set the approval"
        }
      },
      "supportsInterface(bytes4)": {
        "details": "See {IERC165-supportsInterface}.     * Time complexity O(1), guaranteed to always use less than 30 000 gas."
      },
      "symbol()": {
        "details": "Gets the token symbol.",
        "return": "string representing the token symbol"
      },
      "tokenURI(uint256)": {
        "details": "Returns the URI for a given token ID. May return an empty string.     * If the token's URI is non-empty and a base URI was set (via {_setBaseURI}), it will be added to the token ID's URI as a prefix.     * Reverts if the token ID does not exist."
      },
      "transferFrom(address,address,uint256)": {
        "details": "Transfers the ownership of a given token ID to another address. Usage of this method is discouraged, use {safeTransferFrom} whenever possible. Requires the msg.sender to be the owner, approved, or operator.",
        "params": {
          "from": "current owner of the token",
          "to": "address to receive the ownership of the given token ID",
          "tokenId": "uint256 ID of the token to be transferred"
        }
      }
    },
    "title": "ERC721MetadataMintable"
  },
  "userdoc": {
    "methods": {}
  }
}