{
  "contractName": "MintManager_v2",
  "abi": [
    {
      "constant": true,
      "inputs": [],
      "name": "admin",
      "outputs": [
        {
          "internalType": "address",
          "name": "",
          "type": "address"
        }
      ],
      "payable": false,
      "stateMutability": "view",
      "type": "function"
    },
    {
      "constant": true,
      "inputs": [],
      "name": "steward",
      "outputs": [
        {
          "internalType": "address",
          "name": "",
          "type": "address"
        }
      ],
      "payable": false,
      "stateMutability": "view",
      "type": "function"
    },
    {
      "constant": true,
      "inputs": [],
      "name": "token",
      "outputs": [
        {
          "internalType": "contract IERC20Mintable",
          "name": "",
          "type": "address"
        }
      ],
      "payable": false,
      "stateMutability": "view",
      "type": "function"
    },
    {
      "constant": false,
      "inputs": [
        {
          "internalType": "address",
          "name": "_admin",
          "type": "address"
        },
        {
          "internalType": "address",
          "name": "_steward",
          "type": "address"
        },
        {
          "internalType": "address",
          "name": "_token",
          "type": "address"
        }
      ],
      "name": "initialize",
      "outputs": [],
      "payable": false,
      "stateMutability": "nonpayable",
      "type": "function"
    },
    {
      "constant": false,
      "inputs": [
        {
          "internalType": "address",
          "name": "receiverOfTokens",
          "type": "address"
        },
        {
          "internalType": "uint256",
          "name": "time",
          "type": "uint256"
        },
        {
          "internalType": "uint256",
          "name": "mintRate",
          "type": "uint256"
        }
      ],
      "name": "tokenMint",
      "outputs": [],
      "payable": false,
      "stateMutability": "nonpayable",
      "type": "function"
    }
  ],
  "bytecode": "0x608060405234801561001057600080fd5b50610570806100206000396000f3fe608060405234801561001057600080fd5b50600436106100575760003560e01c80632ee913011461005c578063637eea1914610090578063c0c53b8b146100b4578063f851a440146100ec578063fc0c546a146100f4575b600080fd5b61008e6004803603606081101561007257600080fd5b506001600160a01b0381351690602081013590604001356100fc565b005b610098610291565b604080516001600160a01b039092168252519081900360200190f35b61008e600480360360608110156100ca57600080fd5b506001600160a01b0381358116916020810135821691604090910135166102a0565b610098610382565b610098610391565b6034546001600160a01b03163314610149576040805162461bcd60e51b815260206004820152600b60248201526a139bdd081cdd195dd85c9960aa1b604482015290519081900360640190fd5b600061015b838363ffffffff6103a016565b90506000610181606461017584601463ffffffff6103a016565b9063ffffffff61040216565b603554604080516340c10f1960e01b81526001600160a01b0389811660048301526024820187905291519394509116916340c10f19916044808201926020929091908290030181600087803b1580156101d957600080fd5b505af11580156101ed573d6000803e3d6000fd5b505050506040513d602081101561020357600080fd5b5050603554603354604080516340c10f1960e01b81526001600160a01b03928316600482015260248101859052905191909216916340c10f199160448083019260209291908290030181600087803b15801561025e57600080fd5b505af1158015610272573d6000803e3d6000fd5b505050506040513d602081101561028857600080fd5b50505050505050565b6034546001600160a01b031681565b600054610100900460ff16806102b957506102b9610444565b806102c7575060005460ff16155b6103025760405162461bcd60e51b815260040180806020018281038252602e81526020018061050e602e913960400191505060405180910390fd5b600054610100900460ff1615801561032d576000805460ff1961ff0019909116610100171660011790555b603380546001600160a01b038087166001600160a01b031992831617909255603480548684169083161790556035805492851692909116919091179055801561037c576000805461ff00191690555b50505050565b6033546001600160a01b031681565b6035546001600160a01b031681565b6000826103af575060006103fc565b828202828482816103bc57fe5b04146103f95760405162461bcd60e51b81526004018080602001828103825260218152602001806104ed6021913960400191505060405180910390fd5b90505b92915050565b60006103f983836040518060400160405280601a81526020017f536166654d6174683a206469766973696f6e206279207a65726f00000000000081525061044a565b303b1590565b600081836104d65760405162461bcd60e51b81526004018080602001828103825283818151815260200191508051906020019080838360005b8381101561049b578181015183820152602001610483565b50505050905090810190601f1680156104c85780820380516001836020036101000a031916815260200191505b509250505060405180910390fd5b5060008385816104e257fe5b049594505050505056fe536166654d6174683a206d756c7469706c69636174696f6e206f766572666c6f77436f6e747261637420696e7374616e63652068617320616c7265616479206265656e20696e697469616c697a6564a265627a7a7231582054a320dbc077cc9356f9a7e795b7c5b6ecfbbb05fd1c9c997deed2d15b42048964736f6c63430005110032",
  "source": "pragma solidity 0.5.17;\n\nimport \"../vendered/@openzeppelin/contracts-ethereum-package-3.0.0/contracts/token/ERC721/ERC721.sol\";\nimport \"./interfaces/IERC20Mintable.sol\";\n\n\ncontract MintManager_v2 is Initializable {\n    using SafeMath for uint256;\n\n    address public admin;\n    address public steward;\n    IERC20Mintable public token;\n\n    modifier onlySteward() {\n        require(msg.sender == steward, \"Not steward\");\n        _;\n    }\n\n    function initialize(\n        address _admin,\n        address _steward,\n        address _token\n    ) public initializer {\n        admin = _admin;\n        steward = _steward;\n        token = IERC20Mintable(_token);\n    }\n\n    function tokenMint(\n        address receiverOfTokens,\n        uint256 time,\n        uint256 mintRate\n    ) external onlySteward {\n        uint256 amountToMintForUser = time.mul(mintRate);\n        uint256 amountToMintForTreasury = amountToMintForUser.mul(20).div(100);\n        token.mint(receiverOfTokens, amountToMintForUser);\n        token.mint(admin, amountToMintForTreasury);\n    }\n}\n",
  "sourcePath": "/home/jasoons/Documents/code/contracts/contracts/MintManager_v2.sol",
  "compiler": {
    "name": "solc",
    "version": "0.5.17+commit.d19bba13.Emscripten.clang"
  },
  "schemaVersion": "3.2.1",
  "updatedAt": "2020-08-04T10:52:34.683Z",
  "devdoc": {
    "methods": {}
  },
  "userdoc": {
    "methods": {}
  }
}