{
  "contractName": "SendBlockAttacker",
  "abi": [
    {
      "payable": true,
      "stateMutability": "payable",
      "type": "fallback"
    },
    {
      "constant": false,
      "inputs": [
        {
          "internalType": "contract WildcardSteward_v3",
          "name": "stewardAddress",
          "type": "address"
        },
        {
          "internalType": "uint256",
          "name": "tokenId",
          "type": "uint256"
        },
        {
          "internalType": "uint256",
          "name": "newPrice",
          "type": "uint256"
        }
      ],
      "name": "buyOnBehalf",
      "outputs": [],
      "payable": true,
      "stateMutability": "payable",
      "type": "function"
    },
    {
      "constant": false,
      "inputs": [
        {
          "internalType": "contract WildcardSteward_v3",
          "name": "stewardAddress",
          "type": "address"
        },
        {
          "internalType": "uint256",
          "name": "amount",
          "type": "uint256"
        }
      ],
      "name": "withdrawDeposit",
      "outputs": [],
      "payable": false,
      "stateMutability": "nonpayable",
      "type": "function"
    }
  ],
  "bytecode": "0x608060405234801561001057600080fd5b506101f4806100206000396000f3fe6080604052600436106100295760003560e01c80637f07bfdc14610066578063aedcca81146100a1575b6040805162461bcd60e51b815260206004820152600d60248201526c49276d204d616c6963696f757360981b604482015290519081900360640190fd5b34801561007257600080fd5b5061009f6004803603604081101561008957600080fd5b506001600160a01b0381351690602001356100d3565b005b61009f600480360360608110156100b757600080fd5b506001600160a01b038135169060208101359060400135610149565b816001600160a01b03166333289a46826040518263ffffffff1660e01b815260040180828152602001915050602060405180830381600087803b15801561011957600080fd5b505af115801561012d573d6000803e3d6000fd5b505050506040513d602081101561014357600080fd5b50505050565b826001600160a01b0316633eb76de734848461c3506040518563ffffffff1660e01b81526004018084815260200183815260200182815260200193505050506000604051808303818588803b1580156101a157600080fd5b505af11580156101b5573d6000803e3d6000fd5b505050505050505056fea265627a7a7231582026071484e6af3aaefd62ec3327c8b92836809d2197db78374344008bb8a68b5064736f6c63430005110032",
  "source": "pragma solidity 0.5.17;\n\nimport \"../WildcardSteward_v3.sol\";\n\ncontract SendBlockAttacker {\n    function buyOnBehalf(\n        WildcardSteward_v3 stewardAddress,\n        uint256 tokenId,\n        uint256 newPrice\n    ) public payable {\n        stewardAddress.buyAuction.value(msg.value)(tokenId, newPrice, 50000);\n    }\n\n    function withdrawDeposit(WildcardSteward_v3 stewardAddress, uint256 amount)\n        public\n    {\n        stewardAddress.withdrawDeposit(amount);\n    }\n\n    function() external payable {\n        revert(\"I'm Malicious\");\n    }\n}\n",
  "sourcePath": "/home/jasoons/Documents/code/contracts/contracts/tests/SendBlockAttacker.sol",
  "compiler": {
    "name": "solc",
    "version": "0.5.17+commit.d19bba13.Emscripten.clang"
  },
  "schemaVersion": "3.2.1",
  "updatedAt": "2020-08-06T08:29:57.800Z",
  "devdoc": {
    "methods": {}
  },
  "userdoc": {
    "methods": {}
  }
}