{
  "contractName": "WildcardSteward_v3",
  "abi": [
    {
      "anonymous": false,
      "inputs": [
        {
          "indexed": true,
          "internalType": "uint256",
          "name": "tokenId",
          "type": "uint256"
        },
        {
          "indexed": false,
          "internalType": "uint256",
          "name": "patronageNumerator",
          "type": "uint256"
        },
        {
          "indexed": false,
          "internalType": "uint256",
          "name": "unixTimestampOfTokenAuctionStart",
          "type": "uint256"
        }
      ],
      "name": "AddTokenV3",
      "type": "event"
    },
    {
      "anonymous": false,
      "inputs": [
        {
          "indexed": true,
          "internalType": "uint256",
          "name": "tokenId",
          "type": "uint256"
        },
        {
          "indexed": false,
          "internalType": "address",
          "name": "artist",
          "type": "address"
        },
        {
          "indexed": false,
          "internalType": "uint256",
          "name": "artistCommission",
          "type": "uint256"
        }
      ],
      "name": "ArtistCommission",
      "type": "event"
    },
    {
      "anonymous": false,
      "inputs": [
        {
          "indexed": true,
          "internalType": "uint256",
          "name": "tokenId",
          "type": "uint256"
        },
        {
          "indexed": true,
          "internalType": "address",
          "name": "owner",
          "type": "address"
        },
        {
          "indexed": false,
          "internalType": "uint256",
          "name": "price",
          "type": "uint256"
        }
      ],
      "name": "Buy",
      "type": "event"
    },
    {
      "anonymous": false,
      "inputs": [],
      "name": "ChangeAuctionParameters",
      "type": "event"
    },
    {
      "anonymous": false,
      "inputs": [
        {
          "indexed": true,
          "internalType": "address",
          "name": "patron",
          "type": "address"
        },
        {
          "indexed": false,
          "internalType": "uint256",
          "name": "amountRecieved",
          "type": "uint256"
        }
      ],
      "name": "CollectLoyalty",
      "type": "event"
    },
    {
      "anonymous": false,
      "inputs": [
        {
          "indexed": true,
          "internalType": "uint256",
          "name": "tokenId",
          "type": "uint256"
        },
        {
          "indexed": true,
          "internalType": "address",
          "name": "patron",
          "type": "address"
        },
        {
          "indexed": false,
          "internalType": "uint256",
          "name": "remainingDeposit",
          "type": "uint256"
        },
        {
          "indexed": false,
          "internalType": "uint256",
          "name": "amountReceived",
          "type": "uint256"
        }
      ],
      "name": "CollectPatronage",
      "type": "event"
    },
    {
      "anonymous": false,
      "inputs": [
        {
          "indexed": true,
          "internalType": "address",
          "name": "prevOwner",
          "type": "address"
        },
        {
          "indexed": false,
          "internalType": "uint256",
          "name": "foreclosureTime",
          "type": "uint256"
        }
      ],
      "name": "Foreclosure",
      "type": "event"
    },
    {
      "anonymous": false,
      "inputs": [
        {
          "indexed": true,
          "internalType": "uint256",
          "name": "tokenId",
          "type": "uint256"
        },
        {
          "indexed": false,
          "internalType": "uint256",
          "name": "newPrice",
          "type": "uint256"
        }
      ],
      "name": "PriceChange",
      "type": "event"
    },
    {
      "anonymous": false,
      "inputs": [
        {
          "indexed": true,
          "internalType": "address",
          "name": "tokenPatron",
          "type": "address"
        },
        {
          "indexed": false,
          "internalType": "uint256",
          "name": "remainingDeposit",
          "type": "uint256"
        }
      ],
      "name": "RemainingDepositUpdate",
      "type": "event"
    },
    {
      "anonymous": false,
      "inputs": [],
      "name": "UpgradeToV3",
      "type": "event"
    },
    {
      "anonymous": false,
      "inputs": [
        {
          "indexed": true,
          "internalType": "address",
          "name": "benefactor",
          "type": "address"
        },
        {
          "indexed": false,
          "internalType": "uint256",
          "name": "withdrawAmount",
          "type": "uint256"
        }
      ],
      "name": "WithdrawBenefactorFunds",
      "type": "event"
    },
    {
      "anonymous": false,
      "inputs": [
        {
          "indexed": true,
          "internalType": "address",
          "name": "benefactor",
          "type": "address"
        },
        {
          "indexed": false,
          "internalType": "uint256",
          "name": "withdrawAmount",
          "type": "uint256"
        }
      ],
      "name": "WithdrawBenefactorFundsWithSafetyDelay",
      "type": "event"
    },
    {
      "constant": true,
      "inputs": [],
      "name": "admin",
      "outputs": [
        {
          "internalType": "address",
          "name": "",
          "type": "address"
        }
      ],
      "payable": false,
      "stateMutability": "view",
      "type": "function"
    },
    {
      "constant": true,
      "inputs": [
        {
          "internalType": "uint256",
          "name": "",
          "type": "uint256"
        }
      ],
      "name": "artistAddresses",
      "outputs": [
        {
          "internalType": "address",
          "name": "",
          "type": "address"
        }
      ],
      "payable": false,
      "stateMutability": "view",
      "type": "function"
    },
    {
      "constant": true,
      "inputs": [
        {
          "internalType": "uint256",
          "name": "",
          "type": "uint256"
        }
      ],
      "name": "artistPercentages",
      "outputs": [
        {
          "internalType": "uint256",
          "name": "",
          "type": "uint256"
        }
      ],
      "payable": false,
      "stateMutability": "view",
      "type": "function"
    },
    {
      "constant": true,
      "inputs": [],
      "name": "assetToken",
      "outputs": [
        {
          "internalType": "contract ERC721Patronage_v1",
          "name": "",
          "type": "address"
        }
      ],
      "payable": false,
      "stateMutability": "view",
      "type": "function"
    },
    {
      "constant": true,
      "inputs": [],
      "name": "auctionEndPrice",
      "outputs": [
        {
          "internalType": "uint256",
          "name": "",
          "type": "uint256"
        }
      ],
      "payable": false,
      "stateMutability": "view",
      "type": "function"
    },
    {
      "constant": true,
      "inputs": [],
      "name": "auctionLength",
      "outputs": [
        {
          "internalType": "uint256",
          "name": "",
          "type": "uint256"
        }
      ],
      "payable": false,
      "stateMutability": "view",
      "type": "function"
    },
    {
      "constant": true,
      "inputs": [],
      "name": "auctionStartPrice",
      "outputs": [
        {
          "internalType": "uint256",
          "name": "",
          "type": "uint256"
        }
      ],
      "payable": false,
      "stateMutability": "view",
      "type": "function"
    },
    {
      "constant": true,
      "inputs": [
        {
          "internalType": "address",
          "name": "",
          "type": "address"
        }
      ],
      "name": "benefactorCredit",
      "outputs": [
        {
          "internalType": "uint256",
          "name": "",
          "type": "uint256"
        }
      ],
      "payable": false,
      "stateMutability": "view",
      "type": "function"
    },
    {
      "constant": true,
      "inputs": [
        {
          "internalType": "address",
          "name": "",
          "type": "address"
        }
      ],
      "name": "benefactorFunds",
      "outputs": [
        {
          "internalType": "uint256",
          "name": "",
          "type": "uint256"
        }
      ],
      "payable": false,
      "stateMutability": "view",
      "type": "function"
    },
    {
      "constant": true,
      "inputs": [
        {
          "internalType": "uint256",
          "name": "",
          "type": "uint256"
        }
      ],
      "name": "benefactors",
      "outputs": [
        {
          "internalType": "address",
          "name": "",
          "type": "address"
        }
      ],
      "payable": false,
      "stateMutability": "view",
      "type": "function"
    },
    {
      "constant": true,
      "inputs": [
        {
          "internalType": "address",
          "name": "",
          "type": "address"
        }
      ],
      "name": "deposit",
      "outputs": [
        {
          "internalType": "uint256",
          "name": "",
          "type": "uint256"
        }
      ],
      "payable": false,
      "stateMutability": "view",
      "type": "function"
    },
    {
      "constant": true,
      "inputs": [],
      "name": "globalTokenGenerationRate",
      "outputs": [
        {
          "internalType": "uint256",
          "name": "",
          "type": "uint256"
        }
      ],
      "payable": false,
      "stateMutability": "view",
      "type": "function"
    },
    {
      "constant": true,
      "inputs": [],
      "name": "mintManager",
      "outputs": [
        {
          "internalType": "contract MintManager_v2",
          "name": "",
          "type": "address"
        }
      ],
      "payable": false,
      "stateMutability": "view",
      "type": "function"
    },
    {
      "constant": true,
      "inputs": [],
      "name": "patronageDenominator",
      "outputs": [
        {
          "internalType": "uint256",
          "name": "",
          "type": "uint256"
        }
      ],
      "payable": false,
      "stateMutability": "view",
      "type": "function"
    },
    {
      "constant": true,
      "inputs": [
        {
          "internalType": "uint256",
          "name": "",
          "type": "uint256"
        }
      ],
      "name": "patronageNumerator",
      "outputs": [
        {
          "internalType": "uint256",
          "name": "",
          "type": "uint256"
        }
      ],
      "payable": false,
      "stateMutability": "view",
      "type": "function"
    },
    {
      "constant": true,
      "inputs": [
        {
          "internalType": "uint256",
          "name": "",
          "type": "uint256"
        }
      ],
      "name": "price",
      "outputs": [
        {
          "internalType": "uint256",
          "name": "",
          "type": "uint256"
        }
      ],
      "payable": false,
      "stateMutability": "view",
      "type": "function"
    },
    {
      "constant": true,
      "inputs": [
        {
          "internalType": "uint256",
          "name": "",
          "type": "uint256"
        }
      ],
      "name": "state",
      "outputs": [
        {
          "internalType": "enum WildcardSteward_v3.StewardState",
          "name": "",
          "type": "uint8"
        }
      ],
      "payable": false,
      "stateMutability": "view",
      "type": "function"
    },
    {
      "constant": true,
      "inputs": [
        {
          "internalType": "address",
          "name": "",
          "type": "address"
        }
      ],
      "name": "timeLastCollectedBenefactor",
      "outputs": [
        {
          "internalType": "uint256",
          "name": "",
          "type": "uint256"
        }
      ],
      "payable": false,
      "stateMutability": "view",
      "type": "function"
    },
    {
      "constant": true,
      "inputs": [
        {
          "internalType": "address",
          "name": "",
          "type": "address"
        }
      ],
      "name": "timeLastCollectedPatron",
      "outputs": [
        {
          "internalType": "uint256",
          "name": "",
          "type": "uint256"
        }
      ],
      "payable": false,
      "stateMutability": "view",
      "type": "function"
    },
    {
      "constant": true,
      "inputs": [
        {
          "internalType": "uint256",
          "name": "",
          "type": "uint256"
        }
      ],
      "name": "tokenAuctionBeginTimestamp",
      "outputs": [
        {
          "internalType": "uint256",
          "name": "",
          "type": "uint256"
        }
      ],
      "payable": false,
      "stateMutability": "view",
      "type": "function"
    },
    {
      "constant": true,
      "inputs": [
        {
          "internalType": "address",
          "name": "",
          "type": "address"
        }
      ],
      "name": "totalBenefactorTokenNumerator",
      "outputs": [
        {
          "internalType": "uint256",
          "name": "",
          "type": "uint256"
        }
      ],
      "payable": false,
      "stateMutability": "view",
      "type": "function"
    },
    {
      "constant": true,
      "inputs": [
        {
          "internalType": "address",
          "name": "",
          "type": "address"
        }
      ],
      "name": "totalPatronOwnedTokenCost",
      "outputs": [
        {
          "internalType": "uint256",
          "name": "",
          "type": "uint256"
        }
      ],
      "payable": false,
      "stateMutability": "view",
      "type": "function"
    },
    {
      "constant": true,
      "inputs": [
        {
          "internalType": "address",
          "name": "",
          "type": "address"
        }
      ],
      "name": "totalPatronTokenGenerationRate",
      "outputs": [
        {
          "internalType": "uint256",
          "name": "",
          "type": "uint256"
        }
      ],
      "payable": false,
      "stateMutability": "view",
      "type": "function"
    },
    {
      "constant": true,
      "inputs": [
        {
          "internalType": "uint256",
          "name": "",
          "type": "uint256"
        }
      ],
      "name": "wildcardsPercentages",
      "outputs": [
        {
          "internalType": "uint256",
          "name": "",
          "type": "uint256"
        }
      ],
      "payable": false,
      "stateMutability": "view",
      "type": "function"
    },
    {
      "constant": true,
      "inputs": [],
      "name": "withdrawCheckerAdmin",
      "outputs": [
        {
          "internalType": "address",
          "name": "",
          "type": "address"
        }
      ],
      "payable": false,
      "stateMutability": "view",
      "type": "function"
    },
    {
      "constant": true,
      "inputs": [],
      "name": "yearTimePatronagDenominator",
      "outputs": [
        {
          "internalType": "uint256",
          "name": "",
          "type": "uint256"
        }
      ],
      "payable": false,
      "stateMutability": "view",
      "type": "function"
    },
    {
      "constant": false,
      "inputs": [
        {
          "internalType": "address",
          "name": "_assetToken",
          "type": "address"
        },
        {
          "internalType": "address",
          "name": "_admin",
          "type": "address"
        },
        {
          "internalType": "address",
          "name": "_mintManager",
          "type": "address"
        },
        {
          "internalType": "address",
          "name": "_withdrawCheckerAdmin",
          "type": "address"
        },
        {
          "internalType": "uint256",
          "name": "_auctionStartPrice",
          "type": "uint256"
        },
        {
          "internalType": "uint256",
          "name": "_auctionEndPrice",
          "type": "uint256"
        },
        {
          "internalType": "uint256",
          "name": "_auctionLength",
          "type": "uint256"
        }
      ],
      "name": "initialize",
      "outputs": [],
      "payable": false,
      "stateMutability": "nonpayable",
      "type": "function"
    },
    {
      "constant": false,
      "inputs": [
        {
          "internalType": "uint256[]",
          "name": "tokens",
          "type": "uint256[]"
        },
        {
          "internalType": "address payable[]",
          "name": "_benefactors",
          "type": "address[]"
        },
        {
          "internalType": "uint256[]",
          "name": "_patronageNumerator",
          "type": "uint256[]"
        },
        {
          "internalType": "address[]",
          "name": "_artists",
          "type": "address[]"
        },
        {
          "internalType": "uint256[]",
          "name": "_artistCommission",
          "type": "uint256[]"
        },
        {
          "internalType": "uint256[]",
          "name": "_releaseDate",
          "type": "uint256[]"
        }
      ],
      "name": "listNewTokens",
      "outputs": [],
      "payable": false,
      "stateMutability": "nonpayable",
      "type": "function"
    },
    {
      "constant": false,
      "inputs": [
        {
          "internalType": "uint256[]",
          "name": "tokens",
          "type": "uint256[]"
        },
        {
          "internalType": "address",
          "name": "_withdrawCheckerAdmin",
          "type": "address"
        },
        {
          "internalType": "uint256",
          "name": "_auctionStartPrice",
          "type": "uint256"
        },
        {
          "internalType": "uint256",
          "name": "_auctionEndPrice",
          "type": "uint256"
        },
        {
          "internalType": "uint256",
          "name": "_auctionLength",
          "type": "uint256"
        }
      ],
      "name": "upgradeToV3",
      "outputs": [],
      "payable": false,
      "stateMutability": "nonpayable",
      "type": "function"
    },
    {
      "constant": false,
      "inputs": [
        {
          "internalType": "uint256",
          "name": "tokenId",
          "type": "uint256"
        },
        {
          "internalType": "address payable",
          "name": "_newReceivingBenefactor",
          "type": "address"
        }
      ],
      "name": "changeReceivingBenefactor",
      "outputs": [],
      "payable": false,
      "stateMutability": "nonpayable",
      "type": "function"
    },
    {
      "constant": false,
      "inputs": [
        {
          "internalType": "address",
          "name": "oldBenfactor",
          "type": "address"
        },
        {
          "internalType": "address payable",
          "name": "_newReceivingBenefactor",
          "type": "address"
        }
      ],
      "name": "changeReceivingBenefactorDeposit",
      "outputs": [],
      "payable": false,
      "stateMutability": "nonpayable",
      "type": "function"
    },
    {
      "constant": false,
      "inputs": [
        {
          "internalType": "address",
          "name": "_admin",
          "type": "address"
        }
      ],
      "name": "changeAdmin",
      "outputs": [],
      "payable": false,
      "stateMutability": "nonpayable",
      "type": "function"
    },
    {
      "constant": false,
      "inputs": [
        {
          "internalType": "address",
          "name": "_withdrawCheckerAdmin",
          "type": "address"
        }
      ],
      "name": "changeWithdrawCheckerAdmin",
      "outputs": [],
      "payable": false,
      "stateMutability": "nonpayable",
      "type": "function"
    },
    {
      "constant": false,
      "inputs": [
        {
          "internalType": "uint256",
          "name": "tokenId",
          "type": "uint256"
        },
        {
          "internalType": "address",
          "name": "artistAddress",
          "type": "address"
        },
        {
          "internalType": "uint256",
          "name": "percentage",
          "type": "uint256"
        }
      ],
      "name": "changeArtistAddressAndCommission",
      "outputs": [],
      "payable": false,
      "stateMutability": "nonpayable",
      "type": "function"
    },
    {
      "constant": false,
      "inputs": [
        {
          "internalType": "uint256",
          "name": "_auctionStartPrice",
          "type": "uint256"
        },
        {
          "internalType": "uint256",
          "name": "_auctionEndPrice",
          "type": "uint256"
        },
        {
          "internalType": "uint256",
          "name": "_auctionLength",
          "type": "uint256"
        }
      ],
      "name": "changeAuctionParameters",
      "outputs": [],
      "payable": false,
      "stateMutability": "nonpayable",
      "type": "function"
    },
    {
      "constant": true,
      "inputs": [
        {
          "internalType": "address",
          "name": "tokenPatron",
          "type": "address"
        }
      ],
      "name": "patronageOwedPatron",
      "outputs": [
        {
          "internalType": "uint256",
          "name": "patronageDue",
          "type": "uint256"
        }
      ],
      "payable": false,
      "stateMutability": "view",
      "type": "function"
    },
    {
      "constant": true,
      "inputs": [
        {
          "internalType": "address",
          "name": "benefactor",
          "type": "address"
        }
      ],
      "name": "patronageDueBenefactor",
      "outputs": [
        {
          "internalType": "uint256",
          "name": "payoutDue",
          "type": "uint256"
        }
      ],
      "payable": false,
      "stateMutability": "view",
      "type": "function"
    },
    {
      "constant": true,
      "inputs": [
        {
          "internalType": "address",
          "name": "tokenPatron",
          "type": "address"
        }
      ],
      "name": "foreclosedPatron",
      "outputs": [
        {
          "internalType": "bool",
          "name": "",
          "type": "bool"
        }
      ],
      "payable": false,
      "stateMutability": "view",
      "type": "function"
    },
    {
      "constant": true,
      "inputs": [
        {
          "internalType": "uint256",
          "name": "tokenId",
          "type": "uint256"
        }
      ],
      "name": "foreclosed",
      "outputs": [
        {
          "internalType": "bool",
          "name": "",
          "type": "bool"
        }
      ],
      "payable": false,
      "stateMutability": "view",
      "type": "function"
    },
    {
      "constant": true,
      "inputs": [
        {
          "internalType": "address",
          "name": "tokenPatron",
          "type": "address"
        }
      ],
      "name": "depositAbleToWithdraw",
      "outputs": [
        {
          "internalType": "uint256",
          "name": "",
          "type": "uint256"
        }
      ],
      "payable": false,
      "stateMutability": "view",
      "type": "function"
    },
    {
      "constant": true,
      "inputs": [
        {
          "internalType": "address",
          "name": "tokenPatron",
          "type": "address"
        }
      ],
      "name": "foreclosureTimePatron",
      "outputs": [
        {
          "internalType": "uint256",
          "name": "",
          "type": "uint256"
        }
      ],
      "payable": false,
      "stateMutability": "view",
      "type": "function"
    },
    {
      "constant": true,
      "inputs": [
        {
          "internalType": "uint256",
          "name": "tokenId",
          "type": "uint256"
        }
      ],
      "name": "foreclosureTime",
      "outputs": [
        {
          "internalType": "uint256",
          "name": "",
          "type": "uint256"
        }
      ],
      "payable": false,
      "stateMutability": "view",
      "type": "function"
    },
    {
      "constant": false,
      "inputs": [
        {
          "internalType": "uint256",
          "name": "tokenId",
          "type": "uint256"
        }
      ],
      "name": "_collectPatronageAndSettleBenefactor",
      "outputs": [],
      "payable": false,
      "stateMutability": "nonpayable",
      "type": "function"
    },
    {
      "constant": false,
      "inputs": [
        {
          "internalType": "address",
          "name": "benefactor",
          "type": "address"
        }
      ],
      "name": "_updateBenefactorBalance",
      "outputs": [],
      "payable": false,
      "stateMutability": "nonpayable",
      "type": "function"
    },
    {
      "constant": false,
      "inputs": [
        {
          "internalType": "address payable",
          "name": "benefactor",
          "type": "address"
        }
      ],
      "name": "withdrawBenefactorFundsTo",
      "outputs": [],
      "payable": false,
      "stateMutability": "nonpayable",
      "type": "function"
    },
    {
      "constant": true,
      "inputs": [
        {
          "internalType": "address",
          "name": "benefactor",
          "type": "address"
        },
        {
          "internalType": "uint256",
          "name": "maxAmount",
          "type": "uint256"
        },
        {
          "internalType": "uint256",
          "name": "expiry",
          "type": "uint256"
        }
      ],
      "name": "hasher",
      "outputs": [
        {
          "internalType": "bytes32",
          "name": "",
          "type": "bytes32"
        }
      ],
      "payable": false,
      "stateMutability": "view",
      "type": "function"
    },
    {
      "constant": false,
      "inputs": [
        {
          "internalType": "address payable",
          "name": "benefactor",
          "type": "address"
        },
        {
          "internalType": "uint256",
          "name": "maxAmount",
          "type": "uint256"
        },
        {
          "internalType": "uint256",
          "name": "expiry",
          "type": "uint256"
        },
        {
          "internalType": "bytes32",
          "name": "hash",
          "type": "bytes32"
        },
        {
          "internalType": "uint8",
          "name": "v",
          "type": "uint8"
        },
        {
          "internalType": "bytes32",
          "name": "r",
          "type": "bytes32"
        },
        {
          "internalType": "bytes32",
          "name": "s",
          "type": "bytes32"
        }
      ],
      "name": "withdrawBenefactorFundsToValidated",
      "outputs": [],
      "payable": false,
      "stateMutability": "nonpayable",
      "type": "function"
    },
    {
      "constant": false,
      "inputs": [
        {
          "internalType": "address",
          "name": "tokenPatron",
          "type": "address"
        }
      ],
      "name": "_collectPatronagePatron",
      "outputs": [
        {
          "internalType": "uint256",
          "name": "newTimeLastCollectedOnForeclosure",
          "type": "uint256"
        }
      ],
      "payable": false,
      "stateMutability": "nonpayable",
      "type": "function"
    },
    {
      "constant": false,
      "inputs": [],
      "name": "depositWei",
      "outputs": [],
      "payable": true,
      "stateMutability": "payable",
      "type": "function"
    },
    {
      "constant": false,
      "inputs": [
        {
          "internalType": "address",
          "name": "patron",
          "type": "address"
        }
      ],
      "name": "depositWeiPatron",
      "outputs": [],
      "payable": true,
      "stateMutability": "payable",
      "type": "function"
    },
    {
      "constant": false,
      "inputs": [
        {
          "internalType": "uint256",
          "name": "tokenId",
          "type": "uint256"
        },
        {
          "internalType": "uint256",
          "name": "_newPrice",
          "type": "uint256"
        },
        {
          "internalType": "uint256",
          "name": "previousPrice",
          "type": "uint256"
        },
        {
          "internalType": "uint256",
          "name": "wildcardsPercentage",
          "type": "uint256"
        }
      ],
      "name": "buy",
      "outputs": [],
      "payable": true,
      "stateMutability": "payable",
      "type": "function"
    },
    {
      "constant": false,
      "inputs": [
        {
          "internalType": "uint256",
          "name": "tokenId",
          "type": "uint256"
        },
        {
          "internalType": "uint256",
          "name": "_newPrice",
          "type": "uint256"
        },
        {
          "internalType": "uint256",
          "name": "wildcardsPercentage",
          "type": "uint256"
        }
      ],
      "name": "buyAuction",
      "outputs": [],
      "payable": true,
      "stateMutability": "payable",
      "type": "function"
    },
    {
      "constant": false,
      "inputs": [
        {
          "internalType": "uint256",
          "name": "tokenId",
          "type": "uint256"
        },
        {
          "internalType": "uint256",
          "name": "_newPrice",
          "type": "uint256"
        }
      ],
      "name": "changePrice",
      "outputs": [],
      "payable": false,
      "stateMutability": "nonpayable",
      "type": "function"
    },
    {
      "constant": false,
      "inputs": [
        {
          "internalType": "uint256",
          "name": "_wei",
          "type": "uint256"
        }
      ],
      "name": "withdrawDeposit",
      "outputs": [
        {
          "internalType": "uint256",
          "name": "",
          "type": "uint256"
        }
      ],
      "payable": false,
      "stateMutability": "nonpayable",
      "type": "function"
    },
    {
      "constant": false,
      "inputs": [],
      "name": "withdrawBenefactorFunds",
      "outputs": [],
      "payable": false,
      "stateMutability": "nonpayable",
      "type": "function"
    },
    {
      "constant": false,
      "inputs": [],
      "name": "exit",
      "outputs": [],
      "payable": false,
      "stateMutability": "nonpayable",
      "type": "function"
    }
  ],
  "bytecode": "0x608060405234801561001057600080fd5b50614cd8806100206000396000f3fe60806040526004361061036b5760003560e01c80638f283970116101c6578063d3e0beae116100f7578063e357420e11610095578063e9fad8ee1161006f578063e9fad8ee14611069578063f340fa011461107e578063f851a440146110b1578063f9345df5146110c65761036b565b8063e357420e14610fa4578063e4fb7aa914610fd7578063e77fc7a41461100a5761036b565b8063db7dffee116100d1578063db7dffee14610bd9578063e00c50e714610c18578063e1c214c614610f50578063e2e7ec2114610f7a5761036b565b8063d3e0beae14610b7c578063d756985b14610b91578063d9d85b0714610ba65761036b565b8063b9c3c38d11610164578063c08f66cb1161013e578063c08f66cb14610ab1578063c255dd0014610ae4578063c6d7b51914610b17578063cad6797114610b565761036b565b8063b9c3c38d14610a18578063bfe5f50a14610a4b578063c07d7e1b14610a7e5761036b565b8063ac946b3a116101a0578063ac946b3a14610965578063b08d024b146109a0578063b3de019c146109d3578063b9af132c14610a035761036b565b80638f28397014610908578063a04a6ac81461093b578063a0c0e87b146109505761036b565b8063385320aa116102a05780636399af731161023e57806377d9efc81161021857806377d9efc81461083c5780637e4edf701461086f578063831ffd051461088457806385e12f6f146108ae5761036b565b80636399af73146107c157806367bcbbc1146107f45780636ceadbe5146108095761036b565b80633eb76de71161027a5780633eb76de71461067c5780634256450e146106a557806342f98e84146106cf5780635368aeac146106f95761036b565b8063385320aa146105e05780633adbd0fb146105f55780633e4f49e61461062e5761036b565b80631e8b76ad1161030d5780632c3db6ea116102e75780632c3db6ea1461053b5780632d3c42e11461056e578063325c25a2146105a157806333289a46146105b65761036b565b80631e8b76ad146104a05780632488a69e146104de57806326a49e37146105115761036b565b80631083f761116103495780631083f7611461040e5780631281311d1461043f578063128ee1611461046e57806315488b88146104985761036b565b8063013cc15f146103705780630972c4f8146103a85780630b2efb4c146103d2575b600080fd5b34801561037c57600080fd5b506103a66004803603606081101561039357600080fd5b50803590602081013590604001356110f9565b005b3480156103b457600080fd5b506103a6600480360360208110156103cb57600080fd5b5035611154565b3480156103de57600080fd5b506103fc600480360360208110156103f557600080fd5b503561130e565b60408051918252519081900360200190f35b34801561041a57600080fd5b50610423611320565b604080516001600160a01b039092168252519081900360200190f35b6103a66004803603608081101561045557600080fd5b508035906020810135906040810135906060013561132f565b34801561047a57600080fd5b506104236004803603602081101561049157600080fd5b5035611654565b6103a661166f565b3480156104ac57600080fd5b506104ca600480360360208110156104c357600080fd5b503561167a565b604080519115158252519081900360200190f35b3480156104ea57600080fd5b506103fc6004803603602081101561050157600080fd5b50356001600160a01b031661170b565b34801561051d57600080fd5b506103fc6004803603602081101561053457600080fd5b50356118b2565b34801561054757600080fd5b506103a66004803603602081101561055e57600080fd5b50356001600160a01b03166118c4565b34801561057a57600080fd5b506103fc6004803603602081101561059157600080fd5b50356001600160a01b03166119eb565b3480156105ad57600080fd5b506103fc611a53565b3480156105c257600080fd5b506103fc600480360360208110156105d957600080fd5b5035611a59565b3480156105ec57600080fd5b506103a6611a75565b34801561060157600080fd5b506103a66004803603604081101561061857600080fd5b50803590602001356001600160a01b0316611a7e565b34801561063a57600080fd5b506106586004803603602081101561065157600080fd5b5035611cb0565b6040518082600181111561066857fe5b60ff16815260200191505060405180910390f35b6103a66004803603606081101561069257600080fd5b5080359060208101359060400135611cc5565b3480156106b157600080fd5b506103fc600480360360208110156106c857600080fd5b5035611f27565b3480156106db57600080fd5b506103fc600480360360208110156106f257600080fd5b5035611f39565b34801561070557600080fd5b506103a6600480360360a081101561071c57600080fd5b810190602081018135600160201b81111561073657600080fd5b82018360208201111561074857600080fd5b803590602001918460208302840111600160201b8311171561076957600080fd5b919080806020026020016040519081016040528093929190818152602001838360200280828437600092019190915250929550506001600160a01b038335169350505060208101359060408101359060600135611f4b565b3480156107cd57600080fd5b506103fc600480360360208110156107e457600080fd5b50356001600160a01b0316612406565b34801561080057600080fd5b506103fc612418565b34801561081557600080fd5b506103a66004803603602081101561082c57600080fd5b50356001600160a01b0316612425565b34801561084857600080fd5b506103a66004803603602081101561085f57600080fd5b50356001600160a01b03166124de565b34801561087b57600080fd5b50610423612518565b34801561089057600080fd5b50610423600480360360208110156108a757600080fd5b5035612527565b3480156108ba57600080fd5b506103a6600480360360e08110156108d157600080fd5b506001600160a01b038135169060208101359060408101359060608101359060ff6080820135169060a08101359060c00135612542565b34801561091457600080fd5b506103a66004803603602081101561092b57600080fd5b50356001600160a01b03166127b2565b34801561094757600080fd5b506103fc61281f565b34801561095c57600080fd5b506103fc612825565b34801561097157600080fd5b506103a66004803603604081101561098857600080fd5b506001600160a01b038135811691602001351661282f565b3480156109ac57600080fd5b506103fc600480360360208110156109c357600080fd5b50356001600160a01b03166129da565b3480156109df57600080fd5b506103a6600480360360408110156109f657600080fd5b50803590602001356129ec565b348015610a0f57600080fd5b506103fc612ce9565b348015610a2457600080fd5b506103fc60048036036020811015610a3b57600080fd5b50356001600160a01b0316612cef565b348015610a5757600080fd5b506103fc60048036036020811015610a6e57600080fd5b50356001600160a01b0316612d42565b348015610a8a57600080fd5b506103fc60048036036020811015610aa157600080fd5b50356001600160a01b0316612d54565b348015610abd57600080fd5b506103fc60048036036020811015610ad457600080fd5b50356001600160a01b0316612d66565b348015610af057600080fd5b506103fc60048036036020811015610b0757600080fd5b50356001600160a01b0316612dc8565b348015610b2357600080fd5b506103a660048036036060811015610b3a57600080fd5b508035906001600160a01b036020820135169060400135612dda565b6103a660048036036020811015610b6c57600080fd5b50356001600160a01b0316612ee5565b348015610b8857600080fd5b50610423612fba565b348015610b9d57600080fd5b506103fc612fc9565b348015610bb257600080fd5b506103fc60048036036020811015610bc957600080fd5b50356001600160a01b0316612fcf565b348015610be557600080fd5b506103fc60048036036060811015610bfc57600080fd5b506001600160a01b038135169060208101359060400135613038565b348015610c2457600080fd5b506103a6600480360360c0811015610c3b57600080fd5b810190602081018135600160201b811115610c5557600080fd5b820183602082011115610c6757600080fd5b803590602001918460208302840111600160201b83111715610c8857600080fd5b9190808060200260200160405190810160405280939291908181526020018383602002808284376000920191909152509295949360208101935035915050600160201b811115610cd757600080fd5b820183602082011115610ce957600080fd5b803590602001918460208302840111600160201b83111715610d0a57600080fd5b9190808060200260200160405190810160405280939291908181526020018383602002808284376000920191909152509295949360208101935035915050600160201b811115610d5957600080fd5b820183602082011115610d6b57600080fd5b803590602001918460208302840111600160201b83111715610d8c57600080fd5b9190808060200260200160405190810160405280939291908181526020018383602002808284376000920191909152509295949360208101935035915050600160201b811115610ddb57600080fd5b820183602082011115610ded57600080fd5b803590602001918460208302840111600160201b83111715610e0e57600080fd5b9190808060200260200160405190810160405280939291908181526020018383602002808284376000920191909152509295949360208101935035915050600160201b811115610e5d57600080fd5b820183602082011115610e6f57600080fd5b803590602001918460208302840111600160201b83111715610e9057600080fd5b9190808060200260200160405190810160405280939291908181526020018383602002808284376000920191909152509295949360208101935035915050600160201b811115610edf57600080fd5b820183602082011115610ef157600080fd5b803590602001918460208302840111600160201b83111715610f1257600080fd5b9190808060200260200160405190810160405280939291908181526020018383602002808284376000920191909152509295506130cb945050505050565b348015610f5c57600080fd5b506103fc60048036036020811015610f7357600080fd5b503561369d565b348015610f8657600080fd5b506103fc60048036036020811015610f9d57600080fd5b5035613725565b348015610fb057600080fd5b506103fc60048036036020811015610fc757600080fd5b50356001600160a01b0316613737565b348015610fe357600080fd5b506104ca60048036036020811015610ffa57600080fd5b50356001600160a01b0316613749565b34801561101657600080fd5b506103a6600480360360e081101561102d57600080fd5b506001600160a01b0381358116916020810135821691604082013581169160608101359091169060808101359060a08101359060c00135613780565b34801561107557600080fd5b506103a661387d565b34801561108a57600080fd5b506103fc600480360360208110156110a157600080fd5b50356001600160a01b03166138a4565b3480156110bd57600080fd5b506104236138b6565b3480156110d257600080fd5b506103fc600480360360208110156110e957600080fd5b50356001600160a01b03166138c5565b6044546001600160a01b03163314611144576040805162461bcd60e51b81526020600482015260096024820152682737ba1030b236b4b760b91b604482015290519081900360640190fd5b61114f8383836138d7565b505050565b603454604080516331a9108f60e11b81526004810184905290516000926001600160a01b031691636352211e916024808301926020929190829003018186803b1580156111a057600080fd5b505afa1580156111b4573d6000803e3d6000fd5b505050506040513d60208110156111ca57600080fd5b5051905060006111d98261170b565b6000848152603b602090815260408083205460439092528220549293506001600160a01b03169160019060ff168181111561121057fe5b1490506000831180156112205750805b156112fe576000858152604d60205260408120600185019055611242836119eb565b905061124d866139c1565b6000868152604160205260408120546112b5906801b5a660ea44b80000906112a99061129d611282428b63ffffffff613aaa16565b60008d8152603360205260409020549063ffffffff613af316565b9063ffffffff613af316565b9063ffffffff613b4c16565b9050818110156112d0576112cb84828403613b8e565b6112dc565b6112dc84838303613cb1565b50506001600160a01b0382166000908152605060205260409020429055611307565b611307826124de565b5050505050565b604d6020526000908152604090205481565b6034546001600160a01b031681565b8361133981611154565b336113438161170b565b50846000811161138a576040805162461bcd60e51b815260206004820152600d60248201526c5072696365206973207a65726f60981b604482015290519081900360640190fd5b336000818152603960205260409020541580156113be57506001600160a01b0381166000908152603a602052604090205415155b15611410576040805162461bcd60e51b815260206004820152601a60248201527f6e6f206465706f736974206578697374696e6720746f6b656e73000000000000604482015290519081900360640190fd5b848861c350821015801561143757506000818152604c6020526040902054620f4240038211155b6114725760405162461bcd60e51b815260040180806020018281038252602b815260200180614c79602b913960400191505060405180910390fd5b600160008b81526043602052604090205460ff16600181111561149157fe5b146114d6576040805162461bcd60e51b815260206004820152601060248201526f3a37b5b2b71037b71030bab1ba34b7b760811b604482015290519081900360640190fd5b60008a81526033602052604090205488146115225760405162461bcd60e51b8152600401808060200182810382526025815260200180614c056025913960400191505060405180910390fd5b61152b8a613dd1565b60008a8152604b602090815260408083208a9055603390915281205461155890349063ffffffff613aaa16565b3360009081526039602052604090205490915061157b908263ffffffff61413616565b336000908152603960209081526040918290209290925560345481516331a9108f60e11b8152600481018f90529151611610938f936001600160a01b0390931692636352211e9260248083019392829003018186803b1580156115dd57600080fd5b505afa1580156115f1573d6000803e3d6000fd5b505050506040513d602081101561160757600080fd5b5051338d614190565b604080518b8152905133918d917f3b599f6217e39be59216b60e543ce0d4c7d534fe64dd9d962334924e7819894e9181900360200190a35050505050505050505050565b603b602052600090815260409020546001600160a01b031681565b61167833612ee5565b565b603454604080516331a9108f60e11b815260048101849052905160009283926001600160a01b0390911691636352211e91602480820192602092909190829003018186803b1580156116cb57600080fd5b505afa1580156116df573d6000803e3d6000fd5b505050506040513d60208110156116f557600080fd5b5051905061170281613749565b9150505b919050565b60008061171783612d66565b90506000808211801561174157506001600160a01b03841660009081526039602052604090205482115b156117d6576001600160a01b038416600090815260386020908152604080832054603990925290912054611796906117899085906112a99061129d428763ffffffff613aaa16565b829063ffffffff61413616565b6001600160a01b0386166000908152603860209081526040808320849055603990915281205593506117ce848263ffffffff613aaa16565b915050611853565b6001600160a01b03841660009081526038602052604090205461180090429063ffffffff613aaa16565b6001600160a01b03851660009081526038602090815260408083204290556039909152902054909150611839908363ffffffff613aaa16565b6001600160a01b0385166000908152603960205260409020555b61185d8482614465565b6001600160a01b03841660008181526039602090815260409182902054825190815291517fbece12534c1381f016e2ce4d456a6eb916094df84a7dd97faa7159f3a44a0d3c9281900390910190a25050919050565b60336020526000908152604090205481565b6118cd816124de565b6001600160a01b0381166000908152603c6020526040812054906118f083614543565b9050808211611931576040805162461bcd60e51b81526020600482015260086024820152676e6f2066756e647360c01b604482015290519081900360640190fd5b6001600160a01b0383166000908152603c602052604090208190558082036119598185614580565b156119a2576040805182815290516001600160a01b038616917f57ecdc53fdf69e9738d68dbb94b76b67d62dfa01122f1f2ac5a66a41dd4c76fa919081900360200190a26119e5565b6001600160a01b0384166000908152603c60205260409020546119cb908263ffffffff61413616565b6001600160a01b0385166000908152603c60205260409020555b50505050565b6001600160a01b038116600090815260506020526040812054611a4d906801b5a660ea44b80000906112a990611a2890429063ffffffff613aaa16565b6001600160a01b0386166000908152604f60205260409020549063ffffffff613af316565b92915050565b60495481565b600033611a658161170b565b50611a6f836145df565b50919050565b611678336118c4565b6000828152603b602052604090205482906001600160a01b0316331480611aaf57506044546001600160a01b031633145b611b00576040805162461bcd60e51b815260206004820152601760248201527f4e6f742062656e65666163746f72206f722061646d696e000000000000000000604482015290519081900360640190fd5b6000838152603b60205260409020546001600160a01b0316611b21816124de565b82611b2b816124de565b836001600160a01b038116611b76576040805162461bcd60e51b815260206004820152600c60248201526b6e756c6c206164647265737360a01b604482015290519081900360640190fd5b6000868152603b60205260409020546001600160a01b03908116908616811415611be0576040805162461bcd60e51b815260206004820152601660248201527563616e6e6f742062652073616d65206164647265737360501b604482015290519081900360640190fd5b6000878152604160209081526040808320546033909252822054611c099163ffffffff613af316565b6001600160a01b0383166000908152604f6020526040902054909150611c35908263ffffffff613aaa16565b6001600160a01b038084166000908152604f60205260408082209390935590891681522054611c6a908263ffffffff61413616565b6001600160a01b039097166000818152604f602090815260408083209a909a55998152603b9099529690972080546001600160a01b031916909617909555505050505050565b60436020526000908152604090205460ff1681565b82611ccf81611154565b33611cd98161170b565b508360008111611d20576040805162461bcd60e51b815260206004820152600d60248201526c5072696365206973207a65726f60981b604482015290519081900360640190fd5b33600081815260396020526040902054158015611d5457506001600160a01b0381166000908152603a602052604090205415155b15611da6576040805162461bcd60e51b815260206004820152601a60248201527f6e6f206465706f736974206578697374696e6720746f6b656e73000000000000604482015290519081900360640190fd5b848761c3508210158015611dcd57506000818152604c6020526040902054620f4240038211155b611e085760405162461bcd60e51b815260040180806020018281038252602b815260200180614c79602b913960400191505060405180910390fd5b60008981526043602052604081205460ff166001811115611e2557fe5b14611e6e576040805162461bcd60e51b81526020600482015260146024820152731d1bdad95b881b9bdd08199bdc9958db1bdcd95960621b604482015290519081900360640190fd5b6000898152604d6020526040902054421015611ec2576040805162461bcd60e51b815260206004820152600e60248201526d3737ba1037b71030bab1ba34b7b760911b604482015290519081900360640190fd5b6000611ecd8a6146fe565b90506000611ee1348363ffffffff613aaa16565b9050611eec8b6147de565b60008b8152604360209081526040808320805460ff19166001179055604b82528083208c9055338352603990915290205461157b9082614136565b604c6020526000908152604090205481565b604b6020526000908152604090205481565b836001600160a01b038116611f96576040805162461bcd60e51b815260206004820152600c60248201526b6e756c6c206164647265737360a01b604482015290519081900360640190fd5b6040517f9e7c5523d188a1a804de886fe0de6a44b045c186462df5909b2475cff971baf490600090a16052546001600160a01b031615611fd557600080fd5b605280546001600160a01b0319166001600160a01b03871617905560005b86518160ff1610156123f2576000878260ff168151811061201057fe5b602002602001015190506000603460009054906101000a90046001600160a01b03166001600160a01b0316636352211e836040518263ffffffff1660e01b81526004018082815260200191505060206040518083038186803b15801561207557600080fd5b505afa158015612089573d6000803e3d6000fd5b505050506040513d602081101561209f57600080fd5b5051600083815260376020526040812054919250906120c590429063ffffffff613aaa16565b60008481526041602090815260408083205460339092528220549293509091612108916801b5a660ea44b80000916112a9919061129d908763ffffffff613af316565b6001600160a01b0384166000908152603860205260409020549091504211156121845761215c61213784612d66565b6001600160a01b0385166000908152603960205260409020549063ffffffff613aaa16565b6001600160a01b03841660009081526039602090815260408083209390935560389052204290555b6000848152603b60209081526040808320546001600160a01b03168352603c9091529020546121b9908263ffffffff61413616565b6000858152603b60209081526040808320546001600160a01b039081168452603c83528184209490945592861680835260398252918390205483519081529081018490528251919287927f939ba75588ef4ead6e17d8cd3cffe6231558a84a74907c6746780c20ccef51589281900390910190a360465460408051632ee9130160e01b81526001600160a01b03868116600483015260248201869052650a86cc92e3da604483015291519190921691632ee9130191606480830192600092919082900301818387803b15801561228e57600080fd5b505af11580156122a2573d6000803e3d6000fd5b5050506001600160a01b03841690507f865c2de2ed42d00fd42f3dad539a5ac070456a196db3dac47457b058a8e594896122e284650a86cc92e3da613af3565b60408051918252519081900360200190a26001600160a01b0383166000908152604e602052604090205461232290650a86cc92e3da63ffffffff61413616565b6001600160a01b038085166000908152604e6020908152604080832094909455878252603b815283822054604182528483205460339092529390912054929091169161239d91612378919063ffffffff613af316565b6001600160a01b0383166000908152604f60205260409020549063ffffffff61413616565b6001600160a01b0382166000908152604f60209081526040808320939093556050905220546123e2576001600160a01b03811660009081526050602052604090204290555b5050505050806001019050611ff3565b506123fe8484846138d7565b505050505050565b604f6020526000908152604090205481565b6801b5a660ea44b8000081565b6044546001600160a01b03163314612470576040805162461bcd60e51b81526020600482015260096024820152682737ba1030b236b4b760b91b604482015290519081900360640190fd5b806001600160a01b0381166124bb576040805162461bcd60e51b815260206004820152600c60248201526b6e756c6c206164647265737360a01b604482015290519081900360640190fd5b50605280546001600160a01b0319166001600160a01b0392909216919091179055565b60006124e9826119eb565b905080156124fb576124fb8282613b8e565b506001600160a01b03166000908152605060205260409020429055565b6046546001600160a01b031681565b604a602052600090815260409020546001600160a01b031681565b6052546040805160008152602080820180845288905260ff871682840152606082018690526080820185905291516001600160a01b039093169260019260a0808401939192601f1981019281900390910190855afa1580156125a8573d6000803e3d6000fd5b505050602060405103516001600160a01b03161461260d576040805162461bcd60e51b815260206004820152601960248201527f6e6f207065726d697373696f6e20746f20776974686472617700000000000000604482015290519081900360640190fd5b612618878787613038565b841461265c576040805162461bcd60e51b815260206004820152600e60248201526d0d2dcc6dee4e4cac6e840d0c2e6d60931b604482015290519081900360640190fd5b8442106126a1576040805162461bcd60e51b815260206004820152600e60248201526d18dbdd5c1bdb88195e1c1a5c995960921b604482015290519081900360640190fd5b6126aa876124de565b6001600160a01b0387166000908152603c602052604090205480156127a85786811115612748576126db8789614580565b15612743576126f0818863ffffffff613aaa16565b6001600160a01b0389166000818152603c6020908152604091829020939093558051848152905191927f9d56808b7d9e1c7950f9b178297ba2c7703524d88ee1df387d174c136011c58492918290030190a25b6127a8565b6127528189614580565b156127a8576001600160a01b0388166000818152603c6020908152604080832092909255815184815291517f9d56808b7d9e1c7950f9b178297ba2c7703524d88ee1df387d174c136011c5849281900390910190a25b5050505050505050565b6044546001600160a01b031633146127fd576040805162461bcd60e51b81526020600482015260096024820152682737ba1030b236b4b760b91b604482015290519081900360640190fd5b604480546001600160a01b0319166001600160a01b0392909216919091179055565b60485481565b650a86cc92e3da81565b6044546001600160a01b0316331461287a576040805162461bcd60e51b81526020600482015260096024820152682737ba1030b236b4b760b91b604482015290519081900360640190fd5b806001600160a01b0381166128c5576040805162461bcd60e51b815260206004820152600c60248201526b6e756c6c206164647265737360a01b604482015290519081900360640190fd5b8282806001600160a01b0316826001600160a01b03161415612927576040805162461bcd60e51b815260206004820152601660248201527563616e6e6f742062652073616d65206164647265737360501b604482015290519081900360640190fd5b6001600160a01b0385166000908152603c602052604090205461297c576040805162461bcd60e51b81526020600482015260086024820152676e6f2066756e647360c01b604482015290519081900360640190fd5b6001600160a01b038086166000908152603c60205260408082205492871682529020546129ae9163ffffffff61413616565b6001600160a01b039485166000908152603c602052604080822092909255959094168552505050812055565b60386020526000908152604090205481565b603454604080516331a9108f60e11b815260048101859052905184926001600160a01b031691636352211e916024808301926020929190829003018186803b158015612a3757600080fd5b505afa158015612a4b573d6000803e3d6000fd5b505050506040513d6020811015612a6157600080fd5b50516001600160a01b03163314612aac576040805162461bcd60e51b815260206004820152600a6024820152692737ba103830ba3937b760b11b604482015290519081900360640190fd5b82612ab681611154565b60008481526043602052604081205460ff166001811115612ad357fe5b1415612b13576040805162461bcd60e51b815260206004820152600a602482015269199bdc9958db1bdcd95960b21b604482015290519081900360640190fd5b82612b57576040805162461bcd60e51b815260206004820152600f60248201526e696e636f727265637420707269636560881b604482015290519081900360640190fd5b69021e19e0c9bab24000008310612ba9576040805162461bcd60e51b815260206004820152601160248201527065786365656473206d617820707269636560781b604482015290519081900360640190fd5b6000848152604160209081526040808320546033909252822054612bd29163ffffffff613af316565b60008681526041602052604081205491925090612bf690869063ffffffff613af316565b6000878152603b6020908152604080832054338452603a909252909120549192506001600160a01b031690612c43908390612c37908663ffffffff613aaa16565b9063ffffffff61413616565b336000908152603a60209081526040808320939093556001600160a01b0384168252604f90522054612c81908390612c37908663ffffffff613aaa16565b6001600160a01b0382166000908152604f602090815260408083209390935589825260338152908290208890558151888152915189927ffe6b606ca0477592b5740a0eb00c8e91570a5d0eb736abfa1a6309bd081b4a4d92908290030190a250505050505050565b60425481565b6001600160a01b0381166000908152603a60205260408120548190612d23906801b5a660ea44b8000063ffffffff613b4c16565b9050611702612d35826112a986612fcf565b429063ffffffff61413616565b60516020526000908152604090205481565b604e6020526000908152604090205481565b6001600160a01b038116600090815260386020526040812054611a4d906801b5a660ea44b80000906112a990612da390429063ffffffff613aaa16565b6001600160a01b0386166000908152603a60205260409020549063ffffffff613af316565b603c6020526000908152604090205481565b6044546001600160a01b03163314612e25576040805162461bcd60e51b81526020600482015260096024820152682737ba1030b236b4b760b91b604482015290519081900360640190fd5b62030d40811115612e71576040805162461bcd60e51b81526020600482015260116024820152706e6f74206d6f7265207468616e2032302560781b604482015290519081900360640190fd5b6000838152604c60209081526040808320849055604a82529182902080546001600160a01b0319166001600160a01b0386169081179091558251908152908101839052815185927f5586506d614c14a823aceec5aaf06a022867e69afb3fe6e2f5e2d7a5bde61572928290030190a2505050565b6001600160a01b0381166000908152603a6020526040902054612f3b576040805162461bcd60e51b81526020600482015260096024820152686e6f20746f6b656e7360b81b604482015290519081900360640190fd5b6001600160a01b038116600090815260396020526040902054612f64903463ffffffff61413616565b6001600160a01b0382166000818152603960209081526040918290208490558151938452905191927fbece12534c1381f016e2ce4d456a6eb916094df84a7dd97faa7159f3a44a0d3c929081900390910190a250565b6052546001600160a01b031681565b60475481565b600080612fdb83612d66565b6001600160a01b0384166000908152603960205260409020549091508110613007576000915050611706565b6001600160a01b038316600090815260396020526040902054613030908263ffffffff613aaa16565b915050611706565b604080516bffffffffffffffffffffffff19606086901b16602080830191909152603482018590526054808301859052835180840390910181526074830184528051908201207f19457468657265756d205369676e6564204d6573736167653a0a333200000000609484015260b0808401919091528351808403909101815260d090920190925280519101209392505050565b6044546001600160a01b03163314613116576040805162461bcd60e51b81526020600482015260096024820152682737ba1030b236b4b760b91b604482015290519081900360640190fd5b845186511461312157fe5b835186511461312c57fe5b805186511461313757fe5b815183511461314257fe5b60005b86518160ff161015613694576000868260ff168151811061316257fe5b6020026020010151905060006001600160a01b0316878360ff168151811061318657fe5b60200260200101516001600160a01b031614156131d9576040805162461bcd60e51b815260206004820152600c60248201526b6e756c6c206164647265737360a01b604482015290519081900360640190fd5b60606131fa898460ff16815181106131ed57fe5b60200260200101516148ef565b905060606040518060400160405280601c81526020017f68747470733a2f2f77696c6463617264732e78797a2f746f6b656e2f000000008152509050606081836040516020018083805190602001908083835b6020831061326c5780518252601f19909201916020918201910161324d565b51815160209384036101000a600019018019909216911617905285519190930192850191508083835b602083106132b45780518252601f199092019160209182019101613295565b6001836020036101000a038019825116818451168082178552505050505050905001925050506040516020818303038152906040529050603460009054906101000a90046001600160a01b03166001600160a01b03166350bb4e7f308d8860ff168151811061331f57fe5b6020026020010151846040518463ffffffff1660e01b815260040180846001600160a01b03166001600160a01b0316815260200183815260200180602001828103825283818151815260200191508051906020019080838360005b8381101561339257818101518382015260200161337a565b50505050905090810190601f1680156133bf5780820380516001836020036101000a031916815260200191505b50945050505050602060405180830381600087803b1580156133e057600080fd5b505af11580156133f4573d6000803e3d6000fd5b505050506040513d602081101561340a57600080fd5b505089518a9060ff871690811061341d57fe5b6020026020010151603b60008d8860ff168151811061343857fe5b6020026020010151815260200190815260200160002060006101000a8154816001600160a01b0302191690836001600160a01b031602179055506000604360008d8860ff168151811061348757fe5b6020026020010151815260200190815260200160002060006101000a81548160ff021916908360018111156134b857fe5b0217905550888560ff16815181106134cc57fe5b6020026020010151604160008d8860ff16815181106134e757fe5b602002602001015181526020019081526020016000208190555042868660ff168151811061351157fe5b602002602001015110156135525742604d60008d8860ff168151811061353357fe5b6020026020010151815260200190815260200160002081905550613597565b858560ff168151811061356157fe5b6020026020010151604d60008d8860ff168151811061357c57fe5b60200260200101518152602001908152602001600020819055505b8a8560ff16815181106135a657fe5b60200260200101517f0c954b79cf3caaaad0936916502caf69a5b4c93edeb4cc2ef2642fafc4f968778a8760ff16815181106135de57fe5b6020026020010151604d60008f8a60ff16815181106135f957fe5b6020026020010151815260200190815260200160002054604051808381526020018281526020019250505060405180910390a28460ff1688511115613685576136858b8660ff168151811061364a57fe5b6020026020010151898760ff168151811061366157fe5b6020026020010151898860ff168151811061367857fe5b6020026020010151612dda565b50505050806001019050613145565b50505050505050565b603454604080516331a9108f60e11b815260048101849052905160009283926001600160a01b0390911691636352211e91602480820192602092909190829003018186803b1580156136ee57600080fd5b505afa158015613702573d6000803e3d6000fd5b505050506040513d602081101561371857600080fd5b5051905061170281612cef565b60416020526000908152604090205481565b60506020526000908152604090205481565b6001600160a01b03811660009081526039602052604081205461376b83612d66565b1061377857506001611706565b506000611706565b600054610100900460ff168061379957506137996149aa565b806137a7575060005460ff16155b6137e25760405162461bcd60e51b815260040180806020018281038252602e815260200180614c4b602e913960400191505060405180910390fd5b600054610100900460ff1615801561380d576000805460ff1961ff0019909116610100171660011790555b603480546001600160a01b03808b166001600160a01b031992831617909255604480548a84169083161790556052805488841690831617905560468054928916929091169190911790556138628484846138d7565b80156127a8576000805461ff00191690555050505050505050565b336138878161170b565b50336000908152603960205260409020546138a1906145df565b50565b60396020526000908152604090205481565b6044546001600160a01b031681565b603a6020526000908152604090205481565b8183101561392c576040805162461bcd60e51b815260206004820152601b60248201527f61756374696f6e207374617274203c2061756374696f6e20656e640000000000604482015290519081900360640190fd5b62015180811015613984576040805162461bcd60e51b815260206004820152601860248201527f3120646179206d696e2061756374696f6e206c656e6774680000000000000000604482015290519081900360640190fd5b6047839055604882905560498190556040517f302fedae2d242dcf051d44de5478e1e00f5a0e972d3cb61423043fecae47152d90600090a1505050565b603454604080516331a9108f60e11b81526004810184905290516000926001600160a01b031691636352211e916024808301926020929190829003018186803b158015613a0d57600080fd5b505afa158015613a21573d6000803e3d6000fd5b505050506040513d6020811015613a3757600080fd5b50519050613a4582826149b0565b6000828152604360209081526040808320805460ff191690556001600160a01b038416808452603883529281902054815190815290517f5c96da7ec020805f8c8976230ffa5316fff9373db995b9a5c11deb511e530c6d929181900390910190a25050565b6000613aec83836040518060400160405280601e81526020017f536166654d6174683a207375627472616374696f6e206f766572666c6f770000815250614b08565b9392505050565b600082613b0257506000611a4d565b82820282848281613b0f57fe5b0414613aec5760405162461bcd60e51b8152600401808060200182810382526021815260200180614c2a6021913960400191505060405180910390fd5b6000613aec83836040518060400160405280601a81526020017f536166654d6174683a206469766973696f6e206279207a65726f000000000000815250614b9f565b6001600160a01b03821660009081526051602052604090205415613c6a576001600160a01b038216600090815260516020526040902054811015613c13576001600160a01b038216600090815260516020526040902054613bf5908263ffffffff613aaa16565b6001600160a01b038316600090815260516020526040902055613c65565b6001600160a01b038216600090815260516020526040902054613c3d90829063ffffffff613aaa16565b6001600160a01b0383166000908152603c602090815260408083209390935560519052908120555b613cad565b6001600160a01b0382166000908152603c6020526040902054613c93908263ffffffff61413616565b6001600160a01b0383166000908152603c60205260409020555b5050565b6001600160a01b0382166000908152603c602052604090205415613d8b576001600160a01b0382166000908152603c60205260409020548111613d35576001600160a01b0382166000908152603c6020526040902054613d17908263ffffffff613aaa16565b6001600160a01b0383166000908152603c6020526040902055613c65565b6001600160a01b0382166000908152603c6020526040902054613d5f90829063ffffffff613aaa16565b6001600160a01b038316600090815260516020908152604080832093909355603c905290812055613cad565b6001600160a01b038216600090815260516020526040902054613db4908263ffffffff61413616565b6001600160a01b0383166000908152605160205260409020555050565b60008181526033602090815260408083205460345482516331a9108f60e11b81526004810187905292519194936001600160a01b0390911692636352211e9260248083019392829003018186803b158015613e2b57600080fd5b505afa158015613e3f573d6000803e3d6000fd5b505050506040513d6020811015613e5557600080fd5b50516000848152604b6020526040902054909150613e81576000838152604b6020526040902061c35090555b6000838152604b6020526040812054613eaa90620f4240906112a990869063ffffffff613af316565b6000858152604c602052604081205491925090613ec957506000613f50565b6000858152604c6020526040902054613ef290620f4240906112a990879063ffffffff613af316565b6000868152604a60209081526040808320546001600160a01b031683526039909152902054909150613f2a908263ffffffff61413616565b6000868152604a60209081526040808320546001600160a01b0316835260399091529020555b6000613f7282613f66878663ffffffff613aaa16565b9063ffffffff613aaa16565b600087815260416020908152604080832054603390925290912054919250613fa0919063ffffffff613af316565b6001600160a01b0385166000908152603a602052604090205414156140a5576001600160a01b038416600090815260396020526040902054613fe990829063ffffffff61413616565b6001600160a01b0385166000818152603960205260408082208290555192935086929091906108fc90859084818181858888f193505050503d806000811461404d576040519150601f19603f3d011682016040523d82523d6000602084013e614052565b606091505b505090508061409e576001600160a01b038616600090815260396020526040902054614084908463ffffffff61413616565b6001600160a01b0387166000908152603960205260409020555b50506140e8565b6001600160a01b0384166000908152603960205260409020546140ce908263ffffffff61413616565b6001600160a01b0385166000908152603960205260409020555b6044546001600160a01b0316600090815260396020526040902054614113908463ffffffff61413616565b6044546001600160a01b0316600090815260396020526040902055505050505050565b600082820183811015613aec576040805162461bcd60e51b815260206004820152601b60248201527f536166654d6174683a206164646974696f6e206f766572666c6f770000000000604482015290519081900360640190fd5b69021e19e0c9bab240000081106141e2576040805162461bcd60e51b815260206004820152601160248201527065786365656473206d617820707269636560781b604482015290519081900360640190fd5b600084815260416020908152604080832054603390925282205461420b9163ffffffff613af316565b6000868152604160205260408120549192509061422f90849063ffffffff613af316565b6001600160a01b0385166000908152603a602052604090205490915061425b908263ffffffff61413616565b6001600160a01b0385166000908152603a6020908152604080832093909355604e9052205461429690650a86cc92e3da63ffffffff61413616565b6001600160a01b038086166000908152604e6020908152604080832094909455898252603b815283822054909216808252604f90925291909120546142e1908363ffffffff61413616565b6001600160a01b038083166000908152604f60205260409020919091558616301480159061431757506001600160a01b03861615155b156143d6576001600160a01b0386166000908152603a6020526040902054614345908463ffffffff613aaa16565b6001600160a01b0387166000908152603a6020908152604080832093909355604e9052205461438090650a86cc92e3da63ffffffff613aaa16565b6001600160a01b038088166000908152604e60209081526040808320949094559184168152604f90915220546143bc908463ffffffff613aaa16565b6001600160a01b0382166000908152604f60205260409020555b603454604080516323b872dd60e01b81526001600160a01b0389811660048301528881166024830152604482018b9052915191909216916323b872dd91606480830192600092919082900301818387803b15801561443357600080fd5b505af1158015614447573d6000803e3d6000fd5b50505060009788525050603360205250506040909320929092555050565b8015613cad576046546001600160a01b038381166000818152604e6020526040808220548151632ee9130160e01b81526004810194909452602484018790526044840152519290931692632ee913019260648084019382900301818387803b1580156144d057600080fd5b505af11580156144e4573d6000803e3d6000fd5b505050506001600160a01b0382166000818152604e60205260409020547f865c2de2ed42d00fd42f3dad539a5ac070456a196db3dac47457b058a8e594899061452e908490613af3565b60408051918252519081900360200190a25050565b6049546001600160a01b0382166000908152604f60205260408120549091611a4d916801b5a660ea44b80000916112a9919063ffffffff613af316565b6040516000906001600160a01b038316906108fc90859084818181858888f193505050503d80600081146145d0576040519150601f19603f3d011682016040523d82523d6000602084013e6145d5565b606091505b5090949350505050565b3360009081526039602052604090205481111561463a576040805162461bcd60e51b81526020600482015260146024820152730eed2e8d0c8e4c2eed2dcce40e8dede40daeac6d60631b604482015290519081900360640190fd5b3360009081526039602052604090205461465a908263ffffffff613aaa16565b336000818152603960205260408082209390935591516108fc90849084818181858888f193505050503d80600081146146af576040519150601f19603f3d011682016040523d82523d6000602084013e6146b4565b606091505b5050905080613cad576040805162461bcd60e51b81526020600482015260116024820152701dda5d1a191c985dd85b0819985a5b1959607a1b604482015290519081900360640190fd5b6049546000828152604d6020526040812054909182916147239163ffffffff61413616565b60008481526033602052604081205491925090158015906147535750604854600085815260336020526040902054115b1561476d5750600083815260336020526040902054614772565b506047545b8142106147855760485492505050611706565b6049546000858152604d60205260409020546147d5916147c8916112a9906147b490429063ffffffff613aaa16565b60485461129d90879063ffffffff613aaa16565b829063ffffffff613aaa16565b92505050611706565b600081815260336020908152604080832054604c9092528220549091906148075750600061488e565b6000838152604c602052604090205461483090620f4240906112a990859063ffffffff613af316565b6000848152604a60209081526040808320546001600160a01b031683526039909152902054909150614868908263ffffffff61413616565b6000848152604a60209081526040808320546001600160a01b0316835260399091529020555b60006148a0838363ffffffff613aaa16565b6044546001600160a01b03166000908152603960205260409020549091506148ce908263ffffffff61413616565b6044546001600160a01b031660009081526039602052604090205550505050565b60608161491457506040805180820190915260018152600360fc1b6020820152611706565b8160005b811561492c57600101600a82049150614918565b6060816040519080825280601f01601f191660200182016040528015614959576020820181803883390190505b5090505b84156149a257600a850660300160f81b8183600190039350838151811061498057fe5b60200101906001600160f81b031916908160001a905350600a8504945061495d565b949350505050565b303b1590565b60008281526041602090815260408083205460339092528220546149d99163ffffffff613af316565b6001600160a01b0383166000908152603a6020526040902054909150614a05908263ffffffff613aaa16565b6001600160a01b0383166000908152603a6020908152604080832093909355604e90522054614a4090650a86cc92e3da63ffffffff613aaa16565b6001600160a01b038084166000908152604e6020908152604080832094909455868252603b815283822054909216808252604f9092529190912054614a8b908363ffffffff613aaa16565b6001600160a01b038083166000908152604f60205260408082209390935560345483516323b872dd60e01b815287841660048201523060248201526044810189905293519216926323b872dd926064808301939282900301818387803b158015614af457600080fd5b505af11580156127a8573d6000803e3d6000fd5b60008184841115614b975760405162461bcd60e51b81526004018080602001828103825283818151815260200191508051906020019080838360005b83811015614b5c578181015183820152602001614b44565b50505050905090810190601f168015614b895780820380516001836020036101000a031916815260200191505b509250505060405180910390fd5b505050900390565b60008183614bee5760405162461bcd60e51b8152602060048201818152835160248401528351909283926044909101919085019080838360008315614b5c578181015183820152602001614b44565b506000838581614bfa57fe5b049594505050505056fe6d75737420737065636966792063757272656e742070726963652061636375726174656c79536166654d6174683a206d756c7469706c69636174696f6e206f766572666c6f77436f6e747261637420696e7374616e63652068617320616c7265616479206265656e20696e697469616c697a656477696c64636172647320636f6d6d6973696f6e206e6f74206265747765656e20352520616e642031303025a265627a7a723158206dd055ef8b5483060a6d293056742e1056129fd3c2c1270d799607babe572b6a64736f6c63430005110032",
  "source": "pragma solidity 0.5.17;\n\nimport \"./ERC721Patronage_v1.sol\";\nimport \"./MintManager_v2.sol\";\n\n// import \"@nomiclabs/buidler/console.sol\";\n\ncontract WildcardSteward_v3 is Initializable {\n    /*\n    This smart contract collects patronage from current owner through a Harberger tax model and \n    takes stewardship of the asset token if the patron can't pay anymore.\n\n    Harberger Tax (COST): \n    - Asset is always on sale.\n    - You have to have a price set.\n    - Tax (Patronage) is paid to maintain ownership.\n    - Steward maints control over ERC721.\n    */\n    using SafeMath for uint256;\n    mapping(uint256 => uint256) public price; //in wei\n    ERC721Patronage_v1 public assetToken; // ERC721 NFT.\n\n    mapping(uint256 => uint256) deprecated_totalCollected; // THIS VALUE IS DEPRECATED\n    mapping(uint256 => uint256) deprecated_currentCollected; // THIS VALUE IS DEPRECATED\n    mapping(uint256 => uint256) deprecated_timeLastCollected; // THIS VALUE IS DEPRECATED.\n    mapping(address => uint256) public timeLastCollectedPatron;\n    mapping(address => uint256) public deposit;\n    mapping(address => uint256) public totalPatronOwnedTokenCost;\n\n    mapping(uint256 => address) public benefactors; // non-profit benefactor\n    mapping(address => uint256) public benefactorFunds;\n\n    mapping(uint256 => address) deprecated_currentPatron; // Deprecate This is different to the current token owner.\n    mapping(uint256 => mapping(address => bool)) deprecated_patrons; // Deprecate\n    mapping(uint256 => mapping(address => uint256)) deprecated_timeHeld; // Deprecate\n\n    mapping(uint256 => uint256) deprecated_timeAcquired; // deprecate\n\n    // 1200% patronage\n    mapping(uint256 => uint256) public patronageNumerator;\n    uint256 public patronageDenominator;\n\n    enum StewardState {Foreclosed, Owned}\n    mapping(uint256 => StewardState) public state;\n\n    address public admin;\n\n    //////////////// NEW variables in v2///////////////////\n    mapping(uint256 => uint256) deprecated_tokenGenerationRate; // we can reuse the patronage denominator\n\n    MintManager_v2 public mintManager;\n    //////////////// NEW variables in v3 ///////////////////\n    uint256 public auctionStartPrice;\n    uint256 public auctionEndPrice;\n    uint256 public auctionLength;\n\n    mapping(uint256 => address) public artistAddresses; //mapping from tokenID to the artists address\n    mapping(uint256 => uint256) public wildcardsPercentages; // mapping from tokenID to the percentage sale cut of wildcards for each token\n    mapping(uint256 => uint256) public artistPercentages; // tokenId to artist percetages. To make it configurable. 10 000 = 100%\n    mapping(uint256 => uint256) public tokenAuctionBeginTimestamp;\n\n    mapping(address => uint256) public totalPatronTokenGenerationRate; // The total token generation rate for all the tokens of the given address.\n    mapping(address => uint256) public totalBenefactorTokenNumerator;\n    mapping(address => uint256) public timeLastCollectedBenefactor; // make my name consistent please\n    mapping(address => uint256) public benefactorCredit;\n    address public withdrawCheckerAdmin;\n\n    /*\n    31536000 seconds = 365 days\n\n    divisor = 365 days * 1000000000000\n            = 31536000000000000000\n    */\n\n    // 11574074074074 = 10^18 / 86400 This is just less (rounded down) than one token a day.\n    //       - this can be done since all tokens have the exact same tokenGenerationRate - and hardcoding saves gas.\n    uint256 public constant globalTokenGenerationRate = 11574074074074;\n    uint256 public constant yearTimePatronagDenominator = 31536000000000000000;\n\n    event Buy(uint256 indexed tokenId, address indexed owner, uint256 price);\n    event PriceChange(uint256 indexed tokenId, uint256 newPrice);\n    event Foreclosure(address indexed prevOwner, uint256 foreclosureTime);\n    event RemainingDepositUpdate(\n        address indexed tokenPatron,\n        uint256 remainingDeposit\n    );\n\n    event AddTokenV3(\n        uint256 indexed tokenId,\n        uint256 patronageNumerator,\n        uint256 unixTimestampOfTokenAuctionStart\n    );\n\n    // QUESTION: in future versions, should these two events (CollectPatronage and CollectLoyalty) be combined into one? - they only ever happen at the same time.\n    // NOTE: this event is deprecated - it is only here for the upgrade function.\n    event CollectPatronage(\n        uint256 indexed tokenId,\n        address indexed patron,\n        uint256 remainingDeposit,\n        uint256 amountReceived\n    );\n    event CollectLoyalty(address indexed patron, uint256 amountRecieved);\n\n    event ArtistCommission(\n        uint256 indexed tokenId,\n        address artist,\n        uint256 artistCommission\n    );\n    event WithdrawBenefactorFundsWithSafetyDelay(\n        address indexed benefactor,\n        uint256 withdrawAmount\n    );\n    event WithdrawBenefactorFunds(\n        address indexed benefactor,\n        uint256 withdrawAmount\n    );\n    event UpgradeToV3();\n    event ChangeAuctionParameters();\n\n    modifier onlyPatron(uint256 tokenId) {\n        require(msg.sender == assetToken.ownerOf(tokenId), \"Not patron\");\n        _;\n    }\n\n    modifier onlyAdmin() {\n        require(msg.sender == admin, \"Not admin\");\n        _;\n    }\n\n    modifier onlyReceivingBenefactorOrAdmin(uint256 tokenId) {\n        require(\n            msg.sender == benefactors[tokenId] || msg.sender == admin,\n            \"Not benefactor or admin\"\n        );\n        _;\n    }\n\n    modifier collectPatronageAndSettleBenefactor(uint256 tokenId) {\n        _collectPatronageAndSettleBenefactor(tokenId);\n        _;\n    }\n\n    modifier collectPatronagePatron(address tokenPatron) {\n        _collectPatronagePatron(tokenPatron);\n        _;\n    }\n\n    modifier youCurrentlyAreNotInDefault(address tokenPatron) {\n        require(\n            !(deposit[tokenPatron] == 0 &&\n                totalPatronOwnedTokenCost[tokenPatron] > 0),\n            \"no deposit existing tokens\"\n        );\n        _;\n    }\n\n    modifier updateBenefactorBalance(address benefactor) {\n        _updateBenefactorBalance(benefactor);\n        _;\n    }\n\n    modifier priceGreaterThanZero(uint256 _newPrice) {\n        require(_newPrice > 0, \"Price is zero\");\n        _;\n    }\n    modifier notNullAddress(address checkAddress) {\n        require(checkAddress != address(0), \"null address\");\n        _;\n    }\n    modifier notSameAddress(address firstAddress, address secondAddress) {\n        require(firstAddress != secondAddress, \"cannot be same address\");\n        _;\n    }\n    modifier validWildcardsPercentage(\n        uint256 wildcardsPercentage,\n        uint256 tokenID\n    ) {\n        require(\n            wildcardsPercentage >= 50000 &&\n                wildcardsPercentage <= (1000000 - artistPercentages[tokenID]), // not sub safemath. Is this okay?\n            \"wildcards commision not between 5% and 100%\"\n        );\n        _;\n    }\n\n    function initialize(\n        address _assetToken,\n        address _admin,\n        address _mintManager,\n        address _withdrawCheckerAdmin,\n        uint256 _auctionStartPrice,\n        uint256 _auctionEndPrice,\n        uint256 _auctionLength\n    ) public initializer {\n        assetToken = ERC721Patronage_v1(_assetToken);\n        admin = _admin;\n        withdrawCheckerAdmin = _withdrawCheckerAdmin;\n        mintManager = MintManager_v2(_mintManager);\n        _changeAuctionParameters(\n            _auctionStartPrice,\n            _auctionEndPrice,\n            _auctionLength\n        );\n    }\n\n    function uintToStr(uint256 _i)\n        internal\n        pure\n        returns (string memory _uintAsString)\n    {\n        if (_i == 0) {\n            return \"0\";\n        }\n\n        uint256 j = _i;\n        uint256 len;\n        while (j != 0) {\n            len++;\n            j /= 10;\n        }\n\n        bytes memory bstr = new bytes(len);\n        while (_i != 0) {\n            bstr[--len] = bytes1(uint8(48 + (_i % 10)));\n            _i /= 10;\n        }\n        return string(bstr);\n    }\n\n    function listNewTokens(\n        uint256[] memory tokens,\n        address payable[] memory _benefactors,\n        uint256[] memory _patronageNumerator,\n        address[] memory _artists,\n        uint256[] memory _artistCommission,\n        uint256[] memory _releaseDate\n    ) public onlyAdmin {\n        assert(tokens.length == _benefactors.length);\n        assert(tokens.length == _patronageNumerator.length);\n        assert(tokens.length == _releaseDate.length);\n        assert(_artists.length == _artistCommission.length);\n\n        for (uint8 i = 0; i < tokens.length; ++i) {\n            address benefactor = _benefactors[i];\n            require(_benefactors[i] != address(0), \"null address\");\n            string memory idString = uintToStr(tokens[i]);\n            string memory tokenUriBase = \"https://wildcards.xyz/token/\";\n            string memory tokenUri = string(\n                abi.encodePacked(tokenUriBase, idString)\n            );\n            assetToken.mintWithTokenURI(address(this), tokens[i], tokenUri);\n            benefactors[tokens[i]] = _benefactors[i];\n            state[tokens[i]] = StewardState.Foreclosed;\n            patronageNumerator[tokens[i]] = _patronageNumerator[i];\n            // tokenGenerationRate[tokens[i]] = _tokenGenerationRate[i];\n\n            if (_releaseDate[i] < now) {\n                tokenAuctionBeginTimestamp[tokens[i]] = now;\n            } else {\n                tokenAuctionBeginTimestamp[tokens[i]] = _releaseDate[i];\n            }\n\n            emit AddTokenV3(\n                tokens[i],\n                _patronageNumerator[i],\n                tokenAuctionBeginTimestamp[tokens[i]]\n            );\n            // Adding this after the add token emit, so graph can first capture the token before processing the change artist things\n            if (_artists.length > i) {\n                changeArtistAddressAndCommission(\n                    tokens[i],\n                    _artists[i],\n                    _artistCommission[i]\n                );\n            }\n        }\n    }\n\n    function upgradeToV3(\n        uint256[] memory tokens,\n        address _withdrawCheckerAdmin,\n        uint256 _auctionStartPrice,\n        uint256 _auctionEndPrice,\n        uint256 _auctionLength\n    ) public notNullAddress(_withdrawCheckerAdmin) {\n        emit UpgradeToV3();\n        // This function effectively needs to call both _collectPatronage and _collectPatronagePatron from the v2 contract.\n        require(withdrawCheckerAdmin == address(0));\n        withdrawCheckerAdmin = _withdrawCheckerAdmin;\n        // For each token\n        for (uint8 i = 0; i < tokens.length; ++i) {\n            uint256 tokenId = tokens[i];\n            address currentOwner = assetToken.ownerOf(tokenId);\n\n            uint256 timeSinceTokenLastCollection = now.sub(\n                deprecated_timeLastCollected[tokenId]\n            );\n\n            // NOTE: for this upgrade we make sure no tokens are foreclosed, or close to foreclosing\n            uint256 collection = price[tokenId]\n                .mul(timeSinceTokenLastCollection)\n                .mul(patronageNumerator[tokenId])\n                .div(yearTimePatronagDenominator);\n\n            // set the timeLastCollectedPatron for that tokens owner to 'now'.\n            // timeLastCollected[tokenId] = now; // This variable is depricated, no need to update it.\n            if (timeLastCollectedPatron[currentOwner] < now) {\n                // set subtract patronage owed for the Patron from their deposit.\n                deposit[currentOwner] = deposit[currentOwner].sub(\n                    patronageOwedPatron(currentOwner)\n                );\n\n                timeLastCollectedPatron[currentOwner] = now;\n            }\n\n            // Add the amount collected for current token to the benefactorFunds.\n            benefactorFunds[benefactors[tokenId]] = benefactorFunds[benefactors[tokenId]]\n                .add(collection);\n\n            // Emit an event for the graph to pickup this action (the last time this event will ever be emited)\n            emit CollectPatronage(\n                tokenId,\n                currentOwner,\n                deposit[currentOwner],\n                collection\n            );\n\n            // mint required loyalty tokens\n            mintManager.tokenMint(\n                currentOwner,\n                timeSinceTokenLastCollection, // this should always be > 0\n                globalTokenGenerationRate // instead of this -> tokenGenerationRate[tokenId] hard code to save gas\n            );\n            emit CollectLoyalty(\n                currentOwner,\n                timeSinceTokenLastCollection.mul(globalTokenGenerationRate)\n            ); // OPTIMIZE ME\n\n            // Add the tokens generation rate to the totalPatronTokenGenerationRate of the current owner\n            totalPatronTokenGenerationRate[currentOwner] = totalPatronTokenGenerationRate[currentOwner]\n                .add(globalTokenGenerationRate);\n\n            address tokenBenefactor = benefactors[tokenId];\n            // add the scaled tokens price to the `totalBenefactorTokenNumerator`\n            totalBenefactorTokenNumerator[tokenBenefactor] = totalBenefactorTokenNumerator[tokenBenefactor]\n                .add(price[tokenId].mul(patronageNumerator[tokenId]));\n\n            if (timeLastCollectedBenefactor[tokenBenefactor] == 0) {\n                timeLastCollectedBenefactor[tokenBenefactor] = now;\n            }\n        }\n        _changeAuctionParameters(\n            _auctionStartPrice,\n            _auctionEndPrice,\n            _auctionLength\n        );\n    }\n\n    function changeReceivingBenefactor(\n        uint256 tokenId,\n        address payable _newReceivingBenefactor\n    )\n        public\n        onlyReceivingBenefactorOrAdmin(tokenId)\n        updateBenefactorBalance(benefactors[tokenId])\n        updateBenefactorBalance(_newReceivingBenefactor)\n        notNullAddress(_newReceivingBenefactor)\n    {\n        address oldBenfactor = benefactors[tokenId];\n\n        require(\n            oldBenfactor != _newReceivingBenefactor,\n            \"cannot be same address\"\n        );\n\n        // Collect patronage from old and new benefactor before changing totalBenefactorTokenNumerator on both\n        uint256 scaledPrice = price[tokenId].mul(patronageNumerator[tokenId]);\n        totalBenefactorTokenNumerator[oldBenfactor] = totalBenefactorTokenNumerator[oldBenfactor]\n            .sub(scaledPrice);\n        totalBenefactorTokenNumerator[_newReceivingBenefactor] = totalBenefactorTokenNumerator[_newReceivingBenefactor]\n            .add(scaledPrice);\n\n        benefactors[tokenId] = _newReceivingBenefactor;\n        // NB No fund exchanging here please!\n    }\n\n    // NB This function is if an organisation loses their keys etc..\n    // It will transfer their deposit to their new benefactor address\n    // It should only be called once all their tokens also changeReceivingBenefactor\n    function changeReceivingBenefactorDeposit(\n        address oldBenfactor,\n        address payable _newReceivingBenefactor\n    )\n        public\n        onlyAdmin\n        notNullAddress(_newReceivingBenefactor)\n        notSameAddress(oldBenfactor, _newReceivingBenefactor)\n    {\n        require(benefactorFunds[oldBenfactor] > 0, \"no funds\");\n\n        benefactorFunds[_newReceivingBenefactor] = benefactorFunds[_newReceivingBenefactor]\n            .add(benefactorFunds[oldBenfactor]);\n        benefactorFunds[oldBenfactor] = 0;\n    }\n\n    function changeAdmin(address _admin) public onlyAdmin {\n        admin = _admin;\n    }\n\n    function changeWithdrawCheckerAdmin(address _withdrawCheckerAdmin)\n        public\n        onlyAdmin\n        notNullAddress(_withdrawCheckerAdmin)\n    {\n        withdrawCheckerAdmin = _withdrawCheckerAdmin;\n    }\n\n    function changeArtistAddressAndCommission(\n        uint256 tokenId,\n        address artistAddress,\n        uint256 percentage\n    ) public onlyAdmin {\n        require(percentage <= 200000, \"not more than 20%\");\n        artistPercentages[tokenId] = percentage;\n        artistAddresses[tokenId] = artistAddress;\n        emit ArtistCommission(tokenId, artistAddress, percentage);\n    }\n\n    function _changeAuctionParameters(\n        uint256 _auctionStartPrice,\n        uint256 _auctionEndPrice,\n        uint256 _auctionLength\n    ) internal {\n        require(\n            _auctionStartPrice >= _auctionEndPrice,\n            \"auction start < auction end\"\n        );\n        require(_auctionLength >= 86400, \"1 day min auction length\");\n\n        auctionStartPrice = _auctionStartPrice;\n        auctionEndPrice = _auctionEndPrice;\n        auctionLength = _auctionLength;\n        emit ChangeAuctionParameters();\n    }\n\n    function changeAuctionParameters(\n        uint256 _auctionStartPrice,\n        uint256 _auctionEndPrice,\n        uint256 _auctionLength\n    ) external onlyAdmin {\n        _changeAuctionParameters(\n            _auctionStartPrice,\n            _auctionEndPrice,\n            _auctionLength\n        );\n    }\n\n    function patronageOwedPatron(address tokenPatron)\n        public\n        view\n        returns (uint256 patronageDue)\n    {\n        // NOTE: Leaving this code here as a reminder: totalPatronOwnedTokenCost[tokenPatron] has to be zero if timeLastCollectedPatron[tokenPatron] is zero. So effectively this line isn't needed.\n        // if (timeLastCollectedPatron[tokenPatron] == 0) return 0;\n        return\n            totalPatronOwnedTokenCost[tokenPatron]\n                .mul(now.sub(timeLastCollectedPatron[tokenPatron]))\n                .div(yearTimePatronagDenominator);\n    }\n\n    function patronageDueBenefactor(address benefactor)\n        public\n        view\n        returns (uint256 payoutDue)\n    {\n        // NOTE: Leaving this code here as a reminder: totalBenefactorTokenNumerator[tokenPatron] has to be zero if timeLastCollectedBenefactor[tokenPatron] is zero. So effectively this line isn't needed.\n        // if (timeLastCollectedBenefactor[benefactor] == 0) return 0;\n        return\n            totalBenefactorTokenNumerator[benefactor]\n                .mul(now.sub(timeLastCollectedBenefactor[benefactor]))\n                .div(yearTimePatronagDenominator);\n    }\n\n    function foreclosedPatron(address tokenPatron) public view returns (bool) {\n        if (patronageOwedPatron(tokenPatron) >= deposit[tokenPatron]) {\n            return true;\n        } else {\n            return false;\n        }\n    }\n\n    function foreclosed(uint256 tokenId) public view returns (bool) {\n        address tokenPatron = assetToken.ownerOf(tokenId);\n        return foreclosedPatron(tokenPatron);\n    }\n\n    function depositAbleToWithdraw(address tokenPatron)\n        public\n        view\n        returns (uint256)\n    {\n        uint256 collection = patronageOwedPatron(tokenPatron);\n        if (collection >= deposit[tokenPatron]) {\n            return 0;\n        } else {\n            return deposit[tokenPatron].sub(collection);\n        }\n    }\n\n    function foreclosureTimePatron(address tokenPatron)\n        public\n        view\n        returns (uint256)\n    {\n        uint256 pps = totalPatronOwnedTokenCost[tokenPatron].div(\n            yearTimePatronagDenominator\n        );\n        return now.add(depositAbleToWithdraw(tokenPatron).div(pps));\n    }\n\n    function foreclosureTime(uint256 tokenId) public view returns (uint256) {\n        address tokenPatron = assetToken.ownerOf(tokenId);\n        return foreclosureTimePatron(tokenPatron);\n    }\n\n    /* actions */\n    function _collectLoyaltyPatron(\n        address tokenPatron,\n        uint256 timeSinceLastMint\n    ) internal {\n        if (timeSinceLastMint != 0) {\n            mintManager.tokenMint(\n                tokenPatron,\n                timeSinceLastMint,\n                totalPatronTokenGenerationRate[tokenPatron]\n            );\n            emit CollectLoyalty(\n                tokenPatron,\n                timeSinceLastMint.mul(\n                    totalPatronTokenGenerationRate[tokenPatron]\n                )\n            );\n        }\n    }\n\n    // TODO: create a version of this function that only collects patronage (and only settles the benefactor if the token forecloses) - is this needed?\n\n    function _collectPatronageAndSettleBenefactor(uint256 tokenId) public {\n        address tokenPatron = assetToken.ownerOf(tokenId);\n        uint256 newTimeLastCollectedOnForeclosure = _collectPatronagePatron(\n            tokenPatron\n        );\n\n        address benefactor = benefactors[tokenId];\n        // bool tokenForeclosed = newTimeLastCollectedOnForeclosure > 0;\n        bool tokenIsOwned = state[tokenId] == StewardState.Owned;\n        if (newTimeLastCollectedOnForeclosure > 0 && tokenIsOwned) {\n            tokenAuctionBeginTimestamp[tokenId] =\n                // The auction starts the second after the last time collected.\n                newTimeLastCollectedOnForeclosure +\n                1;\n\n\n                uint256 patronageDueBenefactorBeforeForeclosure\n             = patronageDueBenefactor(benefactor);\n\n            _foreclose(tokenId);\n\n            uint256 amountOverCredited = price[tokenId]\n                .mul(now.sub(newTimeLastCollectedOnForeclosure))\n                .mul(patronageNumerator[tokenId])\n                .div(yearTimePatronagDenominator);\n\n            if (amountOverCredited < patronageDueBenefactorBeforeForeclosure) {\n                _increaseBenefactorBalance(\n                    benefactor,\n                    patronageDueBenefactorBeforeForeclosure - amountOverCredited\n                );\n            } else {\n                _decreaseBenefactorBalance(\n                    benefactor,\n                    amountOverCredited - patronageDueBenefactorBeforeForeclosure\n                );\n            }\n\n            timeLastCollectedBenefactor[benefactor] = now;\n        } else {\n            _updateBenefactorBalance(benefactor);\n        }\n    }\n\n    function safeSend(uint256 _wei, address payable recipient)\n        internal\n        returns (bool transferSuccess)\n    {\n        (transferSuccess, ) = recipient.call.gas(2300).value(_wei)(\"\");\n    }\n\n    // if credit balance exists,\n    // if amount owed > creidt\n    // credit zero add amount\n    // else reduce credit by certain amount.\n    // else if credit balance doesn't exist\n    // add amount to balance\n\n    function _updateBenefactorBalance(address benefactor) public {\n        uint256 patronageDueBenefactor = patronageDueBenefactor(benefactor);\n\n        if (patronageDueBenefactor > 0) {\n            _increaseBenefactorBalance(benefactor, patronageDueBenefactor);\n        }\n\n        timeLastCollectedBenefactor[benefactor] = now;\n    }\n\n    function _increaseBenefactorBalance(\n        address benefactor,\n        uint256 patronageDueBenefactor\n    ) internal {\n        if (benefactorCredit[benefactor] > 0) {\n            if (patronageDueBenefactor < benefactorCredit[benefactor]) {\n                benefactorCredit[benefactor] = benefactorCredit[benefactor].sub(\n                    patronageDueBenefactor\n                );\n            } else {\n                benefactorFunds[benefactor] = patronageDueBenefactor.sub(\n                    benefactorCredit[benefactor]\n                );\n                benefactorCredit[benefactor] = 0;\n            }\n        } else {\n            benefactorFunds[benefactor] = benefactorFunds[benefactor].add(\n                patronageDueBenefactor\n            );\n        }\n    }\n\n    function _decreaseBenefactorBalance(\n        address benefactor,\n        uint256 amountOverCredited\n    ) internal {\n        if (benefactorFunds[benefactor] > 0) {\n            if (amountOverCredited <= benefactorFunds[benefactor]) {\n                benefactorFunds[benefactor] = benefactorFunds[benefactor].sub(\n                    amountOverCredited\n                );\n            } else {\n                benefactorCredit[benefactor] = amountOverCredited.sub(\n                    benefactorFunds[benefactor]\n                );\n                benefactorFunds[benefactor] = 0;\n            }\n        } else {\n            benefactorCredit[benefactor] = benefactorCredit[benefactor].add(\n                amountOverCredited\n            );\n        }\n    }\n\n    function fundsDueForAuctionPeriodAtCurrentRate(address benefactor)\n        internal\n        view\n        returns (uint256)\n    {\n        return\n            totalBenefactorTokenNumerator[benefactor].mul(auctionLength).div(\n                yearTimePatronagDenominator\n            ); // 365 days * 1000000000000\n    }\n\n    function withdrawBenefactorFundsTo(address payable benefactor) public {\n        _updateBenefactorBalance(benefactor);\n\n        uint256 availableToWithdraw = benefactorFunds[benefactor];\n\n\n            uint256 benefactorWithdrawalSafetyDiscount\n         = fundsDueForAuctionPeriodAtCurrentRate(benefactor);\n\n        require(\n            availableToWithdraw > benefactorWithdrawalSafetyDiscount,\n            \"no funds\"\n        );\n\n        // NOTE: no need for safe-maths, above require prevents issues.\n        uint256 amountToWithdraw = availableToWithdraw -\n            benefactorWithdrawalSafetyDiscount;\n\n        benefactorFunds[benefactor] = benefactorWithdrawalSafetyDiscount;\n        if (safeSend(amountToWithdraw, benefactor)) {\n            emit WithdrawBenefactorFundsWithSafetyDelay(\n                benefactor,\n                amountToWithdraw\n            );\n        } else {\n            benefactorFunds[benefactor] = benefactorFunds[benefactor].add(\n                amountToWithdraw\n            );\n        }\n    }\n\n    function hasher(\n        address benefactor,\n        uint256 maxAmount,\n        uint256 expiry\n    ) public view returns (bytes32) {\n        // In ethereum you have to prepend all signature hashes with this message (supposedly to prevent people from)\n        return\n            keccak256(\n                abi.encodePacked(\n                    \"\\x19Ethereum Signed Message:\\n32\",\n                    keccak256(abi.encodePacked(benefactor, maxAmount, expiry))\n                )\n            );\n    }\n\n    function withdrawBenefactorFundsToValidated(\n        address payable benefactor,\n        uint256 maxAmount,\n        uint256 expiry,\n        bytes32 hash,\n        uint8 v,\n        bytes32 r,\n        bytes32 s\n    ) public {\n        require(\n            ecrecover(hash, v, r, s) == withdrawCheckerAdmin,\n            \"no permission to withdraw\"\n        );\n        require(\n            hash == hasher(benefactor, maxAmount, expiry),\n            \"incorrect hash\"\n        );\n        require(now < expiry, \"coupon expired\");\n\n        _updateBenefactorBalance(benefactor);\n\n        uint256 availableToWithdraw = benefactorFunds[benefactor];\n\n        if (availableToWithdraw > 0) {\n            if (availableToWithdraw > maxAmount) {\n                if (safeSend(maxAmount, benefactor)) {\n                    benefactorFunds[benefactor] = availableToWithdraw.sub(\n                        maxAmount\n                    );\n                    emit WithdrawBenefactorFunds(\n                        benefactor,\n                        availableToWithdraw\n                    );\n                }\n            } else {\n                if (safeSend(availableToWithdraw, benefactor)) {\n                    benefactorFunds[benefactor] = 0;\n                    emit WithdrawBenefactorFunds(\n                        benefactor,\n                        availableToWithdraw\n                    );\n                }\n            }\n        }\n    }\n\n    function _collectPatronagePatron(address tokenPatron)\n        public\n        returns (uint256 newTimeLastCollectedOnForeclosure)\n    {\n        uint256 patronageOwedByTokenPatron = patronageOwedPatron(tokenPatron);\n\n        uint256 timeSinceLastMint;\n\n        if (\n            patronageOwedByTokenPatron > 0 &&\n            patronageOwedByTokenPatron > deposit[tokenPatron]\n        ) {\n\n                uint256 previousCollectionTime\n             = timeLastCollectedPatron[tokenPatron];\n            newTimeLastCollectedOnForeclosure = previousCollectionTime.add(\n                (\n                    (now.sub(previousCollectionTime))\n                        .mul(deposit[tokenPatron])\n                        .div(patronageOwedByTokenPatron)\n                )\n            );\n            timeLastCollectedPatron[tokenPatron] = newTimeLastCollectedOnForeclosure;\n            deposit[tokenPatron] = 0;\n            timeSinceLastMint = (\n                newTimeLastCollectedOnForeclosure.sub(previousCollectionTime)\n            );\n        } else {\n            timeSinceLastMint = now.sub(timeLastCollectedPatron[tokenPatron]);\n            timeLastCollectedPatron[tokenPatron] = now;\n            deposit[tokenPatron] = deposit[tokenPatron].sub(\n                patronageOwedByTokenPatron\n            );\n        }\n\n        _collectLoyaltyPatron(tokenPatron, timeSinceLastMint);\n        emit RemainingDepositUpdate(tokenPatron, deposit[tokenPatron]);\n    }\n\n    function depositWei() public payable {\n        depositWeiPatron(msg.sender);\n    }\n\n    function depositWeiPatron(address patron) public payable {\n        require(totalPatronOwnedTokenCost[patron] > 0, \"no tokens\");\n        deposit[patron] = deposit[patron].add(msg.value);\n        emit RemainingDepositUpdate(patron, deposit[patron]);\n    }\n\n    function _auctionPrice(uint256 tokenId) internal view returns (uint256) {\n        uint256 auctionEnd = tokenAuctionBeginTimestamp[tokenId].add(\n            auctionLength\n        );\n\n        // If it is not brand new and foreclosed, use the foreclosre auction price.\n        uint256 _auctionStartPrice;\n        if (price[tokenId] != 0 && price[tokenId] > auctionEndPrice) {\n            _auctionStartPrice = price[tokenId];\n        } else {\n            // Otherwise use starting auction price\n            _auctionStartPrice = auctionStartPrice;\n        }\n\n        if (now >= auctionEnd) {\n            return auctionEndPrice;\n        } else {\n            // startPrice - ( ( (startPrice - endPrice) * howLongThisAuctionBeenGoing ) / auctionLength )\n            return\n                _auctionStartPrice.sub(\n                    (_auctionStartPrice.sub(auctionEndPrice))\n                        .mul(now.sub(tokenAuctionBeginTimestamp[tokenId]))\n                        .div(auctionLength)\n                );\n        }\n    }\n\n    function buy(\n        uint256 tokenId,\n        uint256 _newPrice,\n        uint256 previousPrice,\n        uint256 wildcardsPercentage\n    )\n        public\n        payable\n        collectPatronageAndSettleBenefactor(tokenId)\n        collectPatronagePatron(msg.sender)\n        priceGreaterThanZero(_newPrice)\n        youCurrentlyAreNotInDefault(msg.sender)\n        validWildcardsPercentage(wildcardsPercentage, tokenId)\n    {\n        require(state[tokenId] == StewardState.Owned, \"token on auction\");\n        require(\n            price[tokenId] == previousPrice,\n            \"must specify current price accurately\"\n        );\n\n        _distributePurchaseProceeds(tokenId);\n\n        wildcardsPercentages[tokenId] = wildcardsPercentage;\n        uint256 remainingValueForDeposit = msg.value.sub(price[tokenId]);\n        deposit[msg.sender] = deposit[msg.sender].add(remainingValueForDeposit);\n        transferAssetTokenTo(\n            tokenId,\n            assetToken.ownerOf(tokenId),\n            msg.sender,\n            _newPrice\n        );\n        emit Buy(tokenId, msg.sender, _newPrice);\n    }\n\n    function buyAuction(\n        uint256 tokenId,\n        uint256 _newPrice,\n        uint256 wildcardsPercentage\n    )\n        public\n        payable\n        collectPatronageAndSettleBenefactor(tokenId)\n        collectPatronagePatron(msg.sender)\n        priceGreaterThanZero(_newPrice)\n        youCurrentlyAreNotInDefault(msg.sender)\n        validWildcardsPercentage(wildcardsPercentage, tokenId)\n    {\n        require(\n            state[tokenId] == StewardState.Foreclosed,\n            \"token not foreclosed\"\n        );\n        require(now >= tokenAuctionBeginTimestamp[tokenId], \"not on auction\");\n        uint256 auctionTokenPrice = _auctionPrice(tokenId);\n        uint256 remainingValueForDeposit = msg.value.sub(auctionTokenPrice);\n\n        _distributeAuctionProceeds(tokenId);\n\n        state[tokenId] = StewardState.Owned;\n\n        wildcardsPercentages[tokenId] = wildcardsPercentage;\n        deposit[msg.sender] = deposit[msg.sender].add(remainingValueForDeposit);\n        transferAssetTokenTo(\n            tokenId,\n            assetToken.ownerOf(tokenId),\n            msg.sender,\n            _newPrice\n        );\n        emit Buy(tokenId, msg.sender, _newPrice);\n    }\n\n    function _distributeAuctionProceeds(uint256 tokenId) internal {\n        uint256 totalAmount = price[tokenId];\n        uint256 artistAmount;\n        if (artistPercentages[tokenId] == 0) {\n            artistAmount = 0;\n        } else {\n            artistAmount = totalAmount.mul(artistPercentages[tokenId]).div(\n                1000000\n            );\n            deposit[artistAddresses[tokenId]] = deposit[artistAddresses[tokenId]]\n                .add(artistAmount);\n        }\n        uint256 wildcardsAmount = totalAmount.sub(artistAmount);\n        deposit[admin] = deposit[admin].add(wildcardsAmount);\n    }\n\n    function _distributePurchaseProceeds(uint256 tokenId) internal {\n        uint256 totalAmount = price[tokenId];\n        address tokenPatron = assetToken.ownerOf(tokenId);\n        // Wildcards percentage calc\n        if (wildcardsPercentages[tokenId] == 0) {\n            wildcardsPercentages[tokenId] = 50000;\n        }\n        uint256 wildcardsAmount = totalAmount\n            .mul(wildcardsPercentages[tokenId])\n            .div(1000000);\n\n        // Artist percentage calc\n        uint256 artistAmount;\n        if (artistPercentages[tokenId] == 0) {\n            artistAmount = 0;\n        } else {\n            artistAmount = totalAmount.mul(artistPercentages[tokenId]).div(\n                1000000\n            );\n            deposit[artistAddresses[tokenId]] = deposit[artistAddresses[tokenId]]\n                .add(artistAmount);\n        }\n\n        uint256 previousOwnerProceedsFromSale = totalAmount\n            .sub(wildcardsAmount)\n            .sub(artistAmount);\n        if (\n            totalPatronOwnedTokenCost[tokenPatron] ==\n            price[tokenId].mul(patronageNumerator[tokenId])\n        ) {\n            previousOwnerProceedsFromSale = previousOwnerProceedsFromSale.add(\n                deposit[tokenPatron]\n            );\n            deposit[tokenPatron] = 0;\n            address payable payableCurrentPatron = address(\n                uint160(tokenPatron)\n            );\n            (bool transferSuccess, ) = payableCurrentPatron\n                .call\n                .gas(2300)\n                .value(previousOwnerProceedsFromSale)(\"\");\n            if (!transferSuccess) {\n                deposit[tokenPatron] = deposit[tokenPatron].add(\n                    previousOwnerProceedsFromSale\n                );\n            }\n        } else {\n            deposit[tokenPatron] = deposit[tokenPatron].add(\n                previousOwnerProceedsFromSale\n            );\n        }\n\n        deposit[admin] = deposit[admin].add(wildcardsAmount);\n    }\n\n    function changePrice(uint256 tokenId, uint256 _newPrice)\n        public\n        onlyPatron(tokenId)\n        collectPatronageAndSettleBenefactor(tokenId)\n    {\n        require(state[tokenId] != StewardState.Foreclosed, \"foreclosed\");\n        require(_newPrice != 0, \"incorrect price\");\n        require(_newPrice < 10000 ether, \"exceeds max price\");\n\n        uint256 oldPriceScaled = price[tokenId].mul(\n            patronageNumerator[tokenId]\n        );\n        uint256 newPriceScaled = _newPrice.mul(patronageNumerator[tokenId]);\n        address tokenBenefactor = benefactors[tokenId];\n\n        totalPatronOwnedTokenCost[msg.sender] = totalPatronOwnedTokenCost[msg\n            .sender]\n            .sub(oldPriceScaled)\n            .add(newPriceScaled);\n\n        totalBenefactorTokenNumerator[tokenBenefactor] = totalBenefactorTokenNumerator[tokenBenefactor]\n            .sub(oldPriceScaled)\n            .add(newPriceScaled);\n\n        price[tokenId] = _newPrice;\n        emit PriceChange(tokenId, price[tokenId]);\n    }\n\n    function withdrawDeposit(uint256 _wei)\n        public\n        collectPatronagePatron(msg.sender)\n        returns (uint256)\n    {\n        _withdrawDeposit(_wei);\n    }\n\n    function withdrawBenefactorFunds() public {\n        withdrawBenefactorFundsTo(msg.sender);\n    }\n\n    function exit() public collectPatronagePatron(msg.sender) {\n        _withdrawDeposit(deposit[msg.sender]);\n    }\n\n    function _withdrawDeposit(uint256 _wei) internal {\n        require(deposit[msg.sender] >= _wei, \"withdrawing too much\");\n\n        deposit[msg.sender] = deposit[msg.sender].sub(_wei);\n\n        (bool transferSuccess, ) = msg.sender.call.gas(2300).value(_wei)(\"\");\n        if (!transferSuccess) {\n            revert(\"withdrawal failed\");\n        }\n    }\n\n    function _foreclose(uint256 tokenId) internal {\n        address currentOwner = assetToken.ownerOf(tokenId);\n        resetTokenOnForeclosure(tokenId, currentOwner);\n        state[tokenId] = StewardState.Foreclosed;\n\n        emit Foreclosure(currentOwner, timeLastCollectedPatron[currentOwner]);\n    }\n\n    function transferAssetTokenTo(\n        uint256 tokenId,\n        address _currentOwner,\n        address _newOwner,\n        uint256 _newPrice\n    ) internal {\n        require(_newPrice < 10000 ether, \"exceeds max price\");\n\n        uint256 scaledOldPrice = price[tokenId].mul(\n            patronageNumerator[tokenId]\n        );\n        uint256 scaledNewPrice = _newPrice.mul(patronageNumerator[tokenId]);\n\n        totalPatronOwnedTokenCost[_newOwner] = totalPatronOwnedTokenCost[_newOwner]\n            .add(scaledNewPrice);\n        totalPatronTokenGenerationRate[_newOwner] = totalPatronTokenGenerationRate[_newOwner]\n            .add(globalTokenGenerationRate);\n\n        address tokenBenefactor = benefactors[tokenId];\n        totalBenefactorTokenNumerator[tokenBenefactor] = totalBenefactorTokenNumerator[tokenBenefactor]\n            .add(scaledNewPrice);\n\n        if (_currentOwner != address(this) && _currentOwner != address(0)) {\n            totalPatronOwnedTokenCost[_currentOwner] = totalPatronOwnedTokenCost[_currentOwner]\n                .sub(scaledOldPrice);\n\n            totalPatronTokenGenerationRate[_currentOwner] = totalPatronTokenGenerationRate[_currentOwner]\n                .sub(globalTokenGenerationRate);\n\n            totalBenefactorTokenNumerator[tokenBenefactor] = totalBenefactorTokenNumerator[tokenBenefactor]\n                .sub(scaledOldPrice);\n        }\n\n        assetToken.transferFrom(_currentOwner, _newOwner, tokenId);\n\n        price[tokenId] = _newPrice;\n    }\n\n    function resetTokenOnForeclosure(uint256 tokenId, address _currentOwner)\n        internal\n    {\n        uint256 scaledPrice = price[tokenId].mul(patronageNumerator[tokenId]);\n\n        totalPatronOwnedTokenCost[_currentOwner] = totalPatronOwnedTokenCost[_currentOwner]\n            .sub(scaledPrice);\n\n        totalPatronTokenGenerationRate[_currentOwner] = totalPatronTokenGenerationRate[_currentOwner]\n            .sub((globalTokenGenerationRate));\n\n        address tokenBenefactor = benefactors[tokenId];\n        totalBenefactorTokenNumerator[tokenBenefactor] = totalBenefactorTokenNumerator[tokenBenefactor]\n            .sub(scaledPrice);\n\n        assetToken.transferFrom(_currentOwner, address(this), tokenId);\n    }\n}\n",
  "sourcePath": "/home/jasoons/Documents/code/contracts/contracts/WildcardSteward_v3.sol",
  "compiler": {
    "name": "solc",
    "version": "0.5.17+commit.d19bba13.Emscripten.clang"
  },
  "schemaVersion": "3.2.1",
  "updatedAt": "2020-08-06T08:29:57.654Z",
  "devdoc": {
    "methods": {}
  },
  "userdoc": {
    "methods": {}
  }
}