{
  "contractName": "ERC721Patronage_v1",
  "abi": [
    {
      "anonymous": false,
      "inputs": [
        {
          "indexed": true,
          "internalType": "address",
          "name": "owner",
          "type": "address"
        },
        {
          "indexed": true,
          "internalType": "address",
          "name": "approved",
          "type": "address"
        },
        {
          "indexed": true,
          "internalType": "uint256",
          "name": "tokenId",
          "type": "uint256"
        }
      ],
      "name": "Approval",
      "type": "event"
    },
    {
      "anonymous": false,
      "inputs": [
        {
          "indexed": true,
          "internalType": "address",
          "name": "owner",
          "type": "address"
        },
        {
          "indexed": true,
          "internalType": "address",
          "name": "operator",
          "type": "address"
        },
        {
          "indexed": false,
          "internalType": "bool",
          "name": "approved",
          "type": "bool"
        }
      ],
      "name": "ApprovalForAll",
      "type": "event"
    },
    {
      "anonymous": false,
      "inputs": [],
      "name": "Init",
      "type": "event"
    },
    {
      "anonymous": false,
      "inputs": [
        {
          "indexed": true,
          "internalType": "address",
          "name": "account",
          "type": "address"
        }
      ],
      "name": "MinterAdded",
      "type": "event"
    },
    {
      "anonymous": false,
      "inputs": [
        {
          "indexed": true,
          "internalType": "address",
          "name": "account",
          "type": "address"
        }
      ],
      "name": "MinterRemoved",
      "type": "event"
    },
    {
      "anonymous": false,
      "inputs": [
        {
          "indexed": true,
          "internalType": "address",
          "name": "oldRelayHub",
          "type": "address"
        },
        {
          "indexed": true,
          "internalType": "address",
          "name": "newRelayHub",
          "type": "address"
        }
      ],
      "name": "RelayHubChanged",
      "type": "event"
    },
    {
      "anonymous": false,
      "inputs": [
        {
          "indexed": true,
          "internalType": "bytes32",
          "name": "role",
          "type": "bytes32"
        },
        {
          "indexed": true,
          "internalType": "address",
          "name": "account",
          "type": "address"
        },
        {
          "indexed": true,
          "internalType": "address",
          "name": "sender",
          "type": "address"
        }
      ],
      "name": "RoleGranted",
      "type": "event"
    },
    {
      "anonymous": false,
      "inputs": [
        {
          "indexed": true,
          "internalType": "bytes32",
          "name": "role",
          "type": "bytes32"
        },
        {
          "indexed": true,
          "internalType": "address",
          "name": "account",
          "type": "address"
        },
        {
          "indexed": true,
          "internalType": "address",
          "name": "sender",
          "type": "address"
        }
      ],
      "name": "RoleRevoked",
      "type": "event"
    },
    {
      "anonymous": false,
      "inputs": [
        {
          "indexed": true,
          "internalType": "address",
          "name": "from",
          "type": "address"
        },
        {
          "indexed": true,
          "internalType": "address",
          "name": "to",
          "type": "address"
        },
        {
          "indexed": true,
          "internalType": "uint256",
          "name": "tokenId",
          "type": "uint256"
        }
      ],
      "name": "Transfer",
      "type": "event"
    },
    {
      "inputs": [],
      "name": "ADMIN_ROLE",
      "outputs": [
        {
          "internalType": "bytes32",
          "name": "",
          "type": "bytes32"
        }
      ],
      "stateMutability": "view",
      "type": "function",
      "constant": true
    },
    {
      "inputs": [],
      "name": "DEFAULT_ADMIN_ROLE",
      "outputs": [
        {
          "internalType": "bytes32",
          "name": "",
          "type": "bytes32"
        }
      ],
      "stateMutability": "view",
      "type": "function",
      "constant": true
    },
    {
      "inputs": [],
      "name": "MINTER_ROLE",
      "outputs": [
        {
          "internalType": "bytes32",
          "name": "",
          "type": "bytes32"
        }
      ],
      "stateMutability": "view",
      "type": "function",
      "constant": true
    },
    {
      "inputs": [
        {
          "internalType": "address",
          "name": "relay",
          "type": "address"
        },
        {
          "internalType": "address",
          "name": "from",
          "type": "address"
        },
        {
          "internalType": "bytes",
          "name": "encodedFunction",
          "type": "bytes"
        },
        {
          "internalType": "uint256",
          "name": "transactionFee",
          "type": "uint256"
        },
        {
          "internalType": "uint256",
          "name": "gasPrice",
          "type": "uint256"
        },
        {
          "internalType": "uint256",
          "name": "gasLimit",
          "type": "uint256"
        },
        {
          "internalType": "uint256",
          "name": "nonce",
          "type": "uint256"
        },
        {
          "internalType": "bytes",
          "name": "approvalData",
          "type": "bytes"
        },
        {
          "internalType": "uint256",
          "name": "maxPossibleCharge",
          "type": "uint256"
        }
      ],
      "name": "acceptRelayedCall",
      "outputs": [
        {
          "internalType": "uint256",
          "name": "",
          "type": "uint256"
        },
        {
          "internalType": "bytes",
          "name": "",
          "type": "bytes"
        }
      ],
      "stateMutability": "view",
      "type": "function",
      "constant": true
    },
    {
      "inputs": [
        {
          "internalType": "address",
          "name": "to",
          "type": "address"
        },
        {
          "internalType": "uint256",
          "name": "tokenId",
          "type": "uint256"
        }
      ],
      "name": "approve",
      "outputs": [],
      "stateMutability": "nonpayable",
      "type": "function"
    },
    {
      "inputs": [
        {
          "internalType": "address",
          "name": "owner",
          "type": "address"
        }
      ],
      "name": "balanceOf",
      "outputs": [
        {
          "internalType": "uint256",
          "name": "",
          "type": "uint256"
        }
      ],
      "stateMutability": "view",
      "type": "function",
      "constant": true
    },
    {
      "inputs": [],
      "name": "baseURI",
      "outputs": [
        {
          "internalType": "string",
          "name": "",
          "type": "string"
        }
      ],
      "stateMutability": "view",
      "type": "function",
      "constant": true
    },
    {
      "inputs": [
        {
          "internalType": "uint256",
          "name": "tokenId",
          "type": "uint256"
        }
      ],
      "name": "getApproved",
      "outputs": [
        {
          "internalType": "address",
          "name": "",
          "type": "address"
        }
      ],
      "stateMutability": "view",
      "type": "function",
      "constant": true
    },
    {
      "inputs": [],
      "name": "getHubAddr",
      "outputs": [
        {
          "internalType": "address",
          "name": "",
          "type": "address"
        }
      ],
      "stateMutability": "view",
      "type": "function",
      "constant": true
    },
    {
      "inputs": [
        {
          "internalType": "bytes32",
          "name": "role",
          "type": "bytes32"
        }
      ],
      "name": "getRoleAdmin",
      "outputs": [
        {
          "internalType": "bytes32",
          "name": "",
          "type": "bytes32"
        }
      ],
      "stateMutability": "view",
      "type": "function",
      "constant": true
    },
    {
      "inputs": [
        {
          "internalType": "bytes32",
          "name": "role",
          "type": "bytes32"
        },
        {
          "internalType": "uint256",
          "name": "index",
          "type": "uint256"
        }
      ],
      "name": "getRoleMember",
      "outputs": [
        {
          "internalType": "address",
          "name": "",
          "type": "address"
        }
      ],
      "stateMutability": "view",
      "type": "function",
      "constant": true
    },
    {
      "inputs": [
        {
          "internalType": "bytes32",
          "name": "role",
          "type": "bytes32"
        }
      ],
      "name": "getRoleMemberCount",
      "outputs": [
        {
          "internalType": "uint256",
          "name": "",
          "type": "uint256"
        }
      ],
      "stateMutability": "view",
      "type": "function",
      "constant": true
    },
    {
      "inputs": [
        {
          "internalType": "bytes32",
          "name": "role",
          "type": "bytes32"
        },
        {
          "internalType": "address",
          "name": "account",
          "type": "address"
        }
      ],
      "name": "grantRole",
      "outputs": [],
      "stateMutability": "nonpayable",
      "type": "function"
    },
    {
      "inputs": [
        {
          "internalType": "bytes32",
          "name": "role",
          "type": "bytes32"
        },
        {
          "internalType": "address",
          "name": "account",
          "type": "address"
        }
      ],
      "name": "hasRole",
      "outputs": [
        {
          "internalType": "bool",
          "name": "",
          "type": "bool"
        }
      ],
      "stateMutability": "view",
      "type": "function",
      "constant": true
    },
    {
      "inputs": [],
      "name": "initialize",
      "outputs": [],
      "stateMutability": "nonpayable",
      "type": "function"
    },
    {
      "inputs": [
        {
          "internalType": "address",
          "name": "owner",
          "type": "address"
        },
        {
          "internalType": "address",
          "name": "operator",
          "type": "address"
        }
      ],
      "name": "isApprovedForAll",
      "outputs": [
        {
          "internalType": "bool",
          "name": "",
          "type": "bool"
        }
      ],
      "stateMutability": "view",
      "type": "function",
      "constant": true
    },
    {
      "inputs": [
        {
          "internalType": "address",
          "name": "forwarder",
          "type": "address"
        }
      ],
      "name": "isTrustedForwarder",
      "outputs": [
        {
          "internalType": "bool",
          "name": "",
          "type": "bool"
        }
      ],
      "stateMutability": "view",
      "type": "function",
      "constant": true
    },
    {
      "inputs": [],
      "name": "name",
      "outputs": [
        {
          "internalType": "string",
          "name": "",
          "type": "string"
        }
      ],
      "stateMutability": "view",
      "type": "function",
      "constant": true
    },
    {
      "inputs": [
        {
          "internalType": "uint256",
          "name": "tokenId",
          "type": "uint256"
        }
      ],
      "name": "ownerOf",
      "outputs": [
        {
          "internalType": "address",
          "name": "",
          "type": "address"
        }
      ],
      "stateMutability": "view",
      "type": "function",
      "constant": true
    },
    {
      "inputs": [
        {
          "internalType": "bytes",
          "name": "context",
          "type": "bytes"
        },
        {
          "internalType": "bool",
          "name": "success",
          "type": "bool"
        },
        {
          "internalType": "uint256",
          "name": "actualCharge",
          "type": "uint256"
        },
        {
          "internalType": "bytes32",
          "name": "preRetVal",
          "type": "bytes32"
        }
      ],
      "name": "postRelayedCall",
      "outputs": [],
      "stateMutability": "nonpayable",
      "type": "function"
    },
    {
      "inputs": [
        {
          "internalType": "bytes",
          "name": "context",
          "type": "bytes"
        }
      ],
      "name": "preRelayedCall",
      "outputs": [
        {
          "internalType": "bytes32",
          "name": "",
          "type": "bytes32"
        }
      ],
      "stateMutability": "nonpayable",
      "type": "function"
    },
    {
      "inputs": [],
      "name": "relayHubVersion",
      "outputs": [
        {
          "internalType": "string",
          "name": "",
          "type": "string"
        }
      ],
      "stateMutability": "view",
      "type": "function",
      "constant": true
    },
    {
      "inputs": [
        {
          "internalType": "bytes32",
          "name": "role",
          "type": "bytes32"
        },
        {
          "internalType": "address",
          "name": "account",
          "type": "address"
        }
      ],
      "name": "renounceRole",
      "outputs": [],
      "stateMutability": "nonpayable",
      "type": "function"
    },
    {
      "inputs": [
        {
          "internalType": "bytes32",
          "name": "role",
          "type": "bytes32"
        },
        {
          "internalType": "address",
          "name": "account",
          "type": "address"
        }
      ],
      "name": "revokeRole",
      "outputs": [],
      "stateMutability": "nonpayable",
      "type": "function"
    },
    {
      "inputs": [
        {
          "internalType": "address",
          "name": "from",
          "type": "address"
        },
        {
          "internalType": "address",
          "name": "to",
          "type": "address"
        },
        {
          "internalType": "uint256",
          "name": "tokenId",
          "type": "uint256"
        }
      ],
      "name": "safeTransferFrom",
      "outputs": [],
      "stateMutability": "nonpayable",
      "type": "function"
    },
    {
      "inputs": [
        {
          "internalType": "address",
          "name": "from",
          "type": "address"
        },
        {
          "internalType": "address",
          "name": "to",
          "type": "address"
        },
        {
          "internalType": "uint256",
          "name": "tokenId",
          "type": "uint256"
        },
        {
          "internalType": "bytes",
          "name": "_data",
          "type": "bytes"
        }
      ],
      "name": "safeTransferFrom",
      "outputs": [],
      "stateMutability": "nonpayable",
      "type": "function"
    },
    {
      "inputs": [
        {
          "internalType": "address",
          "name": "operator",
          "type": "address"
        },
        {
          "internalType": "bool",
          "name": "approved",
          "type": "bool"
        }
      ],
      "name": "setApprovalForAll",
      "outputs": [],
      "stateMutability": "nonpayable",
      "type": "function"
    },
    {
      "inputs": [],
      "name": "steward",
      "outputs": [
        {
          "internalType": "address",
          "name": "",
          "type": "address"
        }
      ],
      "stateMutability": "view",
      "type": "function",
      "constant": true
    },
    {
      "inputs": [
        {
          "internalType": "bytes4",
          "name": "interfaceId",
          "type": "bytes4"
        }
      ],
      "name": "supportsInterface",
      "outputs": [
        {
          "internalType": "bool",
          "name": "",
          "type": "bool"
        }
      ],
      "stateMutability": "view",
      "type": "function",
      "constant": true
    },
    {
      "inputs": [],
      "name": "symbol",
      "outputs": [
        {
          "internalType": "string",
          "name": "",
          "type": "string"
        }
      ],
      "stateMutability": "view",
      "type": "function",
      "constant": true
    },
    {
      "inputs": [
        {
          "internalType": "uint256",
          "name": "index",
          "type": "uint256"
        }
      ],
      "name": "tokenByIndex",
      "outputs": [
        {
          "internalType": "uint256",
          "name": "",
          "type": "uint256"
        }
      ],
      "stateMutability": "view",
      "type": "function",
      "constant": true
    },
    {
      "inputs": [
        {
          "internalType": "address",
          "name": "owner",
          "type": "address"
        },
        {
          "internalType": "uint256",
          "name": "index",
          "type": "uint256"
        }
      ],
      "name": "tokenOfOwnerByIndex",
      "outputs": [
        {
          "internalType": "uint256",
          "name": "",
          "type": "uint256"
        }
      ],
      "stateMutability": "view",
      "type": "function",
      "constant": true
    },
    {
      "inputs": [
        {
          "internalType": "uint256",
          "name": "tokenId",
          "type": "uint256"
        }
      ],
      "name": "tokenURI",
      "outputs": [
        {
          "internalType": "string",
          "name": "",
          "type": "string"
        }
      ],
      "stateMutability": "view",
      "type": "function",
      "constant": true
    },
    {
      "inputs": [],
      "name": "totalSupply",
      "outputs": [
        {
          "internalType": "uint256",
          "name": "",
          "type": "uint256"
        }
      ],
      "stateMutability": "view",
      "type": "function",
      "constant": true
    },
    {
      "inputs": [
        {
          "internalType": "address",
          "name": "from",
          "type": "address"
        },
        {
          "internalType": "address",
          "name": "to",
          "type": "address"
        },
        {
          "internalType": "uint256",
          "name": "tokenId",
          "type": "uint256"
        }
      ],
      "name": "transferFrom",
      "outputs": [],
      "stateMutability": "nonpayable",
      "type": "function"
    },
    {
      "inputs": [
        {
          "internalType": "address",
          "name": "_steward",
          "type": "address"
        },
        {
          "internalType": "string",
          "name": "name",
          "type": "string"
        },
        {
          "internalType": "string",
          "name": "symbol",
          "type": "string"
        },
        {
          "internalType": "address",
          "name": "minter",
          "type": "address"
        },
        {
          "internalType": "address",
          "name": "admin",
          "type": "address"
        }
      ],
      "name": "setup",
      "outputs": [],
      "stateMutability": "nonpayable",
      "type": "function"
    },
    {
      "inputs": [
        {
          "internalType": "address",
          "name": "to",
          "type": "address"
        },
        {
          "internalType": "uint256",
          "name": "tokenId",
          "type": "uint256"
        },
        {
          "internalType": "string",
          "name": "tokenURI",
          "type": "string"
        }
      ],
      "name": "mintWithTokenURI",
      "outputs": [
        {
          "internalType": "bool",
          "name": "",
          "type": "bool"
        }
      ],
      "stateMutability": "nonpayable",
      "type": "function"
    },
    {
      "inputs": [
        {
          "internalType": "address",
          "name": "account",
          "type": "address"
        }
      ],
      "name": "isMinter",
      "outputs": [
        {
          "internalType": "bool",
          "name": "",
          "type": "bool"
        }
      ],
      "stateMutability": "view",
      "type": "function",
      "constant": true
    },
    {
      "inputs": [
        {
          "internalType": "address",
          "name": "minter",
          "type": "address"
        }
      ],
      "name": "addMinter",
      "outputs": [],
      "stateMutability": "nonpayable",
      "type": "function"
    },
    {
      "inputs": [],
      "name": "renounceMinter",
      "outputs": [],
      "stateMutability": "nonpayable",
      "type": "function"
    },
    {
      "inputs": [],
      "name": "getTrustedForwarder",
      "outputs": [
        {
          "internalType": "address",
          "name": "",
          "type": "address"
        }
      ],
      "stateMutability": "view",
      "type": "function",
      "constant": true
    },
    {
      "inputs": [
        {
          "internalType": "address",
          "name": "forwarder",
          "type": "address"
        }
      ],
      "name": "setTrustedForwarder",
      "outputs": [],
      "stateMutability": "nonpayable",
      "type": "function"
    }
  ],
  "bytecode": "0x608060405234801561001057600080fd5b5061308c806100206000396000f3fe608060405234801561001057600080fd5b506004361061025e5760003560e01c80638129fc1c11610146578063aa271e1a116100c3578063ce1b815f11610087578063ce1b815f14610b57578063d539139314610b5f578063d547741f14610b67578063da74222814610b93578063e06e0e2214610bb9578063e985e9c514610c6a5761025e565b8063aa271e1a14610a2b578063ad61ccd514610a51578063b88d4fde14610a59578063c87b56dd14610b1d578063ca15c87314610b3a5761025e565b806395d89b411161010a57806395d89b41146109bf578063983b2d56146109c757806398650275146109ed578063a217fddf146109f5578063a22cb465146109fd5761025e565b80638129fc1c146106ac57806383947ea0146106b457806384ff2277146108215780639010d07c1461097057806391d14854146109935761025e565b806342842e0e116101df578063637eea19116101a3578063637eea19146105c25780636c0360eb146105ca57806370a08231146105d257806374e861d6146105f857806375b238fc1461060057806380274db7146106085761025e565b806342842e0e146104735780634f6ccce7146104a957806350bb4e7f146104c6578063572b6c051461057f5780636352211e146105a55761025e565b806323b872dd1161022657806323b872dd1461039c578063248a9ca3146103d25780632f2ff15d146103ef5780632f745c591461041b57806336568abe146104475761025e565b806301ffc9a71461026357806306fdde031461029e578063081812fc1461031b578063095ea7b31461035457806318160ddd14610382575b600080fd5b61028a6004803603602081101561027957600080fd5b50356001600160e01b031916610c98565b604080519115158252519081900360200190f35b6102a6610cbb565b6040805160208082528351818301528351919283929083019185019080838360005b838110156102e05781810151838201526020016102c8565b50505050905090810190601f16801561030d5780820380516001836020036101000a031916815260200191505b509250505060405180910390f35b6103386004803603602081101561033157600080fd5b5035610d52565b604080516001600160a01b039092168252519081900360200190f35b6103806004803603604081101561036a57600080fd5b506001600160a01b038135169060200135610db4565b005b61038a610e8f565b60408051918252519081900360200190f35b610380600480360360608110156103b257600080fd5b506001600160a01b03813581169160208101359091169060400135610ea0565b61038a600480360360208110156103e857600080fd5b5035610ef7565b6103806004803603604081101561040557600080fd5b50803590602001356001600160a01b0316610f0c565b61038a6004803603604081101561043157600080fd5b506001600160a01b038135169060200135610f78565b6103806004803603604081101561045d57600080fd5b50803590602001356001600160a01b0316610fa3565b6103806004803603606081101561048957600080fd5b506001600160a01b03813581169160208101359091169060400135611004565b61038a600480360360208110156104bf57600080fd5b503561101f565b61028a600480360360608110156104dc57600080fd5b6001600160a01b0382351691602081013591810190606081016040820135600160201b81111561050b57600080fd5b82018360208201111561051d57600080fd5b803590602001918460018302840111600160201b8311171561053e57600080fd5b91908080601f016020809104026020016040519081016040528093929190818152602001838380828437600092019190915250929550611035945050505050565b61028a6004803603602081101561059557600080fd5b50356001600160a01b03166110ba565b610338600480360360208110156105bb57600080fd5b50356110ce565b6103386110f6565b6102a6611106565b61038a600480360360208110156105e857600080fd5b50356001600160a01b0316611167565b6103386111cf565b61038a6111de565b61038a6004803603602081101561061e57600080fd5b810190602081018135600160201b81111561063857600080fd5b82018360208201111561064a57600080fd5b803590602001918460018302840111600160201b8311171561066b57600080fd5b91908080601f0160208091040260200160405190810160405280939291908181526020018383808284376000920191909152509295506111f0945050505050565b610380611252565b6107a260048036036101208110156106cb57600080fd5b6001600160a01b038235811692602081013590911691810190606081016040820135600160201b8111156106fe57600080fd5b82018360208201111561071057600080fd5b803590602001918460018302840111600160201b8311171561073157600080fd5b9193909282359260208101359260408201359260608301359260a081019060800135600160201b81111561076457600080fd5b82018360208201111561077657600080fd5b803590602001918460018302840111600160201b8311171561079757600080fd5b91935091503561125c565b6040518083815260200180602001828103825283818151815260200191508051906020019080838360005b838110156107e55781810151838201526020016107cd565b50505050905090810190601f1680156108125780820380516001836020036101000a031916815260200191505b50935050505060405180910390f35b610380600480360360a081101561083757600080fd5b6001600160a01b038235169190810190604081016020820135600160201b81111561086157600080fd5b82018360208201111561087357600080fd5b803590602001918460018302840111600160201b8311171561089457600080fd5b91908080601f0160208091040260200160405190810160405280939291908181526020018383808284376000920191909152509295949360208101935035915050600160201b8111156108e657600080fd5b8201836020820111156108f857600080fd5b803590602001918460018302840111600160201b8311171561091957600080fd5b91908080601f016020809104026020016040519081016040528093929190818152602001838380828437600092019190915250929550506001600160a01b03833581169450602090930135909216915061127c9050565b6103386004803603604081101561098657600080fd5b50803590602001356113d0565b61028a600480360360408110156109a957600080fd5b50803590602001356001600160a01b03166113e8565b6102a6611400565b610380600480360360208110156109dd57600080fd5b50356001600160a01b0316611461565b61038061150e565b61038a6115ca565b61038060048036036040811015610a1357600080fd5b506001600160a01b03813516906020013515156115cf565b61028a60048036036020811015610a4157600080fd5b50356001600160a01b03166116d4565b6102a66116ee565b61038060048036036080811015610a6f57600080fd5b6001600160a01b03823581169260208101359091169160408201359190810190608081016060820135600160201b811115610aa957600080fd5b820183602082011115610abb57600080fd5b803590602001918460018302840111600160201b83111715610adc57600080fd5b91908080601f01602080910402602001604051908101604052809392919081815260200183838082843760009201919091525092955061170d945050505050565b6102a660048036036020811015610b3357600080fd5b503561176b565b61038a60048036036020811015610b5057600080fd5b5035611a12565b610338611a29565b61038a611a38565b61038060048036036040811015610b7d57600080fd5b50803590602001356001600160a01b0316611a4a565b61038060048036036020811015610ba957600080fd5b50356001600160a01b0316611aa3565b61038060048036036080811015610bcf57600080fd5b810190602081018135600160201b811115610be957600080fd5b820183602082011115610bfb57600080fd5b803590602001918460018302840111600160201b83111715610c1c57600080fd5b91908080601f01602080910402602001604051908101604052809392919081815260200183838082843760009201919091525092955050505080351515915060208101359060400135611b28565b61028a60048036036040811015610c8057600080fd5b506001600160a01b0381358116916020013516611b8b565b6001600160e01b0319811660009081526098602052604090205460ff165b919050565b60cf8054604080516020601f6002600019610100600188161502019095169490940493840181900481028201810190925282815260609390929091830182828015610d475780601f10610d1c57610100808354040283529160200191610d47565b820191906000526020600020905b815481529060010190602001808311610d2a57829003601f168201915b505050505090505b90565b6000610d5d82611bb9565b610d985760405162461bcd60e51b815260040180806020018281038252602c815260200180612ed4602c913960400191505060405180910390fd5b50600090815260cd60205260409020546001600160a01b031690565b6000610dbf826110ce565b9050806001600160a01b0316836001600160a01b03161415610e125760405162461bcd60e51b8152600401808060200182810382526021815260200180612fb26021913960400191505060405180910390fd5b806001600160a01b0316610e24611bc6565b6001600160a01b03161480610e455750610e4581610e40611bc6565b611b8b565b610e805760405162461bcd60e51b8152600401808060200182810382526038815260200180612e276038913960400191505060405180910390fd5b610e8a8383611bd0565b505050565b6000610e9b60cb611c3e565b905090565b610eb1610eab611bc6565b82611c49565b610eec5760405162461bcd60e51b8152600401808060200182810382526031815260200180612ff76031913960400191505060405180910390fd5b610e8a838383611c5f565b600090815260fc602052604090206002015490565b600082815260fc6020526040902060020154610f2f90610f2a611bc6565b6113e8565b610f6a5760405162461bcd60e51b815260040180806020018281038252602f815260200180612d32602f913960400191505060405180910390fd5b610f748282611dab565b5050565b6001600160a01b038216600090815260ca60205260408120610f9a9083611e14565b90505b92915050565b610fab611bc6565b6001600160a01b0316816001600160a01b031614610ffa5760405162461bcd60e51b815260040180806020018281038252602f815260200180613028602f913960400191505060405180910390fd5b610f748282611e20565b610e8a8383836040518060200160405280600081525061170d565b60008061102d60cb84611e89565b509392505050565b6000611051600080516020612d93833981519152610f2a611bc6565b61109b576040805162461bcd60e51b815260206004820152601660248201527521b0b63632b91034b9903737ba10309036b4b73a32b960511b604482015290519081900360640190fd5b6110a58484611ea5565b6110af8383611fd3565b5060015b9392505050565b6097546001600160a01b0390811691161490565b6000610f9d82604051806060016040528060298152602001612e896029913960cb9190612036565b61012e546001600160a01b031681565b60d28054604080516020601f6002600019610100600188161502019095169490940493840181900481028201810190925282815260609390929091830182828015610d475780601f10610d1c57610100808354040283529160200191610d47565b60006001600160a01b0382166111ae5760405162461bcd60e51b815260040180806020018281038252602a815260200180612e5f602a913960400191505060405180910390fd5b6001600160a01b038216600090815260ca60205260409020610f9d90611c3e565b6065546001600160a01b031690565b600080516020612db383398151915281565b60006111fa6111cf565b6001600160a01b0316336001600160a01b0316146112495760405162461bcd60e51b8152600401808060200182810382526024815260200180612fd36024913960400191505060405180910390fd5b610f9d8261204b565b61125a612051565b565b60006060611268612103565b915091509b509b9950505050505050505050565b600054610100900460ff16806112955750611295612127565b806112a3575060005460ff16155b6112de5760405162461bcd60e51b815260040180806020018281038252602e815260200180612f2c602e913960400191505060405180910390fd5b600054610100900460ff16158015611309576000805460ff1961ff0019909116610100171660011790555b61012e80546001600160a01b0319166001600160a01b03881617905561132f858561212d565b611347600080516020612d9383398151915284610f6a565b61135f600080516020612db383398151915283610f6a565b611385600080516020612d93833981519152600080516020612db3833981519152612228565b61138d611252565b6040517f57a86f7d14ccde89e22870afe839e3011216827daa9b24e18629f0a1e9d6cc1490600090a180156113c8576000805461ff00191690555b505050505050565b600082815260fc60205260408120610f9a9083611e14565b600082815260fc60205260408120610f9a908361223d565b60d08054604080516020601f6002600019610100600188161502019095169490940493840181900481028201810190925282815260609390929091830182828015610d475780601f10610d1c57610100808354040283529160200191610d47565b61147b600080516020612db3833981519152610f2a611bc6565b6114bf576040805162461bcd60e51b815260206004820152601060248201526f21b0b63632b9103737ba1030b236b4b760811b604482015290519081900360640190fd5b6114d7600080516020612d9383398151915282610f0c565b6040516001600160a01b038216907f6ae172837ea30b801fbfcdd4108aa1d5bf8ff775444fd70256b44e6bf3dfc3f690600090a250565b611528600080516020612db3833981519152610f2a611bc6565b61156c576040805162461bcd60e51b815260206004820152601060248201526f21b0b63632b9103737ba1030b236b4b760811b604482015290519081900360640190fd5b61158b600080516020612d93833981519152611586611bc6565b610fa3565b611593611bc6565b6001600160a01b03167fe94479a9f7e1952cc78f2d6baab678adc1b772d936c6583def489e524cb6669260405160405180910390a2565b600081565b6115d7611bc6565b6001600160a01b0316826001600160a01b0316141561163d576040805162461bcd60e51b815260206004820152601960248201527f4552433732313a20617070726f766520746f2063616c6c657200000000000000604482015290519081900360640190fd5b8060ce600061164a611bc6565b6001600160a01b03908116825260208083019390935260409182016000908120918716808252919093529120805460ff19169215159290921790915561168e611bc6565b6001600160a01b03167f17307eab39ab6107e8899845ad3d59bd9653f200f220920489ca2b5937696c318360405180821515815260200191505060405180910390a35050565b6000610f9d600080516020612d93833981519152836113e8565b6040805180820190915260058152640312e302e360dc1b602082015290565b61171e611718611bc6565b83611c49565b6117595760405162461bcd60e51b8152600401808060200182810382526031815260200180612ff76031913960400191505060405180910390fd5b61176584848484612252565b50505050565b606061177682611bb9565b6117b15760405162461bcd60e51b815260040180806020018281038252602f815260200180612f83602f913960400191505060405180910390fd5b600082815260d1602090815260409182902080548351601f60026000196101006001861615020190931692909204918201849004840281018401909452808452606093928301828280156118465780601f1061181b57610100808354040283529160200191611846565b820191906000526020600020905b81548152906001019060200180831161182957829003601f168201915b505060d2549394505050506002600019610100600184161502019091160461186f579050610cb6565b8051156119405760d28160405160200180838054600181600116156101000203166002900480156118d75780601f106118b55761010080835404028352918201916118d7565b820191906000526020600020905b8154815290600101906020018083116118c3575b5050825160208401908083835b602083106119035780518252601f1990920191602091820191016118e4565b6001836020036101000a03801982511681845116808217855250505050505090500192505050604051602081830303815290604052915050610cb6565b60d261194b846122a4565b60405160200180838054600181600116156101000203166002900480156119a95780601f106119875761010080835404028352918201916119a9565b820191906000526020600020905b815481529060010190602001808311611995575b5050825160208401908083835b602083106119d55780518252601f1990920191602091820191016119b6565b6001836020036101000a03801982511681845116808217855250505050505090500192505050604051602081830303815290604052915050919050565b600081815260fc60205260408120610f9d90611c3e565b6097546001600160a01b031690565b600080516020612d9383398151915281565b600082815260fc6020526040902060020154611a6890610f2a611bc6565b610ffa5760405162461bcd60e51b8152600401808060200182810382526030815260200180612df76030913960400191505060405180910390fd5b611abd600080516020612db3833981519152610f2a611bc6565b611b06576040805162461bcd60e51b815260206004820152601560248201527421b0b63632b91034b9903737ba10309030b236b4b760591b604482015290519081900360640190fd5b609780546001600160a01b0319166001600160a01b0392909216919091179055565b611b306111cf565b6001600160a01b0316336001600160a01b031614611b7f5760405162461bcd60e51b8152600401808060200182810382526024815260200180612fd36024913960400191505060405180910390fd5b61176584848484611765565b6001600160a01b03918216600090815260ce6020908152604080832093909416825291909152205460ff1690565b6000610f9d60cb8361237f565b6000610e9b61238b565b600081815260cd6020526040902080546001600160a01b0319166001600160a01b0384169081179091558190611c05826110ce565b6001600160a01b03167f8c5be1e5ebec7d5bd14f71427d1e84f3dd0314c0f7b2291e5b200ac8c7c3b92560405160405180910390a45050565b6000610f9d826123f9565b5061012e546001600160a01b0390811691161490565b826001600160a01b0316611c72826110ce565b6001600160a01b031614611cb75760405162461bcd60e51b8152600401808060200182810382526029815260200180612f5a6029913960400191505060405180910390fd5b6001600160a01b038216611cfc5760405162461bcd60e51b8152600401808060200182810382526024815260200180612dd36024913960400191505060405180910390fd5b611d07838383610e8a565b611d12600082611bd0565b6001600160a01b038316600090815260ca60205260409020611d3490826123fd565b506001600160a01b038216600090815260ca60205260409020611d579082612409565b50611d6460cb8284612415565b5080826001600160a01b0316846001600160a01b03167fddf252ad1be2c89b69c2b068fc378daa952ba7f163c4a11628f55a4df523b3ef60405160405180910390a4505050565b600082815260fc60205260409020611dc3908261242b565b15610f7457611dd0611bc6565b6001600160a01b0316816001600160a01b0316837f2f8788117e7eff1d82e926ec794901d17c78024a50270940304540a733656f0d60405160405180910390a45050565b6000610f9a8383612440565b600082815260fc60205260409020611e3890826124a4565b15610f7457611e45611bc6565b6001600160a01b0316816001600160a01b0316837ff6391f5c32d9c69d2a47ea670b442974b53935d1edc7fd64eb21e047a839171b60405160405180910390a45050565b6000808080611e9886866124b9565b9097909650945050505050565b6001600160a01b038216611f00576040805162461bcd60e51b815260206004820181905260248201527f4552433732313a206d696e7420746f20746865207a65726f2061646472657373604482015290519081900360640190fd5b611f0981611bb9565b15611f5b576040805162461bcd60e51b815260206004820152601c60248201527f4552433732313a20746f6b656e20616c7265616479206d696e74656400000000604482015290519081900360640190fd5b611f6760008383610e8a565b6001600160a01b038216600090815260ca60205260409020611f899082612409565b50611f9660cb8284612415565b5060405181906001600160a01b038416906000907fddf252ad1be2c89b69c2b068fc378daa952ba7f163c4a11628f55a4df523b3ef908290a45050565b611fdc82611bb9565b6120175760405162461bcd60e51b815260040180806020018281038252602c815260200180612f00602c913960400191505060405180910390fd5b600082815260d1602090815260409091208251610e8a92840190612c7c565b6000612043848484612534565b949350505050565b50600090565b600054610100900460ff168061206a575061206a612127565b80612078575060005460ff16155b6120b35760405162461bcd60e51b815260040180806020018281038252602e815260200180612f2c602e913960400191505060405180910390fd5b600054610100900460ff161580156120de576000805460ff1961ff0019909116610100171660011790555b6120e66125fe565b6120ee61269e565b8015612100576000805461ff00191690555b50565b6000606061211f60405180602001604052806000815250612765565b915091509091565b303b1590565b600054610100900460ff16806121465750612146612127565b80612154575060005460ff16155b61218f5760405162461bcd60e51b815260040180806020018281038252602e815260200180612f2c602e913960400191505060405180910390fd5b600054610100900460ff161580156121ba576000805460ff1961ff0019909116610100171660011790555b82516121cd9060cf906020860190612c7c565b5081516121e19060d0906020850190612c7c565b506121f26380ac58cd60e01b61276a565b612202635b5e139f60e01b61276a565b61221263780e9d6360e01b61276a565b8015610e8a576000805461ff0019169055505050565b600091825260fc602052604090912060020155565b6000610f9a836001600160a01b0384166127ee565b61225d848484611c5f565b61226984848484612806565b6117655760405162461bcd60e51b8152600401808060200182810382526032815260200180612d616032913960400191505060405180910390fd5b6060816122c957506040805180820190915260018152600360fc1b6020820152610cb6565b8160005b81156122e157600101600a820491506122cd565b60608167ffffffffffffffff811180156122fa57600080fd5b506040519080825280601f01601f191660200182016040528015612325576020820181803683370190505b50859350905060001982015b831561237657600a840660300160f81b8282806001900393508151811061235457fe5b60200101906001600160f81b031916908160001a905350600a84049350612331565b50949350505050565b6000610f9a83836127ee565b6000601836108015906123a257506123a2336110ba565b156123f4576123ed6000368080601f0160208091040260200160405190810160405280939291908181526020018383808284376000920191909152505060131936019150612a2f9050565b9050610d4f565b503390565b5490565b6000610f9a8383612a9c565b6000610f9a8383612b62565b600061204384846001600160a01b038516612bac565b6000610f9a836001600160a01b038416612b62565b815460009082106124825760405162461bcd60e51b8152600401808060200182810382526022815260200180612d106022913960400191505060405180910390fd5b82600001828154811061249157fe5b9060005260206000200154905092915050565b6000610f9a836001600160a01b038416612a9c565b8154600090819083106124fd5760405162461bcd60e51b8152600401808060200182810382526022815260200180612eb26022913960400191505060405180910390fd5b600084600001848154811061250e57fe5b906000526020600020906002020190508060000154816001015492509250509250929050565b600082815260018401602052604081205482816125cf5760405162461bcd60e51b81526004018080602001828103825283818151815260200191508051906020019080838360005b8381101561259457818101518382015260200161257c565b50505050905090810190601f1680156125c15780820380516001836020036101000a031916815260200191505b509250505060405180910390fd5b508460000160018203815481106125e257fe5b9060005260206000209060020201600101549150509392505050565b600054610100900460ff16806126175750612617612127565b80612625575060005460ff16155b6126605760405162461bcd60e51b815260040180806020018281038252602e815260200180612f2c602e913960400191505060405180910390fd5b600054610100900460ff161580156120ee576000805460ff1961ff0019909116610100171660011790558015612100576000805461ff001916905550565b600054610100900460ff16806126b757506126b7612127565b806126c5575060005460ff16155b6127005760405162461bcd60e51b815260040180806020018281038252602e815260200180612f2c602e913960400191505060405180910390fd5b600054610100900460ff1615801561272b576000805460ff1961ff0019909116610100171660011790555b606580546001600160a01b03191673d216153c06e857cd7f72665e0af1d7d82172f4941790558015612100576000805461ff001916905550565b600091565b6001600160e01b031980821614156127c9576040805162461bcd60e51b815260206004820152601c60248201527f4552433136353a20696e76616c696420696e7465726661636520696400000000604482015290519081900360640190fd5b6001600160e01b0319166000908152609860205260409020805460ff19166001179055565b60009081526001919091016020526040902054151590565b600061281a846001600160a01b0316612c43565b61282657506001612043565b600060606001600160a01b038616630a85bd0160e11b612844611bc6565b89888860405160240180856001600160a01b03168152602001846001600160a01b0316815260200183815260200180602001828103825283818151815260200191508051906020019080838360005b838110156128ab578181015183820152602001612893565b50505050905090810190601f1680156128d85780820380516001836020036101000a031916815260200191505b5060408051601f198184030181529181526020820180516001600160e01b03166001600160e01b0319909a16999099178952518151919890975087965094509250829150849050835b602083106129405780518252601f199092019160209182019101612921565b6001836020036101000a0380198251168184511680821785525050505050509050019150506000604051808303816000865af19150503d80600081146129a2576040519150601f19603f3d011682016040523d82523d6000602084013e6129a7565b606091505b5091509150816129f8578051156129c15780518082602001fd5b60405162461bcd60e51b8152600401808060200182810382526032815260200180612d616032913960400191505060405180910390fd5b6000818060200190516020811015612a0f57600080fd5b50516001600160e01b031916630a85bd0160e11b14935061204392505050565b60008160140183511015612a8a576040805162461bcd60e51b815260206004820152601b60248201527f72656164416464726573733a206461746120746f6f2073686f72740000000000604482015290519081900360640190fd5b5001601401516001600160a01b031690565b60008181526001830160205260408120548015612b585783546000198083019190810190600090879083908110612acf57fe5b9060005260206000200154905080876000018481548110612aec57fe5b600091825260208083209091019290925582815260018981019092526040902090840190558654879080612b1c57fe5b60019003818190600052602060002001600090559055866001016000878152602001908152602001600020600090556001945050505050610f9d565b6000915050610f9d565b6000612b6e83836127ee565b612ba457508154600181810184556000848152602080822090930184905584548482528286019093526040902091909155610f9d565b506000610f9d565b600082815260018401602052604081205480612c115750506040805180820182528381526020808201848152865460018181018955600089815284812095516002909302909501918255915190820155865486845281880190925292909120556110b3565b82856000016001830381548110612c2457fe5b90600052602060002090600202016001018190555060009150506110b3565b6000813f7fc5d2460186f7233c927e7db2dcc703c0e500b653ca82273b7bfad8045d85a470818114801590612043575050151592915050565b828054600181600116156101000203166002900490600052602060002090601f016020900481019282601f10612cbd57805160ff1916838001178555612cea565b82800160010185558215612cea579182015b82811115612cea578251825591602001919060010190612ccf565b50612cf6929150612cfa565b5090565b5b80821115612cf65760008155600101612cfb56fe456e756d657261626c655365743a20696e646578206f7574206f6620626f756e6473416363657373436f6e74726f6c3a2073656e646572206d75737420626520616e2061646d696e20746f206772616e744552433732313a207472616e7366657220746f206e6f6e20455243373231526563656976657220696d706c656d656e74657239eb9ec2059d897c44a17440c762c429de204f6fddd727156ca52b8da086a6f7f23ec0bb4210edd5cba85afd05127efcd2fc6a781bfed49188da1081670b22d84552433732313a207472616e7366657220746f20746865207a65726f2061646472657373416363657373436f6e74726f6c3a2073656e646572206d75737420626520616e2061646d696e20746f207265766f6b654552433732313a20617070726f76652063616c6c6572206973206e6f74206f776e6572206e6f7220617070726f76656420666f7220616c6c4552433732313a2062616c616e636520717565727920666f7220746865207a65726f20616464726573734552433732313a206f776e657220717565727920666f72206e6f6e6578697374656e7420746f6b656e456e756d657261626c654d61703a20696e646578206f7574206f6620626f756e64734552433732313a20617070726f76656420717565727920666f72206e6f6e6578697374656e7420746f6b656e4552433732314d657461646174613a2055524920736574206f66206e6f6e6578697374656e7420746f6b656e436f6e747261637420696e7374616e63652068617320616c7265616479206265656e20696e697469616c697a65644552433732313a207472616e73666572206f6620746f6b656e2074686174206973206e6f74206f776e4552433732314d657461646174613a2055524920717565727920666f72206e6f6e6578697374656e7420746f6b656e4552433732313a20617070726f76616c20746f2063757272656e74206f776e657247534e526563697069656e743a2063616c6c6572206973206e6f742052656c61794875624552433732313a207472616e736665722063616c6c6572206973206e6f74206f776e6572206e6f7220617070726f766564416363657373436f6e74726f6c3a2063616e206f6e6c792072656e6f756e636520726f6c657320666f722073656c66a26469706673582212200dc1e6849393cccff393184996afbe24dbbca3b72207f255cac0c9de7312499464736f6c634300060c0033",
  "immutableReferences": {},
  "source": "pragma solidity 0.6.12;\n\nimport \"./mod/ERC721.sol\";\nimport \"../vendered/@openzeppelin/contracts-ethereum-package-3.0.0/contracts/access/AccessControl.sol\";\nimport \"./GSNRecipientBase.sol\";\n\nimport \"../vendered/gsn-2.0.0-beta.1.3/contracts/interfaces/IKnowForwarderAddressGsn.sol\";\n\n// import \"./WildcardSteward_v1.sol\";\ncontract ERC721Patronage_v1 is\n    GSNRecipientBase,\n    ERC721UpgradeSafe,\n    AccessControlUpgradeSafe,\n    IKnowForwarderAddressGsn\n{\n    address public steward;\n    bytes32 public constant MINTER_ROLE = keccak256(\"minter\");\n    bytes32 public constant ADMIN_ROLE = keccak256(\"admin\");\n\n    event Init();\n    event MinterAdded(address indexed account);\n    event MinterRemoved(address indexed account);\n\n    function _msgSender()\n        internal\n        override(ContextUpgradeSafe, GSNRecipientBase)\n        view\n        returns (address payable)\n    {\n        return GSNRecipientBase._msgSender();\n    }\n\n    function _msgData()\n        internal\n        override(ContextUpgradeSafe, GSNRecipientBase)\n        view\n        returns (bytes memory)\n    {\n        return GSNRecipientBase._msgData();\n    }\n\n    function setup(\n        address _steward,\n        string memory name,\n        string memory symbol,\n        address minter,\n        address admin\n    ) public initializer {\n        steward = _steward;\n        ERC721UpgradeSafe.__ERC721_init_unchained(name, symbol);\n        _setupRole(MINTER_ROLE, minter);\n        _setupRole(ADMIN_ROLE, admin);\n        _setRoleAdmin(MINTER_ROLE, ADMIN_ROLE);\n\n        GSNRecipientBase.initialize();\n\n        emit Init();\n    }\n\n    // function mint(address to, uint256) public {\n    //     require(hasRole(MINTER_ROLE, _msgSender()), \"Caller is not a minter\");\n    //     _mint(to, amount);\n    // }\n\n    function mintWithTokenURI(\n        address to,\n        uint256 tokenId,\n        string memory tokenURI\n    ) public returns (bool) {\n        require(hasRole(MINTER_ROLE, _msgSender()), \"Caller is not a minter\");\n\n        _mint(to, tokenId);\n        _setTokenURI(tokenId, tokenURI);\n        return true;\n    }\n\n    function isMinter(address account) public view returns (bool) {\n        return hasRole(MINTER_ROLE, account);\n    }\n\n    function _isApprovedOrOwner(address spender, uint256 tokenId)\n        internal\n        override\n        view\n        returns (bool)\n    {\n        return (spender == steward);\n        /*\n          // NOTE: temporarily disabling sending of the tokens independently. A protective messure since it isn't clear to users how this function should work.\n          //       Will re-add once a mechanism is agreed on by the community.\n          || ERC721._isApprovedOrOwner(spender, tokenId)\n          */\n    }\n\n    function addMinter(address minter) public {\n        require(hasRole(ADMIN_ROLE, _msgSender()), \"Caller not admin\");\n        grantRole(MINTER_ROLE, minter);\n\n        emit MinterAdded(minter);\n    }\n\n    function renounceMinter() public {\n        require(hasRole(ADMIN_ROLE, _msgSender()), \"Caller not admin\");\n        renounceRole(MINTER_ROLE, _msgSender());\n\n        emit MinterRemoved(_msgSender());\n    }\n\n    // function transferFrom(address from, address to, uint256 tokenId) public {\n    //     if (_msgSender() != steward) {\n    //         WildcardSteward_v1 stewardContract = WildcardSteward_v1(steward);\n\n    //         // Calculate remaining deposit for the two addresses involved in transfer.\n    //         stewardContract._collectPatronagePatron(to);\n    //         stewardContract._collectPatronage(tokenId);\n\n    //         // Do not allow someone to transfer a token if their deposit is Zero.\n    //         require(stewardContract.deposit(to) > 0, \"Recipient needs to have a deposit.\");\n    //         require(stewardContract.deposit(from) > 0, \"Sender deposit has run out.\");\n    //     }\n\n    //     ERC721.transferFrom(from, to, tokenId);\n    // }\n\n    function getTrustedForwarder() public override view returns (address) {\n        return trustedForwarder;\n    }\n\n    function setTrustedForwarder(address forwarder) public {\n        require(hasRole(ADMIN_ROLE, _msgSender()), \"Caller is not a admin\");\n\n        trustedForwarder = forwarder;\n    }\n}\n",
  "sourcePath": "/home/jasoons/Documents/code/contracts/contracts/ERC721Patronage_v1.sol",
  "compiler": {
    "name": "solc",
    "version": "0.6.12+commit.27d51765.Emscripten.clang"
  },
  "schemaVersion": "3.2.3",
  "updatedAt": "2020-11-09T10:37:07.464Z",
  "networkType": "ethereum",
  "devdoc": {
    "kind": "dev",
    "methods": {
      "acceptRelayedCall(address,address,bytes,uint256,uint256,uint256,uint256,bytes,uint256)": {
        "details": "Called by {IRelayHub} to validate if this recipient accepts being charged for a relayed call. Note that the recipient will be charged regardless of the execution result of the relayed call (i.e. if it reverts or not). The relay request was originated by `from` and will be served by `relay`. `encodedFunction` is the relayed call calldata, so its first four bytes are the function selector. The relayed call will be forwarded `gasLimit` gas, and the transaction executed with a gas price of at least `gasPrice`. ``relay``'s fee is `transactionFee`, and the recipient will be charged at most `maxPossibleCharge` (in wei). `nonce` is the sender's (`from`) nonce for replay attack protection in {IRelayHub}, and `approvalData` is a optional parameter that can be used to hold a signature over all or some of the previous values. Returns a tuple, where the first value is used to indicate approval (0) or rejection (custom non-zero error code, values 1 to 10 are reserved) and the second one is data to be passed to the other {IRelayRecipient} functions. {acceptRelayedCall} is called with 50k gas: if it runs out during execution, the request will be considered rejected. A regular revert will also trigger a rejection."
      },
      "approve(address,uint256)": {
        "details": "Approves another address to transfer the given token ID The zero address indicates there is no approved address. There can only be one approved address per token at a given time. Can only be called by the token owner or an approved operator.",
        "params": {
          "to": "address to be approved for the given token ID",
          "tokenId": "uint256 ID of the token to be approved"
        }
      },
      "balanceOf(address)": {
        "details": "Gets the balance of the specified address.",
        "params": {
          "owner": "address to query the balance of"
        },
        "returns": {
          "_0": "uint256 representing the amount owned by the passed address"
        }
      },
      "baseURI()": {
        "details": "Returns the base URI set via {_setBaseURI}. This will be automatically added as a prefix in {tokenURI} to each token's URI, or to the token ID if no specific URI is set for that token ID."
      },
      "getApproved(uint256)": {
        "details": "Gets the approved address for a token ID, or zero if no address set Reverts if the token ID does not exist.",
        "params": {
          "tokenId": "uint256 ID of the token to query the approval of"
        },
        "returns": {
          "_0": "address currently approved for the given token ID"
        }
      },
      "getHubAddr()": {
        "details": "Returns the address of the {IRelayHub} contract for this recipient."
      },
      "getRoleAdmin(bytes32)": {
        "details": "Returns the admin role that controls `role`. See {grantRole} and {revokeRole}. To change a role's admin, use {_setRoleAdmin}."
      },
      "getRoleMember(bytes32,uint256)": {
        "details": "Returns one of the accounts that have `role`. `index` must be a value between 0 and {getRoleMemberCount}, non-inclusive. Role bearers are not sorted in any particular way, and their ordering may change at any point. WARNING: When using {getRoleMember} and {getRoleMemberCount}, make sure you perform all queries on the same block. See the following https://forum.openzeppelin.com/t/iterating-over-elements-on-enumerableset-in-openzeppelin-contracts/2296[forum post] for more information."
      },
      "getRoleMemberCount(bytes32)": {
        "details": "Returns the number of accounts that have `role`. Can be used together with {getRoleMember} to enumerate all bearers of a role."
      },
      "grantRole(bytes32,address)": {
        "details": "Grants `role` to `account`. If `account` had not been already granted `role`, emits a {RoleGranted} event. Requirements: - the caller must have ``role``'s admin role."
      },
      "hasRole(bytes32,address)": {
        "details": "Returns `true` if `account` has been granted `role`."
      },
      "isApprovedForAll(address,address)": {
        "details": "Tells whether an operator is approved by a given owner.",
        "params": {
          "operator": "operator address which you want to query the approval of",
          "owner": "owner address which you want to query the approval of"
        },
        "returns": {
          "_0": "bool whether the given operator is approved by the given owner"
        }
      },
      "name()": {
        "details": "Gets the token name.",
        "returns": {
          "_0": "string representing the token name"
        }
      },
      "ownerOf(uint256)": {
        "details": "Gets the owner of the specified token ID.",
        "params": {
          "tokenId": "uint256 ID of the token to query the owner of"
        },
        "returns": {
          "_0": "address currently marked as the owner of the given token ID"
        }
      },
      "postRelayedCall(bytes,bool,uint256,bytes32)": {
        "details": "See `IRelayRecipient.postRelayedCall`. This function should not be overriden directly, use `_postRelayedCall` instead. * Requirements: - the caller must be the `RelayHub` contract."
      },
      "preRelayedCall(bytes)": {
        "details": "See `IRelayRecipient.preRelayedCall`. This function should not be overriden directly, use `_preRelayedCall` instead. * Requirements: - the caller must be the `RelayHub` contract."
      },
      "relayHubVersion()": {
        "details": "Returns the version string of the {IRelayHub} for which this recipient implementation was built. If {_upgradeRelayHub} is used, the new {IRelayHub} instance should be compatible with this version."
      },
      "renounceRole(bytes32,address)": {
        "details": "Revokes `role` from the calling account. Roles are often managed via {grantRole} and {revokeRole}: this function's purpose is to provide a mechanism for accounts to lose their privileges if they are compromised (such as when a trusted device is misplaced). If the calling account had been granted `role`, emits a {RoleRevoked} event. Requirements: - the caller must be `account`."
      },
      "revokeRole(bytes32,address)": {
        "details": "Revokes `role` from `account`. If `account` had been granted `role`, emits a {RoleRevoked} event. Requirements: - the caller must have ``role``'s admin role."
      },
      "safeTransferFrom(address,address,uint256)": {
        "details": "Safely transfers the ownership of a given token ID to another address If the target address is a contract, it must implement {IERC721Receiver-onERC721Received}, which is called upon a safe transfer, and return the magic value `bytes4(keccak256(\"onERC721Received(address,address,uint256,bytes)\"))`; otherwise, the transfer is reverted. Requires the _msgSender() to be the owner, approved, or operator",
        "params": {
          "from": "current owner of the token",
          "to": "address to receive the ownership of the given token ID",
          "tokenId": "uint256 ID of the token to be transferred"
        }
      },
      "safeTransferFrom(address,address,uint256,bytes)": {
        "details": "Safely transfers the ownership of a given token ID to another address If the target address is a contract, it must implement {IERC721Receiver-onERC721Received}, which is called upon a safe transfer, and return the magic value `bytes4(keccak256(\"onERC721Received(address,address,uint256,bytes)\"))`; otherwise, the transfer is reverted. Requires the _msgSender() to be the owner, approved, or operator",
        "params": {
          "_data": "bytes data to send along with a safe transfer check",
          "from": "current owner of the token",
          "to": "address to receive the ownership of the given token ID",
          "tokenId": "uint256 ID of the token to be transferred"
        }
      },
      "setApprovalForAll(address,bool)": {
        "details": "Sets or unsets the approval of a given operator An operator is allowed to transfer all tokens of the sender on their behalf.",
        "params": {
          "approved": "representing the status of the approval to be set",
          "operator": "operator address to set the approval"
        }
      },
      "supportsInterface(bytes4)": {
        "details": "See {IERC165-supportsInterface}. Time complexity O(1), guaranteed to always use less than 30 000 gas."
      },
      "symbol()": {
        "details": "Gets the token symbol.",
        "returns": {
          "_0": "string representing the token symbol"
        }
      },
      "tokenByIndex(uint256)": {
        "details": "Gets the token ID at a given index of all the tokens in this contract Reverts if the index is greater or equal to the total number of tokens.",
        "params": {
          "index": "uint256 representing the index to be accessed of the tokens list"
        },
        "returns": {
          "_0": "uint256 token ID at the given index of the tokens list"
        }
      },
      "tokenOfOwnerByIndex(address,uint256)": {
        "details": "Gets the token ID at a given index of the tokens list of the requested owner.",
        "params": {
          "index": "uint256 representing the index to be accessed of the requested tokens list",
          "owner": "address owning the tokens list to be accessed"
        },
        "returns": {
          "_0": "uint256 token ID at the given index of the tokens list owned by the requested address"
        }
      },
      "tokenURI(uint256)": {
        "details": "Returns the URI for a given token ID. May return an empty string. If a base URI is set (via {_setBaseURI}), it is added as a prefix to the token's own URI (via {_setTokenURI}). If there is a base URI but no token URI, the token's ID will be used as its URI when appending it to the base URI. This pattern for autogenerated token URIs can lead to large gas savings. .Examples |=== |`_setBaseURI()` |`_setTokenURI()` |`tokenURI()` | \"\" | \"\" | \"\" | \"\" | \"token.uri/123\" | \"token.uri/123\" | \"token.uri/\" | \"123\" | \"token.uri/123\" | \"token.uri/\" | \"\" | \"token.uri/<tokenId>\" |=== Requirements: - `tokenId` must exist."
      },
      "totalSupply()": {
        "details": "Gets the total amount of tokens stored by the contract.",
        "returns": {
          "_0": "uint256 representing the total amount of tokens"
        }
      },
      "transferFrom(address,address,uint256)": {
        "details": "Transfers the ownership of a given token ID to another address. Usage of this method is discouraged, use {safeTransferFrom} whenever possible. Requires the _msgSender() to be the owner, approved, or operator.",
        "params": {
          "from": "current owner of the token",
          "to": "address to receive the ownership of the given token ID",
          "tokenId": "uint256 ID of the token to be transferred"
        }
      }
    },
    "version": 1
  },
  "userdoc": {
    "kind": "user",
    "methods": {
      "getTrustedForwarder()": {
        "notice": "return the forwarder we trust to forward relayed transactions to us. the forwarder is required to verify the sender's signature, and verify the call is not a replay."
      }
    },
    "version": 1
  }
}